{
	"contracts/manage.sol": {
		"ECR20_PToken": {
			"abi": [
				{
					"inputs": [
						{
							"internalType": "string",
							"name": "_name",
							"type": "string"
						},
						{
							"internalType": "string",
							"name": "_symbol",
							"type": "string"
						},
						{
							"internalType": "uint8",
							"name": "_decimals",
							"type": "uint8"
						},
						{
							"internalType": "uint256",
							"name": "_totalSupply",
							"type": "uint256"
						},
						{
							"internalType": "uint256",
							"name": "daiRatio_",
							"type": "uint256"
						},
						{
							"internalType": "uint256",
							"name": "usdcRatio_",
							"type": "uint256"
						},
						{
							"internalType": "uint256",
							"name": "linkRatio_",
							"type": "uint256"
						},
						{
							"internalType": "uint256",
							"name": "customIPRate",
							"type": "uint256"
						}
					],
					"stateMutability": "nonpayable",
					"type": "constructor"
				},
				{
					"anonymous": false,
					"inputs": [
						{
							"indexed": true,
							"internalType": "address",
							"name": "from",
							"type": "address"
						},
						{
							"indexed": true,
							"internalType": "address",
							"name": "to",
							"type": "address"
						},
						{
							"indexed": false,
							"internalType": "uint256",
							"name": "value",
							"type": "uint256"
						}
					],
					"name": "Transfer",
					"type": "event"
				},
				{
					"inputs": [
						{
							"internalType": "address",
							"name": "",
							"type": "address"
						}
					],
					"name": "balanceOf",
					"outputs": [
						{
							"internalType": "uint256",
							"name": "",
							"type": "uint256"
						}
					],
					"stateMutability": "view",
					"type": "function"
				},
				{
					"inputs": [
						{
							"internalType": "uint256",
							"name": "amount",
							"type": "uint256"
						}
					],
					"name": "burn",
					"outputs": [],
					"stateMutability": "nonpayable",
					"type": "function"
				},
				{
					"inputs": [],
					"name": "daiPriceFeed",
					"outputs": [
						{
							"internalType": "contract AggregatorV3Interface",
							"name": "",
							"type": "address"
						}
					],
					"stateMutability": "view",
					"type": "function"
				},
				{
					"inputs": [],
					"name": "daiRatio",
					"outputs": [
						{
							"internalType": "uint256",
							"name": "",
							"type": "uint256"
						}
					],
					"stateMutability": "view",
					"type": "function"
				},
				{
					"inputs": [],
					"name": "daiToken",
					"outputs": [
						{
							"internalType": "contract IERC20",
							"name": "",
							"type": "address"
						}
					],
					"stateMutability": "view",
					"type": "function"
				},
				{
					"inputs": [],
					"name": "decimals",
					"outputs": [
						{
							"internalType": "uint8",
							"name": "",
							"type": "uint8"
						}
					],
					"stateMutability": "view",
					"type": "function"
				},
				{
					"inputs": [],
					"name": "getLatestPrice",
					"outputs": [
						{
							"internalType": "uint256",
							"name": "",
							"type": "uint256"
						}
					],
					"stateMutability": "view",
					"type": "function"
				},
				{
					"inputs": [],
					"name": "getOwnerBalanceOf",
					"outputs": [
						{
							"internalType": "uint256",
							"name": "",
							"type": "uint256"
						}
					],
					"stateMutability": "view",
					"type": "function"
				},
				{
					"inputs": [],
					"name": "linkPriceFeed",
					"outputs": [
						{
							"internalType": "contract AggregatorV3Interface",
							"name": "",
							"type": "address"
						}
					],
					"stateMutability": "view",
					"type": "function"
				},
				{
					"inputs": [],
					"name": "linkRatio",
					"outputs": [
						{
							"internalType": "uint256",
							"name": "",
							"type": "uint256"
						}
					],
					"stateMutability": "view",
					"type": "function"
				},
				{
					"inputs": [],
					"name": "linkToken",
					"outputs": [
						{
							"internalType": "contract IERC20",
							"name": "",
							"type": "address"
						}
					],
					"stateMutability": "view",
					"type": "function"
				},
				{
					"inputs": [
						{
							"internalType": "uint256",
							"name": "amount",
							"type": "uint256"
						}
					],
					"name": "mint",
					"outputs": [],
					"stateMutability": "nonpayable",
					"type": "function"
				},
				{
					"inputs": [],
					"name": "name",
					"outputs": [
						{
							"internalType": "string",
							"name": "",
							"type": "string"
						}
					],
					"stateMutability": "view",
					"type": "function"
				},
				{
					"inputs": [],
					"name": "owner",
					"outputs": [
						{
							"internalType": "address",
							"name": "",
							"type": "address"
						}
					],
					"stateMutability": "view",
					"type": "function"
				},
				{
					"inputs": [],
					"name": "symbol",
					"outputs": [
						{
							"internalType": "string",
							"name": "",
							"type": "string"
						}
					],
					"stateMutability": "view",
					"type": "function"
				},
				{
					"inputs": [],
					"name": "totalSupply",
					"outputs": [
						{
							"internalType": "uint256",
							"name": "",
							"type": "uint256"
						}
					],
					"stateMutability": "view",
					"type": "function"
				},
				{
					"inputs": [
						{
							"internalType": "address",
							"name": "recipient",
							"type": "address"
						},
						{
							"internalType": "uint256",
							"name": "amount",
							"type": "uint256"
						}
					],
					"name": "transfer",
					"outputs": [
						{
							"internalType": "bool",
							"name": "",
							"type": "bool"
						}
					],
					"stateMutability": "nonpayable",
					"type": "function"
				},
				{
					"inputs": [],
					"name": "usdcPriceFeed",
					"outputs": [
						{
							"internalType": "contract AggregatorV3Interface",
							"name": "",
							"type": "address"
						}
					],
					"stateMutability": "view",
					"type": "function"
				},
				{
					"inputs": [],
					"name": "usdcRatio",
					"outputs": [
						{
							"internalType": "uint256",
							"name": "",
							"type": "uint256"
						}
					],
					"stateMutability": "view",
					"type": "function"
				},
				{
					"inputs": [],
					"name": "usdcToken",
					"outputs": [
						{
							"internalType": "contract IERC20",
							"name": "",
							"type": "address"
						}
					],
					"stateMutability": "view",
					"type": "function"
				}
			],
			"devdoc": {
				"kind": "dev",
				"methods": {},
				"version": 1
			},
			"evm": {
				"assembly": "    /* \"contracts/manage.sol\":590:4280  contract ECR20_PToken is IERC20 {... */\n  mstore(0x40, 0x80)\n    /* \"contracts/manage.sol\":857:899  0x82fb927676b53b6eE07904780c7be9b4B50dB80b */\n  0x82fb927676b53b6ee07904780c7be9b4b50db80b\n    /* \"contracts/manage.sol\":825:900  IERC20 public daiToken = IERC20(0x82fb927676b53b6eE07904780c7be9b4B50dB80b) */\n  0x06\n  exp(0x0100, 0x00)\n  dup2\n  sload\n  dup2\n  0xffffffffffffffffffffffffffffffffffffffff\n  mul\n  not\n  and\n  swap1\n  dup4\n  0xffffffffffffffffffffffffffffffffffffffff\n  and\n  mul\n  or\n  swap1\n  sstore\n  pop\n    /* \"contracts/manage.sol\":966:1008  0x2B0974b96511a728CA6342597471366D3444Aa2a */\n  0x2b0974b96511a728ca6342597471366d3444aa2a\n    /* \"contracts/manage.sol\":933:1009  IERC20 public usdcToken = IERC20(0x2B0974b96511a728CA6342597471366D3444Aa2a) */\n  0x07\n  exp(0x0100, 0x00)\n  dup2\n  sload\n  dup2\n  0xffffffffffffffffffffffffffffffffffffffff\n  mul\n  not\n  and\n  swap1\n  dup4\n  0xffffffffffffffffffffffffffffffffffffffff\n  and\n  mul\n  or\n  swap1\n  sstore\n  pop\n    /* \"contracts/manage.sol\":1076:1118  0x6B904451abABB342D2b787C5126C6361dD815246 */\n  0x6b904451ababb342d2b787c5126c6361dd815246\n    /* \"contracts/manage.sol\":1043:1119  IERC20 public linkToken = IERC20(0x6B904451abABB342D2b787C5126C6361dD815246) */\n  0x08\n  exp(0x0100, 0x00)\n  dup2\n  sload\n  dup2\n  0xffffffffffffffffffffffffffffffffffffffff\n  mul\n  not\n  and\n  swap1\n  dup4\n  0xffffffffffffffffffffffffffffffffffffffff\n  and\n  mul\n  or\n  swap1\n  sstore\n  pop\n    /* \"contracts/manage.sol\":1316:1358  0x14866185B1962B63C3Ea9E03Bc1da838bab34C19 */\n  0x14866185b1962b63c3ea9e03bc1da838bab34c19\n    /* \"contracts/manage.sol\":1250:1359  AggregatorV3Interface public daiPriceFeed = AggregatorV3Interface(0x14866185B1962B63C3Ea9E03Bc1da838bab34C19) */\n  0x0c\n  exp(0x0100, 0x00)\n  dup2\n  sload\n  dup2\n  0xffffffffffffffffffffffffffffffffffffffff\n  mul\n  not\n  and\n  swap1\n  dup4\n  0xffffffffffffffffffffffffffffffffffffffff\n  and\n  mul\n  or\n  swap1\n  sstore\n  pop\n    /* \"contracts/manage.sol\":1455:1497  0xA2F78ab2355fe2f984D808B5CeE7FD0A93D5270E */\n  0xa2f78ab2355fe2f984d808b5cee7fd0a93d5270e\n    /* \"contracts/manage.sol\":1388:1498  AggregatorV3Interface public usdcPriceFeed = AggregatorV3Interface(0xA2F78ab2355fe2f984D808B5CeE7FD0A93D5270E) */\n  0x0d\n  exp(0x0100, 0x00)\n  dup2\n  sload\n  dup2\n  0xffffffffffffffffffffffffffffffffffffffff\n  mul\n  not\n  and\n  swap1\n  dup4\n  0xffffffffffffffffffffffffffffffffffffffff\n  and\n  mul\n  or\n  swap1\n  sstore\n  pop\n    /* \"contracts/manage.sol\":1595:1637  0xc59E3633BAAC79493d908e63626716e204A45EdF */\n  0xc59e3633baac79493d908e63626716e204a45edf\n    /* \"contracts/manage.sol\":1528:1638  AggregatorV3Interface public linkPriceFeed = AggregatorV3Interface(0xc59E3633BAAC79493d908e63626716e204A45EdF) */\n  0x0e\n  exp(0x0100, 0x00)\n  dup2\n  sload\n  dup2\n  0xffffffffffffffffffffffffffffffffffffffff\n  mul\n  not\n  and\n  swap1\n  dup4\n  0xffffffffffffffffffffffffffffffffffffffff\n  and\n  mul\n  or\n  swap1\n  sstore\n  pop\n    /* \"contracts/manage.sol\":1780:2588  constructor(... */\n  callvalue\n  dup1\n  iszero\n  tag_1\n  jumpi\n  0x00\n  dup1\n  revert\ntag_1:\n  pop\n  mload(0x40)\n  sub(codesize, bytecodeSize)\n  dup1\n  bytecodeSize\n  dup4\n  codecopy\n  dup2\n  dup2\n  add\n  0x40\n  mstore\n  dup2\n  add\n  swap1\n  tag_2\n  swap2\n  swap1\n  tag_3\n  jump\t// in\ntag_2:\n    /* \"contracts/manage.sol\":2117:2120  100 */\n  0x64\n    /* \"contracts/manage.sol\":2103:2113  linkRatio_ */\n  dup3\n    /* \"contracts/manage.sol\":2090:2100  usdcRatio_ */\n  dup5\n    /* \"contracts/manage.sol\":2078:2087  daiRatio_ */\n  dup7\n    /* \"contracts/manage.sol\":2078:2100  daiRatio_ + usdcRatio_ */\n  tag_6\n  swap2\n  swap1\n  tag_7\n  jump\t// in\ntag_6:\n    /* \"contracts/manage.sol\":2078:2113  daiRatio_ + usdcRatio_ + linkRatio_ */\n  tag_8\n  swap2\n  swap1\n  tag_7\n  jump\t// in\ntag_8:\n    /* \"contracts/manage.sol\":2078:2120  daiRatio_ + usdcRatio_ + linkRatio_ == 100 */\n  eq\n    /* \"contracts/manage.sol\":2070:2149  require(daiRatio_ + usdcRatio_ + linkRatio_ == 100, \"Total ratio must be 100%\") */\n  tag_9\n  jumpi\n  mload(0x40)\n  0x08c379a000000000000000000000000000000000000000000000000000000000\n  dup2\n  mstore\n  0x04\n  add\n  tag_10\n  swap1\n  tag_11\n  jump\t// in\ntag_10:\n  mload(0x40)\n  dup1\n  swap2\n  sub\n  swap1\n  revert\ntag_9:\n    /* \"contracts/manage.sol\":2169:2174  _name */\n  dup8\n    /* \"contracts/manage.sol\":2162:2166  name */\n  0x00\n    /* \"contracts/manage.sol\":2162:2174  name = _name */\n  swap1\n  dup2\n  tag_12\n  swap2\n  swap1\n  tag_13\n  jump\t// in\ntag_12:\n  pop\n    /* \"contracts/manage.sol\":2194:2201  _symbol */\n  dup7\n    /* \"contracts/manage.sol\":2185:2191  symbol */\n  0x01\n    /* \"contracts/manage.sol\":2185:2201  symbol = _symbol */\n  swap1\n  dup2\n  tag_14\n  swap2\n  swap1\n  tag_13\n  jump\t// in\ntag_14:\n  pop\n    /* \"contracts/manage.sol\":2223:2232  _decimals */\n  dup6\n    /* \"contracts/manage.sol\":2212:2220  decimals */\n  0x02\n  0x00\n    /* \"contracts/manage.sol\":2212:2232  decimals = _decimals */\n  0x0100\n  exp\n  dup2\n  sload\n  dup2\n  0xff\n  mul\n  not\n  and\n  swap1\n  dup4\n  0xff\n  and\n  mul\n  or\n  swap1\n  sstore\n  pop\n    /* \"contracts/manage.sol\":2277:2285  decimals */\n  0x02\n  0x00\n  swap1\n  sload\n  swap1\n  0x0100\n  exp\n  swap1\n  div\n  0xff\n  and\n    /* \"contracts/manage.sol\":2271:2273  10 */\n  0x0a\n    /* \"contracts/manage.sol\":2271:2285  10 ** decimals */\n  tag_15\n  swap2\n  swap1\n  tag_16\n  jump\t// in\ntag_15:\n    /* \"contracts/manage.sol\":2257:2269  _totalSupply */\n  dup6\n    /* \"contracts/manage.sol\":2257:2286  _totalSupply*(10 ** decimals) */\n  tag_17\n  swap2\n  swap1\n  tag_18\n  jump\t// in\ntag_17:\n    /* \"contracts/manage.sol\":2243:2254  totalSupply */\n  0x03\n    /* \"contracts/manage.sol\":2243:2286  totalSupply = _totalSupply*(10 ** decimals) */\n  dup2\n  swap1\n  sstore\n  pop\n    /* \"contracts/manage.sol\":2341:2349  decimals */\n  0x02\n  0x00\n  swap1\n  sload\n  swap1\n  0x0100\n  exp\n  swap1\n  div\n  0xff\n  and\n    /* \"contracts/manage.sol\":2335:2337  10 */\n  0x0a\n    /* \"contracts/manage.sol\":2335:2349  10 ** decimals */\n  tag_19\n  swap2\n  swap1\n  tag_16\n  jump\t// in\ntag_19:\n    /* \"contracts/manage.sol\":2321:2333  _totalSupply */\n  dup6\n    /* \"contracts/manage.sol\":2321:2350  _totalSupply*(10 ** decimals) */\n  tag_20\n  swap2\n  swap1\n  tag_18\n  jump\t// in\ntag_20:\n    /* \"contracts/manage.sol\":2297:2306  balanceOf */\n  0x04\n    /* \"contracts/manage.sol\":2297:2318  balanceOf[msg.sender] */\n  0x00\n    /* \"contracts/manage.sol\":2307:2317  msg.sender */\n  caller\n    /* \"contracts/manage.sol\":2297:2318  balanceOf[msg.sender] */\n  0xffffffffffffffffffffffffffffffffffffffff\n  and\n  0xffffffffffffffffffffffffffffffffffffffff\n  and\n  dup2\n  mstore\n  0x20\n  add\n  swap1\n  dup2\n  mstore\n  0x20\n  add\n  0x00\n  keccak256\n    /* \"contracts/manage.sol\":2297:2350  balanceOf[msg.sender] = _totalSupply*(10 ** decimals) */\n  dup2\n  swap1\n  sstore\n  pop\n    /* \"contracts/manage.sol\":2387:2397  msg.sender */\n  caller\n    /* \"contracts/manage.sol\":2366:2412  Transfer(address(0), msg.sender, _totalSupply) */\n  0xffffffffffffffffffffffffffffffffffffffff\n  and\n    /* \"contracts/manage.sol\":2383:2384  0 */\n  0x00\n    /* \"contracts/manage.sol\":2366:2412  Transfer(address(0), msg.sender, _totalSupply) */\n  0xffffffffffffffffffffffffffffffffffffffff\n  and\n  0xddf252ad1be2c89b69c2b068fc378daa952ba7f163c4a11628f55a4df523b3ef\n    /* \"contracts/manage.sol\":2399:2411  _totalSupply */\n  dup8\n    /* \"contracts/manage.sol\":2366:2412  Transfer(address(0), msg.sender, _totalSupply) */\n  mload(0x40)\n  tag_21\n  swap2\n  swap1\n  tag_22\n  jump\t// in\ntag_21:\n  mload(0x40)\n  dup1\n  swap2\n  sub\n  swap1\n  log3\n    /* \"contracts/manage.sol\":2431:2441  msg.sender */\n  caller\n    /* \"contracts/manage.sol\":2423:2428  owner */\n  0x05\n  0x00\n    /* \"contracts/manage.sol\":2423:2441  owner = msg.sender */\n  0x0100\n  exp\n  dup2\n  sload\n  dup2\n  0xffffffffffffffffffffffffffffffffffffffff\n  mul\n  not\n  and\n  swap1\n  dup4\n  0xffffffffffffffffffffffffffffffffffffffff\n  and\n  mul\n  or\n  swap1\n  sstore\n  pop\n    /* \"contracts/manage.sol\":2465:2474  daiRatio_ */\n  dup4\n    /* \"contracts/manage.sol\":2454:2462  daiRatio */\n  0x09\n    /* \"contracts/manage.sol\":2454:2474  daiRatio = daiRatio_ */\n  dup2\n  swap1\n  sstore\n  pop\n    /* \"contracts/manage.sol\":2497:2507  usdcRatio_ */\n  dup3\n    /* \"contracts/manage.sol\":2485:2494  usdcRatio */\n  0x0a\n    /* \"contracts/manage.sol\":2485:2507  usdcRatio = usdcRatio_ */\n  dup2\n  swap1\n  sstore\n  pop\n    /* \"contracts/manage.sol\":2530:2540  linkRatio_ */\n  dup2\n    /* \"contracts/manage.sol\":2518:2527  linkRatio */\n  0x0b\n    /* \"contracts/manage.sol\":2518:2540  linkRatio = linkRatio_ */\n  dup2\n  swap1\n  sstore\n  pop\n    /* \"contracts/manage.sol\":1780:2588  constructor(... */\n  pop\n  pop\n  pop\n  pop\n  pop\n  pop\n  pop\n  pop\n    /* \"contracts/manage.sol\":590:4280  contract ECR20_PToken is IERC20 {... */\n  jump(tag_23)\n    /* \"#utility.yul\":7:82   */\ntag_24:\n    /* \"#utility.yul\":40:46   */\n  0x00\n    /* \"#utility.yul\":73:75   */\n  0x40\n    /* \"#utility.yul\":67:76   */\n  mload\n    /* \"#utility.yul\":57:76   */\n  swap1\n  pop\n    /* \"#utility.yul\":7:82   */\n  swap1\n  jump\t// out\n    /* \"#utility.yul\":88:205   */\ntag_25:\n    /* \"#utility.yul\":197:198   */\n  0x00\n    /* \"#utility.yul\":194:195   */\n  dup1\n    /* \"#utility.yul\":187:199   */\n  revert\n    /* \"#utility.yul\":211:328   */\ntag_26:\n    /* \"#utility.yul\":320:321   */\n  0x00\n    /* \"#utility.yul\":317:318   */\n  dup1\n    /* \"#utility.yul\":310:322   */\n  revert\n    /* \"#utility.yul\":334:451   */\ntag_27:\n    /* \"#utility.yul\":443:444   */\n  0x00\n    /* \"#utility.yul\":440:441   */\n  dup1\n    /* \"#utility.yul\":433:445   */\n  revert\n    /* \"#utility.yul\":457:574   */\ntag_28:\n    /* \"#utility.yul\":566:567   */\n  0x00\n    /* \"#utility.yul\":563:564   */\n  dup1\n    /* \"#utility.yul\":556:568   */\n  revert\n    /* \"#utility.yul\":580:682   */\ntag_29:\n    /* \"#utility.yul\":621:627   */\n  0x00\n    /* \"#utility.yul\":672:674   */\n  0x1f\n    /* \"#utility.yul\":668:675   */\n  not\n    /* \"#utility.yul\":663:665   */\n  0x1f\n    /* \"#utility.yul\":656:661   */\n  dup4\n    /* \"#utility.yul\":652:666   */\n  add\n    /* \"#utility.yul\":648:676   */\n  and\n    /* \"#utility.yul\":638:676   */\n  swap1\n  pop\n    /* \"#utility.yul\":580:682   */\n  swap2\n  swap1\n  pop\n  jump\t// out\n    /* \"#utility.yul\":688:868   */\ntag_30:\n    /* \"#utility.yul\":736:813   */\n  0x4e487b7100000000000000000000000000000000000000000000000000000000\n    /* \"#utility.yul\":733:734   */\n  0x00\n    /* \"#utility.yul\":726:814   */\n  mstore\n    /* \"#utility.yul\":833:837   */\n  0x41\n    /* \"#utility.yul\":830:831   */\n  0x04\n    /* \"#utility.yul\":823:838   */\n  mstore\n    /* \"#utility.yul\":857:861   */\n  0x24\n    /* \"#utility.yul\":854:855   */\n  0x00\n    /* \"#utility.yul\":847:862   */\n  revert\n    /* \"#utility.yul\":874:1155   */\ntag_31:\n    /* \"#utility.yul\":957:984   */\n  tag_78\n    /* \"#utility.yul\":979:983   */\n  dup3\n    /* \"#utility.yul\":957:984   */\n  tag_29\n  jump\t// in\ntag_78:\n    /* \"#utility.yul\":949:955   */\n  dup2\n    /* \"#utility.yul\":945:985   */\n  add\n    /* \"#utility.yul\":1087:1093   */\n  dup2\n    /* \"#utility.yul\":1075:1085   */\n  dup2\n    /* \"#utility.yul\":1072:1094   */\n  lt\n    /* \"#utility.yul\":1051:1069   */\n  0xffffffffffffffff\n    /* \"#utility.yul\":1039:1049   */\n  dup3\n    /* \"#utility.yul\":1036:1070   */\n  gt\n    /* \"#utility.yul\":1033:1095   */\n  or\n    /* \"#utility.yul\":1030:1118   */\n  iszero\n  tag_79\n  jumpi\n    /* \"#utility.yul\":1098:1116   */\n  tag_80\n  tag_30\n  jump\t// in\ntag_80:\n    /* \"#utility.yul\":1030:1118   */\ntag_79:\n    /* \"#utility.yul\":1138:1148   */\n  dup1\n    /* \"#utility.yul\":1134:1136   */\n  0x40\n    /* \"#utility.yul\":1127:1149   */\n  mstore\n    /* \"#utility.yul\":917:1155   */\n  pop\n    /* \"#utility.yul\":874:1155   */\n  pop\n  pop\n  jump\t// out\n    /* \"#utility.yul\":1161:1290   */\ntag_32:\n    /* \"#utility.yul\":1195:1201   */\n  0x00\n    /* \"#utility.yul\":1222:1242   */\n  tag_82\n  tag_24\n  jump\t// in\ntag_82:\n    /* \"#utility.yul\":1212:1242   */\n  swap1\n  pop\n    /* \"#utility.yul\":1251:1284   */\n  tag_83\n    /* \"#utility.yul\":1279:1283   */\n  dup3\n    /* \"#utility.yul\":1271:1277   */\n  dup3\n    /* \"#utility.yul\":1251:1284   */\n  tag_31\n  jump\t// in\ntag_83:\n    /* \"#utility.yul\":1161:1290   */\n  swap2\n  swap1\n  pop\n  jump\t// out\n    /* \"#utility.yul\":1296:1604   */\ntag_33:\n    /* \"#utility.yul\":1358:1362   */\n  0x00\n    /* \"#utility.yul\":1448:1466   */\n  0xffffffffffffffff\n    /* \"#utility.yul\":1440:1446   */\n  dup3\n    /* \"#utility.yul\":1437:1467   */\n  gt\n    /* \"#utility.yul\":1434:1490   */\n  iszero\n  tag_85\n  jumpi\n    /* \"#utility.yul\":1470:1488   */\n  tag_86\n  tag_30\n  jump\t// in\ntag_86:\n    /* \"#utility.yul\":1434:1490   */\ntag_85:\n    /* \"#utility.yul\":1508:1537   */\n  tag_87\n    /* \"#utility.yul\":1530:1536   */\n  dup3\n    /* \"#utility.yul\":1508:1537   */\n  tag_29\n  jump\t// in\ntag_87:\n    /* \"#utility.yul\":1500:1537   */\n  swap1\n  pop\n    /* \"#utility.yul\":1592:1596   */\n  0x20\n    /* \"#utility.yul\":1586:1590   */\n  dup2\n    /* \"#utility.yul\":1582:1597   */\n  add\n    /* \"#utility.yul\":1574:1597   */\n  swap1\n  pop\n    /* \"#utility.yul\":1296:1604   */\n  swap2\n  swap1\n  pop\n  jump\t// out\n    /* \"#utility.yul\":1610:1856   */\ntag_34:\n    /* \"#utility.yul\":1691:1692   */\n  0x00\n    /* \"#utility.yul\":1701:1814   */\ntag_89:\n    /* \"#utility.yul\":1715:1721   */\n  dup4\n    /* \"#utility.yul\":1712:1713   */\n  dup2\n    /* \"#utility.yul\":1709:1722   */\n  lt\n    /* \"#utility.yul\":1701:1814   */\n  iszero\n  tag_91\n  jumpi\n    /* \"#utility.yul\":1800:1801   */\n  dup1\n    /* \"#utility.yul\":1795:1798   */\n  dup3\n    /* \"#utility.yul\":1791:1802   */\n  add\n    /* \"#utility.yul\":1785:1803   */\n  mload\n    /* \"#utility.yul\":1781:1782   */\n  dup2\n    /* \"#utility.yul\":1776:1779   */\n  dup5\n    /* \"#utility.yul\":1772:1783   */\n  add\n    /* \"#utility.yul\":1765:1804   */\n  mstore\n    /* \"#utility.yul\":1737:1739   */\n  0x20\n    /* \"#utility.yul\":1734:1735   */\n  dup2\n    /* \"#utility.yul\":1730:1740   */\n  add\n    /* \"#utility.yul\":1725:1740   */\n  swap1\n  pop\n    /* \"#utility.yul\":1701:1814   */\n  jump(tag_89)\ntag_91:\n    /* \"#utility.yul\":1848:1849   */\n  0x00\n    /* \"#utility.yul\":1839:1845   */\n  dup5\n    /* \"#utility.yul\":1834:1837   */\n  dup5\n    /* \"#utility.yul\":1830:1846   */\n  add\n    /* \"#utility.yul\":1823:1850   */\n  mstore\n    /* \"#utility.yul\":1672:1856   */\n  pop\n    /* \"#utility.yul\":1610:1856   */\n  pop\n  pop\n  pop\n  jump\t// out\n    /* \"#utility.yul\":1862:2296   */\ntag_35:\n    /* \"#utility.yul\":1951:1956   */\n  0x00\n    /* \"#utility.yul\":1976:2042   */\n  tag_93\n    /* \"#utility.yul\":1992:2041   */\n  tag_94\n    /* \"#utility.yul\":2034:2040   */\n  dup5\n    /* \"#utility.yul\":1992:2041   */\n  tag_33\n  jump\t// in\ntag_94:\n    /* \"#utility.yul\":1976:2042   */\n  tag_32\n  jump\t// in\ntag_93:\n    /* \"#utility.yul\":1967:2042   */\n  swap1\n  pop\n    /* \"#utility.yul\":2065:2071   */\n  dup3\n    /* \"#utility.yul\":2058:2063   */\n  dup2\n    /* \"#utility.yul\":2051:2072   */\n  mstore\n    /* \"#utility.yul\":2103:2107   */\n  0x20\n    /* \"#utility.yul\":2096:2101   */\n  dup2\n    /* \"#utility.yul\":2092:2108   */\n  add\n    /* \"#utility.yul\":2141:2144   */\n  dup5\n    /* \"#utility.yul\":2132:2138   */\n  dup5\n    /* \"#utility.yul\":2127:2130   */\n  dup5\n    /* \"#utility.yul\":2123:2139   */\n  add\n    /* \"#utility.yul\":2120:2145   */\n  gt\n    /* \"#utility.yul\":2117:2229   */\n  iszero\n  tag_95\n  jumpi\n    /* \"#utility.yul\":2148:2227   */\n  tag_96\n  tag_28\n  jump\t// in\ntag_96:\n    /* \"#utility.yul\":2117:2229   */\ntag_95:\n    /* \"#utility.yul\":2238:2290   */\n  tag_97\n    /* \"#utility.yul\":2283:2289   */\n  dup5\n    /* \"#utility.yul\":2278:2281   */\n  dup3\n    /* \"#utility.yul\":2273:2276   */\n  dup6\n    /* \"#utility.yul\":2238:2290   */\n  tag_34\n  jump\t// in\ntag_97:\n    /* \"#utility.yul\":1957:2296   */\n  pop\n    /* \"#utility.yul\":1862:2296   */\n  swap4\n  swap3\n  pop\n  pop\n  pop\n  jump\t// out\n    /* \"#utility.yul\":2316:2671   */\ntag_36:\n    /* \"#utility.yul\":2383:2388   */\n  0x00\n    /* \"#utility.yul\":2432:2435   */\n  dup3\n    /* \"#utility.yul\":2425:2429   */\n  0x1f\n    /* \"#utility.yul\":2417:2423   */\n  dup4\n    /* \"#utility.yul\":2413:2430   */\n  add\n    /* \"#utility.yul\":2409:2436   */\n  slt\n    /* \"#utility.yul\":2399:2521   */\n  tag_99\n  jumpi\n    /* \"#utility.yul\":2440:2519   */\n  tag_100\n  tag_27\n  jump\t// in\ntag_100:\n    /* \"#utility.yul\":2399:2521   */\ntag_99:\n    /* \"#utility.yul\":2550:2556   */\n  dup2\n    /* \"#utility.yul\":2544:2557   */\n  mload\n    /* \"#utility.yul\":2575:2665   */\n  tag_101\n    /* \"#utility.yul\":2661:2664   */\n  dup5\n    /* \"#utility.yul\":2653:2659   */\n  dup3\n    /* \"#utility.yul\":2646:2650   */\n  0x20\n    /* \"#utility.yul\":2638:2644   */\n  dup7\n    /* \"#utility.yul\":2634:2651   */\n  add\n    /* \"#utility.yul\":2575:2665   */\n  tag_35\n  jump\t// in\ntag_101:\n    /* \"#utility.yul\":2566:2665   */\n  swap2\n  pop\n    /* \"#utility.yul\":2389:2671   */\n  pop\n    /* \"#utility.yul\":2316:2671   */\n  swap3\n  swap2\n  pop\n  pop\n  jump\t// out\n    /* \"#utility.yul\":2677:2763   */\ntag_37:\n    /* \"#utility.yul\":2712:2719   */\n  0x00\n    /* \"#utility.yul\":2752:2756   */\n  0xff\n    /* \"#utility.yul\":2745:2750   */\n  dup3\n    /* \"#utility.yul\":2741:2757   */\n  and\n    /* \"#utility.yul\":2730:2757   */\n  swap1\n  pop\n    /* \"#utility.yul\":2677:2763   */\n  swap2\n  swap1\n  pop\n  jump\t// out\n    /* \"#utility.yul\":2769:2887   */\ntag_38:\n    /* \"#utility.yul\":2840:2862   */\n  tag_104\n    /* \"#utility.yul\":2856:2861   */\n  dup2\n    /* \"#utility.yul\":2840:2862   */\n  tag_37\n  jump\t// in\ntag_104:\n    /* \"#utility.yul\":2833:2838   */\n  dup2\n    /* \"#utility.yul\":2830:2863   */\n  eq\n    /* \"#utility.yul\":2820:2881   */\n  tag_105\n  jumpi\n    /* \"#utility.yul\":2877:2878   */\n  0x00\n    /* \"#utility.yul\":2874:2875   */\n  dup1\n    /* \"#utility.yul\":2867:2879   */\n  revert\n    /* \"#utility.yul\":2820:2881   */\ntag_105:\n    /* \"#utility.yul\":2769:2887   */\n  pop\n  jump\t// out\n    /* \"#utility.yul\":2893:3032   */\ntag_39:\n    /* \"#utility.yul\":2948:2953   */\n  0x00\n    /* \"#utility.yul\":2979:2985   */\n  dup2\n    /* \"#utility.yul\":2973:2986   */\n  mload\n    /* \"#utility.yul\":2964:2986   */\n  swap1\n  pop\n    /* \"#utility.yul\":2995:3026   */\n  tag_107\n    /* \"#utility.yul\":3020:3025   */\n  dup2\n    /* \"#utility.yul\":2995:3026   */\n  tag_38\n  jump\t// in\ntag_107:\n    /* \"#utility.yul\":2893:3032   */\n  swap3\n  swap2\n  pop\n  pop\n  jump\t// out\n    /* \"#utility.yul\":3038:3115   */\ntag_40:\n    /* \"#utility.yul\":3075:3082   */\n  0x00\n    /* \"#utility.yul\":3104:3109   */\n  dup2\n    /* \"#utility.yul\":3093:3109   */\n  swap1\n  pop\n    /* \"#utility.yul\":3038:3115   */\n  swap2\n  swap1\n  pop\n  jump\t// out\n    /* \"#utility.yul\":3121:3243   */\ntag_41:\n    /* \"#utility.yul\":3194:3218   */\n  tag_110\n    /* \"#utility.yul\":3212:3217   */\n  dup2\n    /* \"#utility.yul\":3194:3218   */\n  tag_40\n  jump\t// in\ntag_110:\n    /* \"#utility.yul\":3187:3192   */\n  dup2\n    /* \"#utility.yul\":3184:3219   */\n  eq\n    /* \"#utility.yul\":3174:3237   */\n  tag_111\n  jumpi\n    /* \"#utility.yul\":3233:3234   */\n  0x00\n    /* \"#utility.yul\":3230:3231   */\n  dup1\n    /* \"#utility.yul\":3223:3235   */\n  revert\n    /* \"#utility.yul\":3174:3237   */\ntag_111:\n    /* \"#utility.yul\":3121:3243   */\n  pop\n  jump\t// out\n    /* \"#utility.yul\":3249:3392   */\ntag_42:\n    /* \"#utility.yul\":3306:3311   */\n  0x00\n    /* \"#utility.yul\":3337:3343   */\n  dup2\n    /* \"#utility.yul\":3331:3344   */\n  mload\n    /* \"#utility.yul\":3322:3344   */\n  swap1\n  pop\n    /* \"#utility.yul\":3353:3386   */\n  tag_113\n    /* \"#utility.yul\":3380:3385   */\n  dup2\n    /* \"#utility.yul\":3353:3386   */\n  tag_41\n  jump\t// in\ntag_113:\n    /* \"#utility.yul\":3249:3392   */\n  swap3\n  swap2\n  pop\n  pop\n  jump\t// out\n    /* \"#utility.yul\":3398:5188   */\ntag_3:\n    /* \"#utility.yul\":3549:3555   */\n  0x00\n    /* \"#utility.yul\":3557:3563   */\n  dup1\n    /* \"#utility.yul\":3565:3571   */\n  0x00\n    /* \"#utility.yul\":3573:3579   */\n  dup1\n    /* \"#utility.yul\":3581:3587   */\n  0x00\n    /* \"#utility.yul\":3589:3595   */\n  dup1\n    /* \"#utility.yul\":3597:3603   */\n  0x00\n    /* \"#utility.yul\":3605:3611   */\n  dup1\n    /* \"#utility.yul\":3654:3657   */\n  0x0100\n    /* \"#utility.yul\":3642:3651   */\n  dup10\n    /* \"#utility.yul\":3633:3640   */\n  dup12\n    /* \"#utility.yul\":3629:3652   */\n  sub\n    /* \"#utility.yul\":3625:3658   */\n  slt\n    /* \"#utility.yul\":3622:3742   */\n  iszero\n  tag_115\n  jumpi\n    /* \"#utility.yul\":3661:3740   */\n  tag_116\n  tag_25\n  jump\t// in\ntag_116:\n    /* \"#utility.yul\":3622:3742   */\ntag_115:\n    /* \"#utility.yul\":3802:3803   */\n  0x00\n    /* \"#utility.yul\":3791:3800   */\n  dup10\n    /* \"#utility.yul\":3787:3804   */\n  add\n    /* \"#utility.yul\":3781:3805   */\n  mload\n    /* \"#utility.yul\":3832:3850   */\n  0xffffffffffffffff\n    /* \"#utility.yul\":3824:3830   */\n  dup2\n    /* \"#utility.yul\":3821:3851   */\n  gt\n    /* \"#utility.yul\":3818:3935   */\n  iszero\n  tag_117\n  jumpi\n    /* \"#utility.yul\":3854:3933   */\n  tag_118\n  tag_26\n  jump\t// in\ntag_118:\n    /* \"#utility.yul\":3818:3935   */\ntag_117:\n    /* \"#utility.yul\":3959:4033   */\n  tag_119\n    /* \"#utility.yul\":4025:4032   */\n  dup12\n    /* \"#utility.yul\":4016:4022   */\n  dup3\n    /* \"#utility.yul\":4005:4014   */\n  dup13\n    /* \"#utility.yul\":4001:4023   */\n  add\n    /* \"#utility.yul\":3959:4033   */\n  tag_36\n  jump\t// in\ntag_119:\n    /* \"#utility.yul\":3949:4033   */\n  swap9\n  pop\n    /* \"#utility.yul\":3752:4043   */\n  pop\n    /* \"#utility.yul\":4103:4105   */\n  0x20\n    /* \"#utility.yul\":4092:4101   */\n  dup10\n    /* \"#utility.yul\":4088:4106   */\n  add\n    /* \"#utility.yul\":4082:4107   */\n  mload\n    /* \"#utility.yul\":4134:4152   */\n  0xffffffffffffffff\n    /* \"#utility.yul\":4126:4132   */\n  dup2\n    /* \"#utility.yul\":4123:4153   */\n  gt\n    /* \"#utility.yul\":4120:4237   */\n  iszero\n  tag_120\n  jumpi\n    /* \"#utility.yul\":4156:4235   */\n  tag_121\n  tag_26\n  jump\t// in\ntag_121:\n    /* \"#utility.yul\":4120:4237   */\ntag_120:\n    /* \"#utility.yul\":4261:4335   */\n  tag_122\n    /* \"#utility.yul\":4327:4334   */\n  dup12\n    /* \"#utility.yul\":4318:4324   */\n  dup3\n    /* \"#utility.yul\":4307:4316   */\n  dup13\n    /* \"#utility.yul\":4303:4325   */\n  add\n    /* \"#utility.yul\":4261:4335   */\n  tag_36\n  jump\t// in\ntag_122:\n    /* \"#utility.yul\":4251:4335   */\n  swap8\n  pop\n    /* \"#utility.yul\":4053:4345   */\n  pop\n    /* \"#utility.yul\":4384:4386   */\n  0x40\n    /* \"#utility.yul\":4410:4472   */\n  tag_123\n    /* \"#utility.yul\":4464:4471   */\n  dup12\n    /* \"#utility.yul\":4455:4461   */\n  dup3\n    /* \"#utility.yul\":4444:4453   */\n  dup13\n    /* \"#utility.yul\":4440:4462   */\n  add\n    /* \"#utility.yul\":4410:4472   */\n  tag_39\n  jump\t// in\ntag_123:\n    /* \"#utility.yul\":4400:4472   */\n  swap7\n  pop\n    /* \"#utility.yul\":4355:4482   */\n  pop\n    /* \"#utility.yul\":4521:4523   */\n  0x60\n    /* \"#utility.yul\":4547:4611   */\n  tag_124\n    /* \"#utility.yul\":4603:4610   */\n  dup12\n    /* \"#utility.yul\":4594:4600   */\n  dup3\n    /* \"#utility.yul\":4583:4592   */\n  dup13\n    /* \"#utility.yul\":4579:4601   */\n  add\n    /* \"#utility.yul\":4547:4611   */\n  tag_42\n  jump\t// in\ntag_124:\n    /* \"#utility.yul\":4537:4611   */\n  swap6\n  pop\n    /* \"#utility.yul\":4492:4621   */\n  pop\n    /* \"#utility.yul\":4660:4663   */\n  0x80\n    /* \"#utility.yul\":4687:4751   */\n  tag_125\n    /* \"#utility.yul\":4743:4750   */\n  dup12\n    /* \"#utility.yul\":4734:4740   */\n  dup3\n    /* \"#utility.yul\":4723:4732   */\n  dup13\n    /* \"#utility.yul\":4719:4741   */\n  add\n    /* \"#utility.yul\":4687:4751   */\n  tag_42\n  jump\t// in\ntag_125:\n    /* \"#utility.yul\":4677:4751   */\n  swap5\n  pop\n    /* \"#utility.yul\":4631:4761   */\n  pop\n    /* \"#utility.yul\":4800:4803   */\n  0xa0\n    /* \"#utility.yul\":4827:4891   */\n  tag_126\n    /* \"#utility.yul\":4883:4890   */\n  dup12\n    /* \"#utility.yul\":4874:4880   */\n  dup3\n    /* \"#utility.yul\":4863:4872   */\n  dup13\n    /* \"#utility.yul\":4859:4881   */\n  add\n    /* \"#utility.yul\":4827:4891   */\n  tag_42\n  jump\t// in\ntag_126:\n    /* \"#utility.yul\":4817:4891   */\n  swap4\n  pop\n    /* \"#utility.yul\":4771:4901   */\n  pop\n    /* \"#utility.yul\":4940:4943   */\n  0xc0\n    /* \"#utility.yul\":4967:5031   */\n  tag_127\n    /* \"#utility.yul\":5023:5030   */\n  dup12\n    /* \"#utility.yul\":5014:5020   */\n  dup3\n    /* \"#utility.yul\":5003:5012   */\n  dup13\n    /* \"#utility.yul\":4999:5021   */\n  add\n    /* \"#utility.yul\":4967:5031   */\n  tag_42\n  jump\t// in\ntag_127:\n    /* \"#utility.yul\":4957:5031   */\n  swap3\n  pop\n    /* \"#utility.yul\":4911:5041   */\n  pop\n    /* \"#utility.yul\":5080:5083   */\n  0xe0\n    /* \"#utility.yul\":5107:5171   */\n  tag_128\n    /* \"#utility.yul\":5163:5170   */\n  dup12\n    /* \"#utility.yul\":5154:5160   */\n  dup3\n    /* \"#utility.yul\":5143:5152   */\n  dup13\n    /* \"#utility.yul\":5139:5161   */\n  add\n    /* \"#utility.yul\":5107:5171   */\n  tag_42\n  jump\t// in\ntag_128:\n    /* \"#utility.yul\":5097:5171   */\n  swap2\n  pop\n    /* \"#utility.yul\":5051:5181   */\n  pop\n    /* \"#utility.yul\":3398:5188   */\n  swap3\n  swap6\n  swap9\n  pop\n  swap3\n  swap6\n  swap9\n  swap1\n  swap4\n  swap7\n  pop\n  jump\t// out\n    /* \"#utility.yul\":5194:5374   */\ntag_43:\n    /* \"#utility.yul\":5242:5319   */\n  0x4e487b7100000000000000000000000000000000000000000000000000000000\n    /* \"#utility.yul\":5239:5240   */\n  0x00\n    /* \"#utility.yul\":5232:5320   */\n  mstore\n    /* \"#utility.yul\":5339:5343   */\n  0x11\n    /* \"#utility.yul\":5336:5337   */\n  0x04\n    /* \"#utility.yul\":5329:5344   */\n  mstore\n    /* \"#utility.yul\":5363:5367   */\n  0x24\n    /* \"#utility.yul\":5360:5361   */\n  0x00\n    /* \"#utility.yul\":5353:5368   */\n  revert\n    /* \"#utility.yul\":5380:5571   */\ntag_7:\n    /* \"#utility.yul\":5420:5423   */\n  0x00\n    /* \"#utility.yul\":5439:5459   */\n  tag_131\n    /* \"#utility.yul\":5457:5458   */\n  dup3\n    /* \"#utility.yul\":5439:5459   */\n  tag_40\n  jump\t// in\ntag_131:\n    /* \"#utility.yul\":5434:5459   */\n  swap2\n  pop\n    /* \"#utility.yul\":5473:5493   */\n  tag_132\n    /* \"#utility.yul\":5491:5492   */\n  dup4\n    /* \"#utility.yul\":5473:5493   */\n  tag_40\n  jump\t// in\ntag_132:\n    /* \"#utility.yul\":5468:5493   */\n  swap3\n  pop\n    /* \"#utility.yul\":5516:5517   */\n  dup3\n    /* \"#utility.yul\":5513:5514   */\n  dup3\n    /* \"#utility.yul\":5509:5518   */\n  add\n    /* \"#utility.yul\":5502:5518   */\n  swap1\n  pop\n    /* \"#utility.yul\":5537:5540   */\n  dup1\n    /* \"#utility.yul\":5534:5535   */\n  dup3\n    /* \"#utility.yul\":5531:5541   */\n  gt\n    /* \"#utility.yul\":5528:5564   */\n  iszero\n  tag_133\n  jumpi\n    /* \"#utility.yul\":5544:5562   */\n  tag_134\n  tag_43\n  jump\t// in\ntag_134:\n    /* \"#utility.yul\":5528:5564   */\ntag_133:\n    /* \"#utility.yul\":5380:5571   */\n  swap3\n  swap2\n  pop\n  pop\n  jump\t// out\n    /* \"#utility.yul\":5577:5746   */\ntag_44:\n    /* \"#utility.yul\":5661:5672   */\n  0x00\n    /* \"#utility.yul\":5695:5701   */\n  dup3\n    /* \"#utility.yul\":5690:5693   */\n  dup3\n    /* \"#utility.yul\":5683:5702   */\n  mstore\n    /* \"#utility.yul\":5735:5739   */\n  0x20\n    /* \"#utility.yul\":5730:5733   */\n  dup3\n    /* \"#utility.yul\":5726:5740   */\n  add\n    /* \"#utility.yul\":5711:5740   */\n  swap1\n  pop\n    /* \"#utility.yul\":5577:5746   */\n  swap3\n  swap2\n  pop\n  pop\n  jump\t// out\n    /* \"#utility.yul\":5752:5926   */\ntag_45:\n    /* \"#utility.yul\":5892:5918   */\n  0x546f74616c20726174696f206d75737420626520313030250000000000000000\n    /* \"#utility.yul\":5888:5889   */\n  0x00\n    /* \"#utility.yul\":5880:5886   */\n  dup3\n    /* \"#utility.yul\":5876:5890   */\n  add\n    /* \"#utility.yul\":5869:5919   */\n  mstore\n    /* \"#utility.yul\":5752:5926   */\n  pop\n  jump\t// out\n    /* \"#utility.yul\":5932:6298   */\ntag_46:\n    /* \"#utility.yul\":6074:6077   */\n  0x00\n    /* \"#utility.yul\":6095:6162   */\n  tag_138\n    /* \"#utility.yul\":6159:6161   */\n  0x18\n    /* \"#utility.yul\":6154:6157   */\n  dup4\n    /* \"#utility.yul\":6095:6162   */\n  tag_44\n  jump\t// in\ntag_138:\n    /* \"#utility.yul\":6088:6162   */\n  swap2\n  pop\n    /* \"#utility.yul\":6171:6264   */\n  tag_139\n    /* \"#utility.yul\":6260:6263   */\n  dup3\n    /* \"#utility.yul\":6171:6264   */\n  tag_45\n  jump\t// in\ntag_139:\n    /* \"#utility.yul\":6289:6291   */\n  0x20\n    /* \"#utility.yul\":6284:6287   */\n  dup3\n    /* \"#utility.yul\":6280:6292   */\n  add\n    /* \"#utility.yul\":6273:6292   */\n  swap1\n  pop\n    /* \"#utility.yul\":5932:6298   */\n  swap2\n  swap1\n  pop\n  jump\t// out\n    /* \"#utility.yul\":6304:6723   */\ntag_11:\n    /* \"#utility.yul\":6470:6474   */\n  0x00\n    /* \"#utility.yul\":6508:6510   */\n  0x20\n    /* \"#utility.yul\":6497:6506   */\n  dup3\n    /* \"#utility.yul\":6493:6511   */\n  add\n    /* \"#utility.yul\":6485:6511   */\n  swap1\n  pop\n    /* \"#utility.yul\":6557:6566   */\n  dup2\n    /* \"#utility.yul\":6551:6555   */\n  dup2\n    /* \"#utility.yul\":6547:6567   */\n  sub\n    /* \"#utility.yul\":6543:6544   */\n  0x00\n    /* \"#utility.yul\":6532:6541   */\n  dup4\n    /* \"#utility.yul\":6528:6545   */\n  add\n    /* \"#utility.yul\":6521:6568   */\n  mstore\n    /* \"#utility.yul\":6585:6716   */\n  tag_141\n    /* \"#utility.yul\":6711:6715   */\n  dup2\n    /* \"#utility.yul\":6585:6716   */\n  tag_46\n  jump\t// in\ntag_141:\n    /* \"#utility.yul\":6577:6716   */\n  swap1\n  pop\n    /* \"#utility.yul\":6304:6723   */\n  swap2\n  swap1\n  pop\n  jump\t// out\n    /* \"#utility.yul\":6729:6828   */\ntag_47:\n    /* \"#utility.yul\":6781:6787   */\n  0x00\n    /* \"#utility.yul\":6815:6820   */\n  dup2\n    /* \"#utility.yul\":6809:6821   */\n  mload\n    /* \"#utility.yul\":6799:6821   */\n  swap1\n  pop\n    /* \"#utility.yul\":6729:6828   */\n  swap2\n  swap1\n  pop\n  jump\t// out\n    /* \"#utility.yul\":6834:7014   */\ntag_48:\n    /* \"#utility.yul\":6882:6959   */\n  0x4e487b7100000000000000000000000000000000000000000000000000000000\n    /* \"#utility.yul\":6879:6880   */\n  0x00\n    /* \"#utility.yul\":6872:6960   */\n  mstore\n    /* \"#utility.yul\":6979:6983   */\n  0x22\n    /* \"#utility.yul\":6976:6977   */\n  0x04\n    /* \"#utility.yul\":6969:6984   */\n  mstore\n    /* \"#utility.yul\":7003:7007   */\n  0x24\n    /* \"#utility.yul\":7000:7001   */\n  0x00\n    /* \"#utility.yul\":6993:7008   */\n  revert\n    /* \"#utility.yul\":7020:7340   */\ntag_49:\n    /* \"#utility.yul\":7064:7070   */\n  0x00\n    /* \"#utility.yul\":7101:7102   */\n  0x02\n    /* \"#utility.yul\":7095:7099   */\n  dup3\n    /* \"#utility.yul\":7091:7103   */\n  div\n    /* \"#utility.yul\":7081:7103   */\n  swap1\n  pop\n    /* \"#utility.yul\":7148:7149   */\n  0x01\n    /* \"#utility.yul\":7142:7146   */\n  dup3\n    /* \"#utility.yul\":7138:7150   */\n  and\n    /* \"#utility.yul\":7169:7187   */\n  dup1\n    /* \"#utility.yul\":7159:7240   */\n  tag_145\n  jumpi\n    /* \"#utility.yul\":7225:7229   */\n  0x7f\n    /* \"#utility.yul\":7217:7223   */\n  dup3\n    /* \"#utility.yul\":7213:7230   */\n  and\n    /* \"#utility.yul\":7203:7230   */\n  swap2\n  pop\n    /* \"#utility.yul\":7159:7240   */\ntag_145:\n    /* \"#utility.yul\":7287:7289   */\n  0x20\n    /* \"#utility.yul\":7279:7285   */\n  dup3\n    /* \"#utility.yul\":7276:7290   */\n  lt\n    /* \"#utility.yul\":7256:7274   */\n  dup2\n    /* \"#utility.yul\":7253:7291   */\n  sub\n    /* \"#utility.yul\":7250:7334   */\n  tag_146\n  jumpi\n    /* \"#utility.yul\":7306:7324   */\n  tag_147\n  tag_48\n  jump\t// in\ntag_147:\n    /* \"#utility.yul\":7250:7334   */\ntag_146:\n    /* \"#utility.yul\":7071:7340   */\n  pop\n    /* \"#utility.yul\":7020:7340   */\n  swap2\n  swap1\n  pop\n  jump\t// out\n    /* \"#utility.yul\":7346:7487   */\ntag_50:\n    /* \"#utility.yul\":7395:7399   */\n  0x00\n    /* \"#utility.yul\":7418:7421   */\n  dup2\n    /* \"#utility.yul\":7410:7421   */\n  swap1\n  pop\n    /* \"#utility.yul\":7441:7444   */\n  dup2\n    /* \"#utility.yul\":7438:7439   */\n  0x00\n    /* \"#utility.yul\":7431:7445   */\n  mstore\n    /* \"#utility.yul\":7475:7479   */\n  0x20\n    /* \"#utility.yul\":7472:7473   */\n  0x00\n    /* \"#utility.yul\":7462:7480   */\n  keccak256\n    /* \"#utility.yul\":7454:7480   */\n  swap1\n  pop\n    /* \"#utility.yul\":7346:7487   */\n  swap2\n  swap1\n  pop\n  jump\t// out\n    /* \"#utility.yul\":7493:7586   */\ntag_51:\n    /* \"#utility.yul\":7530:7536   */\n  0x00\n    /* \"#utility.yul\":7577:7579   */\n  0x20\n    /* \"#utility.yul\":7572:7574   */\n  0x1f\n    /* \"#utility.yul\":7565:7570   */\n  dup4\n    /* \"#utility.yul\":7561:7575   */\n  add\n    /* \"#utility.yul\":7557:7580   */\n  div\n    /* \"#utility.yul\":7547:7580   */\n  swap1\n  pop\n    /* \"#utility.yul\":7493:7586   */\n  swap2\n  swap1\n  pop\n  jump\t// out\n    /* \"#utility.yul\":7592:7699   */\ntag_52:\n    /* \"#utility.yul\":7636:7644   */\n  0x00\n    /* \"#utility.yul\":7686:7691   */\n  dup3\n    /* \"#utility.yul\":7680:7684   */\n  dup3\n    /* \"#utility.yul\":7676:7692   */\n  shl\n    /* \"#utility.yul\":7655:7692   */\n  swap1\n  pop\n    /* \"#utility.yul\":7592:7699   */\n  swap3\n  swap2\n  pop\n  pop\n  jump\t// out\n    /* \"#utility.yul\":7705:8098   */\ntag_53:\n    /* \"#utility.yul\":7774:7780   */\n  0x00\n    /* \"#utility.yul\":7824:7825   */\n  0x08\n    /* \"#utility.yul\":7812:7822   */\n  dup4\n    /* \"#utility.yul\":7808:7826   */\n  mul\n    /* \"#utility.yul\":7847:7944   */\n  tag_152\n    /* \"#utility.yul\":7877:7943   */\n  0xffffffffffffffffffffffffffffffffffffffffffffffffffffffffffffffff\n    /* \"#utility.yul\":7866:7875   */\n  dup3\n    /* \"#utility.yul\":7847:7944   */\n  tag_52\n  jump\t// in\ntag_152:\n    /* \"#utility.yul\":7965:8004   */\n  tag_153\n    /* \"#utility.yul\":7995:8003   */\n  dup7\n    /* \"#utility.yul\":7984:7993   */\n  dup4\n    /* \"#utility.yul\":7965:8004   */\n  tag_52\n  jump\t// in\ntag_153:\n    /* \"#utility.yul\":7953:8004   */\n  swap6\n  pop\n    /* \"#utility.yul\":8037:8041   */\n  dup1\n    /* \"#utility.yul\":8033:8042   */\n  not\n    /* \"#utility.yul\":8026:8031   */\n  dup5\n    /* \"#utility.yul\":8022:8043   */\n  and\n    /* \"#utility.yul\":8013:8043   */\n  swap4\n  pop\n    /* \"#utility.yul\":8086:8090   */\n  dup1\n    /* \"#utility.yul\":8076:8084   */\n  dup7\n    /* \"#utility.yul\":8072:8091   */\n  and\n    /* \"#utility.yul\":8065:8070   */\n  dup5\n    /* \"#utility.yul\":8062:8092   */\n  or\n    /* \"#utility.yul\":8052:8092   */\n  swap3\n  pop\n    /* \"#utility.yul\":7781:8098   */\n  pop\n  pop\n    /* \"#utility.yul\":7705:8098   */\n  swap4\n  swap3\n  pop\n  pop\n  pop\n  jump\t// out\n    /* \"#utility.yul\":8104:8164   */\ntag_54:\n    /* \"#utility.yul\":8132:8135   */\n  0x00\n    /* \"#utility.yul\":8153:8158   */\n  dup2\n    /* \"#utility.yul\":8146:8158   */\n  swap1\n  pop\n    /* \"#utility.yul\":8104:8164   */\n  swap2\n  swap1\n  pop\n  jump\t// out\n    /* \"#utility.yul\":8170:8312   */\ntag_55:\n    /* \"#utility.yul\":8220:8229   */\n  0x00\n    /* \"#utility.yul\":8253:8306   */\n  tag_156\n    /* \"#utility.yul\":8271:8305   */\n  tag_157\n    /* \"#utility.yul\":8280:8304   */\n  tag_158\n    /* \"#utility.yul\":8298:8303   */\n  dup5\n    /* \"#utility.yul\":8280:8304   */\n  tag_40\n  jump\t// in\ntag_158:\n    /* \"#utility.yul\":8271:8305   */\n  tag_54\n  jump\t// in\ntag_157:\n    /* \"#utility.yul\":8253:8306   */\n  tag_40\n  jump\t// in\ntag_156:\n    /* \"#utility.yul\":8240:8306   */\n  swap1\n  pop\n    /* \"#utility.yul\":8170:8312   */\n  swap2\n  swap1\n  pop\n  jump\t// out\n    /* \"#utility.yul\":8318:8393   */\ntag_56:\n    /* \"#utility.yul\":8361:8364   */\n  0x00\n    /* \"#utility.yul\":8382:8387   */\n  dup2\n    /* \"#utility.yul\":8375:8387   */\n  swap1\n  pop\n    /* \"#utility.yul\":8318:8393   */\n  swap2\n  swap1\n  pop\n  jump\t// out\n    /* \"#utility.yul\":8399:8668   */\ntag_57:\n    /* \"#utility.yul\":8509:8548   */\n  tag_161\n    /* \"#utility.yul\":8540:8547   */\n  dup4\n    /* \"#utility.yul\":8509:8548   */\n  tag_55\n  jump\t// in\ntag_161:\n    /* \"#utility.yul\":8570:8661   */\n  tag_162\n    /* \"#utility.yul\":8619:8660   */\n  tag_163\n    /* \"#utility.yul\":8643:8659   */\n  dup3\n    /* \"#utility.yul\":8619:8660   */\n  tag_56\n  jump\t// in\ntag_163:\n    /* \"#utility.yul\":8611:8617   */\n  dup5\n    /* \"#utility.yul\":8604:8608   */\n  dup5\n    /* \"#utility.yul\":8598:8609   */\n  sload\n    /* \"#utility.yul\":8570:8661   */\n  tag_53\n  jump\t// in\ntag_162:\n    /* \"#utility.yul\":8564:8568   */\n  dup3\n    /* \"#utility.yul\":8557:8662   */\n  sstore\n    /* \"#utility.yul\":8475:8668   */\n  pop\n    /* \"#utility.yul\":8399:8668   */\n  pop\n  pop\n  pop\n  jump\t// out\n    /* \"#utility.yul\":8674:8747   */\ntag_58:\n    /* \"#utility.yul\":8719:8722   */\n  0x00\n    /* \"#utility.yul\":8674:8747   */\n  swap1\n  jump\t// out\n    /* \"#utility.yul\":8753:8942   */\ntag_59:\n    /* \"#utility.yul\":8830:8862   */\n  tag_166\n  tag_58\n  jump\t// in\ntag_166:\n    /* \"#utility.yul\":8871:8936   */\n  tag_167\n    /* \"#utility.yul\":8929:8935   */\n  dup2\n    /* \"#utility.yul\":8921:8927   */\n  dup5\n    /* \"#utility.yul\":8915:8919   */\n  dup5\n    /* \"#utility.yul\":8871:8936   */\n  tag_57\n  jump\t// in\ntag_167:\n    /* \"#utility.yul\":8806:8942   */\n  pop\n    /* \"#utility.yul\":8753:8942   */\n  pop\n  pop\n  jump\t// out\n    /* \"#utility.yul\":8948:9134   */\ntag_60:\n    /* \"#utility.yul\":9008:9128   */\ntag_169:\n    /* \"#utility.yul\":9025:9028   */\n  dup2\n    /* \"#utility.yul\":9018:9023   */\n  dup2\n    /* \"#utility.yul\":9015:9029   */\n  lt\n    /* \"#utility.yul\":9008:9128   */\n  iszero\n  tag_171\n  jumpi\n    /* \"#utility.yul\":9079:9118   */\n  tag_172\n    /* \"#utility.yul\":9116:9117   */\n  0x00\n    /* \"#utility.yul\":9109:9114   */\n  dup3\n    /* \"#utility.yul\":9079:9118   */\n  tag_59\n  jump\t// in\ntag_172:\n    /* \"#utility.yul\":9052:9053   */\n  0x01\n    /* \"#utility.yul\":9045:9050   */\n  dup2\n    /* \"#utility.yul\":9041:9054   */\n  add\n    /* \"#utility.yul\":9032:9054   */\n  swap1\n  pop\n    /* \"#utility.yul\":9008:9128   */\n  jump(tag_169)\ntag_171:\n    /* \"#utility.yul\":8948:9134   */\n  pop\n  pop\n  jump\t// out\n    /* \"#utility.yul\":9140:9683   */\ntag_61:\n    /* \"#utility.yul\":9241:9243   */\n  0x1f\n    /* \"#utility.yul\":9236:9239   */\n  dup3\n    /* \"#utility.yul\":9233:9244   */\n  gt\n    /* \"#utility.yul\":9230:9676   */\n  iszero\n  tag_174\n  jumpi\n    /* \"#utility.yul\":9275:9313   */\n  tag_175\n    /* \"#utility.yul\":9307:9312   */\n  dup2\n    /* \"#utility.yul\":9275:9313   */\n  tag_50\n  jump\t// in\ntag_175:\n    /* \"#utility.yul\":9359:9388   */\n  tag_176\n    /* \"#utility.yul\":9377:9387   */\n  dup5\n    /* \"#utility.yul\":9359:9388   */\n  tag_51\n  jump\t// in\ntag_176:\n    /* \"#utility.yul\":9349:9357   */\n  dup2\n    /* \"#utility.yul\":9345:9389   */\n  add\n    /* \"#utility.yul\":9542:9544   */\n  0x20\n    /* \"#utility.yul\":9530:9540   */\n  dup6\n    /* \"#utility.yul\":9527:9545   */\n  lt\n    /* \"#utility.yul\":9524:9573   */\n  iszero\n  tag_177\n  jumpi\n    /* \"#utility.yul\":9563:9571   */\n  dup2\n    /* \"#utility.yul\":9548:9571   */\n  swap1\n  pop\n    /* \"#utility.yul\":9524:9573   */\ntag_177:\n    /* \"#utility.yul\":9586:9666   */\n  tag_178\n    /* \"#utility.yul\":9642:9664   */\n  tag_179\n    /* \"#utility.yul\":9660:9663   */\n  dup6\n    /* \"#utility.yul\":9642:9664   */\n  tag_51\n  jump\t// in\ntag_179:\n    /* \"#utility.yul\":9632:9640   */\n  dup4\n    /* \"#utility.yul\":9628:9665   */\n  add\n    /* \"#utility.yul\":9615:9626   */\n  dup3\n    /* \"#utility.yul\":9586:9666   */\n  tag_60\n  jump\t// in\ntag_178:\n    /* \"#utility.yul\":9245:9676   */\n  pop\n  pop\n    /* \"#utility.yul\":9230:9676   */\ntag_174:\n    /* \"#utility.yul\":9140:9683   */\n  pop\n  pop\n  pop\n  jump\t// out\n    /* \"#utility.yul\":9689:9806   */\ntag_62:\n    /* \"#utility.yul\":9743:9751   */\n  0x00\n    /* \"#utility.yul\":9793:9798   */\n  dup3\n    /* \"#utility.yul\":9787:9791   */\n  dup3\n    /* \"#utility.yul\":9783:9799   */\n  shr\n    /* \"#utility.yul\":9762:9799   */\n  swap1\n  pop\n    /* \"#utility.yul\":9689:9806   */\n  swap3\n  swap2\n  pop\n  pop\n  jump\t// out\n    /* \"#utility.yul\":9812:9981   */\ntag_63:\n    /* \"#utility.yul\":9856:9862   */\n  0x00\n    /* \"#utility.yul\":9889:9940   */\n  tag_182\n    /* \"#utility.yul\":9937:9938   */\n  0x00\n    /* \"#utility.yul\":9933:9939   */\n  not\n    /* \"#utility.yul\":9925:9930   */\n  dup5\n    /* \"#utility.yul\":9922:9923   */\n  0x08\n    /* \"#utility.yul\":9918:9931   */\n  mul\n    /* \"#utility.yul\":9889:9940   */\n  tag_62\n  jump\t// in\ntag_182:\n    /* \"#utility.yul\":9885:9941   */\n  not\n    /* \"#utility.yul\":9970:9974   */\n  dup1\n    /* \"#utility.yul\":9964:9968   */\n  dup4\n    /* \"#utility.yul\":9960:9975   */\n  and\n    /* \"#utility.yul\":9950:9975   */\n  swap2\n  pop\n    /* \"#utility.yul\":9863:9981   */\n  pop\n    /* \"#utility.yul\":9812:9981   */\n  swap3\n  swap2\n  pop\n  pop\n  jump\t// out\n    /* \"#utility.yul\":9986:10281   */\ntag_64:\n    /* \"#utility.yul\":10062:10066   */\n  0x00\n    /* \"#utility.yul\":10208:10237   */\n  tag_184\n    /* \"#utility.yul\":10233:10236   */\n  dup4\n    /* \"#utility.yul\":10227:10231   */\n  dup4\n    /* \"#utility.yul\":10208:10237   */\n  tag_63\n  jump\t// in\ntag_184:\n    /* \"#utility.yul\":10200:10237   */\n  swap2\n  pop\n    /* \"#utility.yul\":10270:10273   */\n  dup3\n    /* \"#utility.yul\":10267:10268   */\n  0x02\n    /* \"#utility.yul\":10263:10274   */\n  mul\n    /* \"#utility.yul\":10257:10261   */\n  dup3\n    /* \"#utility.yul\":10254:10275   */\n  or\n    /* \"#utility.yul\":10246:10275   */\n  swap1\n  pop\n    /* \"#utility.yul\":9986:10281   */\n  swap3\n  swap2\n  pop\n  pop\n  jump\t// out\n    /* \"#utility.yul\":10286:11681   */\ntag_13:\n    /* \"#utility.yul\":10403:10440   */\n  tag_186\n    /* \"#utility.yul\":10436:10439   */\n  dup3\n    /* \"#utility.yul\":10403:10440   */\n  tag_47\n  jump\t// in\ntag_186:\n    /* \"#utility.yul\":10505:10523   */\n  0xffffffffffffffff\n    /* \"#utility.yul\":10497:10503   */\n  dup2\n    /* \"#utility.yul\":10494:10524   */\n  gt\n    /* \"#utility.yul\":10491:10547   */\n  iszero\n  tag_187\n  jumpi\n    /* \"#utility.yul\":10527:10545   */\n  tag_188\n  tag_30\n  jump\t// in\ntag_188:\n    /* \"#utility.yul\":10491:10547   */\ntag_187:\n    /* \"#utility.yul\":10571:10609   */\n  tag_189\n    /* \"#utility.yul\":10603:10607   */\n  dup3\n    /* \"#utility.yul\":10597:10608   */\n  sload\n    /* \"#utility.yul\":10571:10609   */\n  tag_49\n  jump\t// in\ntag_189:\n    /* \"#utility.yul\":10656:10723   */\n  tag_190\n    /* \"#utility.yul\":10716:10722   */\n  dup3\n    /* \"#utility.yul\":10708:10714   */\n  dup3\n    /* \"#utility.yul\":10702:10706   */\n  dup6\n    /* \"#utility.yul\":10656:10723   */\n  tag_61\n  jump\t// in\ntag_190:\n    /* \"#utility.yul\":10750:10751   */\n  0x00\n    /* \"#utility.yul\":10774:10778   */\n  0x20\n    /* \"#utility.yul\":10761:10778   */\n  swap1\n  pop\n    /* \"#utility.yul\":10806:10808   */\n  0x1f\n    /* \"#utility.yul\":10798:10804   */\n  dup4\n    /* \"#utility.yul\":10795:10809   */\n  gt\n    /* \"#utility.yul\":10823:10824   */\n  0x01\n    /* \"#utility.yul\":10818:11436   */\n  dup2\n  eq\n  tag_192\n  jumpi\n    /* \"#utility.yul\":11480:11481   */\n  0x00\n    /* \"#utility.yul\":11497:11503   */\n  dup5\n    /* \"#utility.yul\":11494:11571   */\n  iszero\n  tag_193\n  jumpi\n    /* \"#utility.yul\":11546:11555   */\n  dup3\n    /* \"#utility.yul\":11541:11544   */\n  dup8\n    /* \"#utility.yul\":11537:11556   */\n  add\n    /* \"#utility.yul\":11531:11557   */\n  mload\n    /* \"#utility.yul\":11522:11557   */\n  swap1\n  pop\n    /* \"#utility.yul\":11494:11571   */\ntag_193:\n    /* \"#utility.yul\":11597:11664   */\n  tag_194\n    /* \"#utility.yul\":11657:11663   */\n  dup6\n    /* \"#utility.yul\":11650:11655   */\n  dup3\n    /* \"#utility.yul\":11597:11664   */\n  tag_64\n  jump\t// in\ntag_194:\n    /* \"#utility.yul\":11591:11595   */\n  dup7\n    /* \"#utility.yul\":11584:11665   */\n  sstore\n    /* \"#utility.yul\":11453:11675   */\n  pop\n    /* \"#utility.yul\":10788:11675   */\n  jump(tag_191)\n    /* \"#utility.yul\":10818:11436   */\ntag_192:\n    /* \"#utility.yul\":10870:10874   */\n  0x1f\n    /* \"#utility.yul\":10866:10875   */\n  not\n    /* \"#utility.yul\":10858:10864   */\n  dup5\n    /* \"#utility.yul\":10854:10876   */\n  and\n    /* \"#utility.yul\":10904:10941   */\n  tag_195\n    /* \"#utility.yul\":10936:10940   */\n  dup7\n    /* \"#utility.yul\":10904:10941   */\n  tag_50\n  jump\t// in\ntag_195:\n    /* \"#utility.yul\":10963:10964   */\n  0x00\n    /* \"#utility.yul\":10977:11185   */\ntag_196:\n    /* \"#utility.yul\":10991:10998   */\n  dup3\n    /* \"#utility.yul\":10988:10989   */\n  dup2\n    /* \"#utility.yul\":10985:10999   */\n  lt\n    /* \"#utility.yul\":10977:11185   */\n  iszero\n  tag_198\n  jumpi\n    /* \"#utility.yul\":11070:11079   */\n  dup5\n    /* \"#utility.yul\":11065:11068   */\n  dup10\n    /* \"#utility.yul\":11061:11080   */\n  add\n    /* \"#utility.yul\":11055:11081   */\n  mload\n    /* \"#utility.yul\":11047:11053   */\n  dup3\n    /* \"#utility.yul\":11040:11082   */\n  sstore\n    /* \"#utility.yul\":11121:11122   */\n  0x01\n    /* \"#utility.yul\":11113:11119   */\n  dup3\n    /* \"#utility.yul\":11109:11123   */\n  add\n    /* \"#utility.yul\":11099:11123   */\n  swap2\n  pop\n    /* \"#utility.yul\":11168:11170   */\n  0x20\n    /* \"#utility.yul\":11157:11166   */\n  dup6\n    /* \"#utility.yul\":11153:11171   */\n  add\n    /* \"#utility.yul\":11140:11171   */\n  swap5\n  pop\n    /* \"#utility.yul\":11014:11018   */\n  0x20\n    /* \"#utility.yul\":11011:11012   */\n  dup2\n    /* \"#utility.yul\":11007:11019   */\n  add\n    /* \"#utility.yul\":11002:11019   */\n  swap1\n  pop\n    /* \"#utility.yul\":10977:11185   */\n  jump(tag_196)\ntag_198:\n    /* \"#utility.yul\":11213:11219   */\n  dup7\n    /* \"#utility.yul\":11204:11211   */\n  dup4\n    /* \"#utility.yul\":11201:11220   */\n  lt\n    /* \"#utility.yul\":11198:11377   */\n  iszero\n  tag_199\n  jumpi\n    /* \"#utility.yul\":11271:11280   */\n  dup5\n    /* \"#utility.yul\":11266:11269   */\n  dup10\n    /* \"#utility.yul\":11262:11281   */\n  add\n    /* \"#utility.yul\":11256:11282   */\n  mload\n    /* \"#utility.yul\":11314:11362   */\n  tag_200\n    /* \"#utility.yul\":11356:11360   */\n  0x1f\n    /* \"#utility.yul\":11348:11354   */\n  dup10\n    /* \"#utility.yul\":11344:11361   */\n  and\n    /* \"#utility.yul\":11333:11342   */\n  dup3\n    /* \"#utility.yul\":11314:11362   */\n  tag_63\n  jump\t// in\ntag_200:\n    /* \"#utility.yul\":11306:11312   */\n  dup4\n    /* \"#utility.yul\":11299:11363   */\n  sstore\n    /* \"#utility.yul\":11221:11377   */\n  pop\n    /* \"#utility.yul\":11198:11377   */\ntag_199:\n    /* \"#utility.yul\":11423:11424   */\n  0x01\n    /* \"#utility.yul\":11419:11420   */\n  0x02\n    /* \"#utility.yul\":11411:11417   */\n  dup9\n    /* \"#utility.yul\":11407:11421   */\n  mul\n    /* \"#utility.yul\":11403:11425   */\n  add\n    /* \"#utility.yul\":11397:11401   */\n  dup9\n    /* \"#utility.yul\":11390:11426   */\n  sstore\n    /* \"#utility.yul\":10825:11436   */\n  pop\n  pop\n  pop\n    /* \"#utility.yul\":10788:11675   */\ntag_191:\n  pop\n    /* \"#utility.yul\":10378:11681   */\n  pop\n  pop\n  pop\n    /* \"#utility.yul\":10286:11681   */\n  pop\n  pop\n  jump\t// out\n    /* \"#utility.yul\":11687:11789   */\ntag_65:\n    /* \"#utility.yul\":11729:11737   */\n  0x00\n    /* \"#utility.yul\":11776:11781   */\n  dup2\n    /* \"#utility.yul\":11773:11774   */\n  0x01\n    /* \"#utility.yul\":11769:11782   */\n  shr\n    /* \"#utility.yul\":11748:11782   */\n  swap1\n  pop\n    /* \"#utility.yul\":11687:11789   */\n  swap2\n  swap1\n  pop\n  jump\t// out\n    /* \"#utility.yul\":11795:12643   */\ntag_66:\n    /* \"#utility.yul\":11856:11861   */\n  0x00\n    /* \"#utility.yul\":11863:11867   */\n  dup1\n    /* \"#utility.yul\":11887:11893   */\n  dup3\n    /* \"#utility.yul\":11878:11893   */\n  swap2\n  pop\n    /* \"#utility.yul\":11911:11916   */\n  dup4\n    /* \"#utility.yul\":11902:11916   */\n  swap1\n  pop\n    /* \"#utility.yul\":11925:12637   */\ntag_203:\n    /* \"#utility.yul\":11946:11947   */\n  0x01\n    /* \"#utility.yul\":11936:11944   */\n  dup6\n    /* \"#utility.yul\":11933:11948   */\n  gt\n    /* \"#utility.yul\":11925:12637   */\n  iszero\n  tag_205\n  jumpi\n    /* \"#utility.yul\":12041:12045   */\n  dup1\n    /* \"#utility.yul\":12036:12039   */\n  dup7\n    /* \"#utility.yul\":12032:12046   */\n  div\n    /* \"#utility.yul\":12026:12030   */\n  dup2\n    /* \"#utility.yul\":12023:12047   */\n  gt\n    /* \"#utility.yul\":12020:12070   */\n  iszero\n  tag_206\n  jumpi\n    /* \"#utility.yul\":12050:12068   */\n  tag_207\n  tag_43\n  jump\t// in\ntag_207:\n    /* \"#utility.yul\":12020:12070   */\ntag_206:\n    /* \"#utility.yul\":12100:12101   */\n  0x01\n    /* \"#utility.yul\":12090:12098   */\n  dup6\n    /* \"#utility.yul\":12086:12102   */\n  and\n    /* \"#utility.yul\":12083:12534   */\n  iszero\n  tag_208\n  jumpi\n    /* \"#utility.yul\":12515:12519   */\n  dup1\n    /* \"#utility.yul\":12508:12513   */\n  dup3\n    /* \"#utility.yul\":12504:12520   */\n  mul\n    /* \"#utility.yul\":12495:12520   */\n  swap2\n  pop\n    /* \"#utility.yul\":12083:12534   */\ntag_208:\n    /* \"#utility.yul\":12565:12569   */\n  dup1\n    /* \"#utility.yul\":12559:12563   */\n  dup2\n    /* \"#utility.yul\":12555:12570   */\n  mul\n    /* \"#utility.yul\":12547:12570   */\n  swap1\n  pop\n    /* \"#utility.yul\":12595:12627   */\n  tag_209\n    /* \"#utility.yul\":12618:12626   */\n  dup6\n    /* \"#utility.yul\":12595:12627   */\n  tag_65\n  jump\t// in\ntag_209:\n    /* \"#utility.yul\":12583:12627   */\n  swap5\n  pop\n    /* \"#utility.yul\":11925:12637   */\n  jump(tag_203)\ntag_205:\n    /* \"#utility.yul\":11795:12643   */\n  swap5\n  pop\n  swap5\n  swap3\n  pop\n  pop\n  pop\n  jump\t// out\n    /* \"#utility.yul\":12649:13722   */\ntag_67:\n    /* \"#utility.yul\":12703:12708   */\n  0x00\n    /* \"#utility.yul\":12894:12902   */\n  dup3\n    /* \"#utility.yul\":12884:12924   */\n  tag_211\n  jumpi\n    /* \"#utility.yul\":12915:12916   */\n  0x01\n    /* \"#utility.yul\":12906:12916   */\n  swap1\n  pop\n    /* \"#utility.yul\":12917:12922   */\n  jump(tag_210)\n    /* \"#utility.yul\":12884:12924   */\ntag_211:\n    /* \"#utility.yul\":12943:12947   */\n  dup2\n    /* \"#utility.yul\":12933:12969   */\n  tag_212\n  jumpi\n    /* \"#utility.yul\":12960:12961   */\n  0x00\n    /* \"#utility.yul\":12951:12961   */\n  swap1\n  pop\n    /* \"#utility.yul\":12962:12967   */\n  jump(tag_210)\n    /* \"#utility.yul\":12933:12969   */\ntag_212:\n    /* \"#utility.yul\":13029:13033   */\n  dup2\n    /* \"#utility.yul\":13077:13078   */\n  0x01\n    /* \"#utility.yul\":13072:13099   */\n  dup2\n  eq\n  tag_214\n  jumpi\n    /* \"#utility.yul\":13113:13114   */\n  0x02\n    /* \"#utility.yul\":13108:13299   */\n  dup2\n  eq\n  tag_215\n  jumpi\n    /* \"#utility.yul\":13022:13299   */\n  jump(tag_213)\n    /* \"#utility.yul\":13072:13099   */\ntag_214:\n    /* \"#utility.yul\":13090:13091   */\n  0x01\n    /* \"#utility.yul\":13081:13091   */\n  swap2\n  pop\n    /* \"#utility.yul\":13092:13097   */\n  pop\n  jump(tag_210)\n    /* \"#utility.yul\":13108:13299   */\ntag_215:\n    /* \"#utility.yul\":13153:13156   */\n  0xff\n    /* \"#utility.yul\":13143:13151   */\n  dup5\n    /* \"#utility.yul\":13140:13157   */\n  gt\n    /* \"#utility.yul\":13137:13180   */\n  iszero\n  tag_216\n  jumpi\n    /* \"#utility.yul\":13160:13178   */\n  tag_217\n  tag_43\n  jump\t// in\ntag_217:\n    /* \"#utility.yul\":13137:13180   */\ntag_216:\n    /* \"#utility.yul\":13209:13217   */\n  dup4\n    /* \"#utility.yul\":13206:13207   */\n  0x02\n    /* \"#utility.yul\":13202:13218   */\n  exp\n    /* \"#utility.yul\":13193:13218   */\n  swap2\n  pop\n    /* \"#utility.yul\":13244:13247   */\n  dup5\n    /* \"#utility.yul\":13237:13242   */\n  dup3\n    /* \"#utility.yul\":13234:13248   */\n  gt\n    /* \"#utility.yul\":13231:13271   */\n  iszero\n  tag_218\n  jumpi\n    /* \"#utility.yul\":13251:13269   */\n  tag_219\n  tag_43\n  jump\t// in\ntag_219:\n    /* \"#utility.yul\":13231:13271   */\ntag_218:\n    /* \"#utility.yul\":13284:13289   */\n  pop\n  jump(tag_210)\n    /* \"#utility.yul\":13022:13299   */\ntag_213:\n  pop\n    /* \"#utility.yul\":13408:13410   */\n  0x20\n    /* \"#utility.yul\":13398:13406   */\n  dup4\n    /* \"#utility.yul\":13395:13411   */\n  lt\n    /* \"#utility.yul\":13389:13392   */\n  0x0133\n    /* \"#utility.yul\":13383:13387   */\n  dup4\n    /* \"#utility.yul\":13380:13393   */\n  lt\n    /* \"#utility.yul\":13376:13412   */\n  and\n    /* \"#utility.yul\":13358:13360   */\n  0x4e\n    /* \"#utility.yul\":13348:13356   */\n  dup5\n    /* \"#utility.yul\":13345:13361   */\n  lt\n    /* \"#utility.yul\":13340:13342   */\n  0x0b\n    /* \"#utility.yul\":13334:13338   */\n  dup5\n    /* \"#utility.yul\":13331:13343   */\n  lt\n    /* \"#utility.yul\":13327:13362   */\n  and\n    /* \"#utility.yul\":13311:13422   */\n  or\n    /* \"#utility.yul\":13308:13554   */\n  iszero\n  tag_220\n  jumpi\n    /* \"#utility.yul\":13464:13472   */\n  dup3\n    /* \"#utility.yul\":13458:13462   */\n  dup3\n    /* \"#utility.yul\":13454:13473   */\n  exp\n    /* \"#utility.yul\":13445:13473   */\n  swap1\n  pop\n    /* \"#utility.yul\":13499:13502   */\n  dup4\n    /* \"#utility.yul\":13492:13497   */\n  dup2\n    /* \"#utility.yul\":13489:13503   */\n  gt\n    /* \"#utility.yul\":13486:13526   */\n  iszero\n  tag_221\n  jumpi\n    /* \"#utility.yul\":13506:13524   */\n  tag_222\n  tag_43\n  jump\t// in\ntag_222:\n    /* \"#utility.yul\":13486:13526   */\ntag_221:\n    /* \"#utility.yul\":13539:13544   */\n  jump(tag_210)\n    /* \"#utility.yul\":13308:13554   */\ntag_220:\n    /* \"#utility.yul\":13579:13621   */\n  tag_223\n    /* \"#utility.yul\":13617:13620   */\n  dup5\n    /* \"#utility.yul\":13607:13615   */\n  dup5\n    /* \"#utility.yul\":13601:13605   */\n  dup5\n    /* \"#utility.yul\":13598:13599   */\n  0x01\n    /* \"#utility.yul\":13579:13621   */\n  tag_66\n  jump\t// in\ntag_223:\n    /* \"#utility.yul\":13564:13621   */\n  swap3\n  pop\n  swap1\n  pop\n    /* \"#utility.yul\":13653:13657   */\n  dup2\n    /* \"#utility.yul\":13648:13651   */\n  dup5\n    /* \"#utility.yul\":13644:13658   */\n  div\n    /* \"#utility.yul\":13637:13642   */\n  dup2\n    /* \"#utility.yul\":13634:13659   */\n  gt\n    /* \"#utility.yul\":13631:13682   */\n  iszero\n  tag_224\n  jumpi\n    /* \"#utility.yul\":13662:13680   */\n  tag_225\n  tag_43\n  jump\t// in\ntag_225:\n    /* \"#utility.yul\":13631:13682   */\ntag_224:\n    /* \"#utility.yul\":13711:13715   */\n  dup2\n    /* \"#utility.yul\":13704:13709   */\n  dup2\n    /* \"#utility.yul\":13700:13716   */\n  mul\n    /* \"#utility.yul\":13691:13716   */\n  swap1\n  pop\n    /* \"#utility.yul\":12649:13722   */\ntag_210:\n  swap4\n  swap3\n  pop\n  pop\n  pop\n  jump\t// out\n    /* \"#utility.yul\":13728:14009   */\ntag_16:\n    /* \"#utility.yul\":13786:13791   */\n  0x00\n    /* \"#utility.yul\":13810:13833   */\n  tag_227\n    /* \"#utility.yul\":13828:13832   */\n  dup3\n    /* \"#utility.yul\":13810:13833   */\n  tag_40\n  jump\t// in\ntag_227:\n    /* \"#utility.yul\":13802:13833   */\n  swap2\n  pop\n    /* \"#utility.yul\":13854:13879   */\n  tag_228\n    /* \"#utility.yul\":13870:13878   */\n  dup4\n    /* \"#utility.yul\":13854:13879   */\n  tag_37\n  jump\t// in\ntag_228:\n    /* \"#utility.yul\":13842:13879   */\n  swap3\n  pop\n    /* \"#utility.yul\":13898:14002   */\n  tag_229\n    /* \"#utility.yul\":13935:14001   */\n  0xffffffffffffffffffffffffffffffffffffffffffffffffffffffffffffffff\n    /* \"#utility.yul\":13925:13933   */\n  dup5\n    /* \"#utility.yul\":13919:13923   */\n  dup5\n    /* \"#utility.yul\":13898:14002   */\n  tag_67\n  jump\t// in\ntag_229:\n    /* \"#utility.yul\":13889:14002   */\n  swap1\n  pop\n    /* \"#utility.yul\":13728:14009   */\n  swap3\n  swap2\n  pop\n  pop\n  jump\t// out\n    /* \"#utility.yul\":14015:14425   */\ntag_18:\n    /* \"#utility.yul\":14055:14062   */\n  0x00\n    /* \"#utility.yul\":14078:14098   */\n  tag_231\n    /* \"#utility.yul\":14096:14097   */\n  dup3\n    /* \"#utility.yul\":14078:14098   */\n  tag_40\n  jump\t// in\ntag_231:\n    /* \"#utility.yul\":14073:14098   */\n  swap2\n  pop\n    /* \"#utility.yul\":14112:14132   */\n  tag_232\n    /* \"#utility.yul\":14130:14131   */\n  dup4\n    /* \"#utility.yul\":14112:14132   */\n  tag_40\n  jump\t// in\ntag_232:\n    /* \"#utility.yul\":14107:14132   */\n  swap3\n  pop\n    /* \"#utility.yul\":14167:14168   */\n  dup3\n    /* \"#utility.yul\":14164:14165   */\n  dup3\n    /* \"#utility.yul\":14160:14169   */\n  mul\n    /* \"#utility.yul\":14189:14219   */\n  tag_233\n    /* \"#utility.yul\":14207:14218   */\n  dup2\n    /* \"#utility.yul\":14189:14219   */\n  tag_40\n  jump\t// in\ntag_233:\n    /* \"#utility.yul\":14178:14219   */\n  swap2\n  pop\n    /* \"#utility.yul\":14368:14369   */\n  dup3\n    /* \"#utility.yul\":14359:14366   */\n  dup3\n    /* \"#utility.yul\":14355:14370   */\n  div\n    /* \"#utility.yul\":14352:14353   */\n  dup5\n    /* \"#utility.yul\":14349:14371   */\n  eq\n    /* \"#utility.yul\":14329:14330   */\n  dup4\n    /* \"#utility.yul\":14322:14331   */\n  iszero\n    /* \"#utility.yul\":14302:14385   */\n  or\n    /* \"#utility.yul\":14279:14418   */\n  tag_234\n  jumpi\n    /* \"#utility.yul\":14398:14416   */\n  tag_235\n  tag_43\n  jump\t// in\ntag_235:\n    /* \"#utility.yul\":14279:14418   */\ntag_234:\n    /* \"#utility.yul\":14063:14425   */\n  pop\n    /* \"#utility.yul\":14015:14425   */\n  swap3\n  swap2\n  pop\n  pop\n  jump\t// out\n    /* \"#utility.yul\":14431:14549   */\ntag_68:\n    /* \"#utility.yul\":14518:14542   */\n  tag_237\n    /* \"#utility.yul\":14536:14541   */\n  dup2\n    /* \"#utility.yul\":14518:14542   */\n  tag_40\n  jump\t// in\ntag_237:\n    /* \"#utility.yul\":14513:14516   */\n  dup3\n    /* \"#utility.yul\":14506:14543   */\n  mstore\n    /* \"#utility.yul\":14431:14549   */\n  pop\n  pop\n  jump\t// out\n    /* \"#utility.yul\":14555:14777   */\ntag_22:\n    /* \"#utility.yul\":14648:14652   */\n  0x00\n    /* \"#utility.yul\":14686:14688   */\n  0x20\n    /* \"#utility.yul\":14675:14684   */\n  dup3\n    /* \"#utility.yul\":14671:14689   */\n  add\n    /* \"#utility.yul\":14663:14689   */\n  swap1\n  pop\n    /* \"#utility.yul\":14699:14770   */\n  tag_239\n    /* \"#utility.yul\":14767:14768   */\n  0x00\n    /* \"#utility.yul\":14756:14765   */\n  dup4\n    /* \"#utility.yul\":14752:14769   */\n  add\n    /* \"#utility.yul\":14743:14749   */\n  dup5\n    /* \"#utility.yul\":14699:14770   */\n  tag_68\n  jump\t// in\ntag_239:\n    /* \"#utility.yul\":14555:14777   */\n  swap3\n  swap2\n  pop\n  pop\n  jump\t// out\n    /* \"contracts/manage.sol\":590:4280  contract ECR20_PToken is IERC20 {... */\ntag_23:\n  dataSize(sub_0)\n  dup1\n  dataOffset(sub_0)\n  0x00\n  codecopy\n  0x00\n  return\nstop\n\nsub_0: assembly {\n        /* \"contracts/manage.sol\":590:4280  contract ECR20_PToken is IERC20 {... */\n      mstore(0x40, 0x80)\n      callvalue\n      dup1\n      iszero\n      tag_1\n      jumpi\n      0x00\n      dup1\n      revert\n    tag_1:\n      pop\n      jumpi(tag_2, lt(calldatasize, 0x04))\n      shr(0xe0, calldataload(0x00))\n      dup1\n      0x6a0f62d6\n      gt\n      tag_23\n      jumpi\n      dup1\n      0x95d89b41\n      gt\n      tag_24\n      jumpi\n      dup1\n      0x95d89b41\n      eq\n      tag_18\n      jumpi\n      dup1\n      0xa0712d68\n      eq\n      tag_19\n      jumpi\n      dup1\n      0xa9059cbb\n      eq\n      tag_20\n      jumpi\n      dup1\n      0xb65fa14f\n      eq\n      tag_21\n      jumpi\n      dup1\n      0xbe22f546\n      eq\n      tag_22\n      jumpi\n      jump(tag_2)\n    tag_24:\n      dup1\n      0x6a0f62d6\n      eq\n      tag_13\n      jumpi\n      dup1\n      0x6f43f373\n      eq\n      tag_14\n      jumpi\n      dup1\n      0x70a08231\n      eq\n      tag_15\n      jumpi\n      dup1\n      0x8da5cb5b\n      eq\n      tag_16\n      jumpi\n      dup1\n      0x8e15f473\n      eq\n      tag_17\n      jumpi\n      jump(tag_2)\n    tag_23:\n      dup1\n      0x313ce567\n      gt\n      tag_25\n      jumpi\n      dup1\n      0x313ce567\n      eq\n      tag_8\n      jumpi\n      dup1\n      0x42966c68\n      eq\n      tag_9\n      jumpi\n      dup1\n      0x4f771c88\n      eq\n      tag_10\n      jumpi\n      dup1\n      0x57970e93\n      eq\n      tag_11\n      jumpi\n      dup1\n      0x58f40399\n      eq\n      tag_12\n      jumpi\n      jump(tag_2)\n    tag_25:\n      dup1\n      0x912b37\n      eq\n      tag_3\n      jumpi\n      dup1\n      0x02e65008\n      eq\n      tag_4\n      jumpi\n      dup1\n      0x06fdde03\n      eq\n      tag_5\n      jumpi\n      dup1\n      0x11eac855\n      eq\n      tag_6\n      jumpi\n      dup1\n      0x18160ddd\n      eq\n      tag_7\n      jumpi\n    tag_2:\n      0x00\n      dup1\n      revert\n        /* \"contracts/manage.sol\":1528:1638  AggregatorV3Interface public linkPriceFeed = AggregatorV3Interface(0xc59E3633BAAC79493d908e63626716e204A45EdF) */\n    tag_3:\n      tag_26\n      tag_27\n      jump\t// in\n    tag_26:\n      mload(0x40)\n      tag_28\n      swap2\n      swap1\n      tag_29\n      jump\t// in\n    tag_28:\n      mload(0x40)\n      dup1\n      swap2\n      sub\n      swap1\n      return\n        /* \"contracts/manage.sol\":1216:1240  uint256 public linkRatio */\n    tag_4:\n      tag_30\n      tag_31\n      jump\t// in\n    tag_30:\n      mload(0x40)\n      tag_32\n      swap2\n      swap1\n      tag_33\n      jump\t// in\n    tag_32:\n      mload(0x40)\n      dup1\n      swap2\n      sub\n      swap1\n      return\n        /* \"contracts/manage.sol\":629:647  string public name */\n    tag_5:\n      tag_34\n      tag_35\n      jump\t// in\n    tag_34:\n      mload(0x40)\n      tag_36\n      swap2\n      swap1\n      tag_37\n      jump\t// in\n    tag_36:\n      mload(0x40)\n      dup1\n      swap2\n      sub\n      swap1\n      return\n        /* \"contracts/manage.sol\":933:1009  IERC20 public usdcToken = IERC20(0x2B0974b96511a728CA6342597471366D3444Aa2a) */\n    tag_6:\n      tag_38\n      tag_39\n      jump\t// in\n    tag_38:\n      mload(0x40)\n      tag_40\n      swap2\n      swap1\n      tag_41\n      jump\t// in\n    tag_40:\n      mload(0x40)\n      dup1\n      swap2\n      sub\n      swap1\n      return\n        /* \"contracts/manage.sol\":709:741  uint public override totalSupply */\n    tag_7:\n      tag_42\n      tag_43\n      jump\t// in\n    tag_42:\n      mload(0x40)\n      tag_44\n      swap2\n      swap1\n      tag_33\n      jump\t// in\n    tag_44:\n      mload(0x40)\n      dup1\n      swap2\n      sub\n      swap1\n      return\n        /* \"contracts/manage.sol\":681:702  uint8 public decimals */\n    tag_8:\n      tag_45\n      tag_46\n      jump\t// in\n    tag_45:\n      mload(0x40)\n      tag_47\n      swap2\n      swap1\n      tag_48\n      jump\t// in\n    tag_47:\n      mload(0x40)\n      dup1\n      swap2\n      sub\n      swap1\n      return\n        /* \"contracts/manage.sol\":3951:4125  function burn(uint amount) external {... */\n    tag_9:\n      tag_49\n      0x04\n      dup1\n      calldatasize\n      sub\n      dup2\n      add\n      swap1\n      tag_50\n      swap2\n      swap1\n      tag_51\n      jump\t// in\n    tag_50:\n      tag_52\n      jump\t// in\n    tag_49:\n      stop\n        /* \"contracts/manage.sol\":1250:1359  AggregatorV3Interface public daiPriceFeed = AggregatorV3Interface(0x14866185B1962B63C3Ea9E03Bc1da838bab34C19) */\n    tag_10:\n      tag_53\n      tag_54\n      jump\t// in\n    tag_53:\n      mload(0x40)\n      tag_55\n      swap2\n      swap1\n      tag_29\n      jump\t// in\n    tag_55:\n      mload(0x40)\n      dup1\n      swap2\n      sub\n      swap1\n      return\n        /* \"contracts/manage.sol\":1043:1119  IERC20 public linkToken = IERC20(0x6B904451abABB342D2b787C5126C6361dD815246) */\n    tag_11:\n      tag_56\n      tag_57\n      jump\t// in\n    tag_56:\n      mload(0x40)\n      tag_58\n      swap2\n      swap1\n      tag_41\n      jump\t// in\n    tag_58:\n      mload(0x40)\n      dup1\n      swap2\n      sub\n      swap1\n      return\n        /* \"contracts/manage.sol\":1388:1498  AggregatorV3Interface public usdcPriceFeed = AggregatorV3Interface(0xA2F78ab2355fe2f984D808B5CeE7FD0A93D5270E) */\n    tag_12:\n      tag_59\n      tag_60\n      jump\t// in\n    tag_59:\n      mload(0x40)\n      tag_61\n      swap2\n      swap1\n      tag_29\n      jump\t// in\n    tag_61:\n      mload(0x40)\n      dup1\n      swap2\n      sub\n      swap1\n      return\n        /* \"contracts/manage.sol\":1155:1178  uint256 public daiRatio */\n    tag_13:\n      tag_62\n      tag_63\n      jump\t// in\n    tag_62:\n      mload(0x40)\n      tag_64\n      swap2\n      swap1\n      tag_33\n      jump\t// in\n    tag_64:\n      mload(0x40)\n      dup1\n      swap2\n      sub\n      swap1\n      return\n        /* \"contracts/manage.sol\":1185:1209  uint256 public usdcRatio */\n    tag_14:\n      tag_65\n      tag_66\n      jump\t// in\n    tag_65:\n      mload(0x40)\n      tag_67\n      swap2\n      swap1\n      tag_33\n      jump\t// in\n    tag_67:\n      mload(0x40)\n      dup1\n      swap2\n      sub\n      swap1\n      return\n        /* \"contracts/manage.sol\":748:789  mapping(address => uint) public balanceOf */\n    tag_15:\n      tag_68\n      0x04\n      dup1\n      calldatasize\n      sub\n      dup2\n      add\n      swap1\n      tag_69\n      swap2\n      swap1\n      tag_70\n      jump\t// in\n    tag_69:\n      tag_71\n      jump\t// in\n    tag_68:\n      mload(0x40)\n      tag_72\n      swap2\n      swap1\n      tag_33\n      jump\t// in\n    tag_72:\n      mload(0x40)\n      dup1\n      swap2\n      sub\n      swap1\n      return\n        /* \"contracts/manage.sol\":796:816  address public owner */\n    tag_16:\n      tag_73\n      tag_74\n      jump\t// in\n    tag_73:\n      mload(0x40)\n      tag_75\n      swap2\n      swap1\n      tag_76\n      jump\t// in\n    tag_75:\n      mload(0x40)\n      dup1\n      swap2\n      sub\n      swap1\n      return\n        /* \"contracts/manage.sol\":2599:3359  function getLatestPrice() public view returns (uint256) {... */\n    tag_17:\n      tag_77\n      tag_78\n      jump\t// in\n    tag_77:\n      mload(0x40)\n      tag_79\n      swap2\n      swap1\n      tag_33\n      jump\t// in\n    tag_79:\n      mload(0x40)\n      dup1\n      swap2\n      sub\n      swap1\n      return\n        /* \"contracts/manage.sol\":654:674  string public symbol */\n    tag_18:\n      tag_80\n      tag_81\n      jump\t// in\n    tag_80:\n      mload(0x40)\n      tag_82\n      swap2\n      swap1\n      tag_37\n      jump\t// in\n    tag_82:\n      mload(0x40)\n      dup1\n      swap2\n      sub\n      swap1\n      return\n        /* \"contracts/manage.sol\":3685:3859  function mint(uint amount) external {... */\n    tag_19:\n      tag_83\n      0x04\n      dup1\n      calldatasize\n      sub\n      dup2\n      add\n      swap1\n      tag_84\n      swap2\n      swap1\n      tag_51\n      jump\t// in\n    tag_84:\n      tag_85\n      jump\t// in\n    tag_83:\n      stop\n        /* \"contracts/manage.sol\":3367:3609  function transfer(address recipient, uint amount) external returns (bool) {... */\n    tag_20:\n      tag_86\n      0x04\n      dup1\n      calldatasize\n      sub\n      dup2\n      add\n      swap1\n      tag_87\n      swap2\n      swap1\n      tag_88\n      jump\t// in\n    tag_87:\n      tag_89\n      jump\t// in\n    tag_86:\n      mload(0x40)\n      tag_90\n      swap2\n      swap1\n      tag_91\n      jump\t// in\n    tag_90:\n      mload(0x40)\n      dup1\n      swap2\n      sub\n      swap1\n      return\n        /* \"contracts/manage.sol\":4172:4277  function getOwnerBalanceOf() external view returns (uint) {... */\n    tag_21:\n      tag_92\n      tag_93\n      jump\t// in\n    tag_92:\n      mload(0x40)\n      tag_94\n      swap2\n      swap1\n      tag_33\n      jump\t// in\n    tag_94:\n      mload(0x40)\n      dup1\n      swap2\n      sub\n      swap1\n      return\n        /* \"contracts/manage.sol\":825:900  IERC20 public daiToken = IERC20(0x82fb927676b53b6eE07904780c7be9b4B50dB80b) */\n    tag_22:\n      tag_95\n      tag_96\n      jump\t// in\n    tag_95:\n      mload(0x40)\n      tag_97\n      swap2\n      swap1\n      tag_41\n      jump\t// in\n    tag_97:\n      mload(0x40)\n      dup1\n      swap2\n      sub\n      swap1\n      return\n        /* \"contracts/manage.sol\":1528:1638  AggregatorV3Interface public linkPriceFeed = AggregatorV3Interface(0xc59E3633BAAC79493d908e63626716e204A45EdF) */\n    tag_27:\n      0x0e\n      0x00\n      swap1\n      sload\n      swap1\n      0x0100\n      exp\n      swap1\n      div\n      0xffffffffffffffffffffffffffffffffffffffff\n      and\n      dup2\n      jump\t// out\n        /* \"contracts/manage.sol\":1216:1240  uint256 public linkRatio */\n    tag_31:\n      sload(0x0b)\n      dup2\n      jump\t// out\n        /* \"contracts/manage.sol\":629:647  string public name */\n    tag_35:\n      0x00\n      dup1\n      sload\n      tag_98\n      swap1\n      tag_99\n      jump\t// in\n    tag_98:\n      dup1\n      0x1f\n      add\n      0x20\n      dup1\n      swap2\n      div\n      mul\n      0x20\n      add\n      mload(0x40)\n      swap1\n      dup2\n      add\n      0x40\n      mstore\n      dup1\n      swap3\n      swap2\n      swap1\n      dup2\n      dup2\n      mstore\n      0x20\n      add\n      dup3\n      dup1\n      sload\n      tag_100\n      swap1\n      tag_99\n      jump\t// in\n    tag_100:\n      dup1\n      iszero\n      tag_101\n      jumpi\n      dup1\n      0x1f\n      lt\n      tag_102\n      jumpi\n      0x0100\n      dup1\n      dup4\n      sload\n      div\n      mul\n      dup4\n      mstore\n      swap2\n      0x20\n      add\n      swap2\n      jump(tag_101)\n    tag_102:\n      dup3\n      add\n      swap2\n      swap1\n      0x00\n      mstore\n      keccak256(0x00, 0x20)\n      swap1\n    tag_103:\n      dup2\n      sload\n      dup2\n      mstore\n      swap1\n      0x01\n      add\n      swap1\n      0x20\n      add\n      dup1\n      dup4\n      gt\n      tag_103\n      jumpi\n      dup3\n      swap1\n      sub\n      0x1f\n      and\n      dup3\n      add\n      swap2\n    tag_101:\n      pop\n      pop\n      pop\n      pop\n      pop\n      dup2\n      jump\t// out\n        /* \"contracts/manage.sol\":933:1009  IERC20 public usdcToken = IERC20(0x2B0974b96511a728CA6342597471366D3444Aa2a) */\n    tag_39:\n      0x07\n      0x00\n      swap1\n      sload\n      swap1\n      0x0100\n      exp\n      swap1\n      div\n      0xffffffffffffffffffffffffffffffffffffffff\n      and\n      dup2\n      jump\t// out\n        /* \"contracts/manage.sol\":709:741  uint public override totalSupply */\n    tag_43:\n      sload(0x03)\n      dup2\n      jump\t// out\n        /* \"contracts/manage.sol\":681:702  uint8 public decimals */\n    tag_46:\n      0x02\n      0x00\n      swap1\n      sload\n      swap1\n      0x0100\n      exp\n      swap1\n      div\n      0xff\n      and\n      dup2\n      jump\t// out\n        /* \"contracts/manage.sol\":3951:4125  function burn(uint amount) external {... */\n    tag_52:\n        /* \"contracts/manage.sol\":4023:4029  amount */\n      dup1\n        /* \"contracts/manage.sol\":3998:4007  balanceOf */\n      0x04\n        /* \"contracts/manage.sol\":3998:4019  balanceOf[msg.sender] */\n      0x00\n        /* \"contracts/manage.sol\":4008:4018  msg.sender */\n      caller\n        /* \"contracts/manage.sol\":3998:4019  balanceOf[msg.sender] */\n      0xffffffffffffffffffffffffffffffffffffffff\n      and\n      0xffffffffffffffffffffffffffffffffffffffff\n      and\n      dup2\n      mstore\n      0x20\n      add\n      swap1\n      dup2\n      mstore\n      0x20\n      add\n      0x00\n      keccak256\n      0x00\n        /* \"contracts/manage.sol\":3998:4029  balanceOf[msg.sender] -= amount */\n      dup3\n      dup3\n      sload\n      tag_105\n      swap2\n      swap1\n      tag_106\n      jump\t// in\n    tag_105:\n      swap3\n      pop\n      pop\n      dup2\n      swap1\n      sstore\n      pop\n        /* \"contracts/manage.sol\":4055:4061  amount */\n      dup1\n        /* \"contracts/manage.sol\":4040:4051  totalSupply */\n      0x03\n      0x00\n        /* \"contracts/manage.sol\":4040:4061  totalSupply -= amount */\n      dup3\n      dup3\n      sload\n      tag_107\n      swap2\n      swap1\n      tag_106\n      jump\t// in\n    tag_107:\n      swap3\n      pop\n      pop\n      dup2\n      swap1\n      sstore\n      pop\n        /* \"contracts/manage.sol\":4106:4107  0 */\n      0x00\n        /* \"contracts/manage.sol\":4077:4117  Transfer(msg.sender, address(0), amount) */\n      0xffffffffffffffffffffffffffffffffffffffff\n      and\n        /* \"contracts/manage.sol\":4086:4096  msg.sender */\n      caller\n        /* \"contracts/manage.sol\":4077:4117  Transfer(msg.sender, address(0), amount) */\n      0xffffffffffffffffffffffffffffffffffffffff\n      and\n      0xddf252ad1be2c89b69c2b068fc378daa952ba7f163c4a11628f55a4df523b3ef\n        /* \"contracts/manage.sol\":4110:4116  amount */\n      dup4\n        /* \"contracts/manage.sol\":4077:4117  Transfer(msg.sender, address(0), amount) */\n      mload(0x40)\n      tag_108\n      swap2\n      swap1\n      tag_33\n      jump\t// in\n    tag_108:\n      mload(0x40)\n      dup1\n      swap2\n      sub\n      swap1\n      log3\n        /* \"contracts/manage.sol\":3951:4125  function burn(uint amount) external {... */\n      pop\n      jump\t// out\n        /* \"contracts/manage.sol\":1250:1359  AggregatorV3Interface public daiPriceFeed = AggregatorV3Interface(0x14866185B1962B63C3Ea9E03Bc1da838bab34C19) */\n    tag_54:\n      0x0c\n      0x00\n      swap1\n      sload\n      swap1\n      0x0100\n      exp\n      swap1\n      div\n      0xffffffffffffffffffffffffffffffffffffffff\n      and\n      dup2\n      jump\t// out\n        /* \"contracts/manage.sol\":1043:1119  IERC20 public linkToken = IERC20(0x6B904451abABB342D2b787C5126C6361dD815246) */\n    tag_57:\n      0x08\n      0x00\n      swap1\n      sload\n      swap1\n      0x0100\n      exp\n      swap1\n      div\n      0xffffffffffffffffffffffffffffffffffffffff\n      and\n      dup2\n      jump\t// out\n        /* \"contracts/manage.sol\":1388:1498  AggregatorV3Interface public usdcPriceFeed = AggregatorV3Interface(0xA2F78ab2355fe2f984D808B5CeE7FD0A93D5270E) */\n    tag_60:\n      0x0d\n      0x00\n      swap1\n      sload\n      swap1\n      0x0100\n      exp\n      swap1\n      div\n      0xffffffffffffffffffffffffffffffffffffffff\n      and\n      dup2\n      jump\t// out\n        /* \"contracts/manage.sol\":1155:1178  uint256 public daiRatio */\n    tag_63:\n      sload(0x09)\n      dup2\n      jump\t// out\n        /* \"contracts/manage.sol\":1185:1209  uint256 public usdcRatio */\n    tag_66:\n      sload(0x0a)\n      dup2\n      jump\t// out\n        /* \"contracts/manage.sol\":748:789  mapping(address => uint) public balanceOf */\n    tag_71:\n      mstore(0x20, 0x04)\n      dup1\n      0x00\n      mstore\n      keccak256(0x00, 0x40)\n      0x00\n      swap2\n      pop\n      swap1\n      pop\n      sload\n      dup2\n      jump\t// out\n        /* \"contracts/manage.sol\":796:816  address public owner */\n    tag_74:\n      0x05\n      0x00\n      swap1\n      sload\n      swap1\n      0x0100\n      exp\n      swap1\n      div\n      0xffffffffffffffffffffffffffffffffffffffff\n      and\n      dup2\n      jump\t// out\n        /* \"contracts/manage.sol\":2599:3359  function getLatestPrice() public view returns (uint256) {... */\n    tag_78:\n        /* \"contracts/manage.sol\":2646:2653  uint256 */\n      0x00\n        /* \"contracts/manage.sol\":2668:2680  int daiPrice */\n      dup1\n        /* \"contracts/manage.sol\":2687:2699  daiPriceFeed */\n      0x0c\n      0x00\n      swap1\n      sload\n      swap1\n      0x0100\n      exp\n      swap1\n      div\n      0xffffffffffffffffffffffffffffffffffffffff\n      and\n        /* \"contracts/manage.sol\":2687:2715  daiPriceFeed.latestRoundData */\n      0xffffffffffffffffffffffffffffffffffffffff\n      and\n      0xfeaf968c\n        /* \"contracts/manage.sol\":2687:2717  daiPriceFeed.latestRoundData() */\n      mload(0x40)\n      dup2\n      0xffffffff\n      and\n      0xe0\n      shl\n      dup2\n      mstore\n      0x04\n      add\n      0xa0\n      mload(0x40)\n      dup1\n      dup4\n      sub\n      dup2\n      dup7\n      gas\n      staticcall\n      iszero\n      dup1\n      iszero\n      tag_111\n      jumpi\n      returndatasize\n      0x00\n      dup1\n      returndatacopy\n      revert(0x00, returndatasize)\n    tag_111:\n      pop\n      pop\n      pop\n      pop\n      mload(0x40)\n      returndatasize\n      not(0x1f)\n      0x1f\n      dup3\n      add\n      and\n      dup3\n      add\n      dup1\n      0x40\n      mstore\n      pop\n      dup2\n      add\n      swap1\n      tag_112\n      swap2\n      swap1\n      tag_113\n      jump\t// in\n    tag_112:\n        /* \"contracts/manage.sol\":2666:2717  (,int daiPrice,,,) = daiPriceFeed.latestRoundData() */\n      pop\n      pop\n      pop\n      swap2\n      pop\n      pop\n        /* \"contracts/manage.sol\":2730:2743  int usdcPrice */\n      0x00\n        /* \"contracts/manage.sol\":2750:2763  usdcPriceFeed */\n      0x0d\n      0x00\n      swap1\n      sload\n      swap1\n      0x0100\n      exp\n      swap1\n      div\n      0xffffffffffffffffffffffffffffffffffffffff\n      and\n        /* \"contracts/manage.sol\":2750:2779  usdcPriceFeed.latestRoundData */\n      0xffffffffffffffffffffffffffffffffffffffff\n      and\n      0xfeaf968c\n        /* \"contracts/manage.sol\":2750:2781  usdcPriceFeed.latestRoundData() */\n      mload(0x40)\n      dup2\n      0xffffffff\n      and\n      0xe0\n      shl\n      dup2\n      mstore\n      0x04\n      add\n      0xa0\n      mload(0x40)\n      dup1\n      dup4\n      sub\n      dup2\n      dup7\n      gas\n      staticcall\n      iszero\n      dup1\n      iszero\n      tag_115\n      jumpi\n      returndatasize\n      0x00\n      dup1\n      returndatacopy\n      revert(0x00, returndatasize)\n    tag_115:\n      pop\n      pop\n      pop\n      pop\n      mload(0x40)\n      returndatasize\n      not(0x1f)\n      0x1f\n      dup3\n      add\n      and\n      dup3\n      add\n      dup1\n      0x40\n      mstore\n      pop\n      dup2\n      add\n      swap1\n      tag_116\n      swap2\n      swap1\n      tag_113\n      jump\t// in\n    tag_116:\n        /* \"contracts/manage.sol\":2728:2781  (,int usdcPrice,,,) = usdcPriceFeed.latestRoundData() */\n      pop\n      pop\n      pop\n      swap2\n      pop\n      pop\n        /* \"contracts/manage.sol\":2794:2807  int linkPrice */\n      0x00\n        /* \"contracts/manage.sol\":2814:2827  linkPriceFeed */\n      0x0e\n      0x00\n      swap1\n      sload\n      swap1\n      0x0100\n      exp\n      swap1\n      div\n      0xffffffffffffffffffffffffffffffffffffffff\n      and\n        /* \"contracts/manage.sol\":2814:2843  linkPriceFeed.latestRoundData */\n      0xffffffffffffffffffffffffffffffffffffffff\n      and\n      0xfeaf968c\n        /* \"contracts/manage.sol\":2814:2845  linkPriceFeed.latestRoundData() */\n      mload(0x40)\n      dup2\n      0xffffffff\n      and\n      0xe0\n      shl\n      dup2\n      mstore\n      0x04\n      add\n      0xa0\n      mload(0x40)\n      dup1\n      dup4\n      sub\n      dup2\n      dup7\n      gas\n      staticcall\n      iszero\n      dup1\n      iszero\n      tag_118\n      jumpi\n      returndatasize\n      0x00\n      dup1\n      returndatacopy\n      revert(0x00, returndatasize)\n    tag_118:\n      pop\n      pop\n      pop\n      pop\n      mload(0x40)\n      returndatasize\n      not(0x1f)\n      0x1f\n      dup3\n      add\n      and\n      dup3\n      add\n      dup1\n      0x40\n      mstore\n      pop\n      dup2\n      add\n      swap1\n      tag_119\n      swap2\n      swap1\n      tag_113\n      jump\t// in\n    tag_119:\n        /* \"contracts/manage.sol\":2792:2845  (,int linkPrice,,,) = linkPriceFeed.latestRoundData() */\n      pop\n      pop\n      pop\n      swap2\n      pop\n      pop\n        /* \"contracts/manage.sol\":2858:2884  uint256 daiPrice18Decimals */\n      0x00\n        /* \"contracts/manage.sol\":2907:2913  10**10 */\n      0x02540be400\n        /* \"contracts/manage.sol\":2895:2903  daiPrice */\n      dup5\n        /* \"contracts/manage.sol\":2887:2913  uint256(daiPrice) * 10**10 */\n      tag_120\n      swap2\n      swap1\n      tag_121\n      jump\t// in\n    tag_120:\n        /* \"contracts/manage.sol\":2858:2913  uint256 daiPrice18Decimals = uint256(daiPrice) * 10**10 */\n      swap1\n      pop\n        /* \"contracts/manage.sol\":2924:2951  uint256 usdcPrice18Decimals */\n      0x00\n        /* \"contracts/manage.sol\":2975:2981  10**10 */\n      0x02540be400\n        /* \"contracts/manage.sol\":2962:2971  usdcPrice */\n      dup5\n        /* \"contracts/manage.sol\":2954:2981  uint256(usdcPrice) * 10**10 */\n      tag_122\n      swap2\n      swap1\n      tag_121\n      jump\t// in\n    tag_122:\n        /* \"contracts/manage.sol\":2924:2981  uint256 usdcPrice18Decimals = uint256(usdcPrice) * 10**10 */\n      swap1\n      pop\n        /* \"contracts/manage.sol\":2992:3019  uint256 linkPrice18Decimals */\n      0x00\n        /* \"contracts/manage.sol\":3043:3049  10**10 */\n      0x02540be400\n        /* \"contracts/manage.sol\":3030:3039  linkPrice */\n      dup5\n        /* \"contracts/manage.sol\":3022:3049  uint256(linkPrice) * 10**10 */\n      tag_123\n      swap2\n      swap1\n      tag_121\n      jump\t// in\n    tag_123:\n        /* \"contracts/manage.sol\":2992:3049  uint256 linkPrice18Decimals = uint256(linkPrice) * 10**10 */\n      swap1\n      pop\n        /* \"contracts/manage.sol\":3062:3083  uint256 totalDaiPrice */\n      0x00\n        /* \"contracts/manage.sol\":3116:3124  daiRatio */\n      sload(0x09)\n        /* \"contracts/manage.sol\":3094:3112  daiPrice18Decimals */\n      dup5\n        /* \"contracts/manage.sol\":3086:3124  uint256(daiPrice18Decimals) * daiRatio */\n      tag_124\n      swap2\n      swap1\n      tag_121\n      jump\t// in\n    tag_124:\n        /* \"contracts/manage.sol\":3062:3124  uint256 totalDaiPrice = uint256(daiPrice18Decimals) * daiRatio */\n      swap1\n      pop\n        /* \"contracts/manage.sol\":3135:3157  uint256 totalUsdcPrice */\n      0x00\n        /* \"contracts/manage.sol\":3191:3200  usdcRatio */\n      sload(0x0a)\n        /* \"contracts/manage.sol\":3168:3187  usdcPrice18Decimals */\n      dup5\n        /* \"contracts/manage.sol\":3160:3200  uint256(usdcPrice18Decimals) * usdcRatio */\n      tag_125\n      swap2\n      swap1\n      tag_121\n      jump\t// in\n    tag_125:\n        /* \"contracts/manage.sol\":3135:3200  uint256 totalUsdcPrice = uint256(usdcPrice18Decimals) * usdcRatio */\n      swap1\n      pop\n        /* \"contracts/manage.sol\":3211:3233  uint256 totalLinkPrice */\n      0x00\n        /* \"contracts/manage.sol\":3267:3276  linkRatio */\n      sload(0x0b)\n        /* \"contracts/manage.sol\":3244:3263  linkPrice18Decimals */\n      dup5\n        /* \"contracts/manage.sol\":3236:3276  uint256(linkPrice18Decimals) * linkRatio */\n      tag_126\n      swap2\n      swap1\n      tag_121\n      jump\t// in\n    tag_126:\n        /* \"contracts/manage.sol\":3211:3276  uint256 totalLinkPrice = uint256(linkPrice18Decimals) * linkRatio */\n      swap1\n      pop\n        /* \"contracts/manage.sol\":3348:3351  100 */\n      0x64\n        /* \"contracts/manage.sol\":3330:3344  totalLinkPrice */\n      dup2\n        /* \"contracts/manage.sol\":3313:3327  totalUsdcPrice */\n      dup4\n        /* \"contracts/manage.sol\":3297:3310  totalDaiPrice */\n      dup6\n        /* \"contracts/manage.sol\":3297:3327  totalDaiPrice + totalUsdcPrice */\n      tag_127\n      swap2\n      swap1\n      tag_128\n      jump\t// in\n    tag_127:\n        /* \"contracts/manage.sol\":3297:3344  totalDaiPrice + totalUsdcPrice + totalLinkPrice */\n      tag_129\n      swap2\n      swap1\n      tag_128\n      jump\t// in\n    tag_129:\n        /* \"contracts/manage.sol\":3296:3351  (totalDaiPrice + totalUsdcPrice + totalLinkPrice) / 100 */\n      tag_130\n      swap2\n      swap1\n      tag_131\n      jump\t// in\n    tag_130:\n        /* \"contracts/manage.sol\":3289:3351  return (totalDaiPrice + totalUsdcPrice + totalLinkPrice) / 100 */\n      swap10\n      pop\n      pop\n      pop\n      pop\n      pop\n      pop\n      pop\n      pop\n      pop\n      pop\n        /* \"contracts/manage.sol\":2599:3359  function getLatestPrice() public view returns (uint256) {... */\n      swap1\n      jump\t// out\n        /* \"contracts/manage.sol\":654:674  string public symbol */\n    tag_81:\n      0x01\n      dup1\n      sload\n      tag_132\n      swap1\n      tag_99\n      jump\t// in\n    tag_132:\n      dup1\n      0x1f\n      add\n      0x20\n      dup1\n      swap2\n      div\n      mul\n      0x20\n      add\n      mload(0x40)\n      swap1\n      dup2\n      add\n      0x40\n      mstore\n      dup1\n      swap3\n      swap2\n      swap1\n      dup2\n      dup2\n      mstore\n      0x20\n      add\n      dup3\n      dup1\n      sload\n      tag_133\n      swap1\n      tag_99\n      jump\t// in\n    tag_133:\n      dup1\n      iszero\n      tag_134\n      jumpi\n      dup1\n      0x1f\n      lt\n      tag_135\n      jumpi\n      0x0100\n      dup1\n      dup4\n      sload\n      div\n      mul\n      dup4\n      mstore\n      swap2\n      0x20\n      add\n      swap2\n      jump(tag_134)\n    tag_135:\n      dup3\n      add\n      swap2\n      swap1\n      0x00\n      mstore\n      keccak256(0x00, 0x20)\n      swap1\n    tag_136:\n      dup2\n      sload\n      dup2\n      mstore\n      swap1\n      0x01\n      add\n      swap1\n      0x20\n      add\n      dup1\n      dup4\n      gt\n      tag_136\n      jumpi\n      dup3\n      swap1\n      sub\n      0x1f\n      and\n      dup3\n      add\n      swap2\n    tag_134:\n      pop\n      pop\n      pop\n      pop\n      pop\n      dup2\n      jump\t// out\n        /* \"contracts/manage.sol\":3685:3859  function mint(uint amount) external {... */\n    tag_85:\n        /* \"contracts/manage.sol\":3757:3763  amount */\n      dup1\n        /* \"contracts/manage.sol\":3732:3741  balanceOf */\n      0x04\n        /* \"contracts/manage.sol\":3732:3753  balanceOf[msg.sender] */\n      0x00\n        /* \"contracts/manage.sol\":3742:3752  msg.sender */\n      caller\n        /* \"contracts/manage.sol\":3732:3753  balanceOf[msg.sender] */\n      0xffffffffffffffffffffffffffffffffffffffff\n      and\n      0xffffffffffffffffffffffffffffffffffffffff\n      and\n      dup2\n      mstore\n      0x20\n      add\n      swap1\n      dup2\n      mstore\n      0x20\n      add\n      0x00\n      keccak256\n      0x00\n        /* \"contracts/manage.sol\":3732:3763  balanceOf[msg.sender] += amount */\n      dup3\n      dup3\n      sload\n      tag_138\n      swap2\n      swap1\n      tag_128\n      jump\t// in\n    tag_138:\n      swap3\n      pop\n      pop\n      dup2\n      swap1\n      sstore\n      pop\n        /* \"contracts/manage.sol\":3789:3795  amount */\n      dup1\n        /* \"contracts/manage.sol\":3774:3785  totalSupply */\n      0x03\n      0x00\n        /* \"contracts/manage.sol\":3774:3795  totalSupply += amount */\n      dup3\n      dup3\n      sload\n      tag_139\n      swap2\n      swap1\n      tag_128\n      jump\t// in\n    tag_139:\n      swap3\n      pop\n      pop\n      dup2\n      swap1\n      sstore\n      pop\n        /* \"contracts/manage.sol\":3832:3842  msg.sender */\n      caller\n        /* \"contracts/manage.sol\":3811:3851  Transfer(address(0), msg.sender, amount) */\n      0xffffffffffffffffffffffffffffffffffffffff\n      and\n        /* \"contracts/manage.sol\":3828:3829  0 */\n      0x00\n        /* \"contracts/manage.sol\":3811:3851  Transfer(address(0), msg.sender, amount) */\n      0xffffffffffffffffffffffffffffffffffffffff\n      and\n      0xddf252ad1be2c89b69c2b068fc378daa952ba7f163c4a11628f55a4df523b3ef\n        /* \"contracts/manage.sol\":3844:3850  amount */\n      dup4\n        /* \"contracts/manage.sol\":3811:3851  Transfer(address(0), msg.sender, amount) */\n      mload(0x40)\n      tag_140\n      swap2\n      swap1\n      tag_33\n      jump\t// in\n    tag_140:\n      mload(0x40)\n      dup1\n      swap2\n      sub\n      swap1\n      log3\n        /* \"contracts/manage.sol\":3685:3859  function mint(uint amount) external {... */\n      pop\n      jump\t// out\n        /* \"contracts/manage.sol\":3367:3609  function transfer(address recipient, uint amount) external returns (bool) {... */\n    tag_89:\n        /* \"contracts/manage.sol\":3435:3439  bool */\n      0x00\n        /* \"contracts/manage.sol\":3477:3483  amount */\n      dup2\n        /* \"contracts/manage.sol\":3452:3461  balanceOf */\n      0x04\n        /* \"contracts/manage.sol\":3452:3473  balanceOf[msg.sender] */\n      0x00\n        /* \"contracts/manage.sol\":3462:3472  msg.sender */\n      caller\n        /* \"contracts/manage.sol\":3452:3473  balanceOf[msg.sender] */\n      0xffffffffffffffffffffffffffffffffffffffff\n      and\n      0xffffffffffffffffffffffffffffffffffffffff\n      and\n      dup2\n      mstore\n      0x20\n      add\n      swap1\n      dup2\n      mstore\n      0x20\n      add\n      0x00\n      keccak256\n      0x00\n        /* \"contracts/manage.sol\":3452:3483  balanceOf[msg.sender] -= amount */\n      dup3\n      dup3\n      sload\n      tag_142\n      swap2\n      swap1\n      tag_106\n      jump\t// in\n    tag_142:\n      swap3\n      pop\n      pop\n      dup2\n      swap1\n      sstore\n      pop\n        /* \"contracts/manage.sol\":3518:3524  amount */\n      dup2\n        /* \"contracts/manage.sol\":3494:3503  balanceOf */\n      0x04\n        /* \"contracts/manage.sol\":3494:3514  balanceOf[recipient] */\n      0x00\n        /* \"contracts/manage.sol\":3504:3513  recipient */\n      dup6\n        /* \"contracts/manage.sol\":3494:3514  balanceOf[recipient] */\n      0xffffffffffffffffffffffffffffffffffffffff\n      and\n      0xffffffffffffffffffffffffffffffffffffffff\n      and\n      dup2\n      mstore\n      0x20\n      add\n      swap1\n      dup2\n      mstore\n      0x20\n      add\n      0x00\n      keccak256\n      0x00\n        /* \"contracts/manage.sol\":3494:3524  balanceOf[recipient] += amount */\n      dup3\n      dup3\n      sload\n      tag_143\n      swap2\n      swap1\n      tag_128\n      jump\t// in\n    tag_143:\n      swap3\n      pop\n      pop\n      dup2\n      swap1\n      sstore\n      pop\n        /* \"contracts/manage.sol\":3561:3570  recipient */\n      dup3\n        /* \"contracts/manage.sol\":3540:3579  Transfer(msg.sender, recipient, amount) */\n      0xffffffffffffffffffffffffffffffffffffffff\n      and\n        /* \"contracts/manage.sol\":3549:3559  msg.sender */\n      caller\n        /* \"contracts/manage.sol\":3540:3579  Transfer(msg.sender, recipient, amount) */\n      0xffffffffffffffffffffffffffffffffffffffff\n      and\n      0xddf252ad1be2c89b69c2b068fc378daa952ba7f163c4a11628f55a4df523b3ef\n        /* \"contracts/manage.sol\":3572:3578  amount */\n      dup5\n        /* \"contracts/manage.sol\":3540:3579  Transfer(msg.sender, recipient, amount) */\n      mload(0x40)\n      tag_144\n      swap2\n      swap1\n      tag_33\n      jump\t// in\n    tag_144:\n      mload(0x40)\n      dup1\n      swap2\n      sub\n      swap1\n      log3\n        /* \"contracts/manage.sol\":3597:3601  true */\n      0x01\n        /* \"contracts/manage.sol\":3590:3601  return true */\n      swap1\n      pop\n        /* \"contracts/manage.sol\":3367:3609  function transfer(address recipient, uint amount) external returns (bool) {... */\n      swap3\n      swap2\n      pop\n      pop\n      jump\t// out\n        /* \"contracts/manage.sol\":4172:4277  function getOwnerBalanceOf() external view returns (uint) {... */\n    tag_93:\n        /* \"contracts/manage.sol\":4224:4228  uint */\n      0x00\n        /* \"contracts/manage.sol\":4248:4257  balanceOf */\n      0x04\n        /* \"contracts/manage.sol\":4248:4269  balanceOf[msg.sender] */\n      0x00\n        /* \"contracts/manage.sol\":4258:4268  msg.sender */\n      caller\n        /* \"contracts/manage.sol\":4248:4269  balanceOf[msg.sender] */\n      0xffffffffffffffffffffffffffffffffffffffff\n      and\n      0xffffffffffffffffffffffffffffffffffffffff\n      and\n      dup2\n      mstore\n      0x20\n      add\n      swap1\n      dup2\n      mstore\n      0x20\n      add\n      0x00\n      keccak256\n      sload\n        /* \"contracts/manage.sol\":4241:4269  return balanceOf[msg.sender] */\n      swap1\n      pop\n        /* \"contracts/manage.sol\":4172:4277  function getOwnerBalanceOf() external view returns (uint) {... */\n      swap1\n      jump\t// out\n        /* \"contracts/manage.sol\":825:900  IERC20 public daiToken = IERC20(0x82fb927676b53b6eE07904780c7be9b4B50dB80b) */\n    tag_96:\n      0x06\n      0x00\n      swap1\n      sload\n      swap1\n      0x0100\n      exp\n      swap1\n      div\n      0xffffffffffffffffffffffffffffffffffffffff\n      and\n      dup2\n      jump\t// out\n        /* \"#utility.yul\":7:133   */\n    tag_146:\n        /* \"#utility.yul\":44:51   */\n      0x00\n        /* \"#utility.yul\":84:126   */\n      0xffffffffffffffffffffffffffffffffffffffff\n        /* \"#utility.yul\":77:82   */\n      dup3\n        /* \"#utility.yul\":73:127   */\n      and\n        /* \"#utility.yul\":62:127   */\n      swap1\n      pop\n        /* \"#utility.yul\":7:133   */\n      swap2\n      swap1\n      pop\n      jump\t// out\n        /* \"#utility.yul\":139:199   */\n    tag_147:\n        /* \"#utility.yul\":167:170   */\n      0x00\n        /* \"#utility.yul\":188:193   */\n      dup2\n        /* \"#utility.yul\":181:193   */\n      swap1\n      pop\n        /* \"#utility.yul\":139:199   */\n      swap2\n      swap1\n      pop\n      jump\t// out\n        /* \"#utility.yul\":205:347   */\n    tag_148:\n        /* \"#utility.yul\":255:264   */\n      0x00\n        /* \"#utility.yul\":288:341   */\n      tag_188\n        /* \"#utility.yul\":306:340   */\n      tag_189\n        /* \"#utility.yul\":315:339   */\n      tag_190\n        /* \"#utility.yul\":333:338   */\n      dup5\n        /* \"#utility.yul\":315:339   */\n      tag_146\n      jump\t// in\n    tag_190:\n        /* \"#utility.yul\":306:340   */\n      tag_147\n      jump\t// in\n    tag_189:\n        /* \"#utility.yul\":288:341   */\n      tag_146\n      jump\t// in\n    tag_188:\n        /* \"#utility.yul\":275:341   */\n      swap1\n      pop\n        /* \"#utility.yul\":205:347   */\n      swap2\n      swap1\n      pop\n      jump\t// out\n        /* \"#utility.yul\":353:479   */\n    tag_149:\n        /* \"#utility.yul\":403:412   */\n      0x00\n        /* \"#utility.yul\":436:473   */\n      tag_192\n        /* \"#utility.yul\":467:472   */\n      dup3\n        /* \"#utility.yul\":436:473   */\n      tag_148\n      jump\t// in\n    tag_192:\n        /* \"#utility.yul\":423:473   */\n      swap1\n      pop\n        /* \"#utility.yul\":353:479   */\n      swap2\n      swap1\n      pop\n      jump\t// out\n        /* \"#utility.yul\":485:639   */\n    tag_150:\n        /* \"#utility.yul\":563:572   */\n      0x00\n        /* \"#utility.yul\":596:633   */\n      tag_194\n        /* \"#utility.yul\":627:632   */\n      dup3\n        /* \"#utility.yul\":596:633   */\n      tag_149\n      jump\t// in\n    tag_194:\n        /* \"#utility.yul\":583:633   */\n      swap1\n      pop\n        /* \"#utility.yul\":485:639   */\n      swap2\n      swap1\n      pop\n      jump\t// out\n        /* \"#utility.yul\":645:832   */\n    tag_151:\n        /* \"#utility.yul\":760:825   */\n      tag_196\n        /* \"#utility.yul\":819:824   */\n      dup2\n        /* \"#utility.yul\":760:825   */\n      tag_150\n      jump\t// in\n    tag_196:\n        /* \"#utility.yul\":755:758   */\n      dup3\n        /* \"#utility.yul\":748:826   */\n      mstore\n        /* \"#utility.yul\":645:832   */\n      pop\n      pop\n      jump\t// out\n        /* \"#utility.yul\":838:1116   */\n    tag_29:\n        /* \"#utility.yul\":959:963   */\n      0x00\n        /* \"#utility.yul\":997:999   */\n      0x20\n        /* \"#utility.yul\":986:995   */\n      dup3\n        /* \"#utility.yul\":982:1000   */\n      add\n        /* \"#utility.yul\":974:1000   */\n      swap1\n      pop\n        /* \"#utility.yul\":1010:1109   */\n      tag_198\n        /* \"#utility.yul\":1106:1107   */\n      0x00\n        /* \"#utility.yul\":1095:1104   */\n      dup4\n        /* \"#utility.yul\":1091:1108   */\n      add\n        /* \"#utility.yul\":1082:1088   */\n      dup5\n        /* \"#utility.yul\":1010:1109   */\n      tag_151\n      jump\t// in\n    tag_198:\n        /* \"#utility.yul\":838:1116   */\n      swap3\n      swap2\n      pop\n      pop\n      jump\t// out\n        /* \"#utility.yul\":1122:1199   */\n    tag_152:\n        /* \"#utility.yul\":1159:1166   */\n      0x00\n        /* \"#utility.yul\":1188:1193   */\n      dup2\n        /* \"#utility.yul\":1177:1193   */\n      swap1\n      pop\n        /* \"#utility.yul\":1122:1199   */\n      swap2\n      swap1\n      pop\n      jump\t// out\n        /* \"#utility.yul\":1205:1323   */\n    tag_153:\n        /* \"#utility.yul\":1292:1316   */\n      tag_201\n        /* \"#utility.yul\":1310:1315   */\n      dup2\n        /* \"#utility.yul\":1292:1316   */\n      tag_152\n      jump\t// in\n    tag_201:\n        /* \"#utility.yul\":1287:1290   */\n      dup3\n        /* \"#utility.yul\":1280:1317   */\n      mstore\n        /* \"#utility.yul\":1205:1323   */\n      pop\n      pop\n      jump\t// out\n        /* \"#utility.yul\":1329:1551   */\n    tag_33:\n        /* \"#utility.yul\":1422:1426   */\n      0x00\n        /* \"#utility.yul\":1460:1462   */\n      0x20\n        /* \"#utility.yul\":1449:1458   */\n      dup3\n        /* \"#utility.yul\":1445:1463   */\n      add\n        /* \"#utility.yul\":1437:1463   */\n      swap1\n      pop\n        /* \"#utility.yul\":1473:1544   */\n      tag_203\n        /* \"#utility.yul\":1541:1542   */\n      0x00\n        /* \"#utility.yul\":1530:1539   */\n      dup4\n        /* \"#utility.yul\":1526:1543   */\n      add\n        /* \"#utility.yul\":1517:1523   */\n      dup5\n        /* \"#utility.yul\":1473:1544   */\n      tag_153\n      jump\t// in\n    tag_203:\n        /* \"#utility.yul\":1329:1551   */\n      swap3\n      swap2\n      pop\n      pop\n      jump\t// out\n        /* \"#utility.yul\":1557:1656   */\n    tag_154:\n        /* \"#utility.yul\":1609:1615   */\n      0x00\n        /* \"#utility.yul\":1643:1648   */\n      dup2\n        /* \"#utility.yul\":1637:1649   */\n      mload\n        /* \"#utility.yul\":1627:1649   */\n      swap1\n      pop\n        /* \"#utility.yul\":1557:1656   */\n      swap2\n      swap1\n      pop\n      jump\t// out\n        /* \"#utility.yul\":1662:1831   */\n    tag_155:\n        /* \"#utility.yul\":1746:1757   */\n      0x00\n        /* \"#utility.yul\":1780:1786   */\n      dup3\n        /* \"#utility.yul\":1775:1778   */\n      dup3\n        /* \"#utility.yul\":1768:1787   */\n      mstore\n        /* \"#utility.yul\":1820:1824   */\n      0x20\n        /* \"#utility.yul\":1815:1818   */\n      dup3\n        /* \"#utility.yul\":1811:1825   */\n      add\n        /* \"#utility.yul\":1796:1825   */\n      swap1\n      pop\n        /* \"#utility.yul\":1662:1831   */\n      swap3\n      swap2\n      pop\n      pop\n      jump\t// out\n        /* \"#utility.yul\":1837:2083   */\n    tag_156:\n        /* \"#utility.yul\":1918:1919   */\n      0x00\n        /* \"#utility.yul\":1928:2041   */\n    tag_207:\n        /* \"#utility.yul\":1942:1948   */\n      dup4\n        /* \"#utility.yul\":1939:1940   */\n      dup2\n        /* \"#utility.yul\":1936:1949   */\n      lt\n        /* \"#utility.yul\":1928:2041   */\n      iszero\n      tag_209\n      jumpi\n        /* \"#utility.yul\":2027:2028   */\n      dup1\n        /* \"#utility.yul\":2022:2025   */\n      dup3\n        /* \"#utility.yul\":2018:2029   */\n      add\n        /* \"#utility.yul\":2012:2030   */\n      mload\n        /* \"#utility.yul\":2008:2009   */\n      dup2\n        /* \"#utility.yul\":2003:2006   */\n      dup5\n        /* \"#utility.yul\":1999:2010   */\n      add\n        /* \"#utility.yul\":1992:2031   */\n      mstore\n        /* \"#utility.yul\":1964:1966   */\n      0x20\n        /* \"#utility.yul\":1961:1962   */\n      dup2\n        /* \"#utility.yul\":1957:1967   */\n      add\n        /* \"#utility.yul\":1952:1967   */\n      swap1\n      pop\n        /* \"#utility.yul\":1928:2041   */\n      jump(tag_207)\n    tag_209:\n        /* \"#utility.yul\":2075:2076   */\n      0x00\n        /* \"#utility.yul\":2066:2072   */\n      dup5\n        /* \"#utility.yul\":2061:2064   */\n      dup5\n        /* \"#utility.yul\":2057:2073   */\n      add\n        /* \"#utility.yul\":2050:2077   */\n      mstore\n        /* \"#utility.yul\":1899:2083   */\n      pop\n        /* \"#utility.yul\":1837:2083   */\n      pop\n      pop\n      pop\n      jump\t// out\n        /* \"#utility.yul\":2089:2191   */\n    tag_157:\n        /* \"#utility.yul\":2130:2136   */\n      0x00\n        /* \"#utility.yul\":2181:2183   */\n      0x1f\n        /* \"#utility.yul\":2177:2184   */\n      not\n        /* \"#utility.yul\":2172:2174   */\n      0x1f\n        /* \"#utility.yul\":2165:2170   */\n      dup4\n        /* \"#utility.yul\":2161:2175   */\n      add\n        /* \"#utility.yul\":2157:2185   */\n      and\n        /* \"#utility.yul\":2147:2185   */\n      swap1\n      pop\n        /* \"#utility.yul\":2089:2191   */\n      swap2\n      swap1\n      pop\n      jump\t// out\n        /* \"#utility.yul\":2197:2574   */\n    tag_158:\n        /* \"#utility.yul\":2285:2288   */\n      0x00\n        /* \"#utility.yul\":2313:2352   */\n      tag_212\n        /* \"#utility.yul\":2346:2351   */\n      dup3\n        /* \"#utility.yul\":2313:2352   */\n      tag_154\n      jump\t// in\n    tag_212:\n        /* \"#utility.yul\":2368:2439   */\n      tag_213\n        /* \"#utility.yul\":2432:2438   */\n      dup2\n        /* \"#utility.yul\":2427:2430   */\n      dup6\n        /* \"#utility.yul\":2368:2439   */\n      tag_155\n      jump\t// in\n    tag_213:\n        /* \"#utility.yul\":2361:2439   */\n      swap4\n      pop\n        /* \"#utility.yul\":2448:2513   */\n      tag_214\n        /* \"#utility.yul\":2506:2512   */\n      dup2\n        /* \"#utility.yul\":2501:2504   */\n      dup6\n        /* \"#utility.yul\":2494:2498   */\n      0x20\n        /* \"#utility.yul\":2487:2492   */\n      dup7\n        /* \"#utility.yul\":2483:2499   */\n      add\n        /* \"#utility.yul\":2448:2513   */\n      tag_156\n      jump\t// in\n    tag_214:\n        /* \"#utility.yul\":2538:2567   */\n      tag_215\n        /* \"#utility.yul\":2560:2566   */\n      dup2\n        /* \"#utility.yul\":2538:2567   */\n      tag_157\n      jump\t// in\n    tag_215:\n        /* \"#utility.yul\":2533:2536   */\n      dup5\n        /* \"#utility.yul\":2529:2568   */\n      add\n        /* \"#utility.yul\":2522:2568   */\n      swap2\n      pop\n        /* \"#utility.yul\":2289:2574   */\n      pop\n        /* \"#utility.yul\":2197:2574   */\n      swap3\n      swap2\n      pop\n      pop\n      jump\t// out\n        /* \"#utility.yul\":2580:2893   */\n    tag_37:\n        /* \"#utility.yul\":2693:2697   */\n      0x00\n        /* \"#utility.yul\":2731:2733   */\n      0x20\n        /* \"#utility.yul\":2720:2729   */\n      dup3\n        /* \"#utility.yul\":2716:2734   */\n      add\n        /* \"#utility.yul\":2708:2734   */\n      swap1\n      pop\n        /* \"#utility.yul\":2780:2789   */\n      dup2\n        /* \"#utility.yul\":2774:2778   */\n      dup2\n        /* \"#utility.yul\":2770:2790   */\n      sub\n        /* \"#utility.yul\":2766:2767   */\n      0x00\n        /* \"#utility.yul\":2755:2764   */\n      dup4\n        /* \"#utility.yul\":2751:2768   */\n      add\n        /* \"#utility.yul\":2744:2791   */\n      mstore\n        /* \"#utility.yul\":2808:2886   */\n      tag_217\n        /* \"#utility.yul\":2881:2885   */\n      dup2\n        /* \"#utility.yul\":2872:2878   */\n      dup5\n        /* \"#utility.yul\":2808:2886   */\n      tag_158\n      jump\t// in\n    tag_217:\n        /* \"#utility.yul\":2800:2886   */\n      swap1\n      pop\n        /* \"#utility.yul\":2580:2893   */\n      swap3\n      swap2\n      pop\n      pop\n      jump\t// out\n        /* \"#utility.yul\":2899:3038   */\n    tag_159:\n        /* \"#utility.yul\":2962:2971   */\n      0x00\n        /* \"#utility.yul\":2995:3032   */\n      tag_219\n        /* \"#utility.yul\":3026:3031   */\n      dup3\n        /* \"#utility.yul\":2995:3032   */\n      tag_149\n      jump\t// in\n    tag_219:\n        /* \"#utility.yul\":2982:3032   */\n      swap1\n      pop\n        /* \"#utility.yul\":2899:3038   */\n      swap2\n      swap1\n      pop\n      jump\t// out\n        /* \"#utility.yul\":3044:3201   */\n    tag_160:\n        /* \"#utility.yul\":3144:3194   */\n      tag_221\n        /* \"#utility.yul\":3188:3193   */\n      dup2\n        /* \"#utility.yul\":3144:3194   */\n      tag_159\n      jump\t// in\n    tag_221:\n        /* \"#utility.yul\":3139:3142   */\n      dup3\n        /* \"#utility.yul\":3132:3195   */\n      mstore\n        /* \"#utility.yul\":3044:3201   */\n      pop\n      pop\n      jump\t// out\n        /* \"#utility.yul\":3207:3455   */\n    tag_41:\n        /* \"#utility.yul\":3313:3317   */\n      0x00\n        /* \"#utility.yul\":3351:3353   */\n      0x20\n        /* \"#utility.yul\":3340:3349   */\n      dup3\n        /* \"#utility.yul\":3336:3354   */\n      add\n        /* \"#utility.yul\":3328:3354   */\n      swap1\n      pop\n        /* \"#utility.yul\":3364:3448   */\n      tag_223\n        /* \"#utility.yul\":3445:3446   */\n      0x00\n        /* \"#utility.yul\":3434:3443   */\n      dup4\n        /* \"#utility.yul\":3430:3447   */\n      add\n        /* \"#utility.yul\":3421:3427   */\n      dup5\n        /* \"#utility.yul\":3364:3448   */\n      tag_160\n      jump\t// in\n    tag_223:\n        /* \"#utility.yul\":3207:3455   */\n      swap3\n      swap2\n      pop\n      pop\n      jump\t// out\n        /* \"#utility.yul\":3461:3547   */\n    tag_161:\n        /* \"#utility.yul\":3496:3503   */\n      0x00\n        /* \"#utility.yul\":3536:3540   */\n      0xff\n        /* \"#utility.yul\":3529:3534   */\n      dup3\n        /* \"#utility.yul\":3525:3541   */\n      and\n        /* \"#utility.yul\":3514:3541   */\n      swap1\n      pop\n        /* \"#utility.yul\":3461:3547   */\n      swap2\n      swap1\n      pop\n      jump\t// out\n        /* \"#utility.yul\":3553:3665   */\n    tag_162:\n        /* \"#utility.yul\":3636:3658   */\n      tag_226\n        /* \"#utility.yul\":3652:3657   */\n      dup2\n        /* \"#utility.yul\":3636:3658   */\n      tag_161\n      jump\t// in\n    tag_226:\n        /* \"#utility.yul\":3631:3634   */\n      dup3\n        /* \"#utility.yul\":3624:3659   */\n      mstore\n        /* \"#utility.yul\":3553:3665   */\n      pop\n      pop\n      jump\t// out\n        /* \"#utility.yul\":3671:3885   */\n    tag_48:\n        /* \"#utility.yul\":3760:3764   */\n      0x00\n        /* \"#utility.yul\":3798:3800   */\n      0x20\n        /* \"#utility.yul\":3787:3796   */\n      dup3\n        /* \"#utility.yul\":3783:3801   */\n      add\n        /* \"#utility.yul\":3775:3801   */\n      swap1\n      pop\n        /* \"#utility.yul\":3811:3878   */\n      tag_228\n        /* \"#utility.yul\":3875:3876   */\n      0x00\n        /* \"#utility.yul\":3864:3873   */\n      dup4\n        /* \"#utility.yul\":3860:3877   */\n      add\n        /* \"#utility.yul\":3851:3857   */\n      dup5\n        /* \"#utility.yul\":3811:3878   */\n      tag_162\n      jump\t// in\n    tag_228:\n        /* \"#utility.yul\":3671:3885   */\n      swap3\n      swap2\n      pop\n      pop\n      jump\t// out\n        /* \"#utility.yul\":3972:4089   */\n    tag_164:\n        /* \"#utility.yul\":4081:4082   */\n      0x00\n        /* \"#utility.yul\":4078:4079   */\n      dup1\n        /* \"#utility.yul\":4071:4083   */\n      revert\n        /* \"#utility.yul\":4218:4340   */\n    tag_166:\n        /* \"#utility.yul\":4291:4315   */\n      tag_233\n        /* \"#utility.yul\":4309:4314   */\n      dup2\n        /* \"#utility.yul\":4291:4315   */\n      tag_152\n      jump\t// in\n    tag_233:\n        /* \"#utility.yul\":4284:4289   */\n      dup2\n        /* \"#utility.yul\":4281:4316   */\n      eq\n        /* \"#utility.yul\":4271:4334   */\n      tag_234\n      jumpi\n        /* \"#utility.yul\":4330:4331   */\n      0x00\n        /* \"#utility.yul\":4327:4328   */\n      dup1\n        /* \"#utility.yul\":4320:4332   */\n      revert\n        /* \"#utility.yul\":4271:4334   */\n    tag_234:\n        /* \"#utility.yul\":4218:4340   */\n      pop\n      jump\t// out\n        /* \"#utility.yul\":4346:4485   */\n    tag_167:\n        /* \"#utility.yul\":4392:4397   */\n      0x00\n        /* \"#utility.yul\":4430:4436   */\n      dup2\n        /* \"#utility.yul\":4417:4437   */\n      calldataload\n        /* \"#utility.yul\":4408:4437   */\n      swap1\n      pop\n        /* \"#utility.yul\":4446:4479   */\n      tag_236\n        /* \"#utility.yul\":4473:4478   */\n      dup2\n        /* \"#utility.yul\":4446:4479   */\n      tag_166\n      jump\t// in\n    tag_236:\n        /* \"#utility.yul\":4346:4485   */\n      swap3\n      swap2\n      pop\n      pop\n      jump\t// out\n        /* \"#utility.yul\":4491:4820   */\n    tag_51:\n        /* \"#utility.yul\":4550:4556   */\n      0x00\n        /* \"#utility.yul\":4599:4601   */\n      0x20\n        /* \"#utility.yul\":4587:4596   */\n      dup3\n        /* \"#utility.yul\":4578:4585   */\n      dup5\n        /* \"#utility.yul\":4574:4597   */\n      sub\n        /* \"#utility.yul\":4570:4602   */\n      slt\n        /* \"#utility.yul\":4567:4686   */\n      iszero\n      tag_238\n      jumpi\n        /* \"#utility.yul\":4605:4684   */\n      tag_239\n      tag_164\n      jump\t// in\n    tag_239:\n        /* \"#utility.yul\":4567:4686   */\n    tag_238:\n        /* \"#utility.yul\":4725:4726   */\n      0x00\n        /* \"#utility.yul\":4750:4803   */\n      tag_240\n        /* \"#utility.yul\":4795:4802   */\n      dup5\n        /* \"#utility.yul\":4786:4792   */\n      dup3\n        /* \"#utility.yul\":4775:4784   */\n      dup6\n        /* \"#utility.yul\":4771:4793   */\n      add\n        /* \"#utility.yul\":4750:4803   */\n      tag_167\n      jump\t// in\n    tag_240:\n        /* \"#utility.yul\":4740:4803   */\n      swap2\n      pop\n        /* \"#utility.yul\":4696:4813   */\n      pop\n        /* \"#utility.yul\":4491:4820   */\n      swap3\n      swap2\n      pop\n      pop\n      jump\t// out\n        /* \"#utility.yul\":4826:4922   */\n    tag_168:\n        /* \"#utility.yul\":4863:4870   */\n      0x00\n        /* \"#utility.yul\":4892:4916   */\n      tag_242\n        /* \"#utility.yul\":4910:4915   */\n      dup3\n        /* \"#utility.yul\":4892:4916   */\n      tag_146\n      jump\t// in\n    tag_242:\n        /* \"#utility.yul\":4881:4916   */\n      swap1\n      pop\n        /* \"#utility.yul\":4826:4922   */\n      swap2\n      swap1\n      pop\n      jump\t// out\n        /* \"#utility.yul\":4928:5050   */\n    tag_169:\n        /* \"#utility.yul\":5001:5025   */\n      tag_244\n        /* \"#utility.yul\":5019:5024   */\n      dup2\n        /* \"#utility.yul\":5001:5025   */\n      tag_168\n      jump\t// in\n    tag_244:\n        /* \"#utility.yul\":4994:4999   */\n      dup2\n        /* \"#utility.yul\":4991:5026   */\n      eq\n        /* \"#utility.yul\":4981:5044   */\n      tag_245\n      jumpi\n        /* \"#utility.yul\":5040:5041   */\n      0x00\n        /* \"#utility.yul\":5037:5038   */\n      dup1\n        /* \"#utility.yul\":5030:5042   */\n      revert\n        /* \"#utility.yul\":4981:5044   */\n    tag_245:\n        /* \"#utility.yul\":4928:5050   */\n      pop\n      jump\t// out\n        /* \"#utility.yul\":5056:5195   */\n    tag_170:\n        /* \"#utility.yul\":5102:5107   */\n      0x00\n        /* \"#utility.yul\":5140:5146   */\n      dup2\n        /* \"#utility.yul\":5127:5147   */\n      calldataload\n        /* \"#utility.yul\":5118:5147   */\n      swap1\n      pop\n        /* \"#utility.yul\":5156:5189   */\n      tag_247\n        /* \"#utility.yul\":5183:5188   */\n      dup2\n        /* \"#utility.yul\":5156:5189   */\n      tag_169\n      jump\t// in\n    tag_247:\n        /* \"#utility.yul\":5056:5195   */\n      swap3\n      swap2\n      pop\n      pop\n      jump\t// out\n        /* \"#utility.yul\":5201:5530   */\n    tag_70:\n        /* \"#utility.yul\":5260:5266   */\n      0x00\n        /* \"#utility.yul\":5309:5311   */\n      0x20\n        /* \"#utility.yul\":5297:5306   */\n      dup3\n        /* \"#utility.yul\":5288:5295   */\n      dup5\n        /* \"#utility.yul\":5284:5307   */\n      sub\n        /* \"#utility.yul\":5280:5312   */\n      slt\n        /* \"#utility.yul\":5277:5396   */\n      iszero\n      tag_249\n      jumpi\n        /* \"#utility.yul\":5315:5394   */\n      tag_250\n      tag_164\n      jump\t// in\n    tag_250:\n        /* \"#utility.yul\":5277:5396   */\n    tag_249:\n        /* \"#utility.yul\":5435:5436   */\n      0x00\n        /* \"#utility.yul\":5460:5513   */\n      tag_251\n        /* \"#utility.yul\":5505:5512   */\n      dup5\n        /* \"#utility.yul\":5496:5502   */\n      dup3\n        /* \"#utility.yul\":5485:5494   */\n      dup6\n        /* \"#utility.yul\":5481:5503   */\n      add\n        /* \"#utility.yul\":5460:5513   */\n      tag_170\n      jump\t// in\n    tag_251:\n        /* \"#utility.yul\":5450:5513   */\n      swap2\n      pop\n        /* \"#utility.yul\":5406:5523   */\n      pop\n        /* \"#utility.yul\":5201:5530   */\n      swap3\n      swap2\n      pop\n      pop\n      jump\t// out\n        /* \"#utility.yul\":5536:5654   */\n    tag_171:\n        /* \"#utility.yul\":5623:5647   */\n      tag_253\n        /* \"#utility.yul\":5641:5646   */\n      dup2\n        /* \"#utility.yul\":5623:5647   */\n      tag_168\n      jump\t// in\n    tag_253:\n        /* \"#utility.yul\":5618:5621   */\n      dup3\n        /* \"#utility.yul\":5611:5648   */\n      mstore\n        /* \"#utility.yul\":5536:5654   */\n      pop\n      pop\n      jump\t// out\n        /* \"#utility.yul\":5660:5882   */\n    tag_76:\n        /* \"#utility.yul\":5753:5757   */\n      0x00\n        /* \"#utility.yul\":5791:5793   */\n      0x20\n        /* \"#utility.yul\":5780:5789   */\n      dup3\n        /* \"#utility.yul\":5776:5794   */\n      add\n        /* \"#utility.yul\":5768:5794   */\n      swap1\n      pop\n        /* \"#utility.yul\":5804:5875   */\n      tag_255\n        /* \"#utility.yul\":5872:5873   */\n      0x00\n        /* \"#utility.yul\":5861:5870   */\n      dup4\n        /* \"#utility.yul\":5857:5874   */\n      add\n        /* \"#utility.yul\":5848:5854   */\n      dup5\n        /* \"#utility.yul\":5804:5875   */\n      tag_171\n      jump\t// in\n    tag_255:\n        /* \"#utility.yul\":5660:5882   */\n      swap3\n      swap2\n      pop\n      pop\n      jump\t// out\n        /* \"#utility.yul\":5888:6362   */\n    tag_88:\n        /* \"#utility.yul\":5956:5962   */\n      0x00\n        /* \"#utility.yul\":5964:5970   */\n      dup1\n        /* \"#utility.yul\":6013:6015   */\n      0x40\n        /* \"#utility.yul\":6001:6010   */\n      dup4\n        /* \"#utility.yul\":5992:5999   */\n      dup6\n        /* \"#utility.yul\":5988:6011   */\n      sub\n        /* \"#utility.yul\":5984:6016   */\n      slt\n        /* \"#utility.yul\":5981:6100   */\n      iszero\n      tag_257\n      jumpi\n        /* \"#utility.yul\":6019:6098   */\n      tag_258\n      tag_164\n      jump\t// in\n    tag_258:\n        /* \"#utility.yul\":5981:6100   */\n    tag_257:\n        /* \"#utility.yul\":6139:6140   */\n      0x00\n        /* \"#utility.yul\":6164:6217   */\n      tag_259\n        /* \"#utility.yul\":6209:6216   */\n      dup6\n        /* \"#utility.yul\":6200:6206   */\n      dup3\n        /* \"#utility.yul\":6189:6198   */\n      dup7\n        /* \"#utility.yul\":6185:6207   */\n      add\n        /* \"#utility.yul\":6164:6217   */\n      tag_170\n      jump\t// in\n    tag_259:\n        /* \"#utility.yul\":6154:6217   */\n      swap3\n      pop\n        /* \"#utility.yul\":6110:6227   */\n      pop\n        /* \"#utility.yul\":6266:6268   */\n      0x20\n        /* \"#utility.yul\":6292:6345   */\n      tag_260\n        /* \"#utility.yul\":6337:6344   */\n      dup6\n        /* \"#utility.yul\":6328:6334   */\n      dup3\n        /* \"#utility.yul\":6317:6326   */\n      dup7\n        /* \"#utility.yul\":6313:6335   */\n      add\n        /* \"#utility.yul\":6292:6345   */\n      tag_167\n      jump\t// in\n    tag_260:\n        /* \"#utility.yul\":6282:6345   */\n      swap2\n      pop\n        /* \"#utility.yul\":6237:6355   */\n      pop\n        /* \"#utility.yul\":5888:6362   */\n      swap3\n      pop\n      swap3\n      swap1\n      pop\n      jump\t// out\n        /* \"#utility.yul\":6368:6458   */\n    tag_172:\n        /* \"#utility.yul\":6402:6409   */\n      0x00\n        /* \"#utility.yul\":6445:6450   */\n      dup2\n        /* \"#utility.yul\":6438:6451   */\n      iszero\n        /* \"#utility.yul\":6431:6452   */\n      iszero\n        /* \"#utility.yul\":6420:6452   */\n      swap1\n      pop\n        /* \"#utility.yul\":6368:6458   */\n      swap2\n      swap1\n      pop\n      jump\t// out\n        /* \"#utility.yul\":6464:6573   */\n    tag_173:\n        /* \"#utility.yul\":6545:6566   */\n      tag_263\n        /* \"#utility.yul\":6560:6565   */\n      dup2\n        /* \"#utility.yul\":6545:6566   */\n      tag_172\n      jump\t// in\n    tag_263:\n        /* \"#utility.yul\":6540:6543   */\n      dup3\n        /* \"#utility.yul\":6533:6567   */\n      mstore\n        /* \"#utility.yul\":6464:6573   */\n      pop\n      pop\n      jump\t// out\n        /* \"#utility.yul\":6579:6789   */\n    tag_91:\n        /* \"#utility.yul\":6666:6670   */\n      0x00\n        /* \"#utility.yul\":6704:6706   */\n      0x20\n        /* \"#utility.yul\":6693:6702   */\n      dup3\n        /* \"#utility.yul\":6689:6707   */\n      add\n        /* \"#utility.yul\":6681:6707   */\n      swap1\n      pop\n        /* \"#utility.yul\":6717:6782   */\n      tag_265\n        /* \"#utility.yul\":6779:6780   */\n      0x00\n        /* \"#utility.yul\":6768:6777   */\n      dup4\n        /* \"#utility.yul\":6764:6781   */\n      add\n        /* \"#utility.yul\":6755:6761   */\n      dup5\n        /* \"#utility.yul\":6717:6782   */\n      tag_173\n      jump\t// in\n    tag_265:\n        /* \"#utility.yul\":6579:6789   */\n      swap3\n      swap2\n      pop\n      pop\n      jump\t// out\n        /* \"#utility.yul\":6795:6975   */\n    tag_174:\n        /* \"#utility.yul\":6843:6920   */\n      0x4e487b7100000000000000000000000000000000000000000000000000000000\n        /* \"#utility.yul\":6840:6841   */\n      0x00\n        /* \"#utility.yul\":6833:6921   */\n      mstore\n        /* \"#utility.yul\":6940:6944   */\n      0x22\n        /* \"#utility.yul\":6937:6938   */\n      0x04\n        /* \"#utility.yul\":6930:6945   */\n      mstore\n        /* \"#utility.yul\":6964:6968   */\n      0x24\n        /* \"#utility.yul\":6961:6962   */\n      0x00\n        /* \"#utility.yul\":6954:6969   */\n      revert\n        /* \"#utility.yul\":6981:7301   */\n    tag_99:\n        /* \"#utility.yul\":7025:7031   */\n      0x00\n        /* \"#utility.yul\":7062:7063   */\n      0x02\n        /* \"#utility.yul\":7056:7060   */\n      dup3\n        /* \"#utility.yul\":7052:7064   */\n      div\n        /* \"#utility.yul\":7042:7064   */\n      swap1\n      pop\n        /* \"#utility.yul\":7109:7110   */\n      0x01\n        /* \"#utility.yul\":7103:7107   */\n      dup3\n        /* \"#utility.yul\":7099:7111   */\n      and\n        /* \"#utility.yul\":7130:7148   */\n      dup1\n        /* \"#utility.yul\":7120:7201   */\n      tag_268\n      jumpi\n        /* \"#utility.yul\":7186:7190   */\n      0x7f\n        /* \"#utility.yul\":7178:7184   */\n      dup3\n        /* \"#utility.yul\":7174:7191   */\n      and\n        /* \"#utility.yul\":7164:7191   */\n      swap2\n      pop\n        /* \"#utility.yul\":7120:7201   */\n    tag_268:\n        /* \"#utility.yul\":7248:7250   */\n      0x20\n        /* \"#utility.yul\":7240:7246   */\n      dup3\n        /* \"#utility.yul\":7237:7251   */\n      lt\n        /* \"#utility.yul\":7217:7235   */\n      dup2\n        /* \"#utility.yul\":7214:7252   */\n      sub\n        /* \"#utility.yul\":7211:7295   */\n      tag_269\n      jumpi\n        /* \"#utility.yul\":7267:7285   */\n      tag_270\n      tag_174\n      jump\t// in\n    tag_270:\n        /* \"#utility.yul\":7211:7295   */\n    tag_269:\n        /* \"#utility.yul\":7032:7301   */\n      pop\n        /* \"#utility.yul\":6981:7301   */\n      swap2\n      swap1\n      pop\n      jump\t// out\n        /* \"#utility.yul\":7307:7487   */\n    tag_175:\n        /* \"#utility.yul\":7355:7432   */\n      0x4e487b7100000000000000000000000000000000000000000000000000000000\n        /* \"#utility.yul\":7352:7353   */\n      0x00\n        /* \"#utility.yul\":7345:7433   */\n      mstore\n        /* \"#utility.yul\":7452:7456   */\n      0x11\n        /* \"#utility.yul\":7449:7450   */\n      0x04\n        /* \"#utility.yul\":7442:7457   */\n      mstore\n        /* \"#utility.yul\":7476:7480   */\n      0x24\n        /* \"#utility.yul\":7473:7474   */\n      0x00\n        /* \"#utility.yul\":7466:7481   */\n      revert\n        /* \"#utility.yul\":7493:7687   */\n    tag_106:\n        /* \"#utility.yul\":7533:7537   */\n      0x00\n        /* \"#utility.yul\":7553:7573   */\n      tag_273\n        /* \"#utility.yul\":7571:7572   */\n      dup3\n        /* \"#utility.yul\":7553:7573   */\n      tag_152\n      jump\t// in\n    tag_273:\n        /* \"#utility.yul\":7548:7573   */\n      swap2\n      pop\n        /* \"#utility.yul\":7587:7607   */\n      tag_274\n        /* \"#utility.yul\":7605:7606   */\n      dup4\n        /* \"#utility.yul\":7587:7607   */\n      tag_152\n      jump\t// in\n    tag_274:\n        /* \"#utility.yul\":7582:7607   */\n      swap3\n      pop\n        /* \"#utility.yul\":7631:7632   */\n      dup3\n        /* \"#utility.yul\":7628:7629   */\n      dup3\n        /* \"#utility.yul\":7624:7633   */\n      sub\n        /* \"#utility.yul\":7616:7633   */\n      swap1\n      pop\n        /* \"#utility.yul\":7655:7656   */\n      dup2\n        /* \"#utility.yul\":7649:7653   */\n      dup2\n        /* \"#utility.yul\":7646:7657   */\n      gt\n        /* \"#utility.yul\":7643:7680   */\n      iszero\n      tag_275\n      jumpi\n        /* \"#utility.yul\":7660:7678   */\n      tag_276\n      tag_175\n      jump\t// in\n    tag_276:\n        /* \"#utility.yul\":7643:7680   */\n    tag_275:\n        /* \"#utility.yul\":7493:7687   */\n      swap3\n      swap2\n      pop\n      pop\n      jump\t// out\n        /* \"#utility.yul\":7693:7798   */\n    tag_176:\n        /* \"#utility.yul\":7729:7736   */\n      0x00\n        /* \"#utility.yul\":7769:7791   */\n      0xffffffffffffffffffff\n        /* \"#utility.yul\":7762:7767   */\n      dup3\n        /* \"#utility.yul\":7758:7792   */\n      and\n        /* \"#utility.yul\":7747:7792   */\n      swap1\n      pop\n        /* \"#utility.yul\":7693:7798   */\n      swap2\n      swap1\n      pop\n      jump\t// out\n        /* \"#utility.yul\":7804:7924   */\n    tag_177:\n        /* \"#utility.yul\":7876:7899   */\n      tag_279\n        /* \"#utility.yul\":7893:7898   */\n      dup2\n        /* \"#utility.yul\":7876:7899   */\n      tag_176\n      jump\t// in\n    tag_279:\n        /* \"#utility.yul\":7869:7874   */\n      dup2\n        /* \"#utility.yul\":7866:7900   */\n      eq\n        /* \"#utility.yul\":7856:7918   */\n      tag_280\n      jumpi\n        /* \"#utility.yul\":7914:7915   */\n      0x00\n        /* \"#utility.yul\":7911:7912   */\n      dup1\n        /* \"#utility.yul\":7904:7916   */\n      revert\n        /* \"#utility.yul\":7856:7918   */\n    tag_280:\n        /* \"#utility.yul\":7804:7924   */\n      pop\n      jump\t// out\n        /* \"#utility.yul\":7930:8071   */\n    tag_178:\n        /* \"#utility.yul\":7986:7991   */\n      0x00\n        /* \"#utility.yul\":8017:8023   */\n      dup2\n        /* \"#utility.yul\":8011:8024   */\n      mload\n        /* \"#utility.yul\":8002:8024   */\n      swap1\n      pop\n        /* \"#utility.yul\":8033:8065   */\n      tag_282\n        /* \"#utility.yul\":8059:8064   */\n      dup2\n        /* \"#utility.yul\":8033:8065   */\n      tag_177\n      jump\t// in\n    tag_282:\n        /* \"#utility.yul\":7930:8071   */\n      swap3\n      swap2\n      pop\n      pop\n      jump\t// out\n        /* \"#utility.yul\":8077:8153   */\n    tag_179:\n        /* \"#utility.yul\":8113:8120   */\n      0x00\n        /* \"#utility.yul\":8142:8147   */\n      dup2\n        /* \"#utility.yul\":8131:8147   */\n      swap1\n      pop\n        /* \"#utility.yul\":8077:8153   */\n      swap2\n      swap1\n      pop\n      jump\t// out\n        /* \"#utility.yul\":8159:8279   */\n    tag_180:\n        /* \"#utility.yul\":8231:8254   */\n      tag_285\n        /* \"#utility.yul\":8248:8253   */\n      dup2\n        /* \"#utility.yul\":8231:8254   */\n      tag_179\n      jump\t// in\n    tag_285:\n        /* \"#utility.yul\":8224:8229   */\n      dup2\n        /* \"#utility.yul\":8221:8255   */\n      eq\n        /* \"#utility.yul\":8211:8273   */\n      tag_286\n      jumpi\n        /* \"#utility.yul\":8269:8270   */\n      0x00\n        /* \"#utility.yul\":8266:8267   */\n      dup1\n        /* \"#utility.yul\":8259:8271   */\n      revert\n        /* \"#utility.yul\":8211:8273   */\n    tag_286:\n        /* \"#utility.yul\":8159:8279   */\n      pop\n      jump\t// out\n        /* \"#utility.yul\":8285:8426   */\n    tag_181:\n        /* \"#utility.yul\":8341:8346   */\n      0x00\n        /* \"#utility.yul\":8372:8378   */\n      dup2\n        /* \"#utility.yul\":8366:8379   */\n      mload\n        /* \"#utility.yul\":8357:8379   */\n      swap1\n      pop\n        /* \"#utility.yul\":8388:8420   */\n      tag_288\n        /* \"#utility.yul\":8414:8419   */\n      dup2\n        /* \"#utility.yul\":8388:8420   */\n      tag_180\n      jump\t// in\n    tag_288:\n        /* \"#utility.yul\":8285:8426   */\n      swap3\n      swap2\n      pop\n      pop\n      jump\t// out\n        /* \"#utility.yul\":8432:8575   */\n    tag_182:\n        /* \"#utility.yul\":8489:8494   */\n      0x00\n        /* \"#utility.yul\":8520:8526   */\n      dup2\n        /* \"#utility.yul\":8514:8527   */\n      mload\n        /* \"#utility.yul\":8505:8527   */\n      swap1\n      pop\n        /* \"#utility.yul\":8536:8569   */\n      tag_290\n        /* \"#utility.yul\":8563:8568   */\n      dup2\n        /* \"#utility.yul\":8536:8569   */\n      tag_166\n      jump\t// in\n    tag_290:\n        /* \"#utility.yul\":8432:8575   */\n      swap3\n      swap2\n      pop\n      pop\n      jump\t// out\n        /* \"#utility.yul\":8581:9552   */\n    tag_113:\n        /* \"#utility.yul\":8684:8690   */\n      0x00\n        /* \"#utility.yul\":8692:8698   */\n      dup1\n        /* \"#utility.yul\":8700:8706   */\n      0x00\n        /* \"#utility.yul\":8708:8714   */\n      dup1\n        /* \"#utility.yul\":8716:8722   */\n      0x00\n        /* \"#utility.yul\":8765:8768   */\n      0xa0\n        /* \"#utility.yul\":8753:8762   */\n      dup7\n        /* \"#utility.yul\":8744:8751   */\n      dup9\n        /* \"#utility.yul\":8740:8763   */\n      sub\n        /* \"#utility.yul\":8736:8769   */\n      slt\n        /* \"#utility.yul\":8733:8853   */\n      iszero\n      tag_292\n      jumpi\n        /* \"#utility.yul\":8772:8851   */\n      tag_293\n      tag_164\n      jump\t// in\n    tag_293:\n        /* \"#utility.yul\":8733:8853   */\n    tag_292:\n        /* \"#utility.yul\":8892:8893   */\n      0x00\n        /* \"#utility.yul\":8917:8980   */\n      tag_294\n        /* \"#utility.yul\":8972:8979   */\n      dup9\n        /* \"#utility.yul\":8963:8969   */\n      dup3\n        /* \"#utility.yul\":8952:8961   */\n      dup10\n        /* \"#utility.yul\":8948:8970   */\n      add\n        /* \"#utility.yul\":8917:8980   */\n      tag_178\n      jump\t// in\n    tag_294:\n        /* \"#utility.yul\":8907:8980   */\n      swap6\n      pop\n        /* \"#utility.yul\":8863:8990   */\n      pop\n        /* \"#utility.yul\":9029:9031   */\n      0x20\n        /* \"#utility.yul\":9055:9118   */\n      tag_295\n        /* \"#utility.yul\":9110:9117   */\n      dup9\n        /* \"#utility.yul\":9101:9107   */\n      dup3\n        /* \"#utility.yul\":9090:9099   */\n      dup10\n        /* \"#utility.yul\":9086:9108   */\n      add\n        /* \"#utility.yul\":9055:9118   */\n      tag_181\n      jump\t// in\n    tag_295:\n        /* \"#utility.yul\":9045:9118   */\n      swap5\n      pop\n        /* \"#utility.yul\":9000:9128   */\n      pop\n        /* \"#utility.yul\":9167:9169   */\n      0x40\n        /* \"#utility.yul\":9193:9257   */\n      tag_296\n        /* \"#utility.yul\":9249:9256   */\n      dup9\n        /* \"#utility.yul\":9240:9246   */\n      dup3\n        /* \"#utility.yul\":9229:9238   */\n      dup10\n        /* \"#utility.yul\":9225:9247   */\n      add\n        /* \"#utility.yul\":9193:9257   */\n      tag_182\n      jump\t// in\n    tag_296:\n        /* \"#utility.yul\":9183:9257   */\n      swap4\n      pop\n        /* \"#utility.yul\":9138:9267   */\n      pop\n        /* \"#utility.yul\":9306:9308   */\n      0x60\n        /* \"#utility.yul\":9332:9396   */\n      tag_297\n        /* \"#utility.yul\":9388:9395   */\n      dup9\n        /* \"#utility.yul\":9379:9385   */\n      dup3\n        /* \"#utility.yul\":9368:9377   */\n      dup10\n        /* \"#utility.yul\":9364:9386   */\n      add\n        /* \"#utility.yul\":9332:9396   */\n      tag_182\n      jump\t// in\n    tag_297:\n        /* \"#utility.yul\":9322:9396   */\n      swap3\n      pop\n        /* \"#utility.yul\":9277:9406   */\n      pop\n        /* \"#utility.yul\":9445:9448   */\n      0x80\n        /* \"#utility.yul\":9472:9535   */\n      tag_298\n        /* \"#utility.yul\":9527:9534   */\n      dup9\n        /* \"#utility.yul\":9518:9524   */\n      dup3\n        /* \"#utility.yul\":9507:9516   */\n      dup10\n        /* \"#utility.yul\":9503:9525   */\n      add\n        /* \"#utility.yul\":9472:9535   */\n      tag_178\n      jump\t// in\n    tag_298:\n        /* \"#utility.yul\":9462:9535   */\n      swap2\n      pop\n        /* \"#utility.yul\":9416:9545   */\n      pop\n        /* \"#utility.yul\":8581:9552   */\n      swap3\n      swap6\n      pop\n      swap3\n      swap6\n      swap1\n      swap4\n      pop\n      jump\t// out\n        /* \"#utility.yul\":9558:9968   */\n    tag_121:\n        /* \"#utility.yul\":9598:9605   */\n      0x00\n        /* \"#utility.yul\":9621:9641   */\n      tag_300\n        /* \"#utility.yul\":9639:9640   */\n      dup3\n        /* \"#utility.yul\":9621:9641   */\n      tag_152\n      jump\t// in\n    tag_300:\n        /* \"#utility.yul\":9616:9641   */\n      swap2\n      pop\n        /* \"#utility.yul\":9655:9675   */\n      tag_301\n        /* \"#utility.yul\":9673:9674   */\n      dup4\n        /* \"#utility.yul\":9655:9675   */\n      tag_152\n      jump\t// in\n    tag_301:\n        /* \"#utility.yul\":9650:9675   */\n      swap3\n      pop\n        /* \"#utility.yul\":9710:9711   */\n      dup3\n        /* \"#utility.yul\":9707:9708   */\n      dup3\n        /* \"#utility.yul\":9703:9712   */\n      mul\n        /* \"#utility.yul\":9732:9762   */\n      tag_302\n        /* \"#utility.yul\":9750:9761   */\n      dup2\n        /* \"#utility.yul\":9732:9762   */\n      tag_152\n      jump\t// in\n    tag_302:\n        /* \"#utility.yul\":9721:9762   */\n      swap2\n      pop\n        /* \"#utility.yul\":9911:9912   */\n      dup3\n        /* \"#utility.yul\":9902:9909   */\n      dup3\n        /* \"#utility.yul\":9898:9913   */\n      div\n        /* \"#utility.yul\":9895:9896   */\n      dup5\n        /* \"#utility.yul\":9892:9914   */\n      eq\n        /* \"#utility.yul\":9872:9873   */\n      dup4\n        /* \"#utility.yul\":9865:9874   */\n      iszero\n        /* \"#utility.yul\":9845:9928   */\n      or\n        /* \"#utility.yul\":9822:9961   */\n      tag_303\n      jumpi\n        /* \"#utility.yul\":9941:9959   */\n      tag_304\n      tag_175\n      jump\t// in\n    tag_304:\n        /* \"#utility.yul\":9822:9961   */\n    tag_303:\n        /* \"#utility.yul\":9606:9968   */\n      pop\n        /* \"#utility.yul\":9558:9968   */\n      swap3\n      swap2\n      pop\n      pop\n      jump\t// out\n        /* \"#utility.yul\":9974:10165   */\n    tag_128:\n        /* \"#utility.yul\":10014:10017   */\n      0x00\n        /* \"#utility.yul\":10033:10053   */\n      tag_306\n        /* \"#utility.yul\":10051:10052   */\n      dup3\n        /* \"#utility.yul\":10033:10053   */\n      tag_152\n      jump\t// in\n    tag_306:\n        /* \"#utility.yul\":10028:10053   */\n      swap2\n      pop\n        /* \"#utility.yul\":10067:10087   */\n      tag_307\n        /* \"#utility.yul\":10085:10086   */\n      dup4\n        /* \"#utility.yul\":10067:10087   */\n      tag_152\n      jump\t// in\n    tag_307:\n        /* \"#utility.yul\":10062:10087   */\n      swap3\n      pop\n        /* \"#utility.yul\":10110:10111   */\n      dup3\n        /* \"#utility.yul\":10107:10108   */\n      dup3\n        /* \"#utility.yul\":10103:10112   */\n      add\n        /* \"#utility.yul\":10096:10112   */\n      swap1\n      pop\n        /* \"#utility.yul\":10131:10134   */\n      dup1\n        /* \"#utility.yul\":10128:10129   */\n      dup3\n        /* \"#utility.yul\":10125:10135   */\n      gt\n        /* \"#utility.yul\":10122:10158   */\n      iszero\n      tag_308\n      jumpi\n        /* \"#utility.yul\":10138:10156   */\n      tag_309\n      tag_175\n      jump\t// in\n    tag_309:\n        /* \"#utility.yul\":10122:10158   */\n    tag_308:\n        /* \"#utility.yul\":9974:10165   */\n      swap3\n      swap2\n      pop\n      pop\n      jump\t// out\n        /* \"#utility.yul\":10171:10351   */\n    tag_183:\n        /* \"#utility.yul\":10219:10296   */\n      0x4e487b7100000000000000000000000000000000000000000000000000000000\n        /* \"#utility.yul\":10216:10217   */\n      0x00\n        /* \"#utility.yul\":10209:10297   */\n      mstore\n        /* \"#utility.yul\":10316:10320   */\n      0x12\n        /* \"#utility.yul\":10313:10314   */\n      0x04\n        /* \"#utility.yul\":10306:10321   */\n      mstore\n        /* \"#utility.yul\":10340:10344   */\n      0x24\n        /* \"#utility.yul\":10337:10338   */\n      0x00\n        /* \"#utility.yul\":10330:10345   */\n      revert\n        /* \"#utility.yul\":10357:10542   */\n    tag_131:\n        /* \"#utility.yul\":10397:10398   */\n      0x00\n        /* \"#utility.yul\":10414:10434   */\n      tag_312\n        /* \"#utility.yul\":10432:10433   */\n      dup3\n        /* \"#utility.yul\":10414:10434   */\n      tag_152\n      jump\t// in\n    tag_312:\n        /* \"#utility.yul\":10409:10434   */\n      swap2\n      pop\n        /* \"#utility.yul\":10448:10468   */\n      tag_313\n        /* \"#utility.yul\":10466:10467   */\n      dup4\n        /* \"#utility.yul\":10448:10468   */\n      tag_152\n      jump\t// in\n    tag_313:\n        /* \"#utility.yul\":10443:10468   */\n      swap3\n      pop\n        /* \"#utility.yul\":10487:10488   */\n      dup3\n        /* \"#utility.yul\":10477:10512   */\n      tag_314\n      jumpi\n        /* \"#utility.yul\":10492:10510   */\n      tag_315\n      tag_183\n      jump\t// in\n    tag_315:\n        /* \"#utility.yul\":10477:10512   */\n    tag_314:\n        /* \"#utility.yul\":10534:10535   */\n      dup3\n        /* \"#utility.yul\":10531:10532   */\n      dup3\n        /* \"#utility.yul\":10527:10536   */\n      div\n        /* \"#utility.yul\":10522:10536   */\n      swap1\n      pop\n        /* \"#utility.yul\":10357:10542   */\n      swap3\n      swap2\n      pop\n      pop\n      jump\t// out\n\n    auxdata: 0xa2646970667358221220a87fa6e9e0459881a1295ec3514a146f7635927d856304353011dba40c5ac2b264736f6c63430008140033\n}\n",
				"bytecode": {
					"linkReferences": {},
					"object": "60806040527382fb927676b53b6ee07904780c7be9b4b50db80b600660006101000a81548173ffffffffffffffffffffffffffffffffffffffff021916908373ffffffffffffffffffffffffffffffffffffffff160217905550732b0974b96511a728ca6342597471366d3444aa2a600760006101000a81548173ffffffffffffffffffffffffffffffffffffffff021916908373ffffffffffffffffffffffffffffffffffffffff160217905550736b904451ababb342d2b787c5126c6361dd815246600860006101000a81548173ffffffffffffffffffffffffffffffffffffffff021916908373ffffffffffffffffffffffffffffffffffffffff1602179055507314866185b1962b63c3ea9e03bc1da838bab34c19600c60006101000a81548173ffffffffffffffffffffffffffffffffffffffff021916908373ffffffffffffffffffffffffffffffffffffffff16021790555073a2f78ab2355fe2f984d808b5cee7fd0a93d5270e600d60006101000a81548173ffffffffffffffffffffffffffffffffffffffff021916908373ffffffffffffffffffffffffffffffffffffffff16021790555073c59e3633baac79493d908e63626716e204a45edf600e60006101000a81548173ffffffffffffffffffffffffffffffffffffffff021916908373ffffffffffffffffffffffffffffffffffffffff1602179055503480156200020f57600080fd5b5060405162001f5f38038062001f5f83398181016040528101906200023591906200064b565b606482848662000246919062000781565b62000252919062000781565b1462000295576040517f08c379a00000000000000000000000000000000000000000000000000000000081526004016200028c906200081d565b60405180910390fd5b8760009081620002a6919062000a80565b508660019081620002b8919062000a80565b5085600260006101000a81548160ff021916908360ff160217905550600260009054906101000a900460ff16600a620002f2919062000cbb565b85620002ff919062000d0c565b600381905550600260009054906101000a900460ff16600a62000323919062000cbb565b8562000330919062000d0c565b600460003373ffffffffffffffffffffffffffffffffffffffff1673ffffffffffffffffffffffffffffffffffffffff168152602001908152602001600020819055503373ffffffffffffffffffffffffffffffffffffffff16600073ffffffffffffffffffffffffffffffffffffffff167fddf252ad1be2c89b69c2b068fc378daa952ba7f163c4a11628f55a4df523b3ef87604051620003d3919062000d68565b60405180910390a333600560006101000a81548173ffffffffffffffffffffffffffffffffffffffff021916908373ffffffffffffffffffffffffffffffffffffffff1602179055508360098190555082600a8190555081600b81905550505050505050505062000d85565b6000604051905090565b600080fd5b600080fd5b600080fd5b600080fd5b6000601f19601f8301169050919050565b7f4e487b7100000000000000000000000000000000000000000000000000000000600052604160045260246000fd5b620004a8826200045d565b810181811067ffffffffffffffff82111715620004ca57620004c96200046e565b5b80604052505050565b6000620004df6200043f565b9050620004ed82826200049d565b919050565b600067ffffffffffffffff82111562000510576200050f6200046e565b5b6200051b826200045d565b9050602081019050919050565b60005b83811015620005485780820151818401526020810190506200052b565b60008484015250505050565b60006200056b6200056584620004f2565b620004d3565b9050828152602081018484840111156200058a576200058962000458565b5b6200059784828562000528565b509392505050565b600082601f830112620005b757620005b662000453565b5b8151620005c984826020860162000554565b91505092915050565b600060ff82169050919050565b620005ea81620005d2565b8114620005f657600080fd5b50565b6000815190506200060a81620005df565b92915050565b6000819050919050565b620006258162000610565b81146200063157600080fd5b50565b60008151905062000645816200061a565b92915050565b600080600080600080600080610100898b0312156200066f576200066e62000449565b5b600089015167ffffffffffffffff81111562000690576200068f6200044e565b5b6200069e8b828c016200059f565b985050602089015167ffffffffffffffff811115620006c257620006c16200044e565b5b620006d08b828c016200059f565b9750506040620006e38b828c01620005f9565b9650506060620006f68b828c0162000634565b9550506080620007098b828c0162000634565b94505060a06200071c8b828c0162000634565b93505060c06200072f8b828c0162000634565b92505060e0620007428b828c0162000634565b9150509295985092959890939650565b7f4e487b7100000000000000000000000000000000000000000000000000000000600052601160045260246000fd5b60006200078e8262000610565b91506200079b8362000610565b9250828201905080821115620007b657620007b562000752565b5b92915050565b600082825260208201905092915050565b7f546f74616c20726174696f206d75737420626520313030250000000000000000600082015250565b600062000805601883620007bc565b91506200081282620007cd565b602082019050919050565b600060208201905081810360008301526200083881620007f6565b9050919050565b600081519050919050565b7f4e487b7100000000000000000000000000000000000000000000000000000000600052602260045260246000fd5b600060028204905060018216806200089257607f821691505b602082108103620008a857620008a76200084a565b5b50919050565b60008190508160005260206000209050919050565b60006020601f8301049050919050565b600082821b905092915050565b600060088302620009127fffffffffffffffffffffffffffffffffffffffffffffffffffffffffffffffff82620008d3565b6200091e8683620008d3565b95508019841693508086168417925050509392505050565b6000819050919050565b6000620009616200095b620009558462000610565b62000936565b62000610565b9050919050565b6000819050919050565b6200097d8362000940565b620009956200098c8262000968565b848454620008e0565b825550505050565b600090565b620009ac6200099d565b620009b981848462000972565b505050565b5b81811015620009e157620009d5600082620009a2565b600181019050620009bf565b5050565b601f82111562000a3057620009fa81620008ae565b62000a0584620008c3565b8101602085101562000a15578190505b62000a2d62000a2485620008c3565b830182620009be565b50505b505050565b600082821c905092915050565b600062000a556000198460080262000a35565b1980831691505092915050565b600062000a70838362000a42565b9150826002028217905092915050565b62000a8b826200083f565b67ffffffffffffffff81111562000aa75762000aa66200046e565b5b62000ab3825462000879565b62000ac0828285620009e5565b600060209050601f83116001811462000af8576000841562000ae3578287015190505b62000aef858262000a62565b86555062000b5f565b601f19841662000b0886620008ae565b60005b8281101562000b325784890151825560018201915060208501945060208101905062000b0b565b8683101562000b52578489015162000b4e601f89168262000a42565b8355505b6001600288020188555050505b505050505050565b60008160011c9050919050565b6000808291508390505b600185111562000bc65780860481111562000b9e5762000b9d62000752565b5b600185161562000bae5780820291505b808102905062000bbe8562000b67565b945062000b7e565b94509492505050565b60008262000be1576001905062000cb4565b8162000bf1576000905062000cb4565b816001811462000c0a576002811462000c155762000c4b565b600191505062000cb4565b60ff84111562000c2a5762000c2962000752565b5b8360020a91508482111562000c445762000c4362000752565b5b5062000cb4565b5060208310610133831016604e8410600b841016171562000c855782820a90508381111562000c7f5762000c7e62000752565b5b62000cb4565b62000c94848484600162000b74565b9250905081840481111562000cae5762000cad62000752565b5b81810290505b9392505050565b600062000cc88262000610565b915062000cd583620005d2565b925062000d047fffffffffffffffffffffffffffffffffffffffffffffffffffffffffffffffff848462000bcf565b905092915050565b600062000d198262000610565b915062000d268362000610565b925082820262000d368162000610565b9150828204841483151762000d505762000d4f62000752565b5b5092915050565b62000d628162000610565b82525050565b600060208201905062000d7f600083018462000d57565b92915050565b6111ca8062000d956000396000f3fe608060405234801561001057600080fd5b506004361061012b5760003560e01c80636a0f62d6116100ad57806395d89b411161007157806395d89b4114610302578063a0712d6814610320578063a9059cbb1461033c578063b65fa14f1461036c578063be22f5461461038a5761012b565b80636a0f62d61461025a5780636f43f3731461027857806370a08231146102965780638da5cb5b146102c65780638e15f473146102e45761012b565b8063313ce567116100f4578063313ce567146101c657806342966c68146101e45780634f771c881461020057806357970e931461021e57806358f403991461023c5761012b565b8062912b371461013057806302e650081461014e57806306fdde031461016c57806311eac8551461018a57806318160ddd146101a8575b600080fd5b6101386103a8565b6040516101459190610c16565b60405180910390f35b6101566103ce565b6040516101639190610c4a565b60405180910390f35b6101746103d4565b6040516101819190610cf5565b60405180910390f35b610192610462565b60405161019f9190610d38565b60405180910390f35b6101b0610488565b6040516101bd9190610c4a565b60405180910390f35b6101ce61048e565b6040516101db9190610d6f565b60405180910390f35b6101fe60048036038101906101f99190610dbb565b6104a1565b005b610208610579565b6040516102159190610c16565b60405180910390f35b61022661059f565b6040516102339190610d38565b60405180910390f35b6102446105c5565b6040516102519190610c16565b60405180910390f35b6102626105eb565b60405161026f9190610c4a565b60405180910390f35b6102806105f1565b60405161028d9190610c4a565b60405180910390f35b6102b060048036038101906102ab9190610e26565b6105f7565b6040516102bd9190610c4a565b60405180910390f35b6102ce61060f565b6040516102db9190610e62565b60405180910390f35b6102ec610635565b6040516102f99190610c4a565b60405180910390f35b61030a6108a7565b6040516103179190610cf5565b60405180910390f35b61033a60048036038101906103359190610dbb565b610935565b005b61035660048036038101906103519190610e7d565b610a0d565b6040516103639190610ed8565b60405180910390f35b610374610b2a565b6040516103819190610c4a565b60405180910390f35b610392610b71565b60405161039f9190610d38565b60405180910390f35b600e60009054906101000a900473ffffffffffffffffffffffffffffffffffffffff1681565b600b5481565b600080546103e190610f22565b80601f016020809104026020016040519081016040528092919081815260200182805461040d90610f22565b801561045a5780601f1061042f5761010080835404028352916020019161045a565b820191906000526020600020905b81548152906001019060200180831161043d57829003601f168201915b505050505081565b600760009054906101000a900473ffffffffffffffffffffffffffffffffffffffff1681565b60035481565b600260009054906101000a900460ff1681565b80600460003373ffffffffffffffffffffffffffffffffffffffff1673ffffffffffffffffffffffffffffffffffffffff16815260200190815260200160002060008282546104f09190610f82565b9250508190555080600360008282546105099190610f82565b92505081905550600073ffffffffffffffffffffffffffffffffffffffff163373ffffffffffffffffffffffffffffffffffffffff167fddf252ad1be2c89b69c2b068fc378daa952ba7f163c4a11628f55a4df523b3ef8360405161056e9190610c4a565b60405180910390a350565b600c60009054906101000a900473ffffffffffffffffffffffffffffffffffffffff1681565b600860009054906101000a900473ffffffffffffffffffffffffffffffffffffffff1681565b600d60009054906101000a900473ffffffffffffffffffffffffffffffffffffffff1681565b60095481565b600a5481565b60046020528060005260406000206000915090505481565b600560009054906101000a900473ffffffffffffffffffffffffffffffffffffffff1681565b600080600c60009054906101000a900473ffffffffffffffffffffffffffffffffffffffff1673ffffffffffffffffffffffffffffffffffffffff1663feaf968c6040518163ffffffff1660e01b815260040160a060405180830381865afa1580156106a5573d6000803e3d6000fd5b505050506040513d601f19601f820116820180604052508101906106c99190611043565b5050509150506000600d60009054906101000a900473ffffffffffffffffffffffffffffffffffffffff1673ffffffffffffffffffffffffffffffffffffffff1663feaf968c6040518163ffffffff1660e01b815260040160a060405180830381865afa15801561073e573d6000803e3d6000fd5b505050506040513d601f19601f820116820180604052508101906107629190611043565b5050509150506000600e60009054906101000a900473ffffffffffffffffffffffffffffffffffffffff1673ffffffffffffffffffffffffffffffffffffffff1663feaf968c6040518163ffffffff1660e01b815260040160a060405180830381865afa1580156107d7573d6000803e3d6000fd5b505050506040513d601f19601f820116820180604052508101906107fb9190611043565b50505091505060006402540be4008461081491906110be565b905060006402540be4008461082991906110be565b905060006402540be4008461083e91906110be565b905060006009548461085091906110be565b90506000600a548461086291906110be565b90506000600b548461087491906110be565b905060648183856108859190611100565b61088f9190611100565b6108999190611163565b995050505050505050505090565b600180546108b490610f22565b80601f01602080910402602001604051908101604052809291908181526020018280546108e090610f22565b801561092d5780601f106109025761010080835404028352916020019161092d565b820191906000526020600020905b81548152906001019060200180831161091057829003601f168201915b505050505081565b80600460003373ffffffffffffffffffffffffffffffffffffffff1673ffffffffffffffffffffffffffffffffffffffff16815260200190815260200160002060008282546109849190611100565b92505081905550806003600082825461099d9190611100565b925050819055503373ffffffffffffffffffffffffffffffffffffffff16600073ffffffffffffffffffffffffffffffffffffffff167fddf252ad1be2c89b69c2b068fc378daa952ba7f163c4a11628f55a4df523b3ef83604051610a029190610c4a565b60405180910390a350565b600081600460003373ffffffffffffffffffffffffffffffffffffffff1673ffffffffffffffffffffffffffffffffffffffff1681526020019081526020016000206000828254610a5e9190610f82565b9250508190555081600460008573ffffffffffffffffffffffffffffffffffffffff1673ffffffffffffffffffffffffffffffffffffffff1681526020019081526020016000206000828254610ab49190611100565b925050819055508273ffffffffffffffffffffffffffffffffffffffff163373ffffffffffffffffffffffffffffffffffffffff167fddf252ad1be2c89b69c2b068fc378daa952ba7f163c4a11628f55a4df523b3ef84604051610b189190610c4a565b60405180910390a36001905092915050565b6000600460003373ffffffffffffffffffffffffffffffffffffffff1673ffffffffffffffffffffffffffffffffffffffff16815260200190815260200160002054905090565b600660009054906101000a900473ffffffffffffffffffffffffffffffffffffffff1681565b600073ffffffffffffffffffffffffffffffffffffffff82169050919050565b6000819050919050565b6000610bdc610bd7610bd284610b97565b610bb7565b610b97565b9050919050565b6000610bee82610bc1565b9050919050565b6000610c0082610be3565b9050919050565b610c1081610bf5565b82525050565b6000602082019050610c2b6000830184610c07565b92915050565b6000819050919050565b610c4481610c31565b82525050565b6000602082019050610c5f6000830184610c3b565b92915050565b600081519050919050565b600082825260208201905092915050565b60005b83811015610c9f578082015181840152602081019050610c84565b60008484015250505050565b6000601f19601f8301169050919050565b6000610cc782610c65565b610cd18185610c70565b9350610ce1818560208601610c81565b610cea81610cab565b840191505092915050565b60006020820190508181036000830152610d0f8184610cbc565b905092915050565b6000610d2282610be3565b9050919050565b610d3281610d17565b82525050565b6000602082019050610d4d6000830184610d29565b92915050565b600060ff82169050919050565b610d6981610d53565b82525050565b6000602082019050610d846000830184610d60565b92915050565b600080fd5b610d9881610c31565b8114610da357600080fd5b50565b600081359050610db581610d8f565b92915050565b600060208284031215610dd157610dd0610d8a565b5b6000610ddf84828501610da6565b91505092915050565b6000610df382610b97565b9050919050565b610e0381610de8565b8114610e0e57600080fd5b50565b600081359050610e2081610dfa565b92915050565b600060208284031215610e3c57610e3b610d8a565b5b6000610e4a84828501610e11565b91505092915050565b610e5c81610de8565b82525050565b6000602082019050610e776000830184610e53565b92915050565b60008060408385031215610e9457610e93610d8a565b5b6000610ea285828601610e11565b9250506020610eb385828601610da6565b9150509250929050565b60008115159050919050565b610ed281610ebd565b82525050565b6000602082019050610eed6000830184610ec9565b92915050565b7f4e487b7100000000000000000000000000000000000000000000000000000000600052602260045260246000fd5b60006002820490506001821680610f3a57607f821691505b602082108103610f4d57610f4c610ef3565b5b50919050565b7f4e487b7100000000000000000000000000000000000000000000000000000000600052601160045260246000fd5b6000610f8d82610c31565b9150610f9883610c31565b9250828203905081811115610fb057610faf610f53565b5b92915050565b600069ffffffffffffffffffff82169050919050565b610fd581610fb6565b8114610fe057600080fd5b50565b600081519050610ff281610fcc565b92915050565b6000819050919050565b61100b81610ff8565b811461101657600080fd5b50565b60008151905061102881611002565b92915050565b60008151905061103d81610d8f565b92915050565b600080600080600060a0868803121561105f5761105e610d8a565b5b600061106d88828901610fe3565b955050602061107e88828901611019565b945050604061108f8882890161102e565b93505060606110a08882890161102e565b92505060806110b188828901610fe3565b9150509295509295909350565b60006110c982610c31565b91506110d483610c31565b92508282026110e281610c31565b915082820484148315176110f9576110f8610f53565b5b5092915050565b600061110b82610c31565b915061111683610c31565b925082820190508082111561112e5761112d610f53565b5b92915050565b7f4e487b7100000000000000000000000000000000000000000000000000000000600052601260045260246000fd5b600061116e82610c31565b915061117983610c31565b92508261118957611188611134565b5b82820490509291505056fea2646970667358221220a87fa6e9e0459881a1295ec3514a146f7635927d856304353011dba40c5ac2b264736f6c63430008140033",
					"opcodes": "PUSH1 0x80 PUSH1 0x40 MSTORE PUSH20 0x82FB927676B53B6EE07904780C7BE9B4B50DB80B PUSH1 0x6 PUSH1 0x0 PUSH2 0x100 EXP DUP2 SLOAD DUP2 PUSH20 0xFFFFFFFFFFFFFFFFFFFFFFFFFFFFFFFFFFFFFFFF MUL NOT AND SWAP1 DUP4 PUSH20 0xFFFFFFFFFFFFFFFFFFFFFFFFFFFFFFFFFFFFFFFF AND MUL OR SWAP1 SSTORE POP PUSH20 0x2B0974B96511A728CA6342597471366D3444AA2A PUSH1 0x7 PUSH1 0x0 PUSH2 0x100 EXP DUP2 SLOAD DUP2 PUSH20 0xFFFFFFFFFFFFFFFFFFFFFFFFFFFFFFFFFFFFFFFF MUL NOT AND SWAP1 DUP4 PUSH20 0xFFFFFFFFFFFFFFFFFFFFFFFFFFFFFFFFFFFFFFFF AND MUL OR SWAP1 SSTORE POP PUSH20 0x6B904451ABABB342D2B787C5126C6361DD815246 PUSH1 0x8 PUSH1 0x0 PUSH2 0x100 EXP DUP2 SLOAD DUP2 PUSH20 0xFFFFFFFFFFFFFFFFFFFFFFFFFFFFFFFFFFFFFFFF MUL NOT AND SWAP1 DUP4 PUSH20 0xFFFFFFFFFFFFFFFFFFFFFFFFFFFFFFFFFFFFFFFF AND MUL OR SWAP1 SSTORE POP PUSH20 0x14866185B1962B63C3EA9E03BC1DA838BAB34C19 PUSH1 0xC PUSH1 0x0 PUSH2 0x100 EXP DUP2 SLOAD DUP2 PUSH20 0xFFFFFFFFFFFFFFFFFFFFFFFFFFFFFFFFFFFFFFFF MUL NOT AND SWAP1 DUP4 PUSH20 0xFFFFFFFFFFFFFFFFFFFFFFFFFFFFFFFFFFFFFFFF AND MUL OR SWAP1 SSTORE POP PUSH20 0xA2F78AB2355FE2F984D808B5CEE7FD0A93D5270E PUSH1 0xD PUSH1 0x0 PUSH2 0x100 EXP DUP2 SLOAD DUP2 PUSH20 0xFFFFFFFFFFFFFFFFFFFFFFFFFFFFFFFFFFFFFFFF MUL NOT AND SWAP1 DUP4 PUSH20 0xFFFFFFFFFFFFFFFFFFFFFFFFFFFFFFFFFFFFFFFF AND MUL OR SWAP1 SSTORE POP PUSH20 0xC59E3633BAAC79493D908E63626716E204A45EDF PUSH1 0xE PUSH1 0x0 PUSH2 0x100 EXP DUP2 SLOAD DUP2 PUSH20 0xFFFFFFFFFFFFFFFFFFFFFFFFFFFFFFFFFFFFFFFF MUL NOT AND SWAP1 DUP4 PUSH20 0xFFFFFFFFFFFFFFFFFFFFFFFFFFFFFFFFFFFFFFFF AND MUL OR SWAP1 SSTORE POP CALLVALUE DUP1 ISZERO PUSH3 0x20F JUMPI PUSH1 0x0 DUP1 REVERT JUMPDEST POP PUSH1 0x40 MLOAD PUSH3 0x1F5F CODESIZE SUB DUP1 PUSH3 0x1F5F DUP4 CODECOPY DUP2 DUP2 ADD PUSH1 0x40 MSTORE DUP2 ADD SWAP1 PUSH3 0x235 SWAP2 SWAP1 PUSH3 0x64B JUMP JUMPDEST PUSH1 0x64 DUP3 DUP5 DUP7 PUSH3 0x246 SWAP2 SWAP1 PUSH3 0x781 JUMP JUMPDEST PUSH3 0x252 SWAP2 SWAP1 PUSH3 0x781 JUMP JUMPDEST EQ PUSH3 0x295 JUMPI PUSH1 0x40 MLOAD PUSH32 0x8C379A000000000000000000000000000000000000000000000000000000000 DUP2 MSTORE PUSH1 0x4 ADD PUSH3 0x28C SWAP1 PUSH3 0x81D JUMP JUMPDEST PUSH1 0x40 MLOAD DUP1 SWAP2 SUB SWAP1 REVERT JUMPDEST DUP8 PUSH1 0x0 SWAP1 DUP2 PUSH3 0x2A6 SWAP2 SWAP1 PUSH3 0xA80 JUMP JUMPDEST POP DUP7 PUSH1 0x1 SWAP1 DUP2 PUSH3 0x2B8 SWAP2 SWAP1 PUSH3 0xA80 JUMP JUMPDEST POP DUP6 PUSH1 0x2 PUSH1 0x0 PUSH2 0x100 EXP DUP2 SLOAD DUP2 PUSH1 0xFF MUL NOT AND SWAP1 DUP4 PUSH1 0xFF AND MUL OR SWAP1 SSTORE POP PUSH1 0x2 PUSH1 0x0 SWAP1 SLOAD SWAP1 PUSH2 0x100 EXP SWAP1 DIV PUSH1 0xFF AND PUSH1 0xA PUSH3 0x2F2 SWAP2 SWAP1 PUSH3 0xCBB JUMP JUMPDEST DUP6 PUSH3 0x2FF SWAP2 SWAP1 PUSH3 0xD0C JUMP JUMPDEST PUSH1 0x3 DUP2 SWAP1 SSTORE POP PUSH1 0x2 PUSH1 0x0 SWAP1 SLOAD SWAP1 PUSH2 0x100 EXP SWAP1 DIV PUSH1 0xFF AND PUSH1 0xA PUSH3 0x323 SWAP2 SWAP1 PUSH3 0xCBB JUMP JUMPDEST DUP6 PUSH3 0x330 SWAP2 SWAP1 PUSH3 0xD0C JUMP JUMPDEST PUSH1 0x4 PUSH1 0x0 CALLER PUSH20 0xFFFFFFFFFFFFFFFFFFFFFFFFFFFFFFFFFFFFFFFF AND PUSH20 0xFFFFFFFFFFFFFFFFFFFFFFFFFFFFFFFFFFFFFFFF AND DUP2 MSTORE PUSH1 0x20 ADD SWAP1 DUP2 MSTORE PUSH1 0x20 ADD PUSH1 0x0 KECCAK256 DUP2 SWAP1 SSTORE POP CALLER PUSH20 0xFFFFFFFFFFFFFFFFFFFFFFFFFFFFFFFFFFFFFFFF AND PUSH1 0x0 PUSH20 0xFFFFFFFFFFFFFFFFFFFFFFFFFFFFFFFFFFFFFFFF AND PUSH32 0xDDF252AD1BE2C89B69C2B068FC378DAA952BA7F163C4A11628F55A4DF523B3EF DUP8 PUSH1 0x40 MLOAD PUSH3 0x3D3 SWAP2 SWAP1 PUSH3 0xD68 JUMP JUMPDEST PUSH1 0x40 MLOAD DUP1 SWAP2 SUB SWAP1 LOG3 CALLER PUSH1 0x5 PUSH1 0x0 PUSH2 0x100 EXP DUP2 SLOAD DUP2 PUSH20 0xFFFFFFFFFFFFFFFFFFFFFFFFFFFFFFFFFFFFFFFF MUL NOT AND SWAP1 DUP4 PUSH20 0xFFFFFFFFFFFFFFFFFFFFFFFFFFFFFFFFFFFFFFFF AND MUL OR SWAP1 SSTORE POP DUP4 PUSH1 0x9 DUP2 SWAP1 SSTORE POP DUP3 PUSH1 0xA DUP2 SWAP1 SSTORE POP DUP2 PUSH1 0xB DUP2 SWAP1 SSTORE POP POP POP POP POP POP POP POP POP PUSH3 0xD85 JUMP JUMPDEST PUSH1 0x0 PUSH1 0x40 MLOAD SWAP1 POP SWAP1 JUMP JUMPDEST PUSH1 0x0 DUP1 REVERT JUMPDEST PUSH1 0x0 DUP1 REVERT JUMPDEST PUSH1 0x0 DUP1 REVERT JUMPDEST PUSH1 0x0 DUP1 REVERT JUMPDEST PUSH1 0x0 PUSH1 0x1F NOT PUSH1 0x1F DUP4 ADD AND SWAP1 POP SWAP2 SWAP1 POP JUMP JUMPDEST PUSH32 0x4E487B7100000000000000000000000000000000000000000000000000000000 PUSH1 0x0 MSTORE PUSH1 0x41 PUSH1 0x4 MSTORE PUSH1 0x24 PUSH1 0x0 REVERT JUMPDEST PUSH3 0x4A8 DUP3 PUSH3 0x45D JUMP JUMPDEST DUP2 ADD DUP2 DUP2 LT PUSH8 0xFFFFFFFFFFFFFFFF DUP3 GT OR ISZERO PUSH3 0x4CA JUMPI PUSH3 0x4C9 PUSH3 0x46E JUMP JUMPDEST JUMPDEST DUP1 PUSH1 0x40 MSTORE POP POP POP JUMP JUMPDEST PUSH1 0x0 PUSH3 0x4DF PUSH3 0x43F JUMP JUMPDEST SWAP1 POP PUSH3 0x4ED DUP3 DUP3 PUSH3 0x49D JUMP JUMPDEST SWAP2 SWAP1 POP JUMP JUMPDEST PUSH1 0x0 PUSH8 0xFFFFFFFFFFFFFFFF DUP3 GT ISZERO PUSH3 0x510 JUMPI PUSH3 0x50F PUSH3 0x46E JUMP JUMPDEST JUMPDEST PUSH3 0x51B DUP3 PUSH3 0x45D JUMP JUMPDEST SWAP1 POP PUSH1 0x20 DUP2 ADD SWAP1 POP SWAP2 SWAP1 POP JUMP JUMPDEST PUSH1 0x0 JUMPDEST DUP4 DUP2 LT ISZERO PUSH3 0x548 JUMPI DUP1 DUP3 ADD MLOAD DUP2 DUP5 ADD MSTORE PUSH1 0x20 DUP2 ADD SWAP1 POP PUSH3 0x52B JUMP JUMPDEST PUSH1 0x0 DUP5 DUP5 ADD MSTORE POP POP POP POP JUMP JUMPDEST PUSH1 0x0 PUSH3 0x56B PUSH3 0x565 DUP5 PUSH3 0x4F2 JUMP JUMPDEST PUSH3 0x4D3 JUMP JUMPDEST SWAP1 POP DUP3 DUP2 MSTORE PUSH1 0x20 DUP2 ADD DUP5 DUP5 DUP5 ADD GT ISZERO PUSH3 0x58A JUMPI PUSH3 0x589 PUSH3 0x458 JUMP JUMPDEST JUMPDEST PUSH3 0x597 DUP5 DUP3 DUP6 PUSH3 0x528 JUMP JUMPDEST POP SWAP4 SWAP3 POP POP POP JUMP JUMPDEST PUSH1 0x0 DUP3 PUSH1 0x1F DUP4 ADD SLT PUSH3 0x5B7 JUMPI PUSH3 0x5B6 PUSH3 0x453 JUMP JUMPDEST JUMPDEST DUP2 MLOAD PUSH3 0x5C9 DUP5 DUP3 PUSH1 0x20 DUP7 ADD PUSH3 0x554 JUMP JUMPDEST SWAP2 POP POP SWAP3 SWAP2 POP POP JUMP JUMPDEST PUSH1 0x0 PUSH1 0xFF DUP3 AND SWAP1 POP SWAP2 SWAP1 POP JUMP JUMPDEST PUSH3 0x5EA DUP2 PUSH3 0x5D2 JUMP JUMPDEST DUP2 EQ PUSH3 0x5F6 JUMPI PUSH1 0x0 DUP1 REVERT JUMPDEST POP JUMP JUMPDEST PUSH1 0x0 DUP2 MLOAD SWAP1 POP PUSH3 0x60A DUP2 PUSH3 0x5DF JUMP JUMPDEST SWAP3 SWAP2 POP POP JUMP JUMPDEST PUSH1 0x0 DUP2 SWAP1 POP SWAP2 SWAP1 POP JUMP JUMPDEST PUSH3 0x625 DUP2 PUSH3 0x610 JUMP JUMPDEST DUP2 EQ PUSH3 0x631 JUMPI PUSH1 0x0 DUP1 REVERT JUMPDEST POP JUMP JUMPDEST PUSH1 0x0 DUP2 MLOAD SWAP1 POP PUSH3 0x645 DUP2 PUSH3 0x61A JUMP JUMPDEST SWAP3 SWAP2 POP POP JUMP JUMPDEST PUSH1 0x0 DUP1 PUSH1 0x0 DUP1 PUSH1 0x0 DUP1 PUSH1 0x0 DUP1 PUSH2 0x100 DUP10 DUP12 SUB SLT ISZERO PUSH3 0x66F JUMPI PUSH3 0x66E PUSH3 0x449 JUMP JUMPDEST JUMPDEST PUSH1 0x0 DUP10 ADD MLOAD PUSH8 0xFFFFFFFFFFFFFFFF DUP2 GT ISZERO PUSH3 0x690 JUMPI PUSH3 0x68F PUSH3 0x44E JUMP JUMPDEST JUMPDEST PUSH3 0x69E DUP12 DUP3 DUP13 ADD PUSH3 0x59F JUMP JUMPDEST SWAP9 POP POP PUSH1 0x20 DUP10 ADD MLOAD PUSH8 0xFFFFFFFFFFFFFFFF DUP2 GT ISZERO PUSH3 0x6C2 JUMPI PUSH3 0x6C1 PUSH3 0x44E JUMP JUMPDEST JUMPDEST PUSH3 0x6D0 DUP12 DUP3 DUP13 ADD PUSH3 0x59F JUMP JUMPDEST SWAP8 POP POP PUSH1 0x40 PUSH3 0x6E3 DUP12 DUP3 DUP13 ADD PUSH3 0x5F9 JUMP JUMPDEST SWAP7 POP POP PUSH1 0x60 PUSH3 0x6F6 DUP12 DUP3 DUP13 ADD PUSH3 0x634 JUMP JUMPDEST SWAP6 POP POP PUSH1 0x80 PUSH3 0x709 DUP12 DUP3 DUP13 ADD PUSH3 0x634 JUMP JUMPDEST SWAP5 POP POP PUSH1 0xA0 PUSH3 0x71C DUP12 DUP3 DUP13 ADD PUSH3 0x634 JUMP JUMPDEST SWAP4 POP POP PUSH1 0xC0 PUSH3 0x72F DUP12 DUP3 DUP13 ADD PUSH3 0x634 JUMP JUMPDEST SWAP3 POP POP PUSH1 0xE0 PUSH3 0x742 DUP12 DUP3 DUP13 ADD PUSH3 0x634 JUMP JUMPDEST SWAP2 POP POP SWAP3 SWAP6 SWAP9 POP SWAP3 SWAP6 SWAP9 SWAP1 SWAP4 SWAP7 POP JUMP JUMPDEST PUSH32 0x4E487B7100000000000000000000000000000000000000000000000000000000 PUSH1 0x0 MSTORE PUSH1 0x11 PUSH1 0x4 MSTORE PUSH1 0x24 PUSH1 0x0 REVERT JUMPDEST PUSH1 0x0 PUSH3 0x78E DUP3 PUSH3 0x610 JUMP JUMPDEST SWAP2 POP PUSH3 0x79B DUP4 PUSH3 0x610 JUMP JUMPDEST SWAP3 POP DUP3 DUP3 ADD SWAP1 POP DUP1 DUP3 GT ISZERO PUSH3 0x7B6 JUMPI PUSH3 0x7B5 PUSH3 0x752 JUMP JUMPDEST JUMPDEST SWAP3 SWAP2 POP POP JUMP JUMPDEST PUSH1 0x0 DUP3 DUP3 MSTORE PUSH1 0x20 DUP3 ADD SWAP1 POP SWAP3 SWAP2 POP POP JUMP JUMPDEST PUSH32 0x546F74616C20726174696F206D75737420626520313030250000000000000000 PUSH1 0x0 DUP3 ADD MSTORE POP JUMP JUMPDEST PUSH1 0x0 PUSH3 0x805 PUSH1 0x18 DUP4 PUSH3 0x7BC JUMP JUMPDEST SWAP2 POP PUSH3 0x812 DUP3 PUSH3 0x7CD JUMP JUMPDEST PUSH1 0x20 DUP3 ADD SWAP1 POP SWAP2 SWAP1 POP JUMP JUMPDEST PUSH1 0x0 PUSH1 0x20 DUP3 ADD SWAP1 POP DUP2 DUP2 SUB PUSH1 0x0 DUP4 ADD MSTORE PUSH3 0x838 DUP2 PUSH3 0x7F6 JUMP JUMPDEST SWAP1 POP SWAP2 SWAP1 POP JUMP JUMPDEST PUSH1 0x0 DUP2 MLOAD SWAP1 POP SWAP2 SWAP1 POP JUMP JUMPDEST PUSH32 0x4E487B7100000000000000000000000000000000000000000000000000000000 PUSH1 0x0 MSTORE PUSH1 0x22 PUSH1 0x4 MSTORE PUSH1 0x24 PUSH1 0x0 REVERT JUMPDEST PUSH1 0x0 PUSH1 0x2 DUP3 DIV SWAP1 POP PUSH1 0x1 DUP3 AND DUP1 PUSH3 0x892 JUMPI PUSH1 0x7F DUP3 AND SWAP2 POP JUMPDEST PUSH1 0x20 DUP3 LT DUP2 SUB PUSH3 0x8A8 JUMPI PUSH3 0x8A7 PUSH3 0x84A JUMP JUMPDEST JUMPDEST POP SWAP2 SWAP1 POP JUMP JUMPDEST PUSH1 0x0 DUP2 SWAP1 POP DUP2 PUSH1 0x0 MSTORE PUSH1 0x20 PUSH1 0x0 KECCAK256 SWAP1 POP SWAP2 SWAP1 POP JUMP JUMPDEST PUSH1 0x0 PUSH1 0x20 PUSH1 0x1F DUP4 ADD DIV SWAP1 POP SWAP2 SWAP1 POP JUMP JUMPDEST PUSH1 0x0 DUP3 DUP3 SHL SWAP1 POP SWAP3 SWAP2 POP POP JUMP JUMPDEST PUSH1 0x0 PUSH1 0x8 DUP4 MUL PUSH3 0x912 PUSH32 0xFFFFFFFFFFFFFFFFFFFFFFFFFFFFFFFFFFFFFFFFFFFFFFFFFFFFFFFFFFFFFFFF DUP3 PUSH3 0x8D3 JUMP JUMPDEST PUSH3 0x91E DUP7 DUP4 PUSH3 0x8D3 JUMP JUMPDEST SWAP6 POP DUP1 NOT DUP5 AND SWAP4 POP DUP1 DUP7 AND DUP5 OR SWAP3 POP POP POP SWAP4 SWAP3 POP POP POP JUMP JUMPDEST PUSH1 0x0 DUP2 SWAP1 POP SWAP2 SWAP1 POP JUMP JUMPDEST PUSH1 0x0 PUSH3 0x961 PUSH3 0x95B PUSH3 0x955 DUP5 PUSH3 0x610 JUMP JUMPDEST PUSH3 0x936 JUMP JUMPDEST PUSH3 0x610 JUMP JUMPDEST SWAP1 POP SWAP2 SWAP1 POP JUMP JUMPDEST PUSH1 0x0 DUP2 SWAP1 POP SWAP2 SWAP1 POP JUMP JUMPDEST PUSH3 0x97D DUP4 PUSH3 0x940 JUMP JUMPDEST PUSH3 0x995 PUSH3 0x98C DUP3 PUSH3 0x968 JUMP JUMPDEST DUP5 DUP5 SLOAD PUSH3 0x8E0 JUMP JUMPDEST DUP3 SSTORE POP POP POP POP JUMP JUMPDEST PUSH1 0x0 SWAP1 JUMP JUMPDEST PUSH3 0x9AC PUSH3 0x99D JUMP JUMPDEST PUSH3 0x9B9 DUP2 DUP5 DUP5 PUSH3 0x972 JUMP JUMPDEST POP POP POP JUMP JUMPDEST JUMPDEST DUP2 DUP2 LT ISZERO PUSH3 0x9E1 JUMPI PUSH3 0x9D5 PUSH1 0x0 DUP3 PUSH3 0x9A2 JUMP JUMPDEST PUSH1 0x1 DUP2 ADD SWAP1 POP PUSH3 0x9BF JUMP JUMPDEST POP POP JUMP JUMPDEST PUSH1 0x1F DUP3 GT ISZERO PUSH3 0xA30 JUMPI PUSH3 0x9FA DUP2 PUSH3 0x8AE JUMP JUMPDEST PUSH3 0xA05 DUP5 PUSH3 0x8C3 JUMP JUMPDEST DUP2 ADD PUSH1 0x20 DUP6 LT ISZERO PUSH3 0xA15 JUMPI DUP2 SWAP1 POP JUMPDEST PUSH3 0xA2D PUSH3 0xA24 DUP6 PUSH3 0x8C3 JUMP JUMPDEST DUP4 ADD DUP3 PUSH3 0x9BE JUMP JUMPDEST POP POP JUMPDEST POP POP POP JUMP JUMPDEST PUSH1 0x0 DUP3 DUP3 SHR SWAP1 POP SWAP3 SWAP2 POP POP JUMP JUMPDEST PUSH1 0x0 PUSH3 0xA55 PUSH1 0x0 NOT DUP5 PUSH1 0x8 MUL PUSH3 0xA35 JUMP JUMPDEST NOT DUP1 DUP4 AND SWAP2 POP POP SWAP3 SWAP2 POP POP JUMP JUMPDEST PUSH1 0x0 PUSH3 0xA70 DUP4 DUP4 PUSH3 0xA42 JUMP JUMPDEST SWAP2 POP DUP3 PUSH1 0x2 MUL DUP3 OR SWAP1 POP SWAP3 SWAP2 POP POP JUMP JUMPDEST PUSH3 0xA8B DUP3 PUSH3 0x83F JUMP JUMPDEST PUSH8 0xFFFFFFFFFFFFFFFF DUP2 GT ISZERO PUSH3 0xAA7 JUMPI PUSH3 0xAA6 PUSH3 0x46E JUMP JUMPDEST JUMPDEST PUSH3 0xAB3 DUP3 SLOAD PUSH3 0x879 JUMP JUMPDEST PUSH3 0xAC0 DUP3 DUP3 DUP6 PUSH3 0x9E5 JUMP JUMPDEST PUSH1 0x0 PUSH1 0x20 SWAP1 POP PUSH1 0x1F DUP4 GT PUSH1 0x1 DUP2 EQ PUSH3 0xAF8 JUMPI PUSH1 0x0 DUP5 ISZERO PUSH3 0xAE3 JUMPI DUP3 DUP8 ADD MLOAD SWAP1 POP JUMPDEST PUSH3 0xAEF DUP6 DUP3 PUSH3 0xA62 JUMP JUMPDEST DUP7 SSTORE POP PUSH3 0xB5F JUMP JUMPDEST PUSH1 0x1F NOT DUP5 AND PUSH3 0xB08 DUP7 PUSH3 0x8AE JUMP JUMPDEST PUSH1 0x0 JUMPDEST DUP3 DUP2 LT ISZERO PUSH3 0xB32 JUMPI DUP5 DUP10 ADD MLOAD DUP3 SSTORE PUSH1 0x1 DUP3 ADD SWAP2 POP PUSH1 0x20 DUP6 ADD SWAP5 POP PUSH1 0x20 DUP2 ADD SWAP1 POP PUSH3 0xB0B JUMP JUMPDEST DUP7 DUP4 LT ISZERO PUSH3 0xB52 JUMPI DUP5 DUP10 ADD MLOAD PUSH3 0xB4E PUSH1 0x1F DUP10 AND DUP3 PUSH3 0xA42 JUMP JUMPDEST DUP4 SSTORE POP JUMPDEST PUSH1 0x1 PUSH1 0x2 DUP9 MUL ADD DUP9 SSTORE POP POP POP JUMPDEST POP POP POP POP POP POP JUMP JUMPDEST PUSH1 0x0 DUP2 PUSH1 0x1 SHR SWAP1 POP SWAP2 SWAP1 POP JUMP JUMPDEST PUSH1 0x0 DUP1 DUP3 SWAP2 POP DUP4 SWAP1 POP JUMPDEST PUSH1 0x1 DUP6 GT ISZERO PUSH3 0xBC6 JUMPI DUP1 DUP7 DIV DUP2 GT ISZERO PUSH3 0xB9E JUMPI PUSH3 0xB9D PUSH3 0x752 JUMP JUMPDEST JUMPDEST PUSH1 0x1 DUP6 AND ISZERO PUSH3 0xBAE JUMPI DUP1 DUP3 MUL SWAP2 POP JUMPDEST DUP1 DUP2 MUL SWAP1 POP PUSH3 0xBBE DUP6 PUSH3 0xB67 JUMP JUMPDEST SWAP5 POP PUSH3 0xB7E JUMP JUMPDEST SWAP5 POP SWAP5 SWAP3 POP POP POP JUMP JUMPDEST PUSH1 0x0 DUP3 PUSH3 0xBE1 JUMPI PUSH1 0x1 SWAP1 POP PUSH3 0xCB4 JUMP JUMPDEST DUP2 PUSH3 0xBF1 JUMPI PUSH1 0x0 SWAP1 POP PUSH3 0xCB4 JUMP JUMPDEST DUP2 PUSH1 0x1 DUP2 EQ PUSH3 0xC0A JUMPI PUSH1 0x2 DUP2 EQ PUSH3 0xC15 JUMPI PUSH3 0xC4B JUMP JUMPDEST PUSH1 0x1 SWAP2 POP POP PUSH3 0xCB4 JUMP JUMPDEST PUSH1 0xFF DUP5 GT ISZERO PUSH3 0xC2A JUMPI PUSH3 0xC29 PUSH3 0x752 JUMP JUMPDEST JUMPDEST DUP4 PUSH1 0x2 EXP SWAP2 POP DUP5 DUP3 GT ISZERO PUSH3 0xC44 JUMPI PUSH3 0xC43 PUSH3 0x752 JUMP JUMPDEST JUMPDEST POP PUSH3 0xCB4 JUMP JUMPDEST POP PUSH1 0x20 DUP4 LT PUSH2 0x133 DUP4 LT AND PUSH1 0x4E DUP5 LT PUSH1 0xB DUP5 LT AND OR ISZERO PUSH3 0xC85 JUMPI DUP3 DUP3 EXP SWAP1 POP DUP4 DUP2 GT ISZERO PUSH3 0xC7F JUMPI PUSH3 0xC7E PUSH3 0x752 JUMP JUMPDEST JUMPDEST PUSH3 0xCB4 JUMP JUMPDEST PUSH3 0xC94 DUP5 DUP5 DUP5 PUSH1 0x1 PUSH3 0xB74 JUMP JUMPDEST SWAP3 POP SWAP1 POP DUP2 DUP5 DIV DUP2 GT ISZERO PUSH3 0xCAE JUMPI PUSH3 0xCAD PUSH3 0x752 JUMP JUMPDEST JUMPDEST DUP2 DUP2 MUL SWAP1 POP JUMPDEST SWAP4 SWAP3 POP POP POP JUMP JUMPDEST PUSH1 0x0 PUSH3 0xCC8 DUP3 PUSH3 0x610 JUMP JUMPDEST SWAP2 POP PUSH3 0xCD5 DUP4 PUSH3 0x5D2 JUMP JUMPDEST SWAP3 POP PUSH3 0xD04 PUSH32 0xFFFFFFFFFFFFFFFFFFFFFFFFFFFFFFFFFFFFFFFFFFFFFFFFFFFFFFFFFFFFFFFF DUP5 DUP5 PUSH3 0xBCF JUMP JUMPDEST SWAP1 POP SWAP3 SWAP2 POP POP JUMP JUMPDEST PUSH1 0x0 PUSH3 0xD19 DUP3 PUSH3 0x610 JUMP JUMPDEST SWAP2 POP PUSH3 0xD26 DUP4 PUSH3 0x610 JUMP JUMPDEST SWAP3 POP DUP3 DUP3 MUL PUSH3 0xD36 DUP2 PUSH3 0x610 JUMP JUMPDEST SWAP2 POP DUP3 DUP3 DIV DUP5 EQ DUP4 ISZERO OR PUSH3 0xD50 JUMPI PUSH3 0xD4F PUSH3 0x752 JUMP JUMPDEST JUMPDEST POP SWAP3 SWAP2 POP POP JUMP JUMPDEST PUSH3 0xD62 DUP2 PUSH3 0x610 JUMP JUMPDEST DUP3 MSTORE POP POP JUMP JUMPDEST PUSH1 0x0 PUSH1 0x20 DUP3 ADD SWAP1 POP PUSH3 0xD7F PUSH1 0x0 DUP4 ADD DUP5 PUSH3 0xD57 JUMP JUMPDEST SWAP3 SWAP2 POP POP JUMP JUMPDEST PUSH2 0x11CA DUP1 PUSH3 0xD95 PUSH1 0x0 CODECOPY PUSH1 0x0 RETURN INVALID PUSH1 0x80 PUSH1 0x40 MSTORE CALLVALUE DUP1 ISZERO PUSH2 0x10 JUMPI PUSH1 0x0 DUP1 REVERT JUMPDEST POP PUSH1 0x4 CALLDATASIZE LT PUSH2 0x12B JUMPI PUSH1 0x0 CALLDATALOAD PUSH1 0xE0 SHR DUP1 PUSH4 0x6A0F62D6 GT PUSH2 0xAD JUMPI DUP1 PUSH4 0x95D89B41 GT PUSH2 0x71 JUMPI DUP1 PUSH4 0x95D89B41 EQ PUSH2 0x302 JUMPI DUP1 PUSH4 0xA0712D68 EQ PUSH2 0x320 JUMPI DUP1 PUSH4 0xA9059CBB EQ PUSH2 0x33C JUMPI DUP1 PUSH4 0xB65FA14F EQ PUSH2 0x36C JUMPI DUP1 PUSH4 0xBE22F546 EQ PUSH2 0x38A JUMPI PUSH2 0x12B JUMP JUMPDEST DUP1 PUSH4 0x6A0F62D6 EQ PUSH2 0x25A JUMPI DUP1 PUSH4 0x6F43F373 EQ PUSH2 0x278 JUMPI DUP1 PUSH4 0x70A08231 EQ PUSH2 0x296 JUMPI DUP1 PUSH4 0x8DA5CB5B EQ PUSH2 0x2C6 JUMPI DUP1 PUSH4 0x8E15F473 EQ PUSH2 0x2E4 JUMPI PUSH2 0x12B JUMP JUMPDEST DUP1 PUSH4 0x313CE567 GT PUSH2 0xF4 JUMPI DUP1 PUSH4 0x313CE567 EQ PUSH2 0x1C6 JUMPI DUP1 PUSH4 0x42966C68 EQ PUSH2 0x1E4 JUMPI DUP1 PUSH4 0x4F771C88 EQ PUSH2 0x200 JUMPI DUP1 PUSH4 0x57970E93 EQ PUSH2 0x21E JUMPI DUP1 PUSH4 0x58F40399 EQ PUSH2 0x23C JUMPI PUSH2 0x12B JUMP JUMPDEST DUP1 PUSH3 0x912B37 EQ PUSH2 0x130 JUMPI DUP1 PUSH4 0x2E65008 EQ PUSH2 0x14E JUMPI DUP1 PUSH4 0x6FDDE03 EQ PUSH2 0x16C JUMPI DUP1 PUSH4 0x11EAC855 EQ PUSH2 0x18A JUMPI DUP1 PUSH4 0x18160DDD EQ PUSH2 0x1A8 JUMPI JUMPDEST PUSH1 0x0 DUP1 REVERT JUMPDEST PUSH2 0x138 PUSH2 0x3A8 JUMP JUMPDEST PUSH1 0x40 MLOAD PUSH2 0x145 SWAP2 SWAP1 PUSH2 0xC16 JUMP JUMPDEST PUSH1 0x40 MLOAD DUP1 SWAP2 SUB SWAP1 RETURN JUMPDEST PUSH2 0x156 PUSH2 0x3CE JUMP JUMPDEST PUSH1 0x40 MLOAD PUSH2 0x163 SWAP2 SWAP1 PUSH2 0xC4A JUMP JUMPDEST PUSH1 0x40 MLOAD DUP1 SWAP2 SUB SWAP1 RETURN JUMPDEST PUSH2 0x174 PUSH2 0x3D4 JUMP JUMPDEST PUSH1 0x40 MLOAD PUSH2 0x181 SWAP2 SWAP1 PUSH2 0xCF5 JUMP JUMPDEST PUSH1 0x40 MLOAD DUP1 SWAP2 SUB SWAP1 RETURN JUMPDEST PUSH2 0x192 PUSH2 0x462 JUMP JUMPDEST PUSH1 0x40 MLOAD PUSH2 0x19F SWAP2 SWAP1 PUSH2 0xD38 JUMP JUMPDEST PUSH1 0x40 MLOAD DUP1 SWAP2 SUB SWAP1 RETURN JUMPDEST PUSH2 0x1B0 PUSH2 0x488 JUMP JUMPDEST PUSH1 0x40 MLOAD PUSH2 0x1BD SWAP2 SWAP1 PUSH2 0xC4A JUMP JUMPDEST PUSH1 0x40 MLOAD DUP1 SWAP2 SUB SWAP1 RETURN JUMPDEST PUSH2 0x1CE PUSH2 0x48E JUMP JUMPDEST PUSH1 0x40 MLOAD PUSH2 0x1DB SWAP2 SWAP1 PUSH2 0xD6F JUMP JUMPDEST PUSH1 0x40 MLOAD DUP1 SWAP2 SUB SWAP1 RETURN JUMPDEST PUSH2 0x1FE PUSH1 0x4 DUP1 CALLDATASIZE SUB DUP2 ADD SWAP1 PUSH2 0x1F9 SWAP2 SWAP1 PUSH2 0xDBB JUMP JUMPDEST PUSH2 0x4A1 JUMP JUMPDEST STOP JUMPDEST PUSH2 0x208 PUSH2 0x579 JUMP JUMPDEST PUSH1 0x40 MLOAD PUSH2 0x215 SWAP2 SWAP1 PUSH2 0xC16 JUMP JUMPDEST PUSH1 0x40 MLOAD DUP1 SWAP2 SUB SWAP1 RETURN JUMPDEST PUSH2 0x226 PUSH2 0x59F JUMP JUMPDEST PUSH1 0x40 MLOAD PUSH2 0x233 SWAP2 SWAP1 PUSH2 0xD38 JUMP JUMPDEST PUSH1 0x40 MLOAD DUP1 SWAP2 SUB SWAP1 RETURN JUMPDEST PUSH2 0x244 PUSH2 0x5C5 JUMP JUMPDEST PUSH1 0x40 MLOAD PUSH2 0x251 SWAP2 SWAP1 PUSH2 0xC16 JUMP JUMPDEST PUSH1 0x40 MLOAD DUP1 SWAP2 SUB SWAP1 RETURN JUMPDEST PUSH2 0x262 PUSH2 0x5EB JUMP JUMPDEST PUSH1 0x40 MLOAD PUSH2 0x26F SWAP2 SWAP1 PUSH2 0xC4A JUMP JUMPDEST PUSH1 0x40 MLOAD DUP1 SWAP2 SUB SWAP1 RETURN JUMPDEST PUSH2 0x280 PUSH2 0x5F1 JUMP JUMPDEST PUSH1 0x40 MLOAD PUSH2 0x28D SWAP2 SWAP1 PUSH2 0xC4A JUMP JUMPDEST PUSH1 0x40 MLOAD DUP1 SWAP2 SUB SWAP1 RETURN JUMPDEST PUSH2 0x2B0 PUSH1 0x4 DUP1 CALLDATASIZE SUB DUP2 ADD SWAP1 PUSH2 0x2AB SWAP2 SWAP1 PUSH2 0xE26 JUMP JUMPDEST PUSH2 0x5F7 JUMP JUMPDEST PUSH1 0x40 MLOAD PUSH2 0x2BD SWAP2 SWAP1 PUSH2 0xC4A JUMP JUMPDEST PUSH1 0x40 MLOAD DUP1 SWAP2 SUB SWAP1 RETURN JUMPDEST PUSH2 0x2CE PUSH2 0x60F JUMP JUMPDEST PUSH1 0x40 MLOAD PUSH2 0x2DB SWAP2 SWAP1 PUSH2 0xE62 JUMP JUMPDEST PUSH1 0x40 MLOAD DUP1 SWAP2 SUB SWAP1 RETURN JUMPDEST PUSH2 0x2EC PUSH2 0x635 JUMP JUMPDEST PUSH1 0x40 MLOAD PUSH2 0x2F9 SWAP2 SWAP1 PUSH2 0xC4A JUMP JUMPDEST PUSH1 0x40 MLOAD DUP1 SWAP2 SUB SWAP1 RETURN JUMPDEST PUSH2 0x30A PUSH2 0x8A7 JUMP JUMPDEST PUSH1 0x40 MLOAD PUSH2 0x317 SWAP2 SWAP1 PUSH2 0xCF5 JUMP JUMPDEST PUSH1 0x40 MLOAD DUP1 SWAP2 SUB SWAP1 RETURN JUMPDEST PUSH2 0x33A PUSH1 0x4 DUP1 CALLDATASIZE SUB DUP2 ADD SWAP1 PUSH2 0x335 SWAP2 SWAP1 PUSH2 0xDBB JUMP JUMPDEST PUSH2 0x935 JUMP JUMPDEST STOP JUMPDEST PUSH2 0x356 PUSH1 0x4 DUP1 CALLDATASIZE SUB DUP2 ADD SWAP1 PUSH2 0x351 SWAP2 SWAP1 PUSH2 0xE7D JUMP JUMPDEST PUSH2 0xA0D JUMP JUMPDEST PUSH1 0x40 MLOAD PUSH2 0x363 SWAP2 SWAP1 PUSH2 0xED8 JUMP JUMPDEST PUSH1 0x40 MLOAD DUP1 SWAP2 SUB SWAP1 RETURN JUMPDEST PUSH2 0x374 PUSH2 0xB2A JUMP JUMPDEST PUSH1 0x40 MLOAD PUSH2 0x381 SWAP2 SWAP1 PUSH2 0xC4A JUMP JUMPDEST PUSH1 0x40 MLOAD DUP1 SWAP2 SUB SWAP1 RETURN JUMPDEST PUSH2 0x392 PUSH2 0xB71 JUMP JUMPDEST PUSH1 0x40 MLOAD PUSH2 0x39F SWAP2 SWAP1 PUSH2 0xD38 JUMP JUMPDEST PUSH1 0x40 MLOAD DUP1 SWAP2 SUB SWAP1 RETURN JUMPDEST PUSH1 0xE PUSH1 0x0 SWAP1 SLOAD SWAP1 PUSH2 0x100 EXP SWAP1 DIV PUSH20 0xFFFFFFFFFFFFFFFFFFFFFFFFFFFFFFFFFFFFFFFF AND DUP2 JUMP JUMPDEST PUSH1 0xB SLOAD DUP2 JUMP JUMPDEST PUSH1 0x0 DUP1 SLOAD PUSH2 0x3E1 SWAP1 PUSH2 0xF22 JUMP JUMPDEST DUP1 PUSH1 0x1F ADD PUSH1 0x20 DUP1 SWAP2 DIV MUL PUSH1 0x20 ADD PUSH1 0x40 MLOAD SWAP1 DUP2 ADD PUSH1 0x40 MSTORE DUP1 SWAP3 SWAP2 SWAP1 DUP2 DUP2 MSTORE PUSH1 0x20 ADD DUP3 DUP1 SLOAD PUSH2 0x40D SWAP1 PUSH2 0xF22 JUMP JUMPDEST DUP1 ISZERO PUSH2 0x45A JUMPI DUP1 PUSH1 0x1F LT PUSH2 0x42F JUMPI PUSH2 0x100 DUP1 DUP4 SLOAD DIV MUL DUP4 MSTORE SWAP2 PUSH1 0x20 ADD SWAP2 PUSH2 0x45A JUMP JUMPDEST DUP3 ADD SWAP2 SWAP1 PUSH1 0x0 MSTORE PUSH1 0x20 PUSH1 0x0 KECCAK256 SWAP1 JUMPDEST DUP2 SLOAD DUP2 MSTORE SWAP1 PUSH1 0x1 ADD SWAP1 PUSH1 0x20 ADD DUP1 DUP4 GT PUSH2 0x43D JUMPI DUP3 SWAP1 SUB PUSH1 0x1F AND DUP3 ADD SWAP2 JUMPDEST POP POP POP POP POP DUP2 JUMP JUMPDEST PUSH1 0x7 PUSH1 0x0 SWAP1 SLOAD SWAP1 PUSH2 0x100 EXP SWAP1 DIV PUSH20 0xFFFFFFFFFFFFFFFFFFFFFFFFFFFFFFFFFFFFFFFF AND DUP2 JUMP JUMPDEST PUSH1 0x3 SLOAD DUP2 JUMP JUMPDEST PUSH1 0x2 PUSH1 0x0 SWAP1 SLOAD SWAP1 PUSH2 0x100 EXP SWAP1 DIV PUSH1 0xFF AND DUP2 JUMP JUMPDEST DUP1 PUSH1 0x4 PUSH1 0x0 CALLER PUSH20 0xFFFFFFFFFFFFFFFFFFFFFFFFFFFFFFFFFFFFFFFF AND PUSH20 0xFFFFFFFFFFFFFFFFFFFFFFFFFFFFFFFFFFFFFFFF AND DUP2 MSTORE PUSH1 0x20 ADD SWAP1 DUP2 MSTORE PUSH1 0x20 ADD PUSH1 0x0 KECCAK256 PUSH1 0x0 DUP3 DUP3 SLOAD PUSH2 0x4F0 SWAP2 SWAP1 PUSH2 0xF82 JUMP JUMPDEST SWAP3 POP POP DUP2 SWAP1 SSTORE POP DUP1 PUSH1 0x3 PUSH1 0x0 DUP3 DUP3 SLOAD PUSH2 0x509 SWAP2 SWAP1 PUSH2 0xF82 JUMP JUMPDEST SWAP3 POP POP DUP2 SWAP1 SSTORE POP PUSH1 0x0 PUSH20 0xFFFFFFFFFFFFFFFFFFFFFFFFFFFFFFFFFFFFFFFF AND CALLER PUSH20 0xFFFFFFFFFFFFFFFFFFFFFFFFFFFFFFFFFFFFFFFF AND PUSH32 0xDDF252AD1BE2C89B69C2B068FC378DAA952BA7F163C4A11628F55A4DF523B3EF DUP4 PUSH1 0x40 MLOAD PUSH2 0x56E SWAP2 SWAP1 PUSH2 0xC4A JUMP JUMPDEST PUSH1 0x40 MLOAD DUP1 SWAP2 SUB SWAP1 LOG3 POP JUMP JUMPDEST PUSH1 0xC PUSH1 0x0 SWAP1 SLOAD SWAP1 PUSH2 0x100 EXP SWAP1 DIV PUSH20 0xFFFFFFFFFFFFFFFFFFFFFFFFFFFFFFFFFFFFFFFF AND DUP2 JUMP JUMPDEST PUSH1 0x8 PUSH1 0x0 SWAP1 SLOAD SWAP1 PUSH2 0x100 EXP SWAP1 DIV PUSH20 0xFFFFFFFFFFFFFFFFFFFFFFFFFFFFFFFFFFFFFFFF AND DUP2 JUMP JUMPDEST PUSH1 0xD PUSH1 0x0 SWAP1 SLOAD SWAP1 PUSH2 0x100 EXP SWAP1 DIV PUSH20 0xFFFFFFFFFFFFFFFFFFFFFFFFFFFFFFFFFFFFFFFF AND DUP2 JUMP JUMPDEST PUSH1 0x9 SLOAD DUP2 JUMP JUMPDEST PUSH1 0xA SLOAD DUP2 JUMP JUMPDEST PUSH1 0x4 PUSH1 0x20 MSTORE DUP1 PUSH1 0x0 MSTORE PUSH1 0x40 PUSH1 0x0 KECCAK256 PUSH1 0x0 SWAP2 POP SWAP1 POP SLOAD DUP2 JUMP JUMPDEST PUSH1 0x5 PUSH1 0x0 SWAP1 SLOAD SWAP1 PUSH2 0x100 EXP SWAP1 DIV PUSH20 0xFFFFFFFFFFFFFFFFFFFFFFFFFFFFFFFFFFFFFFFF AND DUP2 JUMP JUMPDEST PUSH1 0x0 DUP1 PUSH1 0xC PUSH1 0x0 SWAP1 SLOAD SWAP1 PUSH2 0x100 EXP SWAP1 DIV PUSH20 0xFFFFFFFFFFFFFFFFFFFFFFFFFFFFFFFFFFFFFFFF AND PUSH20 0xFFFFFFFFFFFFFFFFFFFFFFFFFFFFFFFFFFFFFFFF AND PUSH4 0xFEAF968C PUSH1 0x40 MLOAD DUP2 PUSH4 0xFFFFFFFF AND PUSH1 0xE0 SHL DUP2 MSTORE PUSH1 0x4 ADD PUSH1 0xA0 PUSH1 0x40 MLOAD DUP1 DUP4 SUB DUP2 DUP7 GAS STATICCALL ISZERO DUP1 ISZERO PUSH2 0x6A5 JUMPI RETURNDATASIZE PUSH1 0x0 DUP1 RETURNDATACOPY RETURNDATASIZE PUSH1 0x0 REVERT JUMPDEST POP POP POP POP PUSH1 0x40 MLOAD RETURNDATASIZE PUSH1 0x1F NOT PUSH1 0x1F DUP3 ADD AND DUP3 ADD DUP1 PUSH1 0x40 MSTORE POP DUP2 ADD SWAP1 PUSH2 0x6C9 SWAP2 SWAP1 PUSH2 0x1043 JUMP JUMPDEST POP POP POP SWAP2 POP POP PUSH1 0x0 PUSH1 0xD PUSH1 0x0 SWAP1 SLOAD SWAP1 PUSH2 0x100 EXP SWAP1 DIV PUSH20 0xFFFFFFFFFFFFFFFFFFFFFFFFFFFFFFFFFFFFFFFF AND PUSH20 0xFFFFFFFFFFFFFFFFFFFFFFFFFFFFFFFFFFFFFFFF AND PUSH4 0xFEAF968C PUSH1 0x40 MLOAD DUP2 PUSH4 0xFFFFFFFF AND PUSH1 0xE0 SHL DUP2 MSTORE PUSH1 0x4 ADD PUSH1 0xA0 PUSH1 0x40 MLOAD DUP1 DUP4 SUB DUP2 DUP7 GAS STATICCALL ISZERO DUP1 ISZERO PUSH2 0x73E JUMPI RETURNDATASIZE PUSH1 0x0 DUP1 RETURNDATACOPY RETURNDATASIZE PUSH1 0x0 REVERT JUMPDEST POP POP POP POP PUSH1 0x40 MLOAD RETURNDATASIZE PUSH1 0x1F NOT PUSH1 0x1F DUP3 ADD AND DUP3 ADD DUP1 PUSH1 0x40 MSTORE POP DUP2 ADD SWAP1 PUSH2 0x762 SWAP2 SWAP1 PUSH2 0x1043 JUMP JUMPDEST POP POP POP SWAP2 POP POP PUSH1 0x0 PUSH1 0xE PUSH1 0x0 SWAP1 SLOAD SWAP1 PUSH2 0x100 EXP SWAP1 DIV PUSH20 0xFFFFFFFFFFFFFFFFFFFFFFFFFFFFFFFFFFFFFFFF AND PUSH20 0xFFFFFFFFFFFFFFFFFFFFFFFFFFFFFFFFFFFFFFFF AND PUSH4 0xFEAF968C PUSH1 0x40 MLOAD DUP2 PUSH4 0xFFFFFFFF AND PUSH1 0xE0 SHL DUP2 MSTORE PUSH1 0x4 ADD PUSH1 0xA0 PUSH1 0x40 MLOAD DUP1 DUP4 SUB DUP2 DUP7 GAS STATICCALL ISZERO DUP1 ISZERO PUSH2 0x7D7 JUMPI RETURNDATASIZE PUSH1 0x0 DUP1 RETURNDATACOPY RETURNDATASIZE PUSH1 0x0 REVERT JUMPDEST POP POP POP POP PUSH1 0x40 MLOAD RETURNDATASIZE PUSH1 0x1F NOT PUSH1 0x1F DUP3 ADD AND DUP3 ADD DUP1 PUSH1 0x40 MSTORE POP DUP2 ADD SWAP1 PUSH2 0x7FB SWAP2 SWAP1 PUSH2 0x1043 JUMP JUMPDEST POP POP POP SWAP2 POP POP PUSH1 0x0 PUSH5 0x2540BE400 DUP5 PUSH2 0x814 SWAP2 SWAP1 PUSH2 0x10BE JUMP JUMPDEST SWAP1 POP PUSH1 0x0 PUSH5 0x2540BE400 DUP5 PUSH2 0x829 SWAP2 SWAP1 PUSH2 0x10BE JUMP JUMPDEST SWAP1 POP PUSH1 0x0 PUSH5 0x2540BE400 DUP5 PUSH2 0x83E SWAP2 SWAP1 PUSH2 0x10BE JUMP JUMPDEST SWAP1 POP PUSH1 0x0 PUSH1 0x9 SLOAD DUP5 PUSH2 0x850 SWAP2 SWAP1 PUSH2 0x10BE JUMP JUMPDEST SWAP1 POP PUSH1 0x0 PUSH1 0xA SLOAD DUP5 PUSH2 0x862 SWAP2 SWAP1 PUSH2 0x10BE JUMP JUMPDEST SWAP1 POP PUSH1 0x0 PUSH1 0xB SLOAD DUP5 PUSH2 0x874 SWAP2 SWAP1 PUSH2 0x10BE JUMP JUMPDEST SWAP1 POP PUSH1 0x64 DUP2 DUP4 DUP6 PUSH2 0x885 SWAP2 SWAP1 PUSH2 0x1100 JUMP JUMPDEST PUSH2 0x88F SWAP2 SWAP1 PUSH2 0x1100 JUMP JUMPDEST PUSH2 0x899 SWAP2 SWAP1 PUSH2 0x1163 JUMP JUMPDEST SWAP10 POP POP POP POP POP POP POP POP POP POP SWAP1 JUMP JUMPDEST PUSH1 0x1 DUP1 SLOAD PUSH2 0x8B4 SWAP1 PUSH2 0xF22 JUMP JUMPDEST DUP1 PUSH1 0x1F ADD PUSH1 0x20 DUP1 SWAP2 DIV MUL PUSH1 0x20 ADD PUSH1 0x40 MLOAD SWAP1 DUP2 ADD PUSH1 0x40 MSTORE DUP1 SWAP3 SWAP2 SWAP1 DUP2 DUP2 MSTORE PUSH1 0x20 ADD DUP3 DUP1 SLOAD PUSH2 0x8E0 SWAP1 PUSH2 0xF22 JUMP JUMPDEST DUP1 ISZERO PUSH2 0x92D JUMPI DUP1 PUSH1 0x1F LT PUSH2 0x902 JUMPI PUSH2 0x100 DUP1 DUP4 SLOAD DIV MUL DUP4 MSTORE SWAP2 PUSH1 0x20 ADD SWAP2 PUSH2 0x92D JUMP JUMPDEST DUP3 ADD SWAP2 SWAP1 PUSH1 0x0 MSTORE PUSH1 0x20 PUSH1 0x0 KECCAK256 SWAP1 JUMPDEST DUP2 SLOAD DUP2 MSTORE SWAP1 PUSH1 0x1 ADD SWAP1 PUSH1 0x20 ADD DUP1 DUP4 GT PUSH2 0x910 JUMPI DUP3 SWAP1 SUB PUSH1 0x1F AND DUP3 ADD SWAP2 JUMPDEST POP POP POP POP POP DUP2 JUMP JUMPDEST DUP1 PUSH1 0x4 PUSH1 0x0 CALLER PUSH20 0xFFFFFFFFFFFFFFFFFFFFFFFFFFFFFFFFFFFFFFFF AND PUSH20 0xFFFFFFFFFFFFFFFFFFFFFFFFFFFFFFFFFFFFFFFF AND DUP2 MSTORE PUSH1 0x20 ADD SWAP1 DUP2 MSTORE PUSH1 0x20 ADD PUSH1 0x0 KECCAK256 PUSH1 0x0 DUP3 DUP3 SLOAD PUSH2 0x984 SWAP2 SWAP1 PUSH2 0x1100 JUMP JUMPDEST SWAP3 POP POP DUP2 SWAP1 SSTORE POP DUP1 PUSH1 0x3 PUSH1 0x0 DUP3 DUP3 SLOAD PUSH2 0x99D SWAP2 SWAP1 PUSH2 0x1100 JUMP JUMPDEST SWAP3 POP POP DUP2 SWAP1 SSTORE POP CALLER PUSH20 0xFFFFFFFFFFFFFFFFFFFFFFFFFFFFFFFFFFFFFFFF AND PUSH1 0x0 PUSH20 0xFFFFFFFFFFFFFFFFFFFFFFFFFFFFFFFFFFFFFFFF AND PUSH32 0xDDF252AD1BE2C89B69C2B068FC378DAA952BA7F163C4A11628F55A4DF523B3EF DUP4 PUSH1 0x40 MLOAD PUSH2 0xA02 SWAP2 SWAP1 PUSH2 0xC4A JUMP JUMPDEST PUSH1 0x40 MLOAD DUP1 SWAP2 SUB SWAP1 LOG3 POP JUMP JUMPDEST PUSH1 0x0 DUP2 PUSH1 0x4 PUSH1 0x0 CALLER PUSH20 0xFFFFFFFFFFFFFFFFFFFFFFFFFFFFFFFFFFFFFFFF AND PUSH20 0xFFFFFFFFFFFFFFFFFFFFFFFFFFFFFFFFFFFFFFFF AND DUP2 MSTORE PUSH1 0x20 ADD SWAP1 DUP2 MSTORE PUSH1 0x20 ADD PUSH1 0x0 KECCAK256 PUSH1 0x0 DUP3 DUP3 SLOAD PUSH2 0xA5E SWAP2 SWAP1 PUSH2 0xF82 JUMP JUMPDEST SWAP3 POP POP DUP2 SWAP1 SSTORE POP DUP2 PUSH1 0x4 PUSH1 0x0 DUP6 PUSH20 0xFFFFFFFFFFFFFFFFFFFFFFFFFFFFFFFFFFFFFFFF AND PUSH20 0xFFFFFFFFFFFFFFFFFFFFFFFFFFFFFFFFFFFFFFFF AND DUP2 MSTORE PUSH1 0x20 ADD SWAP1 DUP2 MSTORE PUSH1 0x20 ADD PUSH1 0x0 KECCAK256 PUSH1 0x0 DUP3 DUP3 SLOAD PUSH2 0xAB4 SWAP2 SWAP1 PUSH2 0x1100 JUMP JUMPDEST SWAP3 POP POP DUP2 SWAP1 SSTORE POP DUP3 PUSH20 0xFFFFFFFFFFFFFFFFFFFFFFFFFFFFFFFFFFFFFFFF AND CALLER PUSH20 0xFFFFFFFFFFFFFFFFFFFFFFFFFFFFFFFFFFFFFFFF AND PUSH32 0xDDF252AD1BE2C89B69C2B068FC378DAA952BA7F163C4A11628F55A4DF523B3EF DUP5 PUSH1 0x40 MLOAD PUSH2 0xB18 SWAP2 SWAP1 PUSH2 0xC4A JUMP JUMPDEST PUSH1 0x40 MLOAD DUP1 SWAP2 SUB SWAP1 LOG3 PUSH1 0x1 SWAP1 POP SWAP3 SWAP2 POP POP JUMP JUMPDEST PUSH1 0x0 PUSH1 0x4 PUSH1 0x0 CALLER PUSH20 0xFFFFFFFFFFFFFFFFFFFFFFFFFFFFFFFFFFFFFFFF AND PUSH20 0xFFFFFFFFFFFFFFFFFFFFFFFFFFFFFFFFFFFFFFFF AND DUP2 MSTORE PUSH1 0x20 ADD SWAP1 DUP2 MSTORE PUSH1 0x20 ADD PUSH1 0x0 KECCAK256 SLOAD SWAP1 POP SWAP1 JUMP JUMPDEST PUSH1 0x6 PUSH1 0x0 SWAP1 SLOAD SWAP1 PUSH2 0x100 EXP SWAP1 DIV PUSH20 0xFFFFFFFFFFFFFFFFFFFFFFFFFFFFFFFFFFFFFFFF AND DUP2 JUMP JUMPDEST PUSH1 0x0 PUSH20 0xFFFFFFFFFFFFFFFFFFFFFFFFFFFFFFFFFFFFFFFF DUP3 AND SWAP1 POP SWAP2 SWAP1 POP JUMP JUMPDEST PUSH1 0x0 DUP2 SWAP1 POP SWAP2 SWAP1 POP JUMP JUMPDEST PUSH1 0x0 PUSH2 0xBDC PUSH2 0xBD7 PUSH2 0xBD2 DUP5 PUSH2 0xB97 JUMP JUMPDEST PUSH2 0xBB7 JUMP JUMPDEST PUSH2 0xB97 JUMP JUMPDEST SWAP1 POP SWAP2 SWAP1 POP JUMP JUMPDEST PUSH1 0x0 PUSH2 0xBEE DUP3 PUSH2 0xBC1 JUMP JUMPDEST SWAP1 POP SWAP2 SWAP1 POP JUMP JUMPDEST PUSH1 0x0 PUSH2 0xC00 DUP3 PUSH2 0xBE3 JUMP JUMPDEST SWAP1 POP SWAP2 SWAP1 POP JUMP JUMPDEST PUSH2 0xC10 DUP2 PUSH2 0xBF5 JUMP JUMPDEST DUP3 MSTORE POP POP JUMP JUMPDEST PUSH1 0x0 PUSH1 0x20 DUP3 ADD SWAP1 POP PUSH2 0xC2B PUSH1 0x0 DUP4 ADD DUP5 PUSH2 0xC07 JUMP JUMPDEST SWAP3 SWAP2 POP POP JUMP JUMPDEST PUSH1 0x0 DUP2 SWAP1 POP SWAP2 SWAP1 POP JUMP JUMPDEST PUSH2 0xC44 DUP2 PUSH2 0xC31 JUMP JUMPDEST DUP3 MSTORE POP POP JUMP JUMPDEST PUSH1 0x0 PUSH1 0x20 DUP3 ADD SWAP1 POP PUSH2 0xC5F PUSH1 0x0 DUP4 ADD DUP5 PUSH2 0xC3B JUMP JUMPDEST SWAP3 SWAP2 POP POP JUMP JUMPDEST PUSH1 0x0 DUP2 MLOAD SWAP1 POP SWAP2 SWAP1 POP JUMP JUMPDEST PUSH1 0x0 DUP3 DUP3 MSTORE PUSH1 0x20 DUP3 ADD SWAP1 POP SWAP3 SWAP2 POP POP JUMP JUMPDEST PUSH1 0x0 JUMPDEST DUP4 DUP2 LT ISZERO PUSH2 0xC9F JUMPI DUP1 DUP3 ADD MLOAD DUP2 DUP5 ADD MSTORE PUSH1 0x20 DUP2 ADD SWAP1 POP PUSH2 0xC84 JUMP JUMPDEST PUSH1 0x0 DUP5 DUP5 ADD MSTORE POP POP POP POP JUMP JUMPDEST PUSH1 0x0 PUSH1 0x1F NOT PUSH1 0x1F DUP4 ADD AND SWAP1 POP SWAP2 SWAP1 POP JUMP JUMPDEST PUSH1 0x0 PUSH2 0xCC7 DUP3 PUSH2 0xC65 JUMP JUMPDEST PUSH2 0xCD1 DUP2 DUP6 PUSH2 0xC70 JUMP JUMPDEST SWAP4 POP PUSH2 0xCE1 DUP2 DUP6 PUSH1 0x20 DUP7 ADD PUSH2 0xC81 JUMP JUMPDEST PUSH2 0xCEA DUP2 PUSH2 0xCAB JUMP JUMPDEST DUP5 ADD SWAP2 POP POP SWAP3 SWAP2 POP POP JUMP JUMPDEST PUSH1 0x0 PUSH1 0x20 DUP3 ADD SWAP1 POP DUP2 DUP2 SUB PUSH1 0x0 DUP4 ADD MSTORE PUSH2 0xD0F DUP2 DUP5 PUSH2 0xCBC JUMP JUMPDEST SWAP1 POP SWAP3 SWAP2 POP POP JUMP JUMPDEST PUSH1 0x0 PUSH2 0xD22 DUP3 PUSH2 0xBE3 JUMP JUMPDEST SWAP1 POP SWAP2 SWAP1 POP JUMP JUMPDEST PUSH2 0xD32 DUP2 PUSH2 0xD17 JUMP JUMPDEST DUP3 MSTORE POP POP JUMP JUMPDEST PUSH1 0x0 PUSH1 0x20 DUP3 ADD SWAP1 POP PUSH2 0xD4D PUSH1 0x0 DUP4 ADD DUP5 PUSH2 0xD29 JUMP JUMPDEST SWAP3 SWAP2 POP POP JUMP JUMPDEST PUSH1 0x0 PUSH1 0xFF DUP3 AND SWAP1 POP SWAP2 SWAP1 POP JUMP JUMPDEST PUSH2 0xD69 DUP2 PUSH2 0xD53 JUMP JUMPDEST DUP3 MSTORE POP POP JUMP JUMPDEST PUSH1 0x0 PUSH1 0x20 DUP3 ADD SWAP1 POP PUSH2 0xD84 PUSH1 0x0 DUP4 ADD DUP5 PUSH2 0xD60 JUMP JUMPDEST SWAP3 SWAP2 POP POP JUMP JUMPDEST PUSH1 0x0 DUP1 REVERT JUMPDEST PUSH2 0xD98 DUP2 PUSH2 0xC31 JUMP JUMPDEST DUP2 EQ PUSH2 0xDA3 JUMPI PUSH1 0x0 DUP1 REVERT JUMPDEST POP JUMP JUMPDEST PUSH1 0x0 DUP2 CALLDATALOAD SWAP1 POP PUSH2 0xDB5 DUP2 PUSH2 0xD8F JUMP JUMPDEST SWAP3 SWAP2 POP POP JUMP JUMPDEST PUSH1 0x0 PUSH1 0x20 DUP3 DUP5 SUB SLT ISZERO PUSH2 0xDD1 JUMPI PUSH2 0xDD0 PUSH2 0xD8A JUMP JUMPDEST JUMPDEST PUSH1 0x0 PUSH2 0xDDF DUP5 DUP3 DUP6 ADD PUSH2 0xDA6 JUMP JUMPDEST SWAP2 POP POP SWAP3 SWAP2 POP POP JUMP JUMPDEST PUSH1 0x0 PUSH2 0xDF3 DUP3 PUSH2 0xB97 JUMP JUMPDEST SWAP1 POP SWAP2 SWAP1 POP JUMP JUMPDEST PUSH2 0xE03 DUP2 PUSH2 0xDE8 JUMP JUMPDEST DUP2 EQ PUSH2 0xE0E JUMPI PUSH1 0x0 DUP1 REVERT JUMPDEST POP JUMP JUMPDEST PUSH1 0x0 DUP2 CALLDATALOAD SWAP1 POP PUSH2 0xE20 DUP2 PUSH2 0xDFA JUMP JUMPDEST SWAP3 SWAP2 POP POP JUMP JUMPDEST PUSH1 0x0 PUSH1 0x20 DUP3 DUP5 SUB SLT ISZERO PUSH2 0xE3C JUMPI PUSH2 0xE3B PUSH2 0xD8A JUMP JUMPDEST JUMPDEST PUSH1 0x0 PUSH2 0xE4A DUP5 DUP3 DUP6 ADD PUSH2 0xE11 JUMP JUMPDEST SWAP2 POP POP SWAP3 SWAP2 POP POP JUMP JUMPDEST PUSH2 0xE5C DUP2 PUSH2 0xDE8 JUMP JUMPDEST DUP3 MSTORE POP POP JUMP JUMPDEST PUSH1 0x0 PUSH1 0x20 DUP3 ADD SWAP1 POP PUSH2 0xE77 PUSH1 0x0 DUP4 ADD DUP5 PUSH2 0xE53 JUMP JUMPDEST SWAP3 SWAP2 POP POP JUMP JUMPDEST PUSH1 0x0 DUP1 PUSH1 0x40 DUP4 DUP6 SUB SLT ISZERO PUSH2 0xE94 JUMPI PUSH2 0xE93 PUSH2 0xD8A JUMP JUMPDEST JUMPDEST PUSH1 0x0 PUSH2 0xEA2 DUP6 DUP3 DUP7 ADD PUSH2 0xE11 JUMP JUMPDEST SWAP3 POP POP PUSH1 0x20 PUSH2 0xEB3 DUP6 DUP3 DUP7 ADD PUSH2 0xDA6 JUMP JUMPDEST SWAP2 POP POP SWAP3 POP SWAP3 SWAP1 POP JUMP JUMPDEST PUSH1 0x0 DUP2 ISZERO ISZERO SWAP1 POP SWAP2 SWAP1 POP JUMP JUMPDEST PUSH2 0xED2 DUP2 PUSH2 0xEBD JUMP JUMPDEST DUP3 MSTORE POP POP JUMP JUMPDEST PUSH1 0x0 PUSH1 0x20 DUP3 ADD SWAP1 POP PUSH2 0xEED PUSH1 0x0 DUP4 ADD DUP5 PUSH2 0xEC9 JUMP JUMPDEST SWAP3 SWAP2 POP POP JUMP JUMPDEST PUSH32 0x4E487B7100000000000000000000000000000000000000000000000000000000 PUSH1 0x0 MSTORE PUSH1 0x22 PUSH1 0x4 MSTORE PUSH1 0x24 PUSH1 0x0 REVERT JUMPDEST PUSH1 0x0 PUSH1 0x2 DUP3 DIV SWAP1 POP PUSH1 0x1 DUP3 AND DUP1 PUSH2 0xF3A JUMPI PUSH1 0x7F DUP3 AND SWAP2 POP JUMPDEST PUSH1 0x20 DUP3 LT DUP2 SUB PUSH2 0xF4D JUMPI PUSH2 0xF4C PUSH2 0xEF3 JUMP JUMPDEST JUMPDEST POP SWAP2 SWAP1 POP JUMP JUMPDEST PUSH32 0x4E487B7100000000000000000000000000000000000000000000000000000000 PUSH1 0x0 MSTORE PUSH1 0x11 PUSH1 0x4 MSTORE PUSH1 0x24 PUSH1 0x0 REVERT JUMPDEST PUSH1 0x0 PUSH2 0xF8D DUP3 PUSH2 0xC31 JUMP JUMPDEST SWAP2 POP PUSH2 0xF98 DUP4 PUSH2 0xC31 JUMP JUMPDEST SWAP3 POP DUP3 DUP3 SUB SWAP1 POP DUP2 DUP2 GT ISZERO PUSH2 0xFB0 JUMPI PUSH2 0xFAF PUSH2 0xF53 JUMP JUMPDEST JUMPDEST SWAP3 SWAP2 POP POP JUMP JUMPDEST PUSH1 0x0 PUSH10 0xFFFFFFFFFFFFFFFFFFFF DUP3 AND SWAP1 POP SWAP2 SWAP1 POP JUMP JUMPDEST PUSH2 0xFD5 DUP2 PUSH2 0xFB6 JUMP JUMPDEST DUP2 EQ PUSH2 0xFE0 JUMPI PUSH1 0x0 DUP1 REVERT JUMPDEST POP JUMP JUMPDEST PUSH1 0x0 DUP2 MLOAD SWAP1 POP PUSH2 0xFF2 DUP2 PUSH2 0xFCC JUMP JUMPDEST SWAP3 SWAP2 POP POP JUMP JUMPDEST PUSH1 0x0 DUP2 SWAP1 POP SWAP2 SWAP1 POP JUMP JUMPDEST PUSH2 0x100B DUP2 PUSH2 0xFF8 JUMP JUMPDEST DUP2 EQ PUSH2 0x1016 JUMPI PUSH1 0x0 DUP1 REVERT JUMPDEST POP JUMP JUMPDEST PUSH1 0x0 DUP2 MLOAD SWAP1 POP PUSH2 0x1028 DUP2 PUSH2 0x1002 JUMP JUMPDEST SWAP3 SWAP2 POP POP JUMP JUMPDEST PUSH1 0x0 DUP2 MLOAD SWAP1 POP PUSH2 0x103D DUP2 PUSH2 0xD8F JUMP JUMPDEST SWAP3 SWAP2 POP POP JUMP JUMPDEST PUSH1 0x0 DUP1 PUSH1 0x0 DUP1 PUSH1 0x0 PUSH1 0xA0 DUP7 DUP9 SUB SLT ISZERO PUSH2 0x105F JUMPI PUSH2 0x105E PUSH2 0xD8A JUMP JUMPDEST JUMPDEST PUSH1 0x0 PUSH2 0x106D DUP9 DUP3 DUP10 ADD PUSH2 0xFE3 JUMP JUMPDEST SWAP6 POP POP PUSH1 0x20 PUSH2 0x107E DUP9 DUP3 DUP10 ADD PUSH2 0x1019 JUMP JUMPDEST SWAP5 POP POP PUSH1 0x40 PUSH2 0x108F DUP9 DUP3 DUP10 ADD PUSH2 0x102E JUMP JUMPDEST SWAP4 POP POP PUSH1 0x60 PUSH2 0x10A0 DUP9 DUP3 DUP10 ADD PUSH2 0x102E JUMP JUMPDEST SWAP3 POP POP PUSH1 0x80 PUSH2 0x10B1 DUP9 DUP3 DUP10 ADD PUSH2 0xFE3 JUMP JUMPDEST SWAP2 POP POP SWAP3 SWAP6 POP SWAP3 SWAP6 SWAP1 SWAP4 POP JUMP JUMPDEST PUSH1 0x0 PUSH2 0x10C9 DUP3 PUSH2 0xC31 JUMP JUMPDEST SWAP2 POP PUSH2 0x10D4 DUP4 PUSH2 0xC31 JUMP JUMPDEST SWAP3 POP DUP3 DUP3 MUL PUSH2 0x10E2 DUP2 PUSH2 0xC31 JUMP JUMPDEST SWAP2 POP DUP3 DUP3 DIV DUP5 EQ DUP4 ISZERO OR PUSH2 0x10F9 JUMPI PUSH2 0x10F8 PUSH2 0xF53 JUMP JUMPDEST JUMPDEST POP SWAP3 SWAP2 POP POP JUMP JUMPDEST PUSH1 0x0 PUSH2 0x110B DUP3 PUSH2 0xC31 JUMP JUMPDEST SWAP2 POP PUSH2 0x1116 DUP4 PUSH2 0xC31 JUMP JUMPDEST SWAP3 POP DUP3 DUP3 ADD SWAP1 POP DUP1 DUP3 GT ISZERO PUSH2 0x112E JUMPI PUSH2 0x112D PUSH2 0xF53 JUMP JUMPDEST JUMPDEST SWAP3 SWAP2 POP POP JUMP JUMPDEST PUSH32 0x4E487B7100000000000000000000000000000000000000000000000000000000 PUSH1 0x0 MSTORE PUSH1 0x12 PUSH1 0x4 MSTORE PUSH1 0x24 PUSH1 0x0 REVERT JUMPDEST PUSH1 0x0 PUSH2 0x116E DUP3 PUSH2 0xC31 JUMP JUMPDEST SWAP2 POP PUSH2 0x1179 DUP4 PUSH2 0xC31 JUMP JUMPDEST SWAP3 POP DUP3 PUSH2 0x1189 JUMPI PUSH2 0x1188 PUSH2 0x1134 JUMP JUMPDEST JUMPDEST DUP3 DUP3 DIV SWAP1 POP SWAP3 SWAP2 POP POP JUMP INVALID LOG2 PUSH5 0x6970667358 0x22 SLT KECCAK256 0xA8 PUSH32 0xA6E9E0459881A1295EC3514A146F7635927D856304353011DBA40C5AC2B26473 PUSH16 0x6C634300081400330000000000000000 "
				},
				"gasEstimates": {
					"creation": {
						"codeDepositCost": "910800",
						"executionCost": "infinite",
						"totalCost": "infinite"
					},
					"external": {
						"balanceOf(address)": "2881",
						"burn(uint256)": "infinite",
						"daiPriceFeed()": "infinite",
						"daiRatio()": "2452",
						"daiToken()": "infinite",
						"decimals()": "2494",
						"getLatestPrice()": "infinite",
						"getOwnerBalanceOf()": "2614",
						"linkPriceFeed()": "infinite",
						"linkRatio()": "2475",
						"linkToken()": "infinite",
						"mint(uint256)": "infinite",
						"name()": "infinite",
						"owner()": "2603",
						"symbol()": "infinite",
						"totalSupply()": "2541",
						"transfer(address,uint256)": "infinite",
						"usdcPriceFeed()": "infinite",
						"usdcRatio()": "2474",
						"usdcToken()": "infinite"
					}
				},
				"methodIdentifiers": {
					"balanceOf(address)": "70a08231",
					"burn(uint256)": "42966c68",
					"daiPriceFeed()": "4f771c88",
					"daiRatio()": "6a0f62d6",
					"daiToken()": "be22f546",
					"decimals()": "313ce567",
					"getLatestPrice()": "8e15f473",
					"getOwnerBalanceOf()": "b65fa14f",
					"linkPriceFeed()": "00912b37",
					"linkRatio()": "02e65008",
					"linkToken()": "57970e93",
					"mint(uint256)": "a0712d68",
					"name()": "06fdde03",
					"owner()": "8da5cb5b",
					"symbol()": "95d89b41",
					"totalSupply()": "18160ddd",
					"transfer(address,uint256)": "a9059cbb",
					"usdcPriceFeed()": "58f40399",
					"usdcRatio()": "6f43f373",
					"usdcToken()": "11eac855"
				}
			},
			"storageLayout": {
				"storage": [
					{
						"astId": 82,
						"contract": "contracts/manage.sol:ECR20_PToken",
						"label": "name",
						"offset": 0,
						"slot": "0",
						"type": "t_string_storage"
					},
					{
						"astId": 84,
						"contract": "contracts/manage.sol:ECR20_PToken",
						"label": "symbol",
						"offset": 0,
						"slot": "1",
						"type": "t_string_storage"
					},
					{
						"astId": 86,
						"contract": "contracts/manage.sol:ECR20_PToken",
						"label": "decimals",
						"offset": 0,
						"slot": "2",
						"type": "t_uint8"
					},
					{
						"astId": 89,
						"contract": "contracts/manage.sol:ECR20_PToken",
						"label": "totalSupply",
						"offset": 0,
						"slot": "3",
						"type": "t_uint256"
					},
					{
						"astId": 93,
						"contract": "contracts/manage.sol:ECR20_PToken",
						"label": "balanceOf",
						"offset": 0,
						"slot": "4",
						"type": "t_mapping(t_address,t_uint256)"
					},
					{
						"astId": 95,
						"contract": "contracts/manage.sol:ECR20_PToken",
						"label": "owner",
						"offset": 0,
						"slot": "5",
						"type": "t_address"
					},
					{
						"astId": 101,
						"contract": "contracts/manage.sol:ECR20_PToken",
						"label": "daiToken",
						"offset": 0,
						"slot": "6",
						"type": "t_contract(IERC20)78"
					},
					{
						"astId": 107,
						"contract": "contracts/manage.sol:ECR20_PToken",
						"label": "usdcToken",
						"offset": 0,
						"slot": "7",
						"type": "t_contract(IERC20)78"
					},
					{
						"astId": 113,
						"contract": "contracts/manage.sol:ECR20_PToken",
						"label": "linkToken",
						"offset": 0,
						"slot": "8",
						"type": "t_contract(IERC20)78"
					},
					{
						"astId": 115,
						"contract": "contracts/manage.sol:ECR20_PToken",
						"label": "daiRatio",
						"offset": 0,
						"slot": "9",
						"type": "t_uint256"
					},
					{
						"astId": 117,
						"contract": "contracts/manage.sol:ECR20_PToken",
						"label": "usdcRatio",
						"offset": 0,
						"slot": "10",
						"type": "t_uint256"
					},
					{
						"astId": 119,
						"contract": "contracts/manage.sol:ECR20_PToken",
						"label": "linkRatio",
						"offset": 0,
						"slot": "11",
						"type": "t_uint256"
					},
					{
						"astId": 125,
						"contract": "contracts/manage.sol:ECR20_PToken",
						"label": "daiPriceFeed",
						"offset": 0,
						"slot": "12",
						"type": "t_contract(AggregatorV3Interface)45"
					},
					{
						"astId": 131,
						"contract": "contracts/manage.sol:ECR20_PToken",
						"label": "usdcPriceFeed",
						"offset": 0,
						"slot": "13",
						"type": "t_contract(AggregatorV3Interface)45"
					},
					{
						"astId": 137,
						"contract": "contracts/manage.sol:ECR20_PToken",
						"label": "linkPriceFeed",
						"offset": 0,
						"slot": "14",
						"type": "t_contract(AggregatorV3Interface)45"
					}
				],
				"types": {
					"t_address": {
						"encoding": "inplace",
						"label": "address",
						"numberOfBytes": "20"
					},
					"t_contract(AggregatorV3Interface)45": {
						"encoding": "inplace",
						"label": "contract AggregatorV3Interface",
						"numberOfBytes": "20"
					},
					"t_contract(IERC20)78": {
						"encoding": "inplace",
						"label": "contract IERC20",
						"numberOfBytes": "20"
					},
					"t_mapping(t_address,t_uint256)": {
						"encoding": "mapping",
						"key": "t_address",
						"label": "mapping(address => uint256)",
						"numberOfBytes": "32",
						"value": "t_uint256"
					},
					"t_string_storage": {
						"encoding": "bytes",
						"label": "string",
						"numberOfBytes": "32"
					},
					"t_uint256": {
						"encoding": "inplace",
						"label": "uint256",
						"numberOfBytes": "32"
					},
					"t_uint8": {
						"encoding": "inplace",
						"label": "uint8",
						"numberOfBytes": "1"
					}
				}
			},
			"userdoc": {
				"kind": "user",
				"methods": {},
				"version": 1
			}
		}
	}
}