{
	"contracts/ECR20_PToken-TestToken_simplified_update_2.0(trade).sol": {
		"ECR20_TestToken": {
			"abi": [
				{
					"inputs": [
						{
							"internalType": "uint256",
							"name": "_buyNum",
							"type": "uint256"
						}
					],
					"stateMutability": "nonpayable",
					"type": "constructor"
				},
				{
					"anonymous": false,
					"inputs": [
						{
							"indexed": true,
							"internalType": "address",
							"name": "owner",
							"type": "address"
						},
						{
							"indexed": true,
							"internalType": "address",
							"name": "spender",
							"type": "address"
						},
						{
							"indexed": false,
							"internalType": "uint256",
							"name": "value",
							"type": "uint256"
						}
					],
					"name": "Approval",
					"type": "event"
				},
				{
					"anonymous": false,
					"inputs": [
						{
							"indexed": true,
							"internalType": "address",
							"name": "from",
							"type": "address"
						},
						{
							"indexed": true,
							"internalType": "address",
							"name": "to",
							"type": "address"
						},
						{
							"indexed": false,
							"internalType": "uint256",
							"name": "value",
							"type": "uint256"
						}
					],
					"name": "Transfer",
					"type": "event"
				},
				{
					"inputs": [
						{
							"internalType": "address",
							"name": "",
							"type": "address"
						}
					],
					"name": "balanceOf",
					"outputs": [
						{
							"internalType": "uint256",
							"name": "",
							"type": "uint256"
						}
					],
					"stateMutability": "view",
					"type": "function"
				},
				{
					"inputs": [
						{
							"internalType": "uint256",
							"name": "amount",
							"type": "uint256"
						}
					],
					"name": "burn",
					"outputs": [],
					"stateMutability": "nonpayable",
					"type": "function"
				},
				{
					"inputs": [],
					"name": "decimals",
					"outputs": [
						{
							"internalType": "uint8",
							"name": "",
							"type": "uint8"
						}
					],
					"stateMutability": "view",
					"type": "function"
				},
				{
					"inputs": [],
					"name": "getBalanceOf",
					"outputs": [
						{
							"internalType": "uint256",
							"name": "",
							"type": "uint256"
						}
					],
					"stateMutability": "view",
					"type": "function"
				},
				{
					"inputs": [
						{
							"internalType": "uint256",
							"name": "amount",
							"type": "uint256"
						}
					],
					"name": "mint",
					"outputs": [],
					"stateMutability": "nonpayable",
					"type": "function"
				},
				{
					"inputs": [],
					"name": "name",
					"outputs": [
						{
							"internalType": "string",
							"name": "",
							"type": "string"
						}
					],
					"stateMutability": "view",
					"type": "function"
				},
				{
					"inputs": [],
					"name": "owner",
					"outputs": [
						{
							"internalType": "address",
							"name": "",
							"type": "address"
						}
					],
					"stateMutability": "view",
					"type": "function"
				},
				{
					"inputs": [],
					"name": "symbol",
					"outputs": [
						{
							"internalType": "string",
							"name": "",
							"type": "string"
						}
					],
					"stateMutability": "view",
					"type": "function"
				},
				{
					"inputs": [],
					"name": "totalSupply",
					"outputs": [
						{
							"internalType": "uint256",
							"name": "",
							"type": "uint256"
						}
					],
					"stateMutability": "view",
					"type": "function"
				},
				{
					"inputs": [
						{
							"internalType": "address",
							"name": "recipient",
							"type": "address"
						},
						{
							"internalType": "uint256",
							"name": "amount",
							"type": "uint256"
						}
					],
					"name": "transfer",
					"outputs": [
						{
							"internalType": "bool",
							"name": "",
							"type": "bool"
						}
					],
					"stateMutability": "nonpayable",
					"type": "function"
				}
			],
			"devdoc": {
				"kind": "dev",
				"methods": {},
				"version": 1
			},
			"evm": {
				"assembly": "    /* \"contracts/ECR20_PToken-TestToken_simplified_update_2.0(trade).sol\":459:2168  contract ECR20_TestToken is IERC20 {... */\n  mstore(0x40, 0x80)\n    /* \"contracts/ECR20_PToken-TestToken_simplified_update_2.0(trade).sol\":501:528  string public name = \"test\" */\n  mload(0x40)\n  dup1\n  0x40\n  add\n  0x40\n  mstore\n  dup1\n  0x04\n  dup2\n  mstore\n  0x20\n  add\n  0x7465737400000000000000000000000000000000000000000000000000000000\n  dup2\n  mstore\n  pop\n  0x00\n  swap1\n  dup2\n  tag_1\n  swap2\n  swap1\n  tag_2\n  jump\t// in\ntag_1:\n  pop\n    /* \"contracts/ECR20_PToken-TestToken_simplified_update_2.0(trade).sol\":535:564  string public symbol = \"TEST\" */\n  mload(0x40)\n  dup1\n  0x40\n  add\n  0x40\n  mstore\n  dup1\n  0x04\n  dup2\n  mstore\n  0x20\n  add\n  0x5445535400000000000000000000000000000000000000000000000000000000\n  dup2\n  mstore\n  pop\n  0x01\n  swap1\n  dup2\n  tag_3\n  swap2\n  swap1\n  tag_2\n  jump\t// in\ntag_3:\n  pop\n    /* \"contracts/ECR20_PToken-TestToken_simplified_update_2.0(trade).sol\":595:597  18 */\n  0x12\n    /* \"contracts/ECR20_PToken-TestToken_simplified_update_2.0(trade).sol\":571:597  uint8 public decimals = 18 */\n  0x02\n  exp(0x0100, 0x00)\n  dup2\n  sload\n  dup2\n  0xff\n  mul\n  not\n  and\n  swap1\n  dup4\n  0xff\n  and\n  mul\n  or\n  swap1\n  sstore\n  pop\n    /* \"contracts/ECR20_PToken-TestToken_simplified_update_2.0(trade).sol\":801:804  100 */\n  0x64\n    /* \"contracts/ECR20_PToken-TestToken_simplified_update_2.0(trade).sol\":766:804  uint private current_totalsupply = 100 */\n  0x06\n  sstore\n    /* \"contracts/ECR20_PToken-TestToken_simplified_update_2.0(trade).sol\":819:1291  constructor(... */\n  callvalue\n  dup1\n  iszero\n  tag_4\n  jumpi\n  0x00\n  dup1\n  revert\ntag_4:\n  pop\n  mload(0x40)\n  sub(codesize, bytecodeSize)\n  dup1\n  bytecodeSize\n  dup4\n  codecopy\n  dup2\n  dup2\n  add\n  0x40\n  mstore\n  dup2\n  add\n  swap1\n  tag_5\n  swap2\n  swap1\n  tag_6\n  jump\t// in\ntag_5:\n    /* \"contracts/ECR20_PToken-TestToken_simplified_update_2.0(trade).sol\":889:893  name */\n  0x00\n    /* \"contracts/ECR20_PToken-TestToken_simplified_update_2.0(trade).sol\":882:886  name */\n  dup1\n    /* \"contracts/ECR20_PToken-TestToken_simplified_update_2.0(trade).sol\":882:893  name = name */\n  dup2\n  tag_9\n  swap2\n  swap1\n  tag_10\n  jump\t// in\ntag_9:\n  pop\n    /* \"contracts/ECR20_PToken-TestToken_simplified_update_2.0(trade).sol\":913:919  symbol */\n  0x01\n    /* \"contracts/ECR20_PToken-TestToken_simplified_update_2.0(trade).sol\":904:910  symbol */\n  dup1\n    /* \"contracts/ECR20_PToken-TestToken_simplified_update_2.0(trade).sol\":904:919  symbol = symbol */\n  dup2\n  tag_11\n  swap2\n  swap1\n  tag_10\n  jump\t// in\ntag_11:\n  pop\n    /* \"contracts/ECR20_PToken-TestToken_simplified_update_2.0(trade).sol\":941:949  decimals */\n  0x02\n  0x00\n  swap1\n  sload\n  swap1\n  0x0100\n  exp\n  swap1\n  div\n  0xff\n  and\n    /* \"contracts/ECR20_PToken-TestToken_simplified_update_2.0(trade).sol\":930:938  decimals */\n  0x02\n  0x00\n    /* \"contracts/ECR20_PToken-TestToken_simplified_update_2.0(trade).sol\":930:949  decimals = decimals */\n  0x0100\n  exp\n  dup2\n  sload\n  dup2\n  0xff\n  mul\n  not\n  and\n  swap1\n  dup4\n  0xff\n  and\n  mul\n  or\n  swap1\n  sstore\n  pop\n    /* \"contracts/ECR20_PToken-TestToken_simplified_update_2.0(trade).sol\":1068:1076  decimals */\n  0x02\n  0x00\n  swap1\n  sload\n  swap1\n  0x0100\n  exp\n  swap1\n  div\n  0xff\n  and\n    /* \"contracts/ECR20_PToken-TestToken_simplified_update_2.0(trade).sol\":1062:1064  10 */\n  0x0a\n    /* \"contracts/ECR20_PToken-TestToken_simplified_update_2.0(trade).sol\":1062:1076  10 ** decimals */\n  tag_12\n  swap2\n  swap1\n  tag_13\n  jump\t// in\ntag_12:\n    /* \"contracts/ECR20_PToken-TestToken_simplified_update_2.0(trade).sol\":1040:1059  current_totalsupply */\n  sload(0x06)\n    /* \"contracts/ECR20_PToken-TestToken_simplified_update_2.0(trade).sol\":1040:1077  current_totalsupply *(10 ** decimals) */\n  tag_14\n  swap2\n  swap1\n  tag_15\n  jump\t// in\ntag_14:\n    /* \"contracts/ECR20_PToken-TestToken_simplified_update_2.0(trade).sol\":1030:1037  _buyNum */\n  dup2\n    /* \"contracts/ECR20_PToken-TestToken_simplified_update_2.0(trade).sol\":1030:1077  _buyNum + current_totalsupply *(10 ** decimals) */\n  tag_16\n  swap2\n  swap1\n  tag_17\n  jump\t// in\ntag_16:\n    /* \"contracts/ECR20_PToken-TestToken_simplified_update_2.0(trade).sol\":1016:1027  totalSupply */\n  0x03\n    /* \"contracts/ECR20_PToken-TestToken_simplified_update_2.0(trade).sol\":1016:1077  totalSupply = _buyNum + current_totalsupply *(10 ** decimals) */\n  dup2\n  swap1\n  sstore\n  pop\n    /* \"contracts/ECR20_PToken-TestToken_simplified_update_2.0(trade).sol\":1112:1119  _buyNum */\n  dup1\n    /* \"contracts/ECR20_PToken-TestToken_simplified_update_2.0(trade).sol\":1088:1097  balanceOf */\n  0x04\n    /* \"contracts/ECR20_PToken-TestToken_simplified_update_2.0(trade).sol\":1088:1109  balanceOf[msg.sender] */\n  0x00\n    /* \"contracts/ECR20_PToken-TestToken_simplified_update_2.0(trade).sol\":1098:1108  msg.sender */\n  caller\n    /* \"contracts/ECR20_PToken-TestToken_simplified_update_2.0(trade).sol\":1088:1109  balanceOf[msg.sender] */\n  0xffffffffffffffffffffffffffffffffffffffff\n  and\n  0xffffffffffffffffffffffffffffffffffffffff\n  and\n  dup2\n  mstore\n  0x20\n  add\n  swap1\n  dup2\n  mstore\n  0x20\n  add\n  0x00\n  keccak256\n    /* \"contracts/ECR20_PToken-TestToken_simplified_update_2.0(trade).sol\":1088:1119  balanceOf[msg.sender] = _buyNum */\n  dup2\n  swap1\n  sstore\n  pop\n    /* \"contracts/ECR20_PToken-TestToken_simplified_update_2.0(trade).sol\":1220:1230  msg.sender */\n  caller\n    /* \"contracts/ECR20_PToken-TestToken_simplified_update_2.0(trade).sol\":1199:1254  Transfer(address(0), msg.sender, balanceOf[msg.sender]) */\n  0xffffffffffffffffffffffffffffffffffffffff\n  and\n    /* \"contracts/ECR20_PToken-TestToken_simplified_update_2.0(trade).sol\":1216:1217  0 */\n  0x00\n    /* \"contracts/ECR20_PToken-TestToken_simplified_update_2.0(trade).sol\":1199:1254  Transfer(address(0), msg.sender, balanceOf[msg.sender]) */\n  0xffffffffffffffffffffffffffffffffffffffff\n  and\n  0xddf252ad1be2c89b69c2b068fc378daa952ba7f163c4a11628f55a4df523b3ef\n    /* \"contracts/ECR20_PToken-TestToken_simplified_update_2.0(trade).sol\":1232:1241  balanceOf */\n  0x04\n    /* \"contracts/ECR20_PToken-TestToken_simplified_update_2.0(trade).sol\":1232:1253  balanceOf[msg.sender] */\n  0x00\n    /* \"contracts/ECR20_PToken-TestToken_simplified_update_2.0(trade).sol\":1242:1252  msg.sender */\n  caller\n    /* \"contracts/ECR20_PToken-TestToken_simplified_update_2.0(trade).sol\":1232:1253  balanceOf[msg.sender] */\n  0xffffffffffffffffffffffffffffffffffffffff\n  and\n  0xffffffffffffffffffffffffffffffffffffffff\n  and\n  dup2\n  mstore\n  0x20\n  add\n  swap1\n  dup2\n  mstore\n  0x20\n  add\n  0x00\n  keccak256\n  sload\n    /* \"contracts/ECR20_PToken-TestToken_simplified_update_2.0(trade).sol\":1199:1254  Transfer(address(0), msg.sender, balanceOf[msg.sender]) */\n  mload(0x40)\n  tag_18\n  swap2\n  swap1\n  tag_19\n  jump\t// in\ntag_18:\n  mload(0x40)\n  dup1\n  swap2\n  sub\n  swap1\n  log3\n    /* \"contracts/ECR20_PToken-TestToken_simplified_update_2.0(trade).sol\":1273:1283  msg.sender */\n  caller\n    /* \"contracts/ECR20_PToken-TestToken_simplified_update_2.0(trade).sol\":1265:1270  owner */\n  0x05\n  0x00\n    /* \"contracts/ECR20_PToken-TestToken_simplified_update_2.0(trade).sol\":1265:1283  owner = msg.sender */\n  0x0100\n  exp\n  dup2\n  sload\n  dup2\n  0xffffffffffffffffffffffffffffffffffffffff\n  mul\n  not\n  and\n  swap1\n  dup4\n  0xffffffffffffffffffffffffffffffffffffffff\n  and\n  mul\n  or\n  swap1\n  sstore\n  pop\n    /* \"contracts/ECR20_PToken-TestToken_simplified_update_2.0(trade).sol\":819:1291  constructor(... */\n  pop\n    /* \"contracts/ECR20_PToken-TestToken_simplified_update_2.0(trade).sol\":459:2168  contract ECR20_TestToken is IERC20 {... */\n  jump(tag_20)\n    /* \"#utility.yul\":7:106   */\ntag_21:\n    /* \"#utility.yul\":59:65   */\n  0x00\n    /* \"#utility.yul\":93:98   */\n  dup2\n    /* \"#utility.yul\":87:99   */\n  mload\n    /* \"#utility.yul\":77:99   */\n  swap1\n  pop\n    /* \"#utility.yul\":7:106   */\n  swap2\n  swap1\n  pop\n  jump\t// out\n    /* \"#utility.yul\":112:292   */\ntag_22:\n    /* \"#utility.yul\":160:237   */\n  0x4e487b7100000000000000000000000000000000000000000000000000000000\n    /* \"#utility.yul\":157:158   */\n  0x00\n    /* \"#utility.yul\":150:238   */\n  mstore\n    /* \"#utility.yul\":257:261   */\n  0x41\n    /* \"#utility.yul\":254:255   */\n  0x04\n    /* \"#utility.yul\":247:262   */\n  mstore\n    /* \"#utility.yul\":281:285   */\n  0x24\n    /* \"#utility.yul\":278:279   */\n  0x00\n    /* \"#utility.yul\":271:286   */\n  revert\n    /* \"#utility.yul\":298:478   */\ntag_23:\n    /* \"#utility.yul\":346:423   */\n  0x4e487b7100000000000000000000000000000000000000000000000000000000\n    /* \"#utility.yul\":343:344   */\n  0x00\n    /* \"#utility.yul\":336:424   */\n  mstore\n    /* \"#utility.yul\":443:447   */\n  0x22\n    /* \"#utility.yul\":440:441   */\n  0x04\n    /* \"#utility.yul\":433:448   */\n  mstore\n    /* \"#utility.yul\":467:471   */\n  0x24\n    /* \"#utility.yul\":464:465   */\n  0x00\n    /* \"#utility.yul\":457:472   */\n  revert\n    /* \"#utility.yul\":484:804   */\ntag_24:\n    /* \"#utility.yul\":528:534   */\n  0x00\n    /* \"#utility.yul\":565:566   */\n  0x02\n    /* \"#utility.yul\":559:563   */\n  dup3\n    /* \"#utility.yul\":555:567   */\n  div\n    /* \"#utility.yul\":545:567   */\n  swap1\n  pop\n    /* \"#utility.yul\":612:613   */\n  0x01\n    /* \"#utility.yul\":606:610   */\n  dup3\n    /* \"#utility.yul\":602:614   */\n  and\n    /* \"#utility.yul\":633:651   */\n  dup1\n    /* \"#utility.yul\":623:704   */\n  tag_59\n  jumpi\n    /* \"#utility.yul\":689:693   */\n  0x7f\n    /* \"#utility.yul\":681:687   */\n  dup3\n    /* \"#utility.yul\":677:694   */\n  and\n    /* \"#utility.yul\":667:694   */\n  swap2\n  pop\n    /* \"#utility.yul\":623:704   */\ntag_59:\n    /* \"#utility.yul\":751:753   */\n  0x20\n    /* \"#utility.yul\":743:749   */\n  dup3\n    /* \"#utility.yul\":740:754   */\n  lt\n    /* \"#utility.yul\":720:738   */\n  dup2\n    /* \"#utility.yul\":717:755   */\n  sub\n    /* \"#utility.yul\":714:798   */\n  tag_60\n  jumpi\n    /* \"#utility.yul\":770:788   */\n  tag_61\n  tag_23\n  jump\t// in\ntag_61:\n    /* \"#utility.yul\":714:798   */\ntag_60:\n    /* \"#utility.yul\":535:804   */\n  pop\n    /* \"#utility.yul\":484:804   */\n  swap2\n  swap1\n  pop\n  jump\t// out\n    /* \"#utility.yul\":810:951   */\ntag_25:\n    /* \"#utility.yul\":859:863   */\n  0x00\n    /* \"#utility.yul\":882:885   */\n  dup2\n    /* \"#utility.yul\":874:885   */\n  swap1\n  pop\n    /* \"#utility.yul\":905:908   */\n  dup2\n    /* \"#utility.yul\":902:903   */\n  0x00\n    /* \"#utility.yul\":895:909   */\n  mstore\n    /* \"#utility.yul\":939:943   */\n  0x20\n    /* \"#utility.yul\":936:937   */\n  0x00\n    /* \"#utility.yul\":926:944   */\n  keccak256\n    /* \"#utility.yul\":918:944   */\n  swap1\n  pop\n    /* \"#utility.yul\":810:951   */\n  swap2\n  swap1\n  pop\n  jump\t// out\n    /* \"#utility.yul\":957:1050   */\ntag_26:\n    /* \"#utility.yul\":994:1000   */\n  0x00\n    /* \"#utility.yul\":1041:1043   */\n  0x20\n    /* \"#utility.yul\":1036:1038   */\n  0x1f\n    /* \"#utility.yul\":1029:1034   */\n  dup4\n    /* \"#utility.yul\":1025:1039   */\n  add\n    /* \"#utility.yul\":1021:1044   */\n  div\n    /* \"#utility.yul\":1011:1044   */\n  swap1\n  pop\n    /* \"#utility.yul\":957:1050   */\n  swap2\n  swap1\n  pop\n  jump\t// out\n    /* \"#utility.yul\":1056:1163   */\ntag_27:\n    /* \"#utility.yul\":1100:1108   */\n  0x00\n    /* \"#utility.yul\":1150:1155   */\n  dup3\n    /* \"#utility.yul\":1144:1148   */\n  dup3\n    /* \"#utility.yul\":1140:1156   */\n  shl\n    /* \"#utility.yul\":1119:1156   */\n  swap1\n  pop\n    /* \"#utility.yul\":1056:1163   */\n  swap3\n  swap2\n  pop\n  pop\n  jump\t// out\n    /* \"#utility.yul\":1169:1562   */\ntag_28:\n    /* \"#utility.yul\":1238:1244   */\n  0x00\n    /* \"#utility.yul\":1288:1289   */\n  0x08\n    /* \"#utility.yul\":1276:1286   */\n  dup4\n    /* \"#utility.yul\":1272:1290   */\n  mul\n    /* \"#utility.yul\":1311:1408   */\n  tag_66\n    /* \"#utility.yul\":1341:1407   */\n  0xffffffffffffffffffffffffffffffffffffffffffffffffffffffffffffffff\n    /* \"#utility.yul\":1330:1339   */\n  dup3\n    /* \"#utility.yul\":1311:1408   */\n  tag_27\n  jump\t// in\ntag_66:\n    /* \"#utility.yul\":1429:1468   */\n  tag_67\n    /* \"#utility.yul\":1459:1467   */\n  dup7\n    /* \"#utility.yul\":1448:1457   */\n  dup4\n    /* \"#utility.yul\":1429:1468   */\n  tag_27\n  jump\t// in\ntag_67:\n    /* \"#utility.yul\":1417:1468   */\n  swap6\n  pop\n    /* \"#utility.yul\":1501:1505   */\n  dup1\n    /* \"#utility.yul\":1497:1506   */\n  not\n    /* \"#utility.yul\":1490:1495   */\n  dup5\n    /* \"#utility.yul\":1486:1507   */\n  and\n    /* \"#utility.yul\":1477:1507   */\n  swap4\n  pop\n    /* \"#utility.yul\":1550:1554   */\n  dup1\n    /* \"#utility.yul\":1540:1548   */\n  dup7\n    /* \"#utility.yul\":1536:1555   */\n  and\n    /* \"#utility.yul\":1529:1534   */\n  dup5\n    /* \"#utility.yul\":1526:1556   */\n  or\n    /* \"#utility.yul\":1516:1556   */\n  swap3\n  pop\n    /* \"#utility.yul\":1245:1562   */\n  pop\n  pop\n    /* \"#utility.yul\":1169:1562   */\n  swap4\n  swap3\n  pop\n  pop\n  pop\n  jump\t// out\n    /* \"#utility.yul\":1568:1645   */\ntag_29:\n    /* \"#utility.yul\":1605:1612   */\n  0x00\n    /* \"#utility.yul\":1634:1639   */\n  dup2\n    /* \"#utility.yul\":1623:1639   */\n  swap1\n  pop\n    /* \"#utility.yul\":1568:1645   */\n  swap2\n  swap1\n  pop\n  jump\t// out\n    /* \"#utility.yul\":1651:1711   */\ntag_30:\n    /* \"#utility.yul\":1679:1682   */\n  0x00\n    /* \"#utility.yul\":1700:1705   */\n  dup2\n    /* \"#utility.yul\":1693:1705   */\n  swap1\n  pop\n    /* \"#utility.yul\":1651:1711   */\n  swap2\n  swap1\n  pop\n  jump\t// out\n    /* \"#utility.yul\":1717:1859   */\ntag_31:\n    /* \"#utility.yul\":1767:1776   */\n  0x00\n    /* \"#utility.yul\":1800:1853   */\n  tag_71\n    /* \"#utility.yul\":1818:1852   */\n  tag_72\n    /* \"#utility.yul\":1827:1851   */\n  tag_73\n    /* \"#utility.yul\":1845:1850   */\n  dup5\n    /* \"#utility.yul\":1827:1851   */\n  tag_29\n  jump\t// in\ntag_73:\n    /* \"#utility.yul\":1818:1852   */\n  tag_30\n  jump\t// in\ntag_72:\n    /* \"#utility.yul\":1800:1853   */\n  tag_29\n  jump\t// in\ntag_71:\n    /* \"#utility.yul\":1787:1853   */\n  swap1\n  pop\n    /* \"#utility.yul\":1717:1859   */\n  swap2\n  swap1\n  pop\n  jump\t// out\n    /* \"#utility.yul\":1865:1940   */\ntag_32:\n    /* \"#utility.yul\":1908:1911   */\n  0x00\n    /* \"#utility.yul\":1929:1934   */\n  dup2\n    /* \"#utility.yul\":1922:1934   */\n  swap1\n  pop\n    /* \"#utility.yul\":1865:1940   */\n  swap2\n  swap1\n  pop\n  jump\t// out\n    /* \"#utility.yul\":1946:2215   */\ntag_33:\n    /* \"#utility.yul\":2056:2095   */\n  tag_76\n    /* \"#utility.yul\":2087:2094   */\n  dup4\n    /* \"#utility.yul\":2056:2095   */\n  tag_31\n  jump\t// in\ntag_76:\n    /* \"#utility.yul\":2117:2208   */\n  tag_77\n    /* \"#utility.yul\":2166:2207   */\n  tag_78\n    /* \"#utility.yul\":2190:2206   */\n  dup3\n    /* \"#utility.yul\":2166:2207   */\n  tag_32\n  jump\t// in\ntag_78:\n    /* \"#utility.yul\":2158:2164   */\n  dup5\n    /* \"#utility.yul\":2151:2155   */\n  dup5\n    /* \"#utility.yul\":2145:2156   */\n  sload\n    /* \"#utility.yul\":2117:2208   */\n  tag_28\n  jump\t// in\ntag_77:\n    /* \"#utility.yul\":2111:2115   */\n  dup3\n    /* \"#utility.yul\":2104:2209   */\n  sstore\n    /* \"#utility.yul\":2022:2215   */\n  pop\n    /* \"#utility.yul\":1946:2215   */\n  pop\n  pop\n  pop\n  jump\t// out\n    /* \"#utility.yul\":2221:2294   */\ntag_34:\n    /* \"#utility.yul\":2266:2269   */\n  0x00\n    /* \"#utility.yul\":2221:2294   */\n  swap1\n  jump\t// out\n    /* \"#utility.yul\":2300:2489   */\ntag_35:\n    /* \"#utility.yul\":2377:2409   */\n  tag_81\n  tag_34\n  jump\t// in\ntag_81:\n    /* \"#utility.yul\":2418:2483   */\n  tag_82\n    /* \"#utility.yul\":2476:2482   */\n  dup2\n    /* \"#utility.yul\":2468:2474   */\n  dup5\n    /* \"#utility.yul\":2462:2466   */\n  dup5\n    /* \"#utility.yul\":2418:2483   */\n  tag_33\n  jump\t// in\ntag_82:\n    /* \"#utility.yul\":2353:2489   */\n  pop\n    /* \"#utility.yul\":2300:2489   */\n  pop\n  pop\n  jump\t// out\n    /* \"#utility.yul\":2495:2681   */\ntag_36:\n    /* \"#utility.yul\":2555:2675   */\ntag_84:\n    /* \"#utility.yul\":2572:2575   */\n  dup2\n    /* \"#utility.yul\":2565:2570   */\n  dup2\n    /* \"#utility.yul\":2562:2576   */\n  lt\n    /* \"#utility.yul\":2555:2675   */\n  iszero\n  tag_86\n  jumpi\n    /* \"#utility.yul\":2626:2665   */\n  tag_87\n    /* \"#utility.yul\":2663:2664   */\n  0x00\n    /* \"#utility.yul\":2656:2661   */\n  dup3\n    /* \"#utility.yul\":2626:2665   */\n  tag_35\n  jump\t// in\ntag_87:\n    /* \"#utility.yul\":2599:2600   */\n  0x01\n    /* \"#utility.yul\":2592:2597   */\n  dup2\n    /* \"#utility.yul\":2588:2601   */\n  add\n    /* \"#utility.yul\":2579:2601   */\n  swap1\n  pop\n    /* \"#utility.yul\":2555:2675   */\n  jump(tag_84)\ntag_86:\n    /* \"#utility.yul\":2495:2681   */\n  pop\n  pop\n  jump\t// out\n    /* \"#utility.yul\":2687:3230   */\ntag_37:\n    /* \"#utility.yul\":2788:2790   */\n  0x1f\n    /* \"#utility.yul\":2783:2786   */\n  dup3\n    /* \"#utility.yul\":2780:2791   */\n  gt\n    /* \"#utility.yul\":2777:3223   */\n  iszero\n  tag_89\n  jumpi\n    /* \"#utility.yul\":2822:2860   */\n  tag_90\n    /* \"#utility.yul\":2854:2859   */\n  dup2\n    /* \"#utility.yul\":2822:2860   */\n  tag_25\n  jump\t// in\ntag_90:\n    /* \"#utility.yul\":2906:2935   */\n  tag_91\n    /* \"#utility.yul\":2924:2934   */\n  dup5\n    /* \"#utility.yul\":2906:2935   */\n  tag_26\n  jump\t// in\ntag_91:\n    /* \"#utility.yul\":2896:2904   */\n  dup2\n    /* \"#utility.yul\":2892:2936   */\n  add\n    /* \"#utility.yul\":3089:3091   */\n  0x20\n    /* \"#utility.yul\":3077:3087   */\n  dup6\n    /* \"#utility.yul\":3074:3092   */\n  lt\n    /* \"#utility.yul\":3071:3120   */\n  iszero\n  tag_92\n  jumpi\n    /* \"#utility.yul\":3110:3118   */\n  dup2\n    /* \"#utility.yul\":3095:3118   */\n  swap1\n  pop\n    /* \"#utility.yul\":3071:3120   */\ntag_92:\n    /* \"#utility.yul\":3133:3213   */\n  tag_93\n    /* \"#utility.yul\":3189:3211   */\n  tag_94\n    /* \"#utility.yul\":3207:3210   */\n  dup6\n    /* \"#utility.yul\":3189:3211   */\n  tag_26\n  jump\t// in\ntag_94:\n    /* \"#utility.yul\":3179:3187   */\n  dup4\n    /* \"#utility.yul\":3175:3212   */\n  add\n    /* \"#utility.yul\":3162:3173   */\n  dup3\n    /* \"#utility.yul\":3133:3213   */\n  tag_36\n  jump\t// in\ntag_93:\n    /* \"#utility.yul\":2792:3223   */\n  pop\n  pop\n    /* \"#utility.yul\":2777:3223   */\ntag_89:\n    /* \"#utility.yul\":2687:3230   */\n  pop\n  pop\n  pop\n  jump\t// out\n    /* \"#utility.yul\":3236:3353   */\ntag_38:\n    /* \"#utility.yul\":3290:3298   */\n  0x00\n    /* \"#utility.yul\":3340:3345   */\n  dup3\n    /* \"#utility.yul\":3334:3338   */\n  dup3\n    /* \"#utility.yul\":3330:3346   */\n  shr\n    /* \"#utility.yul\":3309:3346   */\n  swap1\n  pop\n    /* \"#utility.yul\":3236:3353   */\n  swap3\n  swap2\n  pop\n  pop\n  jump\t// out\n    /* \"#utility.yul\":3359:3528   */\ntag_39:\n    /* \"#utility.yul\":3403:3409   */\n  0x00\n    /* \"#utility.yul\":3436:3487   */\n  tag_97\n    /* \"#utility.yul\":3484:3485   */\n  0x00\n    /* \"#utility.yul\":3480:3486   */\n  not\n    /* \"#utility.yul\":3472:3477   */\n  dup5\n    /* \"#utility.yul\":3469:3470   */\n  0x08\n    /* \"#utility.yul\":3465:3478   */\n  mul\n    /* \"#utility.yul\":3436:3487   */\n  tag_38\n  jump\t// in\ntag_97:\n    /* \"#utility.yul\":3432:3488   */\n  not\n    /* \"#utility.yul\":3517:3521   */\n  dup1\n    /* \"#utility.yul\":3511:3515   */\n  dup4\n    /* \"#utility.yul\":3507:3522   */\n  and\n    /* \"#utility.yul\":3497:3522   */\n  swap2\n  pop\n    /* \"#utility.yul\":3410:3528   */\n  pop\n    /* \"#utility.yul\":3359:3528   */\n  swap3\n  swap2\n  pop\n  pop\n  jump\t// out\n    /* \"#utility.yul\":3533:3828   */\ntag_40:\n    /* \"#utility.yul\":3609:3613   */\n  0x00\n    /* \"#utility.yul\":3755:3784   */\n  tag_99\n    /* \"#utility.yul\":3780:3783   */\n  dup4\n    /* \"#utility.yul\":3774:3778   */\n  dup4\n    /* \"#utility.yul\":3755:3784   */\n  tag_39\n  jump\t// in\ntag_99:\n    /* \"#utility.yul\":3747:3784   */\n  swap2\n  pop\n    /* \"#utility.yul\":3817:3820   */\n  dup3\n    /* \"#utility.yul\":3814:3815   */\n  0x02\n    /* \"#utility.yul\":3810:3821   */\n  mul\n    /* \"#utility.yul\":3804:3808   */\n  dup3\n    /* \"#utility.yul\":3801:3822   */\n  or\n    /* \"#utility.yul\":3793:3822   */\n  swap1\n  pop\n    /* \"#utility.yul\":3533:3828   */\n  swap3\n  swap2\n  pop\n  pop\n  jump\t// out\n    /* \"#utility.yul\":3833:5228   */\ntag_2:\n    /* \"#utility.yul\":3950:3987   */\n  tag_101\n    /* \"#utility.yul\":3983:3986   */\n  dup3\n    /* \"#utility.yul\":3950:3987   */\n  tag_21\n  jump\t// in\ntag_101:\n    /* \"#utility.yul\":4052:4070   */\n  0xffffffffffffffff\n    /* \"#utility.yul\":4044:4050   */\n  dup2\n    /* \"#utility.yul\":4041:4071   */\n  gt\n    /* \"#utility.yul\":4038:4094   */\n  iszero\n  tag_102\n  jumpi\n    /* \"#utility.yul\":4074:4092   */\n  tag_103\n  tag_22\n  jump\t// in\ntag_103:\n    /* \"#utility.yul\":4038:4094   */\ntag_102:\n    /* \"#utility.yul\":4118:4156   */\n  tag_104\n    /* \"#utility.yul\":4150:4154   */\n  dup3\n    /* \"#utility.yul\":4144:4155   */\n  sload\n    /* \"#utility.yul\":4118:4156   */\n  tag_24\n  jump\t// in\ntag_104:\n    /* \"#utility.yul\":4203:4270   */\n  tag_105\n    /* \"#utility.yul\":4263:4269   */\n  dup3\n    /* \"#utility.yul\":4255:4261   */\n  dup3\n    /* \"#utility.yul\":4249:4253   */\n  dup6\n    /* \"#utility.yul\":4203:4270   */\n  tag_37\n  jump\t// in\ntag_105:\n    /* \"#utility.yul\":4297:4298   */\n  0x00\n    /* \"#utility.yul\":4321:4325   */\n  0x20\n    /* \"#utility.yul\":4308:4325   */\n  swap1\n  pop\n    /* \"#utility.yul\":4353:4355   */\n  0x1f\n    /* \"#utility.yul\":4345:4351   */\n  dup4\n    /* \"#utility.yul\":4342:4356   */\n  gt\n    /* \"#utility.yul\":4370:4371   */\n  0x01\n    /* \"#utility.yul\":4365:4983   */\n  dup2\n  eq\n  tag_107\n  jumpi\n    /* \"#utility.yul\":5027:5028   */\n  0x00\n    /* \"#utility.yul\":5044:5050   */\n  dup5\n    /* \"#utility.yul\":5041:5118   */\n  iszero\n  tag_108\n  jumpi\n    /* \"#utility.yul\":5093:5102   */\n  dup3\n    /* \"#utility.yul\":5088:5091   */\n  dup8\n    /* \"#utility.yul\":5084:5103   */\n  add\n    /* \"#utility.yul\":5078:5104   */\n  mload\n    /* \"#utility.yul\":5069:5104   */\n  swap1\n  pop\n    /* \"#utility.yul\":5041:5118   */\ntag_108:\n    /* \"#utility.yul\":5144:5211   */\n  tag_109\n    /* \"#utility.yul\":5204:5210   */\n  dup6\n    /* \"#utility.yul\":5197:5202   */\n  dup3\n    /* \"#utility.yul\":5144:5211   */\n  tag_40\n  jump\t// in\ntag_109:\n    /* \"#utility.yul\":5138:5142   */\n  dup7\n    /* \"#utility.yul\":5131:5212   */\n  sstore\n    /* \"#utility.yul\":5000:5222   */\n  pop\n    /* \"#utility.yul\":4335:5222   */\n  jump(tag_106)\n    /* \"#utility.yul\":4365:4983   */\ntag_107:\n    /* \"#utility.yul\":4417:4421   */\n  0x1f\n    /* \"#utility.yul\":4413:4422   */\n  not\n    /* \"#utility.yul\":4405:4411   */\n  dup5\n    /* \"#utility.yul\":4401:4423   */\n  and\n    /* \"#utility.yul\":4451:4488   */\n  tag_110\n    /* \"#utility.yul\":4483:4487   */\n  dup7\n    /* \"#utility.yul\":4451:4488   */\n  tag_25\n  jump\t// in\ntag_110:\n    /* \"#utility.yul\":4510:4511   */\n  0x00\n    /* \"#utility.yul\":4524:4732   */\ntag_111:\n    /* \"#utility.yul\":4538:4545   */\n  dup3\n    /* \"#utility.yul\":4535:4536   */\n  dup2\n    /* \"#utility.yul\":4532:4546   */\n  lt\n    /* \"#utility.yul\":4524:4732   */\n  iszero\n  tag_113\n  jumpi\n    /* \"#utility.yul\":4617:4626   */\n  dup5\n    /* \"#utility.yul\":4612:4615   */\n  dup10\n    /* \"#utility.yul\":4608:4627   */\n  add\n    /* \"#utility.yul\":4602:4628   */\n  mload\n    /* \"#utility.yul\":4594:4600   */\n  dup3\n    /* \"#utility.yul\":4587:4629   */\n  sstore\n    /* \"#utility.yul\":4668:4669   */\n  0x01\n    /* \"#utility.yul\":4660:4666   */\n  dup3\n    /* \"#utility.yul\":4656:4670   */\n  add\n    /* \"#utility.yul\":4646:4670   */\n  swap2\n  pop\n    /* \"#utility.yul\":4715:4717   */\n  0x20\n    /* \"#utility.yul\":4704:4713   */\n  dup6\n    /* \"#utility.yul\":4700:4718   */\n  add\n    /* \"#utility.yul\":4687:4718   */\n  swap5\n  pop\n    /* \"#utility.yul\":4561:4565   */\n  0x20\n    /* \"#utility.yul\":4558:4559   */\n  dup2\n    /* \"#utility.yul\":4554:4566   */\n  add\n    /* \"#utility.yul\":4549:4566   */\n  swap1\n  pop\n    /* \"#utility.yul\":4524:4732   */\n  jump(tag_111)\ntag_113:\n    /* \"#utility.yul\":4760:4766   */\n  dup7\n    /* \"#utility.yul\":4751:4758   */\n  dup4\n    /* \"#utility.yul\":4748:4767   */\n  lt\n    /* \"#utility.yul\":4745:4924   */\n  iszero\n  tag_114\n  jumpi\n    /* \"#utility.yul\":4818:4827   */\n  dup5\n    /* \"#utility.yul\":4813:4816   */\n  dup10\n    /* \"#utility.yul\":4809:4828   */\n  add\n    /* \"#utility.yul\":4803:4829   */\n  mload\n    /* \"#utility.yul\":4861:4909   */\n  tag_115\n    /* \"#utility.yul\":4903:4907   */\n  0x1f\n    /* \"#utility.yul\":4895:4901   */\n  dup10\n    /* \"#utility.yul\":4891:4908   */\n  and\n    /* \"#utility.yul\":4880:4889   */\n  dup3\n    /* \"#utility.yul\":4861:4909   */\n  tag_39\n  jump\t// in\ntag_115:\n    /* \"#utility.yul\":4853:4859   */\n  dup4\n    /* \"#utility.yul\":4846:4910   */\n  sstore\n    /* \"#utility.yul\":4768:4924   */\n  pop\n    /* \"#utility.yul\":4745:4924   */\ntag_114:\n    /* \"#utility.yul\":4970:4971   */\n  0x01\n    /* \"#utility.yul\":4966:4967   */\n  0x02\n    /* \"#utility.yul\":4958:4964   */\n  dup9\n    /* \"#utility.yul\":4954:4968   */\n  mul\n    /* \"#utility.yul\":4950:4972   */\n  add\n    /* \"#utility.yul\":4944:4948   */\n  dup9\n    /* \"#utility.yul\":4937:4973   */\n  sstore\n    /* \"#utility.yul\":4372:4983   */\n  pop\n  pop\n  pop\n    /* \"#utility.yul\":4335:5222   */\ntag_106:\n  pop\n    /* \"#utility.yul\":3925:5228   */\n  pop\n  pop\n  pop\n    /* \"#utility.yul\":3833:5228   */\n  pop\n  pop\n  jump\t// out\n    /* \"#utility.yul\":5315:5432   */\ntag_42:\n    /* \"#utility.yul\":5424:5425   */\n  0x00\n    /* \"#utility.yul\":5421:5422   */\n  dup1\n    /* \"#utility.yul\":5414:5426   */\n  revert\n    /* \"#utility.yul\":5561:5683   */\ntag_44:\n    /* \"#utility.yul\":5634:5658   */\n  tag_120\n    /* \"#utility.yul\":5652:5657   */\n  dup2\n    /* \"#utility.yul\":5634:5658   */\n  tag_29\n  jump\t// in\ntag_120:\n    /* \"#utility.yul\":5627:5632   */\n  dup2\n    /* \"#utility.yul\":5624:5659   */\n  eq\n    /* \"#utility.yul\":5614:5677   */\n  tag_121\n  jumpi\n    /* \"#utility.yul\":5673:5674   */\n  0x00\n    /* \"#utility.yul\":5670:5671   */\n  dup1\n    /* \"#utility.yul\":5663:5675   */\n  revert\n    /* \"#utility.yul\":5614:5677   */\ntag_121:\n    /* \"#utility.yul\":5561:5683   */\n  pop\n  jump\t// out\n    /* \"#utility.yul\":5689:5832   */\ntag_45:\n    /* \"#utility.yul\":5746:5751   */\n  0x00\n    /* \"#utility.yul\":5777:5783   */\n  dup2\n    /* \"#utility.yul\":5771:5784   */\n  mload\n    /* \"#utility.yul\":5762:5784   */\n  swap1\n  pop\n    /* \"#utility.yul\":5793:5826   */\n  tag_123\n    /* \"#utility.yul\":5820:5825   */\n  dup2\n    /* \"#utility.yul\":5793:5826   */\n  tag_44\n  jump\t// in\ntag_123:\n    /* \"#utility.yul\":5689:5832   */\n  swap3\n  swap2\n  pop\n  pop\n  jump\t// out\n    /* \"#utility.yul\":5838:6189   */\ntag_6:\n    /* \"#utility.yul\":5908:5914   */\n  0x00\n    /* \"#utility.yul\":5957:5959   */\n  0x20\n    /* \"#utility.yul\":5945:5954   */\n  dup3\n    /* \"#utility.yul\":5936:5943   */\n  dup5\n    /* \"#utility.yul\":5932:5955   */\n  sub\n    /* \"#utility.yul\":5928:5960   */\n  slt\n    /* \"#utility.yul\":5925:6044   */\n  iszero\n  tag_125\n  jumpi\n    /* \"#utility.yul\":5963:6042   */\n  tag_126\n  tag_42\n  jump\t// in\ntag_126:\n    /* \"#utility.yul\":5925:6044   */\ntag_125:\n    /* \"#utility.yul\":6083:6084   */\n  0x00\n    /* \"#utility.yul\":6108:6172   */\n  tag_127\n    /* \"#utility.yul\":6164:6171   */\n  dup5\n    /* \"#utility.yul\":6155:6161   */\n  dup3\n    /* \"#utility.yul\":6144:6153   */\n  dup6\n    /* \"#utility.yul\":6140:6162   */\n  add\n    /* \"#utility.yul\":6108:6172   */\n  tag_45\n  jump\t// in\ntag_127:\n    /* \"#utility.yul\":6098:6172   */\n  swap2\n  pop\n    /* \"#utility.yul\":6054:6182   */\n  pop\n    /* \"#utility.yul\":5838:6189   */\n  swap3\n  swap2\n  pop\n  pop\n  jump\t// out\n    /* \"#utility.yul\":6195:6348   */\ntag_46:\n    /* \"#utility.yul\":6248:6254   */\n  0x00\n    /* \"#utility.yul\":6282:6287   */\n  dup2\n    /* \"#utility.yul\":6276:6288   */\n  sload\n    /* \"#utility.yul\":6266:6288   */\n  swap1\n  pop\n    /* \"#utility.yul\":6308:6341   */\n  tag_129\n    /* \"#utility.yul\":6334:6340   */\n  dup2\n    /* \"#utility.yul\":6308:6341   */\n  tag_24\n  jump\t// in\ntag_129:\n    /* \"#utility.yul\":6298:6341   */\n  swap1\n  pop\n    /* \"#utility.yul\":6195:6348   */\n  swap2\n  swap1\n  pop\n  jump\t// out\n    /* \"#utility.yul\":6354:6499   */\ntag_47:\n    /* \"#utility.yul\":6407:6411   */\n  0x00\n    /* \"#utility.yul\":6430:6433   */\n  dup2\n    /* \"#utility.yul\":6422:6433   */\n  swap1\n  pop\n    /* \"#utility.yul\":6453:6456   */\n  dup2\n    /* \"#utility.yul\":6450:6451   */\n  0x00\n    /* \"#utility.yul\":6443:6457   */\n  mstore\n    /* \"#utility.yul\":6487:6491   */\n  0x20\n    /* \"#utility.yul\":6484:6485   */\n  0x00\n    /* \"#utility.yul\":6474:6492   */\n  keccak256\n    /* \"#utility.yul\":6466:6492   */\n  swap1\n  pop\n    /* \"#utility.yul\":6354:6499   */\n  swap2\n  swap1\n  pop\n  jump\t// out\n    /* \"#utility.yul\":6505:7968   */\ntag_10:\n    /* \"#utility.yul\":6620:6623   */\n  dup2\n    /* \"#utility.yul\":6614:6618   */\n  dup2\n    /* \"#utility.yul\":6611:6624   */\n  sub\n    /* \"#utility.yul\":6608:6634   */\n  tag_132\n  jumpi\n    /* \"#utility.yul\":6627:6632   */\n  pop\n  pop\n  jump(tag_131)\n    /* \"#utility.yul\":6608:6634   */\ntag_132:\n    /* \"#utility.yul\":6658:6696   */\n  tag_133\n    /* \"#utility.yul\":6692:6695   */\n  dup3\n    /* \"#utility.yul\":6658:6696   */\n  tag_46\n  jump\t// in\ntag_133:\n    /* \"#utility.yul\":6761:6779   */\n  0xffffffffffffffff\n    /* \"#utility.yul\":6753:6759   */\n  dup2\n    /* \"#utility.yul\":6750:6780   */\n  gt\n    /* \"#utility.yul\":6747:6803   */\n  iszero\n  tag_134\n  jumpi\n    /* \"#utility.yul\":6783:6801   */\n  tag_135\n  tag_22\n  jump\t// in\ntag_135:\n    /* \"#utility.yul\":6747:6803   */\ntag_134:\n    /* \"#utility.yul\":6827:6865   */\n  tag_136\n    /* \"#utility.yul\":6859:6863   */\n  dup3\n    /* \"#utility.yul\":6853:6864   */\n  sload\n    /* \"#utility.yul\":6827:6865   */\n  tag_24\n  jump\t// in\ntag_136:\n    /* \"#utility.yul\":6912:6979   */\n  tag_137\n    /* \"#utility.yul\":6972:6978   */\n  dup3\n    /* \"#utility.yul\":6964:6970   */\n  dup3\n    /* \"#utility.yul\":6958:6962   */\n  dup6\n    /* \"#utility.yul\":6912:6979   */\n  tag_37\n  jump\t// in\ntag_137:\n    /* \"#utility.yul\":7006:7007   */\n  0x00\n    /* \"#utility.yul\":7035:7037   */\n  0x1f\n    /* \"#utility.yul\":7027:7033   */\n  dup4\n    /* \"#utility.yul\":7024:7038   */\n  gt\n    /* \"#utility.yul\":7052:7053   */\n  0x01\n    /* \"#utility.yul\":7047:7723   */\n  dup2\n  eq\n  tag_139\n  jumpi\n    /* \"#utility.yul\":7767:7768   */\n  0x00\n    /* \"#utility.yul\":7784:7790   */\n  dup5\n    /* \"#utility.yul\":7781:7858   */\n  iszero\n  tag_140\n  jumpi\n    /* \"#utility.yul\":7833:7842   */\n  dup3\n    /* \"#utility.yul\":7828:7831   */\n  dup8\n    /* \"#utility.yul\":7824:7843   */\n  add\n    /* \"#utility.yul\":7818:7844   */\n  sload\n    /* \"#utility.yul\":7809:7844   */\n  swap1\n  pop\n    /* \"#utility.yul\":7781:7858   */\ntag_140:\n    /* \"#utility.yul\":7884:7951   */\n  tag_141\n    /* \"#utility.yul\":7944:7950   */\n  dup6\n    /* \"#utility.yul\":7937:7942   */\n  dup3\n    /* \"#utility.yul\":7884:7951   */\n  tag_40\n  jump\t// in\ntag_141:\n    /* \"#utility.yul\":7878:7882   */\n  dup7\n    /* \"#utility.yul\":7871:7952   */\n  sstore\n    /* \"#utility.yul\":7740:7962   */\n  pop\n    /* \"#utility.yul\":7017:7962   */\n  jump(tag_138)\n    /* \"#utility.yul\":7047:7723   */\ntag_139:\n    /* \"#utility.yul\":7099:7103   */\n  0x1f\n    /* \"#utility.yul\":7095:7104   */\n  not\n    /* \"#utility.yul\":7087:7093   */\n  dup5\n    /* \"#utility.yul\":7083:7105   */\n  and\n    /* \"#utility.yul\":7125:7165   */\n  tag_142\n    /* \"#utility.yul\":7161:7164   */\n  dup8\n    /* \"#utility.yul\":7125:7165   */\n  tag_47\n  jump\t// in\ntag_142:\n    /* \"#utility.yul\":7118:7165   */\n  swap7\n  pop\n    /* \"#utility.yul\":7192:7229   */\n  tag_143\n    /* \"#utility.yul\":7224:7228   */\n  dup7\n    /* \"#utility.yul\":7192:7229   */\n  tag_25\n  jump\t// in\ntag_143:\n    /* \"#utility.yul\":7251:7252   */\n  0x00\n    /* \"#utility.yul\":7265:7472   */\ntag_144:\n    /* \"#utility.yul\":7279:7286   */\n  dup3\n    /* \"#utility.yul\":7276:7277   */\n  dup2\n    /* \"#utility.yul\":7273:7287   */\n  lt\n    /* \"#utility.yul\":7265:7472   */\n  iszero\n  tag_146\n  jumpi\n    /* \"#utility.yul\":7358:7367   */\n  dup5\n    /* \"#utility.yul\":7353:7356   */\n  dup10\n    /* \"#utility.yul\":7349:7368   */\n  add\n    /* \"#utility.yul\":7343:7369   */\n  sload\n    /* \"#utility.yul\":7335:7341   */\n  dup3\n    /* \"#utility.yul\":7328:7370   */\n  sstore\n    /* \"#utility.yul\":7409:7410   */\n  0x01\n    /* \"#utility.yul\":7401:7407   */\n  dup3\n    /* \"#utility.yul\":7397:7411   */\n  add\n    /* \"#utility.yul\":7387:7411   */\n  swap2\n  pop\n    /* \"#utility.yul\":7456:7457   */\n  0x01\n    /* \"#utility.yul\":7445:7454   */\n  dup6\n    /* \"#utility.yul\":7441:7458   */\n  add\n    /* \"#utility.yul\":7428:7458   */\n  swap5\n  pop\n    /* \"#utility.yul\":7302:7306   */\n  0x20\n    /* \"#utility.yul\":7299:7300   */\n  dup2\n    /* \"#utility.yul\":7295:7307   */\n  add\n    /* \"#utility.yul\":7290:7307   */\n  swap1\n  pop\n    /* \"#utility.yul\":7265:7472   */\n  jump(tag_144)\ntag_146:\n    /* \"#utility.yul\":7500:7506   */\n  dup7\n    /* \"#utility.yul\":7491:7498   */\n  dup4\n    /* \"#utility.yul\":7488:7507   */\n  lt\n    /* \"#utility.yul\":7485:7664   */\n  iszero\n  tag_147\n  jumpi\n    /* \"#utility.yul\":7558:7567   */\n  dup5\n    /* \"#utility.yul\":7553:7556   */\n  dup10\n    /* \"#utility.yul\":7549:7568   */\n  add\n    /* \"#utility.yul\":7543:7569   */\n  sload\n    /* \"#utility.yul\":7601:7649   */\n  tag_148\n    /* \"#utility.yul\":7643:7647   */\n  0x1f\n    /* \"#utility.yul\":7635:7641   */\n  dup10\n    /* \"#utility.yul\":7631:7648   */\n  and\n    /* \"#utility.yul\":7620:7629   */\n  dup3\n    /* \"#utility.yul\":7601:7649   */\n  tag_39\n  jump\t// in\ntag_148:\n    /* \"#utility.yul\":7593:7599   */\n  dup4\n    /* \"#utility.yul\":7586:7650   */\n  sstore\n    /* \"#utility.yul\":7508:7664   */\n  pop\n    /* \"#utility.yul\":7485:7664   */\ntag_147:\n    /* \"#utility.yul\":7710:7711   */\n  0x01\n    /* \"#utility.yul\":7706:7707   */\n  0x02\n    /* \"#utility.yul\":7698:7704   */\n  dup9\n    /* \"#utility.yul\":7694:7708   */\n  mul\n    /* \"#utility.yul\":7690:7712   */\n  add\n    /* \"#utility.yul\":7684:7688   */\n  dup9\n    /* \"#utility.yul\":7677:7713   */\n  sstore\n    /* \"#utility.yul\":7054:7723   */\n  pop\n  pop\n  pop\n    /* \"#utility.yul\":7017:7962   */\ntag_138:\n  pop\n    /* \"#utility.yul\":6598:7968   */\n  pop\n  pop\n  pop\n    /* \"#utility.yul\":6505:7968   */\n  pop\n  pop\ntag_131:\n  jump\t// out\n    /* \"#utility.yul\":7974:8154   */\ntag_48:\n    /* \"#utility.yul\":8022:8099   */\n  0x4e487b7100000000000000000000000000000000000000000000000000000000\n    /* \"#utility.yul\":8019:8020   */\n  0x00\n    /* \"#utility.yul\":8012:8100   */\n  mstore\n    /* \"#utility.yul\":8119:8123   */\n  0x11\n    /* \"#utility.yul\":8116:8117   */\n  0x04\n    /* \"#utility.yul\":8109:8124   */\n  mstore\n    /* \"#utility.yul\":8143:8147   */\n  0x24\n    /* \"#utility.yul\":8140:8141   */\n  0x00\n    /* \"#utility.yul\":8133:8148   */\n  revert\n    /* \"#utility.yul\":8160:8262   */\ntag_49:\n    /* \"#utility.yul\":8202:8210   */\n  0x00\n    /* \"#utility.yul\":8249:8254   */\n  dup2\n    /* \"#utility.yul\":8246:8247   */\n  0x01\n    /* \"#utility.yul\":8242:8255   */\n  shr\n    /* \"#utility.yul\":8221:8255   */\n  swap1\n  pop\n    /* \"#utility.yul\":8160:8262   */\n  swap2\n  swap1\n  pop\n  jump\t// out\n    /* \"#utility.yul\":8268:9116   */\ntag_50:\n    /* \"#utility.yul\":8329:8334   */\n  0x00\n    /* \"#utility.yul\":8336:8340   */\n  dup1\n    /* \"#utility.yul\":8360:8366   */\n  dup3\n    /* \"#utility.yul\":8351:8366   */\n  swap2\n  pop\n    /* \"#utility.yul\":8384:8389   */\n  dup4\n    /* \"#utility.yul\":8375:8389   */\n  swap1\n  pop\n    /* \"#utility.yul\":8398:9110   */\ntag_152:\n    /* \"#utility.yul\":8419:8420   */\n  0x01\n    /* \"#utility.yul\":8409:8417   */\n  dup6\n    /* \"#utility.yul\":8406:8421   */\n  gt\n    /* \"#utility.yul\":8398:9110   */\n  iszero\n  tag_154\n  jumpi\n    /* \"#utility.yul\":8514:8518   */\n  dup1\n    /* \"#utility.yul\":8509:8512   */\n  dup7\n    /* \"#utility.yul\":8505:8519   */\n  div\n    /* \"#utility.yul\":8499:8503   */\n  dup2\n    /* \"#utility.yul\":8496:8520   */\n  gt\n    /* \"#utility.yul\":8493:8543   */\n  iszero\n  tag_155\n  jumpi\n    /* \"#utility.yul\":8523:8541   */\n  tag_156\n  tag_48\n  jump\t// in\ntag_156:\n    /* \"#utility.yul\":8493:8543   */\ntag_155:\n    /* \"#utility.yul\":8573:8574   */\n  0x01\n    /* \"#utility.yul\":8563:8571   */\n  dup6\n    /* \"#utility.yul\":8559:8575   */\n  and\n    /* \"#utility.yul\":8556:9007   */\n  iszero\n  tag_157\n  jumpi\n    /* \"#utility.yul\":8988:8992   */\n  dup1\n    /* \"#utility.yul\":8981:8986   */\n  dup3\n    /* \"#utility.yul\":8977:8993   */\n  mul\n    /* \"#utility.yul\":8968:8993   */\n  swap2\n  pop\n    /* \"#utility.yul\":8556:9007   */\ntag_157:\n    /* \"#utility.yul\":9038:9042   */\n  dup1\n    /* \"#utility.yul\":9032:9036   */\n  dup2\n    /* \"#utility.yul\":9028:9043   */\n  mul\n    /* \"#utility.yul\":9020:9043   */\n  swap1\n  pop\n    /* \"#utility.yul\":9068:9100   */\n  tag_158\n    /* \"#utility.yul\":9091:9099   */\n  dup6\n    /* \"#utility.yul\":9068:9100   */\n  tag_49\n  jump\t// in\ntag_158:\n    /* \"#utility.yul\":9056:9100   */\n  swap5\n  pop\n    /* \"#utility.yul\":8398:9110   */\n  jump(tag_152)\ntag_154:\n    /* \"#utility.yul\":8268:9116   */\n  swap5\n  pop\n  swap5\n  swap3\n  pop\n  pop\n  pop\n  jump\t// out\n    /* \"#utility.yul\":9122:10195   */\ntag_51:\n    /* \"#utility.yul\":9176:9181   */\n  0x00\n    /* \"#utility.yul\":9367:9375   */\n  dup3\n    /* \"#utility.yul\":9357:9397   */\n  tag_160\n  jumpi\n    /* \"#utility.yul\":9388:9389   */\n  0x01\n    /* \"#utility.yul\":9379:9389   */\n  swap1\n  pop\n    /* \"#utility.yul\":9390:9395   */\n  jump(tag_159)\n    /* \"#utility.yul\":9357:9397   */\ntag_160:\n    /* \"#utility.yul\":9416:9420   */\n  dup2\n    /* \"#utility.yul\":9406:9442   */\n  tag_161\n  jumpi\n    /* \"#utility.yul\":9433:9434   */\n  0x00\n    /* \"#utility.yul\":9424:9434   */\n  swap1\n  pop\n    /* \"#utility.yul\":9435:9440   */\n  jump(tag_159)\n    /* \"#utility.yul\":9406:9442   */\ntag_161:\n    /* \"#utility.yul\":9502:9506   */\n  dup2\n    /* \"#utility.yul\":9550:9551   */\n  0x01\n    /* \"#utility.yul\":9545:9572   */\n  dup2\n  eq\n  tag_163\n  jumpi\n    /* \"#utility.yul\":9586:9587   */\n  0x02\n    /* \"#utility.yul\":9581:9772   */\n  dup2\n  eq\n  tag_164\n  jumpi\n    /* \"#utility.yul\":9495:9772   */\n  jump(tag_162)\n    /* \"#utility.yul\":9545:9572   */\ntag_163:\n    /* \"#utility.yul\":9563:9564   */\n  0x01\n    /* \"#utility.yul\":9554:9564   */\n  swap2\n  pop\n    /* \"#utility.yul\":9565:9570   */\n  pop\n  jump(tag_159)\n    /* \"#utility.yul\":9581:9772   */\ntag_164:\n    /* \"#utility.yul\":9626:9629   */\n  0xff\n    /* \"#utility.yul\":9616:9624   */\n  dup5\n    /* \"#utility.yul\":9613:9630   */\n  gt\n    /* \"#utility.yul\":9610:9653   */\n  iszero\n  tag_165\n  jumpi\n    /* \"#utility.yul\":9633:9651   */\n  tag_166\n  tag_48\n  jump\t// in\ntag_166:\n    /* \"#utility.yul\":9610:9653   */\ntag_165:\n    /* \"#utility.yul\":9682:9690   */\n  dup4\n    /* \"#utility.yul\":9679:9680   */\n  0x02\n    /* \"#utility.yul\":9675:9691   */\n  exp\n    /* \"#utility.yul\":9666:9691   */\n  swap2\n  pop\n    /* \"#utility.yul\":9717:9720   */\n  dup5\n    /* \"#utility.yul\":9710:9715   */\n  dup3\n    /* \"#utility.yul\":9707:9721   */\n  gt\n    /* \"#utility.yul\":9704:9744   */\n  iszero\n  tag_167\n  jumpi\n    /* \"#utility.yul\":9724:9742   */\n  tag_168\n  tag_48\n  jump\t// in\ntag_168:\n    /* \"#utility.yul\":9704:9744   */\ntag_167:\n    /* \"#utility.yul\":9757:9762   */\n  pop\n  jump(tag_159)\n    /* \"#utility.yul\":9495:9772   */\ntag_162:\n  pop\n    /* \"#utility.yul\":9881:9883   */\n  0x20\n    /* \"#utility.yul\":9871:9879   */\n  dup4\n    /* \"#utility.yul\":9868:9884   */\n  lt\n    /* \"#utility.yul\":9862:9865   */\n  0x0133\n    /* \"#utility.yul\":9856:9860   */\n  dup4\n    /* \"#utility.yul\":9853:9866   */\n  lt\n    /* \"#utility.yul\":9849:9885   */\n  and\n    /* \"#utility.yul\":9831:9833   */\n  0x4e\n    /* \"#utility.yul\":9821:9829   */\n  dup5\n    /* \"#utility.yul\":9818:9834   */\n  lt\n    /* \"#utility.yul\":9813:9815   */\n  0x0b\n    /* \"#utility.yul\":9807:9811   */\n  dup5\n    /* \"#utility.yul\":9804:9816   */\n  lt\n    /* \"#utility.yul\":9800:9835   */\n  and\n    /* \"#utility.yul\":9784:9895   */\n  or\n    /* \"#utility.yul\":9781:10027   */\n  iszero\n  tag_169\n  jumpi\n    /* \"#utility.yul\":9937:9945   */\n  dup3\n    /* \"#utility.yul\":9931:9935   */\n  dup3\n    /* \"#utility.yul\":9927:9946   */\n  exp\n    /* \"#utility.yul\":9918:9946   */\n  swap1\n  pop\n    /* \"#utility.yul\":9972:9975   */\n  dup4\n    /* \"#utility.yul\":9965:9970   */\n  dup2\n    /* \"#utility.yul\":9962:9976   */\n  gt\n    /* \"#utility.yul\":9959:9999   */\n  iszero\n  tag_170\n  jumpi\n    /* \"#utility.yul\":9979:9997   */\n  tag_171\n  tag_48\n  jump\t// in\ntag_171:\n    /* \"#utility.yul\":9959:9999   */\ntag_170:\n    /* \"#utility.yul\":10012:10017   */\n  jump(tag_159)\n    /* \"#utility.yul\":9781:10027   */\ntag_169:\n    /* \"#utility.yul\":10052:10094   */\n  tag_172\n    /* \"#utility.yul\":10090:10093   */\n  dup5\n    /* \"#utility.yul\":10080:10088   */\n  dup5\n    /* \"#utility.yul\":10074:10078   */\n  dup5\n    /* \"#utility.yul\":10071:10072   */\n  0x01\n    /* \"#utility.yul\":10052:10094   */\n  tag_50\n  jump\t// in\ntag_172:\n    /* \"#utility.yul\":10037:10094   */\n  swap3\n  pop\n  swap1\n  pop\n    /* \"#utility.yul\":10126:10130   */\n  dup2\n    /* \"#utility.yul\":10121:10124   */\n  dup5\n    /* \"#utility.yul\":10117:10131   */\n  div\n    /* \"#utility.yul\":10110:10115   */\n  dup2\n    /* \"#utility.yul\":10107:10132   */\n  gt\n    /* \"#utility.yul\":10104:10155   */\n  iszero\n  tag_173\n  jumpi\n    /* \"#utility.yul\":10135:10153   */\n  tag_174\n  tag_48\n  jump\t// in\ntag_174:\n    /* \"#utility.yul\":10104:10155   */\ntag_173:\n    /* \"#utility.yul\":10184:10188   */\n  dup2\n    /* \"#utility.yul\":10177:10182   */\n  dup2\n    /* \"#utility.yul\":10173:10189   */\n  mul\n    /* \"#utility.yul\":10164:10189   */\n  swap1\n  pop\n    /* \"#utility.yul\":9122:10195   */\ntag_159:\n  swap4\n  swap3\n  pop\n  pop\n  pop\n  jump\t// out\n    /* \"#utility.yul\":10201:10287   */\ntag_52:\n    /* \"#utility.yul\":10236:10243   */\n  0x00\n    /* \"#utility.yul\":10276:10280   */\n  0xff\n    /* \"#utility.yul\":10269:10274   */\n  dup3\n    /* \"#utility.yul\":10265:10281   */\n  and\n    /* \"#utility.yul\":10254:10281   */\n  swap1\n  pop\n    /* \"#utility.yul\":10201:10287   */\n  swap2\n  swap1\n  pop\n  jump\t// out\n    /* \"#utility.yul\":10293:10574   */\ntag_13:\n    /* \"#utility.yul\":10351:10356   */\n  0x00\n    /* \"#utility.yul\":10375:10398   */\n  tag_177\n    /* \"#utility.yul\":10393:10397   */\n  dup3\n    /* \"#utility.yul\":10375:10398   */\n  tag_29\n  jump\t// in\ntag_177:\n    /* \"#utility.yul\":10367:10398   */\n  swap2\n  pop\n    /* \"#utility.yul\":10419:10444   */\n  tag_178\n    /* \"#utility.yul\":10435:10443   */\n  dup4\n    /* \"#utility.yul\":10419:10444   */\n  tag_52\n  jump\t// in\ntag_178:\n    /* \"#utility.yul\":10407:10444   */\n  swap3\n  pop\n    /* \"#utility.yul\":10463:10567   */\n  tag_179\n    /* \"#utility.yul\":10500:10566   */\n  0xffffffffffffffffffffffffffffffffffffffffffffffffffffffffffffffff\n    /* \"#utility.yul\":10490:10498   */\n  dup5\n    /* \"#utility.yul\":10484:10488   */\n  dup5\n    /* \"#utility.yul\":10463:10567   */\n  tag_51\n  jump\t// in\ntag_179:\n    /* \"#utility.yul\":10454:10567   */\n  swap1\n  pop\n    /* \"#utility.yul\":10293:10574   */\n  swap3\n  swap2\n  pop\n  pop\n  jump\t// out\n    /* \"#utility.yul\":10580:10990   */\ntag_15:\n    /* \"#utility.yul\":10620:10627   */\n  0x00\n    /* \"#utility.yul\":10643:10663   */\n  tag_181\n    /* \"#utility.yul\":10661:10662   */\n  dup3\n    /* \"#utility.yul\":10643:10663   */\n  tag_29\n  jump\t// in\ntag_181:\n    /* \"#utility.yul\":10638:10663   */\n  swap2\n  pop\n    /* \"#utility.yul\":10677:10697   */\n  tag_182\n    /* \"#utility.yul\":10695:10696   */\n  dup4\n    /* \"#utility.yul\":10677:10697   */\n  tag_29\n  jump\t// in\ntag_182:\n    /* \"#utility.yul\":10672:10697   */\n  swap3\n  pop\n    /* \"#utility.yul\":10732:10733   */\n  dup3\n    /* \"#utility.yul\":10729:10730   */\n  dup3\n    /* \"#utility.yul\":10725:10734   */\n  mul\n    /* \"#utility.yul\":10754:10784   */\n  tag_183\n    /* \"#utility.yul\":10772:10783   */\n  dup2\n    /* \"#utility.yul\":10754:10784   */\n  tag_29\n  jump\t// in\ntag_183:\n    /* \"#utility.yul\":10743:10784   */\n  swap2\n  pop\n    /* \"#utility.yul\":10933:10934   */\n  dup3\n    /* \"#utility.yul\":10924:10931   */\n  dup3\n    /* \"#utility.yul\":10920:10935   */\n  div\n    /* \"#utility.yul\":10917:10918   */\n  dup5\n    /* \"#utility.yul\":10914:10936   */\n  eq\n    /* \"#utility.yul\":10894:10895   */\n  dup4\n    /* \"#utility.yul\":10887:10896   */\n  iszero\n    /* \"#utility.yul\":10867:10950   */\n  or\n    /* \"#utility.yul\":10844:10983   */\n  tag_184\n  jumpi\n    /* \"#utility.yul\":10963:10981   */\n  tag_185\n  tag_48\n  jump\t// in\ntag_185:\n    /* \"#utility.yul\":10844:10983   */\ntag_184:\n    /* \"#utility.yul\":10628:10990   */\n  pop\n    /* \"#utility.yul\":10580:10990   */\n  swap3\n  swap2\n  pop\n  pop\n  jump\t// out\n    /* \"#utility.yul\":10996:11187   */\ntag_17:\n    /* \"#utility.yul\":11036:11039   */\n  0x00\n    /* \"#utility.yul\":11055:11075   */\n  tag_187\n    /* \"#utility.yul\":11073:11074   */\n  dup3\n    /* \"#utility.yul\":11055:11075   */\n  tag_29\n  jump\t// in\ntag_187:\n    /* \"#utility.yul\":11050:11075   */\n  swap2\n  pop\n    /* \"#utility.yul\":11089:11109   */\n  tag_188\n    /* \"#utility.yul\":11107:11108   */\n  dup4\n    /* \"#utility.yul\":11089:11109   */\n  tag_29\n  jump\t// in\ntag_188:\n    /* \"#utility.yul\":11084:11109   */\n  swap3\n  pop\n    /* \"#utility.yul\":11132:11133   */\n  dup3\n    /* \"#utility.yul\":11129:11130   */\n  dup3\n    /* \"#utility.yul\":11125:11134   */\n  add\n    /* \"#utility.yul\":11118:11134   */\n  swap1\n  pop\n    /* \"#utility.yul\":11153:11156   */\n  dup1\n    /* \"#utility.yul\":11150:11151   */\n  dup3\n    /* \"#utility.yul\":11147:11157   */\n  gt\n    /* \"#utility.yul\":11144:11180   */\n  iszero\n  tag_189\n  jumpi\n    /* \"#utility.yul\":11160:11178   */\n  tag_190\n  tag_48\n  jump\t// in\ntag_190:\n    /* \"#utility.yul\":11144:11180   */\ntag_189:\n    /* \"#utility.yul\":10996:11187   */\n  swap3\n  swap2\n  pop\n  pop\n  jump\t// out\n    /* \"#utility.yul\":11193:11311   */\ntag_53:\n    /* \"#utility.yul\":11280:11304   */\n  tag_192\n    /* \"#utility.yul\":11298:11303   */\n  dup2\n    /* \"#utility.yul\":11280:11304   */\n  tag_29\n  jump\t// in\ntag_192:\n    /* \"#utility.yul\":11275:11278   */\n  dup3\n    /* \"#utility.yul\":11268:11305   */\n  mstore\n    /* \"#utility.yul\":11193:11311   */\n  pop\n  pop\n  jump\t// out\n    /* \"#utility.yul\":11317:11539   */\ntag_19:\n    /* \"#utility.yul\":11410:11414   */\n  0x00\n    /* \"#utility.yul\":11448:11450   */\n  0x20\n    /* \"#utility.yul\":11437:11446   */\n  dup3\n    /* \"#utility.yul\":11433:11451   */\n  add\n    /* \"#utility.yul\":11425:11451   */\n  swap1\n  pop\n    /* \"#utility.yul\":11461:11532   */\n  tag_194\n    /* \"#utility.yul\":11529:11530   */\n  0x00\n    /* \"#utility.yul\":11518:11527   */\n  dup4\n    /* \"#utility.yul\":11514:11531   */\n  add\n    /* \"#utility.yul\":11505:11511   */\n  dup5\n    /* \"#utility.yul\":11461:11532   */\n  tag_53\n  jump\t// in\ntag_194:\n    /* \"#utility.yul\":11317:11539   */\n  swap3\n  swap2\n  pop\n  pop\n  jump\t// out\n    /* \"contracts/ECR20_PToken-TestToken_simplified_update_2.0(trade).sol\":459:2168  contract ECR20_TestToken is IERC20 {... */\ntag_20:\n  dataSize(sub_0)\n  dup1\n  dataOffset(sub_0)\n  0x00\n  codecopy\n  0x00\n  return\nstop\n\nsub_0: assembly {\n        /* \"contracts/ECR20_PToken-TestToken_simplified_update_2.0(trade).sol\":459:2168  contract ECR20_TestToken is IERC20 {... */\n      mstore(0x40, 0x80)\n      callvalue\n      dup1\n      iszero\n      tag_1\n      jumpi\n      0x00\n      dup1\n      revert\n    tag_1:\n      pop\n      jumpi(tag_2, lt(calldatasize, 0x04))\n      shr(0xe0, calldataload(0x00))\n      dup1\n      0x8da5cb5b\n      gt\n      tag_13\n      jumpi\n      dup1\n      0x8da5cb5b\n      eq\n      tag_8\n      jumpi\n      dup1\n      0x95d89b41\n      eq\n      tag_9\n      jumpi\n      dup1\n      0xa0712d68\n      eq\n      tag_10\n      jumpi\n      dup1\n      0xa9059cbb\n      eq\n      tag_11\n      jumpi\n      dup1\n      0xecbde5e6\n      eq\n      tag_12\n      jumpi\n      jump(tag_2)\n    tag_13:\n      dup1\n      0x06fdde03\n      eq\n      tag_3\n      jumpi\n      dup1\n      0x18160ddd\n      eq\n      tag_4\n      jumpi\n      dup1\n      0x313ce567\n      eq\n      tag_5\n      jumpi\n      dup1\n      0x42966c68\n      eq\n      tag_6\n      jumpi\n      dup1\n      0x70a08231\n      eq\n      tag_7\n      jumpi\n    tag_2:\n      0x00\n      dup1\n      revert\n        /* \"contracts/ECR20_PToken-TestToken_simplified_update_2.0(trade).sol\":501:528  string public name = \"test\" */\n    tag_3:\n      tag_14\n      tag_15\n      jump\t// in\n    tag_14:\n      mload(0x40)\n      tag_16\n      swap2\n      swap1\n      tag_17\n      jump\t// in\n    tag_16:\n      mload(0x40)\n      dup1\n      swap2\n      sub\n      swap1\n      return\n        /* \"contracts/ECR20_PToken-TestToken_simplified_update_2.0(trade).sol\":652:684  uint public override totalSupply */\n    tag_4:\n      tag_18\n      tag_19\n      jump\t// in\n    tag_18:\n      mload(0x40)\n      tag_20\n      swap2\n      swap1\n      tag_21\n      jump\t// in\n    tag_20:\n      mload(0x40)\n      dup1\n      swap2\n      sub\n      swap1\n      return\n        /* \"contracts/ECR20_PToken-TestToken_simplified_update_2.0(trade).sol\":571:597  uint8 public decimals = 18 */\n    tag_5:\n      tag_22\n      tag_23\n      jump\t// in\n    tag_22:\n      mload(0x40)\n      tag_24\n      swap2\n      swap1\n      tag_25\n      jump\t// in\n    tag_24:\n      mload(0x40)\n      dup1\n      swap2\n      sub\n      swap1\n      return\n        /* \"contracts/ECR20_PToken-TestToken_simplified_update_2.0(trade).sol\":1883:2057  function burn(uint amount) external {... */\n    tag_6:\n      tag_26\n      0x04\n      dup1\n      calldatasize\n      sub\n      dup2\n      add\n      swap1\n      tag_27\n      swap2\n      swap1\n      tag_28\n      jump\t// in\n    tag_27:\n      tag_29\n      jump\t// in\n    tag_26:\n      stop\n        /* \"contracts/ECR20_PToken-TestToken_simplified_update_2.0(trade).sol\":691:732  mapping(address => uint) public balanceOf */\n    tag_7:\n      tag_30\n      0x04\n      dup1\n      calldatasize\n      sub\n      dup2\n      add\n      swap1\n      tag_31\n      swap2\n      swap1\n      tag_32\n      jump\t// in\n    tag_31:\n      tag_33\n      jump\t// in\n    tag_30:\n      mload(0x40)\n      tag_34\n      swap2\n      swap1\n      tag_21\n      jump\t// in\n    tag_34:\n      mload(0x40)\n      dup1\n      swap2\n      sub\n      swap1\n      return\n        /* \"contracts/ECR20_PToken-TestToken_simplified_update_2.0(trade).sol\":739:759  address public owner */\n    tag_8:\n      tag_35\n      tag_36\n      jump\t// in\n    tag_35:\n      mload(0x40)\n      tag_37\n      swap2\n      swap1\n      tag_38\n      jump\t// in\n    tag_37:\n      mload(0x40)\n      dup1\n      swap2\n      sub\n      swap1\n      return\n        /* \"contracts/ECR20_PToken-TestToken_simplified_update_2.0(trade).sol\":535:564  string public symbol = \"TEST\" */\n    tag_9:\n      tag_39\n      tag_40\n      jump\t// in\n    tag_39:\n      mload(0x40)\n      tag_41\n      swap2\n      swap1\n      tag_17\n      jump\t// in\n    tag_41:\n      mload(0x40)\n      dup1\n      swap2\n      sub\n      swap1\n      return\n        /* \"contracts/ECR20_PToken-TestToken_simplified_update_2.0(trade).sol\":1617:1791  function mint(uint amount) external {... */\n    tag_10:\n      tag_42\n      0x04\n      dup1\n      calldatasize\n      sub\n      dup2\n      add\n      swap1\n      tag_43\n      swap2\n      swap1\n      tag_28\n      jump\t// in\n    tag_43:\n      tag_44\n      jump\t// in\n    tag_42:\n      stop\n        /* \"contracts/ECR20_PToken-TestToken_simplified_update_2.0(trade).sol\":1297:1539  function transfer(address recipient, uint amount) external returns (bool) {... */\n    tag_11:\n      tag_45\n      0x04\n      dup1\n      calldatasize\n      sub\n      dup2\n      add\n      swap1\n      tag_46\n      swap2\n      swap1\n      tag_47\n      jump\t// in\n    tag_46:\n      tag_48\n      jump\t// in\n    tag_45:\n      mload(0x40)\n      tag_49\n      swap2\n      swap1\n      tag_50\n      jump\t// in\n    tag_49:\n      mload(0x40)\n      dup1\n      swap2\n      sub\n      swap1\n      return\n        /* \"contracts/ECR20_PToken-TestToken_simplified_update_2.0(trade).sol\":2065:2165  function getBalanceOf() external view returns (uint) {... */\n    tag_12:\n      tag_51\n      tag_52\n      jump\t// in\n    tag_51:\n      mload(0x40)\n      tag_53\n      swap2\n      swap1\n      tag_21\n      jump\t// in\n    tag_53:\n      mload(0x40)\n      dup1\n      swap2\n      sub\n      swap1\n      return\n        /* \"contracts/ECR20_PToken-TestToken_simplified_update_2.0(trade).sol\":501:528  string public name = \"test\" */\n    tag_15:\n      0x00\n      dup1\n      sload\n      tag_54\n      swap1\n      tag_55\n      jump\t// in\n    tag_54:\n      dup1\n      0x1f\n      add\n      0x20\n      dup1\n      swap2\n      div\n      mul\n      0x20\n      add\n      mload(0x40)\n      swap1\n      dup2\n      add\n      0x40\n      mstore\n      dup1\n      swap3\n      swap2\n      swap1\n      dup2\n      dup2\n      mstore\n      0x20\n      add\n      dup3\n      dup1\n      sload\n      tag_56\n      swap1\n      tag_55\n      jump\t// in\n    tag_56:\n      dup1\n      iszero\n      tag_57\n      jumpi\n      dup1\n      0x1f\n      lt\n      tag_58\n      jumpi\n      0x0100\n      dup1\n      dup4\n      sload\n      div\n      mul\n      dup4\n      mstore\n      swap2\n      0x20\n      add\n      swap2\n      jump(tag_57)\n    tag_58:\n      dup3\n      add\n      swap2\n      swap1\n      0x00\n      mstore\n      keccak256(0x00, 0x20)\n      swap1\n    tag_59:\n      dup2\n      sload\n      dup2\n      mstore\n      swap1\n      0x01\n      add\n      swap1\n      0x20\n      add\n      dup1\n      dup4\n      gt\n      tag_59\n      jumpi\n      dup3\n      swap1\n      sub\n      0x1f\n      and\n      dup3\n      add\n      swap2\n    tag_57:\n      pop\n      pop\n      pop\n      pop\n      pop\n      dup2\n      jump\t// out\n        /* \"contracts/ECR20_PToken-TestToken_simplified_update_2.0(trade).sol\":652:684  uint public override totalSupply */\n    tag_19:\n      sload(0x03)\n      dup2\n      jump\t// out\n        /* \"contracts/ECR20_PToken-TestToken_simplified_update_2.0(trade).sol\":571:597  uint8 public decimals = 18 */\n    tag_23:\n      0x02\n      0x00\n      swap1\n      sload\n      swap1\n      0x0100\n      exp\n      swap1\n      div\n      0xff\n      and\n      dup2\n      jump\t// out\n        /* \"contracts/ECR20_PToken-TestToken_simplified_update_2.0(trade).sol\":1883:2057  function burn(uint amount) external {... */\n    tag_29:\n        /* \"contracts/ECR20_PToken-TestToken_simplified_update_2.0(trade).sol\":1955:1961  amount */\n      dup1\n        /* \"contracts/ECR20_PToken-TestToken_simplified_update_2.0(trade).sol\":1930:1939  balanceOf */\n      0x04\n        /* \"contracts/ECR20_PToken-TestToken_simplified_update_2.0(trade).sol\":1930:1951  balanceOf[msg.sender] */\n      0x00\n        /* \"contracts/ECR20_PToken-TestToken_simplified_update_2.0(trade).sol\":1940:1950  msg.sender */\n      caller\n        /* \"contracts/ECR20_PToken-TestToken_simplified_update_2.0(trade).sol\":1930:1951  balanceOf[msg.sender] */\n      0xffffffffffffffffffffffffffffffffffffffff\n      and\n      0xffffffffffffffffffffffffffffffffffffffff\n      and\n      dup2\n      mstore\n      0x20\n      add\n      swap1\n      dup2\n      mstore\n      0x20\n      add\n      0x00\n      keccak256\n      0x00\n        /* \"contracts/ECR20_PToken-TestToken_simplified_update_2.0(trade).sol\":1930:1961  balanceOf[msg.sender] -= amount */\n      dup3\n      dup3\n      sload\n      tag_61\n      swap2\n      swap1\n      tag_62\n      jump\t// in\n    tag_61:\n      swap3\n      pop\n      pop\n      dup2\n      swap1\n      sstore\n      pop\n        /* \"contracts/ECR20_PToken-TestToken_simplified_update_2.0(trade).sol\":1987:1993  amount */\n      dup1\n        /* \"contracts/ECR20_PToken-TestToken_simplified_update_2.0(trade).sol\":1972:1983  totalSupply */\n      0x03\n      0x00\n        /* \"contracts/ECR20_PToken-TestToken_simplified_update_2.0(trade).sol\":1972:1993  totalSupply -= amount */\n      dup3\n      dup3\n      sload\n      tag_63\n      swap2\n      swap1\n      tag_62\n      jump\t// in\n    tag_63:\n      swap3\n      pop\n      pop\n      dup2\n      swap1\n      sstore\n      pop\n        /* \"contracts/ECR20_PToken-TestToken_simplified_update_2.0(trade).sol\":2038:2039  0 */\n      0x00\n        /* \"contracts/ECR20_PToken-TestToken_simplified_update_2.0(trade).sol\":2009:2049  Transfer(msg.sender, address(0), amount) */\n      0xffffffffffffffffffffffffffffffffffffffff\n      and\n        /* \"contracts/ECR20_PToken-TestToken_simplified_update_2.0(trade).sol\":2018:2028  msg.sender */\n      caller\n        /* \"contracts/ECR20_PToken-TestToken_simplified_update_2.0(trade).sol\":2009:2049  Transfer(msg.sender, address(0), amount) */\n      0xffffffffffffffffffffffffffffffffffffffff\n      and\n      0xddf252ad1be2c89b69c2b068fc378daa952ba7f163c4a11628f55a4df523b3ef\n        /* \"contracts/ECR20_PToken-TestToken_simplified_update_2.0(trade).sol\":2042:2048  amount */\n      dup4\n        /* \"contracts/ECR20_PToken-TestToken_simplified_update_2.0(trade).sol\":2009:2049  Transfer(msg.sender, address(0), amount) */\n      mload(0x40)\n      tag_64\n      swap2\n      swap1\n      tag_21\n      jump\t// in\n    tag_64:\n      mload(0x40)\n      dup1\n      swap2\n      sub\n      swap1\n      log3\n        /* \"contracts/ECR20_PToken-TestToken_simplified_update_2.0(trade).sol\":1883:2057  function burn(uint amount) external {... */\n      pop\n      jump\t// out\n        /* \"contracts/ECR20_PToken-TestToken_simplified_update_2.0(trade).sol\":691:732  mapping(address => uint) public balanceOf */\n    tag_33:\n      mstore(0x20, 0x04)\n      dup1\n      0x00\n      mstore\n      keccak256(0x00, 0x40)\n      0x00\n      swap2\n      pop\n      swap1\n      pop\n      sload\n      dup2\n      jump\t// out\n        /* \"contracts/ECR20_PToken-TestToken_simplified_update_2.0(trade).sol\":739:759  address public owner */\n    tag_36:\n      0x05\n      0x00\n      swap1\n      sload\n      swap1\n      0x0100\n      exp\n      swap1\n      div\n      0xffffffffffffffffffffffffffffffffffffffff\n      and\n      dup2\n      jump\t// out\n        /* \"contracts/ECR20_PToken-TestToken_simplified_update_2.0(trade).sol\":535:564  string public symbol = \"TEST\" */\n    tag_40:\n      0x01\n      dup1\n      sload\n      tag_65\n      swap1\n      tag_55\n      jump\t// in\n    tag_65:\n      dup1\n      0x1f\n      add\n      0x20\n      dup1\n      swap2\n      div\n      mul\n      0x20\n      add\n      mload(0x40)\n      swap1\n      dup2\n      add\n      0x40\n      mstore\n      dup1\n      swap3\n      swap2\n      swap1\n      dup2\n      dup2\n      mstore\n      0x20\n      add\n      dup3\n      dup1\n      sload\n      tag_66\n      swap1\n      tag_55\n      jump\t// in\n    tag_66:\n      dup1\n      iszero\n      tag_67\n      jumpi\n      dup1\n      0x1f\n      lt\n      tag_68\n      jumpi\n      0x0100\n      dup1\n      dup4\n      sload\n      div\n      mul\n      dup4\n      mstore\n      swap2\n      0x20\n      add\n      swap2\n      jump(tag_67)\n    tag_68:\n      dup3\n      add\n      swap2\n      swap1\n      0x00\n      mstore\n      keccak256(0x00, 0x20)\n      swap1\n    tag_69:\n      dup2\n      sload\n      dup2\n      mstore\n      swap1\n      0x01\n      add\n      swap1\n      0x20\n      add\n      dup1\n      dup4\n      gt\n      tag_69\n      jumpi\n      dup3\n      swap1\n      sub\n      0x1f\n      and\n      dup3\n      add\n      swap2\n    tag_67:\n      pop\n      pop\n      pop\n      pop\n      pop\n      dup2\n      jump\t// out\n        /* \"contracts/ECR20_PToken-TestToken_simplified_update_2.0(trade).sol\":1617:1791  function mint(uint amount) external {... */\n    tag_44:\n        /* \"contracts/ECR20_PToken-TestToken_simplified_update_2.0(trade).sol\":1689:1695  amount */\n      dup1\n        /* \"contracts/ECR20_PToken-TestToken_simplified_update_2.0(trade).sol\":1664:1673  balanceOf */\n      0x04\n        /* \"contracts/ECR20_PToken-TestToken_simplified_update_2.0(trade).sol\":1664:1685  balanceOf[msg.sender] */\n      0x00\n        /* \"contracts/ECR20_PToken-TestToken_simplified_update_2.0(trade).sol\":1674:1684  msg.sender */\n      caller\n        /* \"contracts/ECR20_PToken-TestToken_simplified_update_2.0(trade).sol\":1664:1685  balanceOf[msg.sender] */\n      0xffffffffffffffffffffffffffffffffffffffff\n      and\n      0xffffffffffffffffffffffffffffffffffffffff\n      and\n      dup2\n      mstore\n      0x20\n      add\n      swap1\n      dup2\n      mstore\n      0x20\n      add\n      0x00\n      keccak256\n      0x00\n        /* \"contracts/ECR20_PToken-TestToken_simplified_update_2.0(trade).sol\":1664:1695  balanceOf[msg.sender] += amount */\n      dup3\n      dup3\n      sload\n      tag_71\n      swap2\n      swap1\n      tag_72\n      jump\t// in\n    tag_71:\n      swap3\n      pop\n      pop\n      dup2\n      swap1\n      sstore\n      pop\n        /* \"contracts/ECR20_PToken-TestToken_simplified_update_2.0(trade).sol\":1721:1727  amount */\n      dup1\n        /* \"contracts/ECR20_PToken-TestToken_simplified_update_2.0(trade).sol\":1706:1717  totalSupply */\n      0x03\n      0x00\n        /* \"contracts/ECR20_PToken-TestToken_simplified_update_2.0(trade).sol\":1706:1727  totalSupply += amount */\n      dup3\n      dup3\n      sload\n      tag_73\n      swap2\n      swap1\n      tag_72\n      jump\t// in\n    tag_73:\n      swap3\n      pop\n      pop\n      dup2\n      swap1\n      sstore\n      pop\n        /* \"contracts/ECR20_PToken-TestToken_simplified_update_2.0(trade).sol\":1764:1774  msg.sender */\n      caller\n        /* \"contracts/ECR20_PToken-TestToken_simplified_update_2.0(trade).sol\":1743:1783  Transfer(address(0), msg.sender, amount) */\n      0xffffffffffffffffffffffffffffffffffffffff\n      and\n        /* \"contracts/ECR20_PToken-TestToken_simplified_update_2.0(trade).sol\":1760:1761  0 */\n      0x00\n        /* \"contracts/ECR20_PToken-TestToken_simplified_update_2.0(trade).sol\":1743:1783  Transfer(address(0), msg.sender, amount) */\n      0xffffffffffffffffffffffffffffffffffffffff\n      and\n      0xddf252ad1be2c89b69c2b068fc378daa952ba7f163c4a11628f55a4df523b3ef\n        /* \"contracts/ECR20_PToken-TestToken_simplified_update_2.0(trade).sol\":1776:1782  amount */\n      dup4\n        /* \"contracts/ECR20_PToken-TestToken_simplified_update_2.0(trade).sol\":1743:1783  Transfer(address(0), msg.sender, amount) */\n      mload(0x40)\n      tag_74\n      swap2\n      swap1\n      tag_21\n      jump\t// in\n    tag_74:\n      mload(0x40)\n      dup1\n      swap2\n      sub\n      swap1\n      log3\n        /* \"contracts/ECR20_PToken-TestToken_simplified_update_2.0(trade).sol\":1617:1791  function mint(uint amount) external {... */\n      pop\n      jump\t// out\n        /* \"contracts/ECR20_PToken-TestToken_simplified_update_2.0(trade).sol\":1297:1539  function transfer(address recipient, uint amount) external returns (bool) {... */\n    tag_48:\n        /* \"contracts/ECR20_PToken-TestToken_simplified_update_2.0(trade).sol\":1365:1369  bool */\n      0x00\n        /* \"contracts/ECR20_PToken-TestToken_simplified_update_2.0(trade).sol\":1407:1413  amount */\n      dup2\n        /* \"contracts/ECR20_PToken-TestToken_simplified_update_2.0(trade).sol\":1382:1391  balanceOf */\n      0x04\n        /* \"contracts/ECR20_PToken-TestToken_simplified_update_2.0(trade).sol\":1382:1403  balanceOf[msg.sender] */\n      0x00\n        /* \"contracts/ECR20_PToken-TestToken_simplified_update_2.0(trade).sol\":1392:1402  msg.sender */\n      caller\n        /* \"contracts/ECR20_PToken-TestToken_simplified_update_2.0(trade).sol\":1382:1403  balanceOf[msg.sender] */\n      0xffffffffffffffffffffffffffffffffffffffff\n      and\n      0xffffffffffffffffffffffffffffffffffffffff\n      and\n      dup2\n      mstore\n      0x20\n      add\n      swap1\n      dup2\n      mstore\n      0x20\n      add\n      0x00\n      keccak256\n      0x00\n        /* \"contracts/ECR20_PToken-TestToken_simplified_update_2.0(trade).sol\":1382:1413  balanceOf[msg.sender] -= amount */\n      dup3\n      dup3\n      sload\n      tag_76\n      swap2\n      swap1\n      tag_62\n      jump\t// in\n    tag_76:\n      swap3\n      pop\n      pop\n      dup2\n      swap1\n      sstore\n      pop\n        /* \"contracts/ECR20_PToken-TestToken_simplified_update_2.0(trade).sol\":1448:1454  amount */\n      dup2\n        /* \"contracts/ECR20_PToken-TestToken_simplified_update_2.0(trade).sol\":1424:1433  balanceOf */\n      0x04\n        /* \"contracts/ECR20_PToken-TestToken_simplified_update_2.0(trade).sol\":1424:1444  balanceOf[recipient] */\n      0x00\n        /* \"contracts/ECR20_PToken-TestToken_simplified_update_2.0(trade).sol\":1434:1443  recipient */\n      dup6\n        /* \"contracts/ECR20_PToken-TestToken_simplified_update_2.0(trade).sol\":1424:1444  balanceOf[recipient] */\n      0xffffffffffffffffffffffffffffffffffffffff\n      and\n      0xffffffffffffffffffffffffffffffffffffffff\n      and\n      dup2\n      mstore\n      0x20\n      add\n      swap1\n      dup2\n      mstore\n      0x20\n      add\n      0x00\n      keccak256\n      0x00\n        /* \"contracts/ECR20_PToken-TestToken_simplified_update_2.0(trade).sol\":1424:1454  balanceOf[recipient] += amount */\n      dup3\n      dup3\n      sload\n      tag_77\n      swap2\n      swap1\n      tag_72\n      jump\t// in\n    tag_77:\n      swap3\n      pop\n      pop\n      dup2\n      swap1\n      sstore\n      pop\n        /* \"contracts/ECR20_PToken-TestToken_simplified_update_2.0(trade).sol\":1491:1500  recipient */\n      dup3\n        /* \"contracts/ECR20_PToken-TestToken_simplified_update_2.0(trade).sol\":1470:1509  Transfer(msg.sender, recipient, amount) */\n      0xffffffffffffffffffffffffffffffffffffffff\n      and\n        /* \"contracts/ECR20_PToken-TestToken_simplified_update_2.0(trade).sol\":1479:1489  msg.sender */\n      caller\n        /* \"contracts/ECR20_PToken-TestToken_simplified_update_2.0(trade).sol\":1470:1509  Transfer(msg.sender, recipient, amount) */\n      0xffffffffffffffffffffffffffffffffffffffff\n      and\n      0xddf252ad1be2c89b69c2b068fc378daa952ba7f163c4a11628f55a4df523b3ef\n        /* \"contracts/ECR20_PToken-TestToken_simplified_update_2.0(trade).sol\":1502:1508  amount */\n      dup5\n        /* \"contracts/ECR20_PToken-TestToken_simplified_update_2.0(trade).sol\":1470:1509  Transfer(msg.sender, recipient, amount) */\n      mload(0x40)\n      tag_78\n      swap2\n      swap1\n      tag_21\n      jump\t// in\n    tag_78:\n      mload(0x40)\n      dup1\n      swap2\n      sub\n      swap1\n      log3\n        /* \"contracts/ECR20_PToken-TestToken_simplified_update_2.0(trade).sol\":1527:1531  true */\n      0x01\n        /* \"contracts/ECR20_PToken-TestToken_simplified_update_2.0(trade).sol\":1520:1531  return true */\n      swap1\n      pop\n        /* \"contracts/ECR20_PToken-TestToken_simplified_update_2.0(trade).sol\":1297:1539  function transfer(address recipient, uint amount) external returns (bool) {... */\n      swap3\n      swap2\n      pop\n      pop\n      jump\t// out\n        /* \"contracts/ECR20_PToken-TestToken_simplified_update_2.0(trade).sol\":2065:2165  function getBalanceOf() external view returns (uint) {... */\n    tag_52:\n        /* \"contracts/ECR20_PToken-TestToken_simplified_update_2.0(trade).sol\":2112:2116  uint */\n      0x00\n        /* \"contracts/ECR20_PToken-TestToken_simplified_update_2.0(trade).sol\":2136:2145  balanceOf */\n      0x04\n        /* \"contracts/ECR20_PToken-TestToken_simplified_update_2.0(trade).sol\":2136:2157  balanceOf[msg.sender] */\n      0x00\n        /* \"contracts/ECR20_PToken-TestToken_simplified_update_2.0(trade).sol\":2146:2156  msg.sender */\n      caller\n        /* \"contracts/ECR20_PToken-TestToken_simplified_update_2.0(trade).sol\":2136:2157  balanceOf[msg.sender] */\n      0xffffffffffffffffffffffffffffffffffffffff\n      and\n      0xffffffffffffffffffffffffffffffffffffffff\n      and\n      dup2\n      mstore\n      0x20\n      add\n      swap1\n      dup2\n      mstore\n      0x20\n      add\n      0x00\n      keccak256\n      sload\n        /* \"contracts/ECR20_PToken-TestToken_simplified_update_2.0(trade).sol\":2129:2157  return balanceOf[msg.sender] */\n      swap1\n      pop\n        /* \"contracts/ECR20_PToken-TestToken_simplified_update_2.0(trade).sol\":2065:2165  function getBalanceOf() external view returns (uint) {... */\n      swap1\n      jump\t// out\n        /* \"#utility.yul\":7:106   */\n    tag_80:\n        /* \"#utility.yul\":59:65   */\n      0x00\n        /* \"#utility.yul\":93:98   */\n      dup2\n        /* \"#utility.yul\":87:99   */\n      mload\n        /* \"#utility.yul\":77:99   */\n      swap1\n      pop\n        /* \"#utility.yul\":7:106   */\n      swap2\n      swap1\n      pop\n      jump\t// out\n        /* \"#utility.yul\":112:281   */\n    tag_81:\n        /* \"#utility.yul\":196:207   */\n      0x00\n        /* \"#utility.yul\":230:236   */\n      dup3\n        /* \"#utility.yul\":225:228   */\n      dup3\n        /* \"#utility.yul\":218:237   */\n      mstore\n        /* \"#utility.yul\":270:274   */\n      0x20\n        /* \"#utility.yul\":265:268   */\n      dup3\n        /* \"#utility.yul\":261:275   */\n      add\n        /* \"#utility.yul\":246:275   */\n      swap1\n      pop\n        /* \"#utility.yul\":112:281   */\n      swap3\n      swap2\n      pop\n      pop\n      jump\t// out\n        /* \"#utility.yul\":287:533   */\n    tag_82:\n        /* \"#utility.yul\":368:369   */\n      0x00\n        /* \"#utility.yul\":378:491   */\n    tag_107:\n        /* \"#utility.yul\":392:398   */\n      dup4\n        /* \"#utility.yul\":389:390   */\n      dup2\n        /* \"#utility.yul\":386:399   */\n      lt\n        /* \"#utility.yul\":378:491   */\n      iszero\n      tag_109\n      jumpi\n        /* \"#utility.yul\":477:478   */\n      dup1\n        /* \"#utility.yul\":472:475   */\n      dup3\n        /* \"#utility.yul\":468:479   */\n      add\n        /* \"#utility.yul\":462:480   */\n      mload\n        /* \"#utility.yul\":458:459   */\n      dup2\n        /* \"#utility.yul\":453:456   */\n      dup5\n        /* \"#utility.yul\":449:460   */\n      add\n        /* \"#utility.yul\":442:481   */\n      mstore\n        /* \"#utility.yul\":414:416   */\n      0x20\n        /* \"#utility.yul\":411:412   */\n      dup2\n        /* \"#utility.yul\":407:417   */\n      add\n        /* \"#utility.yul\":402:417   */\n      swap1\n      pop\n        /* \"#utility.yul\":378:491   */\n      jump(tag_107)\n    tag_109:\n        /* \"#utility.yul\":525:526   */\n      0x00\n        /* \"#utility.yul\":516:522   */\n      dup5\n        /* \"#utility.yul\":511:514   */\n      dup5\n        /* \"#utility.yul\":507:523   */\n      add\n        /* \"#utility.yul\":500:527   */\n      mstore\n        /* \"#utility.yul\":349:533   */\n      pop\n        /* \"#utility.yul\":287:533   */\n      pop\n      pop\n      pop\n      jump\t// out\n        /* \"#utility.yul\":539:641   */\n    tag_83:\n        /* \"#utility.yul\":580:586   */\n      0x00\n        /* \"#utility.yul\":631:633   */\n      0x1f\n        /* \"#utility.yul\":627:634   */\n      not\n        /* \"#utility.yul\":622:624   */\n      0x1f\n        /* \"#utility.yul\":615:620   */\n      dup4\n        /* \"#utility.yul\":611:625   */\n      add\n        /* \"#utility.yul\":607:635   */\n      and\n        /* \"#utility.yul\":597:635   */\n      swap1\n      pop\n        /* \"#utility.yul\":539:641   */\n      swap2\n      swap1\n      pop\n      jump\t// out\n        /* \"#utility.yul\":647:1024   */\n    tag_84:\n        /* \"#utility.yul\":735:738   */\n      0x00\n        /* \"#utility.yul\":763:802   */\n      tag_112\n        /* \"#utility.yul\":796:801   */\n      dup3\n        /* \"#utility.yul\":763:802   */\n      tag_80\n      jump\t// in\n    tag_112:\n        /* \"#utility.yul\":818:889   */\n      tag_113\n        /* \"#utility.yul\":882:888   */\n      dup2\n        /* \"#utility.yul\":877:880   */\n      dup6\n        /* \"#utility.yul\":818:889   */\n      tag_81\n      jump\t// in\n    tag_113:\n        /* \"#utility.yul\":811:889   */\n      swap4\n      pop\n        /* \"#utility.yul\":898:963   */\n      tag_114\n        /* \"#utility.yul\":956:962   */\n      dup2\n        /* \"#utility.yul\":951:954   */\n      dup6\n        /* \"#utility.yul\":944:948   */\n      0x20\n        /* \"#utility.yul\":937:942   */\n      dup7\n        /* \"#utility.yul\":933:949   */\n      add\n        /* \"#utility.yul\":898:963   */\n      tag_82\n      jump\t// in\n    tag_114:\n        /* \"#utility.yul\":988:1017   */\n      tag_115\n        /* \"#utility.yul\":1010:1016   */\n      dup2\n        /* \"#utility.yul\":988:1017   */\n      tag_83\n      jump\t// in\n    tag_115:\n        /* \"#utility.yul\":983:986   */\n      dup5\n        /* \"#utility.yul\":979:1018   */\n      add\n        /* \"#utility.yul\":972:1018   */\n      swap2\n      pop\n        /* \"#utility.yul\":739:1024   */\n      pop\n        /* \"#utility.yul\":647:1024   */\n      swap3\n      swap2\n      pop\n      pop\n      jump\t// out\n        /* \"#utility.yul\":1030:1343   */\n    tag_17:\n        /* \"#utility.yul\":1143:1147   */\n      0x00\n        /* \"#utility.yul\":1181:1183   */\n      0x20\n        /* \"#utility.yul\":1170:1179   */\n      dup3\n        /* \"#utility.yul\":1166:1184   */\n      add\n        /* \"#utility.yul\":1158:1184   */\n      swap1\n      pop\n        /* \"#utility.yul\":1230:1239   */\n      dup2\n        /* \"#utility.yul\":1224:1228   */\n      dup2\n        /* \"#utility.yul\":1220:1240   */\n      sub\n        /* \"#utility.yul\":1216:1217   */\n      0x00\n        /* \"#utility.yul\":1205:1214   */\n      dup4\n        /* \"#utility.yul\":1201:1218   */\n      add\n        /* \"#utility.yul\":1194:1241   */\n      mstore\n        /* \"#utility.yul\":1258:1336   */\n      tag_117\n        /* \"#utility.yul\":1331:1335   */\n      dup2\n        /* \"#utility.yul\":1322:1328   */\n      dup5\n        /* \"#utility.yul\":1258:1336   */\n      tag_84\n      jump\t// in\n    tag_117:\n        /* \"#utility.yul\":1250:1336   */\n      swap1\n      pop\n        /* \"#utility.yul\":1030:1343   */\n      swap3\n      swap2\n      pop\n      pop\n      jump\t// out\n        /* \"#utility.yul\":1349:1426   */\n    tag_85:\n        /* \"#utility.yul\":1386:1393   */\n      0x00\n        /* \"#utility.yul\":1415:1420   */\n      dup2\n        /* \"#utility.yul\":1404:1420   */\n      swap1\n      pop\n        /* \"#utility.yul\":1349:1426   */\n      swap2\n      swap1\n      pop\n      jump\t// out\n        /* \"#utility.yul\":1432:1550   */\n    tag_86:\n        /* \"#utility.yul\":1519:1543   */\n      tag_120\n        /* \"#utility.yul\":1537:1542   */\n      dup2\n        /* \"#utility.yul\":1519:1543   */\n      tag_85\n      jump\t// in\n    tag_120:\n        /* \"#utility.yul\":1514:1517   */\n      dup3\n        /* \"#utility.yul\":1507:1544   */\n      mstore\n        /* \"#utility.yul\":1432:1550   */\n      pop\n      pop\n      jump\t// out\n        /* \"#utility.yul\":1556:1778   */\n    tag_21:\n        /* \"#utility.yul\":1649:1653   */\n      0x00\n        /* \"#utility.yul\":1687:1689   */\n      0x20\n        /* \"#utility.yul\":1676:1685   */\n      dup3\n        /* \"#utility.yul\":1672:1690   */\n      add\n        /* \"#utility.yul\":1664:1690   */\n      swap1\n      pop\n        /* \"#utility.yul\":1700:1771   */\n      tag_122\n        /* \"#utility.yul\":1768:1769   */\n      0x00\n        /* \"#utility.yul\":1757:1766   */\n      dup4\n        /* \"#utility.yul\":1753:1770   */\n      add\n        /* \"#utility.yul\":1744:1750   */\n      dup5\n        /* \"#utility.yul\":1700:1771   */\n      tag_86\n      jump\t// in\n    tag_122:\n        /* \"#utility.yul\":1556:1778   */\n      swap3\n      swap2\n      pop\n      pop\n      jump\t// out\n        /* \"#utility.yul\":1784:1870   */\n    tag_87:\n        /* \"#utility.yul\":1819:1826   */\n      0x00\n        /* \"#utility.yul\":1859:1863   */\n      0xff\n        /* \"#utility.yul\":1852:1857   */\n      dup3\n        /* \"#utility.yul\":1848:1864   */\n      and\n        /* \"#utility.yul\":1837:1864   */\n      swap1\n      pop\n        /* \"#utility.yul\":1784:1870   */\n      swap2\n      swap1\n      pop\n      jump\t// out\n        /* \"#utility.yul\":1876:1988   */\n    tag_88:\n        /* \"#utility.yul\":1959:1981   */\n      tag_125\n        /* \"#utility.yul\":1975:1980   */\n      dup2\n        /* \"#utility.yul\":1959:1981   */\n      tag_87\n      jump\t// in\n    tag_125:\n        /* \"#utility.yul\":1954:1957   */\n      dup3\n        /* \"#utility.yul\":1947:1982   */\n      mstore\n        /* \"#utility.yul\":1876:1988   */\n      pop\n      pop\n      jump\t// out\n        /* \"#utility.yul\":1994:2208   */\n    tag_25:\n        /* \"#utility.yul\":2083:2087   */\n      0x00\n        /* \"#utility.yul\":2121:2123   */\n      0x20\n        /* \"#utility.yul\":2110:2119   */\n      dup3\n        /* \"#utility.yul\":2106:2124   */\n      add\n        /* \"#utility.yul\":2098:2124   */\n      swap1\n      pop\n        /* \"#utility.yul\":2134:2201   */\n      tag_127\n        /* \"#utility.yul\":2198:2199   */\n      0x00\n        /* \"#utility.yul\":2187:2196   */\n      dup4\n        /* \"#utility.yul\":2183:2200   */\n      add\n        /* \"#utility.yul\":2174:2180   */\n      dup5\n        /* \"#utility.yul\":2134:2201   */\n      tag_88\n      jump\t// in\n    tag_127:\n        /* \"#utility.yul\":1994:2208   */\n      swap3\n      swap2\n      pop\n      pop\n      jump\t// out\n        /* \"#utility.yul\":2295:2412   */\n    tag_90:\n        /* \"#utility.yul\":2404:2405   */\n      0x00\n        /* \"#utility.yul\":2401:2402   */\n      dup1\n        /* \"#utility.yul\":2394:2406   */\n      revert\n        /* \"#utility.yul\":2541:2663   */\n    tag_92:\n        /* \"#utility.yul\":2614:2638   */\n      tag_132\n        /* \"#utility.yul\":2632:2637   */\n      dup2\n        /* \"#utility.yul\":2614:2638   */\n      tag_85\n      jump\t// in\n    tag_132:\n        /* \"#utility.yul\":2607:2612   */\n      dup2\n        /* \"#utility.yul\":2604:2639   */\n      eq\n        /* \"#utility.yul\":2594:2657   */\n      tag_133\n      jumpi\n        /* \"#utility.yul\":2653:2654   */\n      0x00\n        /* \"#utility.yul\":2650:2651   */\n      dup1\n        /* \"#utility.yul\":2643:2655   */\n      revert\n        /* \"#utility.yul\":2594:2657   */\n    tag_133:\n        /* \"#utility.yul\":2541:2663   */\n      pop\n      jump\t// out\n        /* \"#utility.yul\":2669:2808   */\n    tag_93:\n        /* \"#utility.yul\":2715:2720   */\n      0x00\n        /* \"#utility.yul\":2753:2759   */\n      dup2\n        /* \"#utility.yul\":2740:2760   */\n      calldataload\n        /* \"#utility.yul\":2731:2760   */\n      swap1\n      pop\n        /* \"#utility.yul\":2769:2802   */\n      tag_135\n        /* \"#utility.yul\":2796:2801   */\n      dup2\n        /* \"#utility.yul\":2769:2802   */\n      tag_92\n      jump\t// in\n    tag_135:\n        /* \"#utility.yul\":2669:2808   */\n      swap3\n      swap2\n      pop\n      pop\n      jump\t// out\n        /* \"#utility.yul\":2814:3143   */\n    tag_28:\n        /* \"#utility.yul\":2873:2879   */\n      0x00\n        /* \"#utility.yul\":2922:2924   */\n      0x20\n        /* \"#utility.yul\":2910:2919   */\n      dup3\n        /* \"#utility.yul\":2901:2908   */\n      dup5\n        /* \"#utility.yul\":2897:2920   */\n      sub\n        /* \"#utility.yul\":2893:2925   */\n      slt\n        /* \"#utility.yul\":2890:3009   */\n      iszero\n      tag_137\n      jumpi\n        /* \"#utility.yul\":2928:3007   */\n      tag_138\n      tag_90\n      jump\t// in\n    tag_138:\n        /* \"#utility.yul\":2890:3009   */\n    tag_137:\n        /* \"#utility.yul\":3048:3049   */\n      0x00\n        /* \"#utility.yul\":3073:3126   */\n      tag_139\n        /* \"#utility.yul\":3118:3125   */\n      dup5\n        /* \"#utility.yul\":3109:3115   */\n      dup3\n        /* \"#utility.yul\":3098:3107   */\n      dup6\n        /* \"#utility.yul\":3094:3116   */\n      add\n        /* \"#utility.yul\":3073:3126   */\n      tag_93\n      jump\t// in\n    tag_139:\n        /* \"#utility.yul\":3063:3126   */\n      swap2\n      pop\n        /* \"#utility.yul\":3019:3136   */\n      pop\n        /* \"#utility.yul\":2814:3143   */\n      swap3\n      swap2\n      pop\n      pop\n      jump\t// out\n        /* \"#utility.yul\":3149:3275   */\n    tag_94:\n        /* \"#utility.yul\":3186:3193   */\n      0x00\n        /* \"#utility.yul\":3226:3268   */\n      0xffffffffffffffffffffffffffffffffffffffff\n        /* \"#utility.yul\":3219:3224   */\n      dup3\n        /* \"#utility.yul\":3215:3269   */\n      and\n        /* \"#utility.yul\":3204:3269   */\n      swap1\n      pop\n        /* \"#utility.yul\":3149:3275   */\n      swap2\n      swap1\n      pop\n      jump\t// out\n        /* \"#utility.yul\":3281:3377   */\n    tag_95:\n        /* \"#utility.yul\":3318:3325   */\n      0x00\n        /* \"#utility.yul\":3347:3371   */\n      tag_142\n        /* \"#utility.yul\":3365:3370   */\n      dup3\n        /* \"#utility.yul\":3347:3371   */\n      tag_94\n      jump\t// in\n    tag_142:\n        /* \"#utility.yul\":3336:3371   */\n      swap1\n      pop\n        /* \"#utility.yul\":3281:3377   */\n      swap2\n      swap1\n      pop\n      jump\t// out\n        /* \"#utility.yul\":3383:3505   */\n    tag_96:\n        /* \"#utility.yul\":3456:3480   */\n      tag_144\n        /* \"#utility.yul\":3474:3479   */\n      dup2\n        /* \"#utility.yul\":3456:3480   */\n      tag_95\n      jump\t// in\n    tag_144:\n        /* \"#utility.yul\":3449:3454   */\n      dup2\n        /* \"#utility.yul\":3446:3481   */\n      eq\n        /* \"#utility.yul\":3436:3499   */\n      tag_145\n      jumpi\n        /* \"#utility.yul\":3495:3496   */\n      0x00\n        /* \"#utility.yul\":3492:3493   */\n      dup1\n        /* \"#utility.yul\":3485:3497   */\n      revert\n        /* \"#utility.yul\":3436:3499   */\n    tag_145:\n        /* \"#utility.yul\":3383:3505   */\n      pop\n      jump\t// out\n        /* \"#utility.yul\":3511:3650   */\n    tag_97:\n        /* \"#utility.yul\":3557:3562   */\n      0x00\n        /* \"#utility.yul\":3595:3601   */\n      dup2\n        /* \"#utility.yul\":3582:3602   */\n      calldataload\n        /* \"#utility.yul\":3573:3602   */\n      swap1\n      pop\n        /* \"#utility.yul\":3611:3644   */\n      tag_147\n        /* \"#utility.yul\":3638:3643   */\n      dup2\n        /* \"#utility.yul\":3611:3644   */\n      tag_96\n      jump\t// in\n    tag_147:\n        /* \"#utility.yul\":3511:3650   */\n      swap3\n      swap2\n      pop\n      pop\n      jump\t// out\n        /* \"#utility.yul\":3656:3985   */\n    tag_32:\n        /* \"#utility.yul\":3715:3721   */\n      0x00\n        /* \"#utility.yul\":3764:3766   */\n      0x20\n        /* \"#utility.yul\":3752:3761   */\n      dup3\n        /* \"#utility.yul\":3743:3750   */\n      dup5\n        /* \"#utility.yul\":3739:3762   */\n      sub\n        /* \"#utility.yul\":3735:3767   */\n      slt\n        /* \"#utility.yul\":3732:3851   */\n      iszero\n      tag_149\n      jumpi\n        /* \"#utility.yul\":3770:3849   */\n      tag_150\n      tag_90\n      jump\t// in\n    tag_150:\n        /* \"#utility.yul\":3732:3851   */\n    tag_149:\n        /* \"#utility.yul\":3890:3891   */\n      0x00\n        /* \"#utility.yul\":3915:3968   */\n      tag_151\n        /* \"#utility.yul\":3960:3967   */\n      dup5\n        /* \"#utility.yul\":3951:3957   */\n      dup3\n        /* \"#utility.yul\":3940:3949   */\n      dup6\n        /* \"#utility.yul\":3936:3958   */\n      add\n        /* \"#utility.yul\":3915:3968   */\n      tag_97\n      jump\t// in\n    tag_151:\n        /* \"#utility.yul\":3905:3968   */\n      swap2\n      pop\n        /* \"#utility.yul\":3861:3978   */\n      pop\n        /* \"#utility.yul\":3656:3985   */\n      swap3\n      swap2\n      pop\n      pop\n      jump\t// out\n        /* \"#utility.yul\":3991:4109   */\n    tag_98:\n        /* \"#utility.yul\":4078:4102   */\n      tag_153\n        /* \"#utility.yul\":4096:4101   */\n      dup2\n        /* \"#utility.yul\":4078:4102   */\n      tag_95\n      jump\t// in\n    tag_153:\n        /* \"#utility.yul\":4073:4076   */\n      dup3\n        /* \"#utility.yul\":4066:4103   */\n      mstore\n        /* \"#utility.yul\":3991:4109   */\n      pop\n      pop\n      jump\t// out\n        /* \"#utility.yul\":4115:4337   */\n    tag_38:\n        /* \"#utility.yul\":4208:4212   */\n      0x00\n        /* \"#utility.yul\":4246:4248   */\n      0x20\n        /* \"#utility.yul\":4235:4244   */\n      dup3\n        /* \"#utility.yul\":4231:4249   */\n      add\n        /* \"#utility.yul\":4223:4249   */\n      swap1\n      pop\n        /* \"#utility.yul\":4259:4330   */\n      tag_155\n        /* \"#utility.yul\":4327:4328   */\n      0x00\n        /* \"#utility.yul\":4316:4325   */\n      dup4\n        /* \"#utility.yul\":4312:4329   */\n      add\n        /* \"#utility.yul\":4303:4309   */\n      dup5\n        /* \"#utility.yul\":4259:4330   */\n      tag_98\n      jump\t// in\n    tag_155:\n        /* \"#utility.yul\":4115:4337   */\n      swap3\n      swap2\n      pop\n      pop\n      jump\t// out\n        /* \"#utility.yul\":4343:4817   */\n    tag_47:\n        /* \"#utility.yul\":4411:4417   */\n      0x00\n        /* \"#utility.yul\":4419:4425   */\n      dup1\n        /* \"#utility.yul\":4468:4470   */\n      0x40\n        /* \"#utility.yul\":4456:4465   */\n      dup4\n        /* \"#utility.yul\":4447:4454   */\n      dup6\n        /* \"#utility.yul\":4443:4466   */\n      sub\n        /* \"#utility.yul\":4439:4471   */\n      slt\n        /* \"#utility.yul\":4436:4555   */\n      iszero\n      tag_157\n      jumpi\n        /* \"#utility.yul\":4474:4553   */\n      tag_158\n      tag_90\n      jump\t// in\n    tag_158:\n        /* \"#utility.yul\":4436:4555   */\n    tag_157:\n        /* \"#utility.yul\":4594:4595   */\n      0x00\n        /* \"#utility.yul\":4619:4672   */\n      tag_159\n        /* \"#utility.yul\":4664:4671   */\n      dup6\n        /* \"#utility.yul\":4655:4661   */\n      dup3\n        /* \"#utility.yul\":4644:4653   */\n      dup7\n        /* \"#utility.yul\":4640:4662   */\n      add\n        /* \"#utility.yul\":4619:4672   */\n      tag_97\n      jump\t// in\n    tag_159:\n        /* \"#utility.yul\":4609:4672   */\n      swap3\n      pop\n        /* \"#utility.yul\":4565:4682   */\n      pop\n        /* \"#utility.yul\":4721:4723   */\n      0x20\n        /* \"#utility.yul\":4747:4800   */\n      tag_160\n        /* \"#utility.yul\":4792:4799   */\n      dup6\n        /* \"#utility.yul\":4783:4789   */\n      dup3\n        /* \"#utility.yul\":4772:4781   */\n      dup7\n        /* \"#utility.yul\":4768:4790   */\n      add\n        /* \"#utility.yul\":4747:4800   */\n      tag_93\n      jump\t// in\n    tag_160:\n        /* \"#utility.yul\":4737:4800   */\n      swap2\n      pop\n        /* \"#utility.yul\":4692:4810   */\n      pop\n        /* \"#utility.yul\":4343:4817   */\n      swap3\n      pop\n      swap3\n      swap1\n      pop\n      jump\t// out\n        /* \"#utility.yul\":4823:4913   */\n    tag_99:\n        /* \"#utility.yul\":4857:4864   */\n      0x00\n        /* \"#utility.yul\":4900:4905   */\n      dup2\n        /* \"#utility.yul\":4893:4906   */\n      iszero\n        /* \"#utility.yul\":4886:4907   */\n      iszero\n        /* \"#utility.yul\":4875:4907   */\n      swap1\n      pop\n        /* \"#utility.yul\":4823:4913   */\n      swap2\n      swap1\n      pop\n      jump\t// out\n        /* \"#utility.yul\":4919:5028   */\n    tag_100:\n        /* \"#utility.yul\":5000:5021   */\n      tag_163\n        /* \"#utility.yul\":5015:5020   */\n      dup2\n        /* \"#utility.yul\":5000:5021   */\n      tag_99\n      jump\t// in\n    tag_163:\n        /* \"#utility.yul\":4995:4998   */\n      dup3\n        /* \"#utility.yul\":4988:5022   */\n      mstore\n        /* \"#utility.yul\":4919:5028   */\n      pop\n      pop\n      jump\t// out\n        /* \"#utility.yul\":5034:5244   */\n    tag_50:\n        /* \"#utility.yul\":5121:5125   */\n      0x00\n        /* \"#utility.yul\":5159:5161   */\n      0x20\n        /* \"#utility.yul\":5148:5157   */\n      dup3\n        /* \"#utility.yul\":5144:5162   */\n      add\n        /* \"#utility.yul\":5136:5162   */\n      swap1\n      pop\n        /* \"#utility.yul\":5172:5237   */\n      tag_165\n        /* \"#utility.yul\":5234:5235   */\n      0x00\n        /* \"#utility.yul\":5223:5232   */\n      dup4\n        /* \"#utility.yul\":5219:5236   */\n      add\n        /* \"#utility.yul\":5210:5216   */\n      dup5\n        /* \"#utility.yul\":5172:5237   */\n      tag_100\n      jump\t// in\n    tag_165:\n        /* \"#utility.yul\":5034:5244   */\n      swap3\n      swap2\n      pop\n      pop\n      jump\t// out\n        /* \"#utility.yul\":5250:5430   */\n    tag_101:\n        /* \"#utility.yul\":5298:5375   */\n      0x4e487b7100000000000000000000000000000000000000000000000000000000\n        /* \"#utility.yul\":5295:5296   */\n      0x00\n        /* \"#utility.yul\":5288:5376   */\n      mstore\n        /* \"#utility.yul\":5395:5399   */\n      0x22\n        /* \"#utility.yul\":5392:5393   */\n      0x04\n        /* \"#utility.yul\":5385:5400   */\n      mstore\n        /* \"#utility.yul\":5419:5423   */\n      0x24\n        /* \"#utility.yul\":5416:5417   */\n      0x00\n        /* \"#utility.yul\":5409:5424   */\n      revert\n        /* \"#utility.yul\":5436:5756   */\n    tag_55:\n        /* \"#utility.yul\":5480:5486   */\n      0x00\n        /* \"#utility.yul\":5517:5518   */\n      0x02\n        /* \"#utility.yul\":5511:5515   */\n      dup3\n        /* \"#utility.yul\":5507:5519   */\n      div\n        /* \"#utility.yul\":5497:5519   */\n      swap1\n      pop\n        /* \"#utility.yul\":5564:5565   */\n      0x01\n        /* \"#utility.yul\":5558:5562   */\n      dup3\n        /* \"#utility.yul\":5554:5566   */\n      and\n        /* \"#utility.yul\":5585:5603   */\n      dup1\n        /* \"#utility.yul\":5575:5656   */\n      tag_168\n      jumpi\n        /* \"#utility.yul\":5641:5645   */\n      0x7f\n        /* \"#utility.yul\":5633:5639   */\n      dup3\n        /* \"#utility.yul\":5629:5646   */\n      and\n        /* \"#utility.yul\":5619:5646   */\n      swap2\n      pop\n        /* \"#utility.yul\":5575:5656   */\n    tag_168:\n        /* \"#utility.yul\":5703:5705   */\n      0x20\n        /* \"#utility.yul\":5695:5701   */\n      dup3\n        /* \"#utility.yul\":5692:5706   */\n      lt\n        /* \"#utility.yul\":5672:5690   */\n      dup2\n        /* \"#utility.yul\":5669:5707   */\n      sub\n        /* \"#utility.yul\":5666:5750   */\n      tag_169\n      jumpi\n        /* \"#utility.yul\":5722:5740   */\n      tag_170\n      tag_101\n      jump\t// in\n    tag_170:\n        /* \"#utility.yul\":5666:5750   */\n    tag_169:\n        /* \"#utility.yul\":5487:5756   */\n      pop\n        /* \"#utility.yul\":5436:5756   */\n      swap2\n      swap1\n      pop\n      jump\t// out\n        /* \"#utility.yul\":5762:5942   */\n    tag_102:\n        /* \"#utility.yul\":5810:5887   */\n      0x4e487b7100000000000000000000000000000000000000000000000000000000\n        /* \"#utility.yul\":5807:5808   */\n      0x00\n        /* \"#utility.yul\":5800:5888   */\n      mstore\n        /* \"#utility.yul\":5907:5911   */\n      0x11\n        /* \"#utility.yul\":5904:5905   */\n      0x04\n        /* \"#utility.yul\":5897:5912   */\n      mstore\n        /* \"#utility.yul\":5931:5935   */\n      0x24\n        /* \"#utility.yul\":5928:5929   */\n      0x00\n        /* \"#utility.yul\":5921:5936   */\n      revert\n        /* \"#utility.yul\":5948:6142   */\n    tag_62:\n        /* \"#utility.yul\":5988:5992   */\n      0x00\n        /* \"#utility.yul\":6008:6028   */\n      tag_173\n        /* \"#utility.yul\":6026:6027   */\n      dup3\n        /* \"#utility.yul\":6008:6028   */\n      tag_85\n      jump\t// in\n    tag_173:\n        /* \"#utility.yul\":6003:6028   */\n      swap2\n      pop\n        /* \"#utility.yul\":6042:6062   */\n      tag_174\n        /* \"#utility.yul\":6060:6061   */\n      dup4\n        /* \"#utility.yul\":6042:6062   */\n      tag_85\n      jump\t// in\n    tag_174:\n        /* \"#utility.yul\":6037:6062   */\n      swap3\n      pop\n        /* \"#utility.yul\":6086:6087   */\n      dup3\n        /* \"#utility.yul\":6083:6084   */\n      dup3\n        /* \"#utility.yul\":6079:6088   */\n      sub\n        /* \"#utility.yul\":6071:6088   */\n      swap1\n      pop\n        /* \"#utility.yul\":6110:6111   */\n      dup2\n        /* \"#utility.yul\":6104:6108   */\n      dup2\n        /* \"#utility.yul\":6101:6112   */\n      gt\n        /* \"#utility.yul\":6098:6135   */\n      iszero\n      tag_175\n      jumpi\n        /* \"#utility.yul\":6115:6133   */\n      tag_176\n      tag_102\n      jump\t// in\n    tag_176:\n        /* \"#utility.yul\":6098:6135   */\n    tag_175:\n        /* \"#utility.yul\":5948:6142   */\n      swap3\n      swap2\n      pop\n      pop\n      jump\t// out\n        /* \"#utility.yul\":6148:6339   */\n    tag_72:\n        /* \"#utility.yul\":6188:6191   */\n      0x00\n        /* \"#utility.yul\":6207:6227   */\n      tag_178\n        /* \"#utility.yul\":6225:6226   */\n      dup3\n        /* \"#utility.yul\":6207:6227   */\n      tag_85\n      jump\t// in\n    tag_178:\n        /* \"#utility.yul\":6202:6227   */\n      swap2\n      pop\n        /* \"#utility.yul\":6241:6261   */\n      tag_179\n        /* \"#utility.yul\":6259:6260   */\n      dup4\n        /* \"#utility.yul\":6241:6261   */\n      tag_85\n      jump\t// in\n    tag_179:\n        /* \"#utility.yul\":6236:6261   */\n      swap3\n      pop\n        /* \"#utility.yul\":6284:6285   */\n      dup3\n        /* \"#utility.yul\":6281:6282   */\n      dup3\n        /* \"#utility.yul\":6277:6286   */\n      add\n        /* \"#utility.yul\":6270:6286   */\n      swap1\n      pop\n        /* \"#utility.yul\":6305:6308   */\n      dup1\n        /* \"#utility.yul\":6302:6303   */\n      dup3\n        /* \"#utility.yul\":6299:6309   */\n      gt\n        /* \"#utility.yul\":6296:6332   */\n      iszero\n      tag_180\n      jumpi\n        /* \"#utility.yul\":6312:6330   */\n      tag_181\n      tag_102\n      jump\t// in\n    tag_181:\n        /* \"#utility.yul\":6296:6332   */\n    tag_180:\n        /* \"#utility.yul\":6148:6339   */\n      swap3\n      swap2\n      pop\n      pop\n      jump\t// out\n\n    auxdata: 0xa2646970667358221220494caf9489d5494a3c05b1f5bb883d1e9918c2169a9c26ad6f6ab80825c19fab64736f6c63430008120033\n}\n",
				"bytecode": {
					"linkReferences": {},
					"object": "60806040526040518060400160405280600481526020017f7465737400000000000000000000000000000000000000000000000000000000815250600090816200004a91906200051f565b506040518060400160405280600481526020017f5445535400000000000000000000000000000000000000000000000000000000815250600190816200009191906200051f565b506012600260006101000a81548160ff021916908360ff1602179055506064600655348015620000c057600080fd5b506040516200148a3803806200148a8339818101604052810190620000e691906200063c565b60008081620000f691906200069b565b50600180816200010791906200069b565b50600260009054906101000a900460ff16600260006101000a81548160ff021916908360ff160217905550600260009054906101000a900460ff16600a6200015091906200092c565b6006546200015f91906200097d565b816200016c9190620009c8565b60038190555080600460003373ffffffffffffffffffffffffffffffffffffffff1673ffffffffffffffffffffffffffffffffffffffff168152602001908152602001600020819055503373ffffffffffffffffffffffffffffffffffffffff16600073ffffffffffffffffffffffffffffffffffffffff167fddf252ad1be2c89b69c2b068fc378daa952ba7f163c4a11628f55a4df523b3ef600460003373ffffffffffffffffffffffffffffffffffffffff1673ffffffffffffffffffffffffffffffffffffffff1681526020019081526020016000205460405162000255919062000a14565b60405180910390a333600560006101000a81548173ffffffffffffffffffffffffffffffffffffffff021916908373ffffffffffffffffffffffffffffffffffffffff1602179055505062000a31565b600081519050919050565b7f4e487b7100000000000000000000000000000000000000000000000000000000600052604160045260246000fd5b7f4e487b7100000000000000000000000000000000000000000000000000000000600052602260045260246000fd5b600060028204905060018216806200032757607f821691505b6020821081036200033d576200033c620002df565b5b50919050565b60008190508160005260206000209050919050565b60006020601f8301049050919050565b600082821b905092915050565b600060088302620003a77fffffffffffffffffffffffffffffffffffffffffffffffffffffffffffffffff8262000368565b620003b3868362000368565b95508019841693508086168417925050509392505050565b6000819050919050565b6000819050919050565b600062000400620003fa620003f484620003cb565b620003d5565b620003cb565b9050919050565b6000819050919050565b6200041c83620003df565b620004346200042b8262000407565b84845462000375565b825550505050565b600090565b6200044b6200043c565b6200045881848462000411565b505050565b5b8181101562000480576200047460008262000441565b6001810190506200045e565b5050565b601f821115620004cf57620004998162000343565b620004a48462000358565b81016020851015620004b4578190505b620004cc620004c38562000358565b8301826200045d565b50505b505050565b600082821c905092915050565b6000620004f460001984600802620004d4565b1980831691505092915050565b60006200050f8383620004e1565b9150826002028217905092915050565b6200052a82620002a5565b67ffffffffffffffff811115620005465762000545620002b0565b5b6200055282546200030e565b6200055f82828562000484565b600060209050601f83116001811462000597576000841562000582578287015190505b6200058e858262000501565b865550620005fe565b601f198416620005a78662000343565b60005b82811015620005d157848901518255600182019150602085019450602081019050620005aa565b86831015620005f15784890151620005ed601f891682620004e1565b8355505b6001600288020188555050505b505050505050565b600080fd5b6200061681620003cb565b81146200062257600080fd5b50565b60008151905062000636816200060b565b92915050565b60006020828403121562000655576200065462000606565b5b6000620006658482850162000625565b91505092915050565b6000815490506200067f816200030e565b9050919050565b60008190508160005260206000209050919050565b818103620006ab5750506200079a565b620006b6826200066e565b67ffffffffffffffff811115620006d257620006d1620002b0565b5b620006de82546200030e565b620006eb82828562000484565b6000601f8311600181146200071f57600084156200070a578287015490505b62000716858262000501565b86555062000793565b601f1984166200072f8762000686565b96506200073c8662000343565b60005b8281101562000766578489015482556001820191506001850194506020810190506200073f565b8683101562000786578489015462000782601f891682620004e1565b8355505b6001600288020188555050505b5050505050505b565b7f4e487b7100000000000000000000000000000000000000000000000000000000600052601160045260246000fd5b60008160011c9050919050565b6000808291508390505b60018511156200082a578086048111156200080257620008016200079c565b5b6001851615620008125780820291505b80810290506200082285620007cb565b9450620007e2565b94509492505050565b60008262000845576001905062000918565b8162000855576000905062000918565b81600181146200086e57600281146200087957620008af565b600191505062000918565b60ff8411156200088e576200088d6200079c565b5b8360020a915084821115620008a857620008a76200079c565b5b5062000918565b5060208310610133831016604e8410600b8410161715620008e95782820a905083811115620008e357620008e26200079c565b5b62000918565b620008f88484846001620007d8565b925090508184048111156200091257620009116200079c565b5b81810290505b9392505050565b600060ff82169050919050565b60006200093982620003cb565b915062000946836200091f565b9250620009757fffffffffffffffffffffffffffffffffffffffffffffffffffffffffffffffff848462000833565b905092915050565b60006200098a82620003cb565b91506200099783620003cb565b9250828202620009a781620003cb565b91508282048414831517620009c157620009c06200079c565b5b5092915050565b6000620009d582620003cb565b9150620009e283620003cb565b9250828201905080821115620009fd57620009fc6200079c565b5b92915050565b62000a0e81620003cb565b82525050565b600060208201905062000a2b600083018462000a03565b92915050565b610a498062000a416000396000f3fe608060405234801561001057600080fd5b506004361061009e5760003560e01c80638da5cb5b116100665780638da5cb5b1461014957806395d89b4114610167578063a0712d6814610185578063a9059cbb146101a1578063ecbde5e6146101d15761009e565b806306fdde03146100a357806318160ddd146100c1578063313ce567146100df57806342966c68146100fd57806370a0823114610119575b600080fd5b6100ab6101ef565b6040516100b89190610706565b60405180910390f35b6100c961027d565b6040516100d69190610741565b60405180910390f35b6100e7610283565b6040516100f49190610778565b60405180910390f35b610117600480360381019061011291906107c4565b610296565b005b610133600480360381019061012e919061084f565b61036e565b6040516101409190610741565b60405180910390f35b610151610386565b60405161015e919061088b565b60405180910390f35b61016f6103ac565b60405161017c9190610706565b60405180910390f35b61019f600480360381019061019a91906107c4565b61043a565b005b6101bb60048036038101906101b691906108a6565b610512565b6040516101c89190610901565b60405180910390f35b6101d961062f565b6040516101e69190610741565b60405180910390f35b600080546101fc9061094b565b80601f01602080910402602001604051908101604052809291908181526020018280546102289061094b565b80156102755780601f1061024a57610100808354040283529160200191610275565b820191906000526020600020905b81548152906001019060200180831161025857829003601f168201915b505050505081565b60035481565b600260009054906101000a900460ff1681565b80600460003373ffffffffffffffffffffffffffffffffffffffff1673ffffffffffffffffffffffffffffffffffffffff16815260200190815260200160002060008282546102e591906109ab565b9250508190555080600360008282546102fe91906109ab565b92505081905550600073ffffffffffffffffffffffffffffffffffffffff163373ffffffffffffffffffffffffffffffffffffffff167fddf252ad1be2c89b69c2b068fc378daa952ba7f163c4a11628f55a4df523b3ef836040516103639190610741565b60405180910390a350565b60046020528060005260406000206000915090505481565b600560009054906101000a900473ffffffffffffffffffffffffffffffffffffffff1681565b600180546103b99061094b565b80601f01602080910402602001604051908101604052809291908181526020018280546103e59061094b565b80156104325780601f1061040757610100808354040283529160200191610432565b820191906000526020600020905b81548152906001019060200180831161041557829003601f168201915b505050505081565b80600460003373ffffffffffffffffffffffffffffffffffffffff1673ffffffffffffffffffffffffffffffffffffffff168152602001908152602001600020600082825461048991906109df565b9250508190555080600360008282546104a291906109df565b925050819055503373ffffffffffffffffffffffffffffffffffffffff16600073ffffffffffffffffffffffffffffffffffffffff167fddf252ad1be2c89b69c2b068fc378daa952ba7f163c4a11628f55a4df523b3ef836040516105079190610741565b60405180910390a350565b600081600460003373ffffffffffffffffffffffffffffffffffffffff1673ffffffffffffffffffffffffffffffffffffffff168152602001908152602001600020600082825461056391906109ab565b9250508190555081600460008573ffffffffffffffffffffffffffffffffffffffff1673ffffffffffffffffffffffffffffffffffffffff16815260200190815260200160002060008282546105b991906109df565b925050819055508273ffffffffffffffffffffffffffffffffffffffff163373ffffffffffffffffffffffffffffffffffffffff167fddf252ad1be2c89b69c2b068fc378daa952ba7f163c4a11628f55a4df523b3ef8460405161061d9190610741565b60405180910390a36001905092915050565b6000600460003373ffffffffffffffffffffffffffffffffffffffff1673ffffffffffffffffffffffffffffffffffffffff16815260200190815260200160002054905090565b600081519050919050565b600082825260208201905092915050565b60005b838110156106b0578082015181840152602081019050610695565b60008484015250505050565b6000601f19601f8301169050919050565b60006106d882610676565b6106e28185610681565b93506106f2818560208601610692565b6106fb816106bc565b840191505092915050565b6000602082019050818103600083015261072081846106cd565b905092915050565b6000819050919050565b61073b81610728565b82525050565b60006020820190506107566000830184610732565b92915050565b600060ff82169050919050565b6107728161075c565b82525050565b600060208201905061078d6000830184610769565b92915050565b600080fd5b6107a181610728565b81146107ac57600080fd5b50565b6000813590506107be81610798565b92915050565b6000602082840312156107da576107d9610793565b5b60006107e8848285016107af565b91505092915050565b600073ffffffffffffffffffffffffffffffffffffffff82169050919050565b600061081c826107f1565b9050919050565b61082c81610811565b811461083757600080fd5b50565b60008135905061084981610823565b92915050565b60006020828403121561086557610864610793565b5b60006108738482850161083a565b91505092915050565b61088581610811565b82525050565b60006020820190506108a0600083018461087c565b92915050565b600080604083850312156108bd576108bc610793565b5b60006108cb8582860161083a565b92505060206108dc858286016107af565b9150509250929050565b60008115159050919050565b6108fb816108e6565b82525050565b600060208201905061091660008301846108f2565b92915050565b7f4e487b7100000000000000000000000000000000000000000000000000000000600052602260045260246000fd5b6000600282049050600182168061096357607f821691505b6020821081036109765761097561091c565b5b50919050565b7f4e487b7100000000000000000000000000000000000000000000000000000000600052601160045260246000fd5b60006109b682610728565b91506109c183610728565b92508282039050818111156109d9576109d861097c565b5b92915050565b60006109ea82610728565b91506109f583610728565b9250828201905080821115610a0d57610a0c61097c565b5b9291505056fea2646970667358221220494caf9489d5494a3c05b1f5bb883d1e9918c2169a9c26ad6f6ab80825c19fab64736f6c63430008120033",
					"opcodes": "PUSH1 0x80 PUSH1 0x40 MSTORE PUSH1 0x40 MLOAD DUP1 PUSH1 0x40 ADD PUSH1 0x40 MSTORE DUP1 PUSH1 0x4 DUP2 MSTORE PUSH1 0x20 ADD PUSH32 0x7465737400000000000000000000000000000000000000000000000000000000 DUP2 MSTORE POP PUSH1 0x0 SWAP1 DUP2 PUSH3 0x4A SWAP2 SWAP1 PUSH3 0x51F JUMP JUMPDEST POP PUSH1 0x40 MLOAD DUP1 PUSH1 0x40 ADD PUSH1 0x40 MSTORE DUP1 PUSH1 0x4 DUP2 MSTORE PUSH1 0x20 ADD PUSH32 0x5445535400000000000000000000000000000000000000000000000000000000 DUP2 MSTORE POP PUSH1 0x1 SWAP1 DUP2 PUSH3 0x91 SWAP2 SWAP1 PUSH3 0x51F JUMP JUMPDEST POP PUSH1 0x12 PUSH1 0x2 PUSH1 0x0 PUSH2 0x100 EXP DUP2 SLOAD DUP2 PUSH1 0xFF MUL NOT AND SWAP1 DUP4 PUSH1 0xFF AND MUL OR SWAP1 SSTORE POP PUSH1 0x64 PUSH1 0x6 SSTORE CALLVALUE DUP1 ISZERO PUSH3 0xC0 JUMPI PUSH1 0x0 DUP1 REVERT JUMPDEST POP PUSH1 0x40 MLOAD PUSH3 0x148A CODESIZE SUB DUP1 PUSH3 0x148A DUP4 CODECOPY DUP2 DUP2 ADD PUSH1 0x40 MSTORE DUP2 ADD SWAP1 PUSH3 0xE6 SWAP2 SWAP1 PUSH3 0x63C JUMP JUMPDEST PUSH1 0x0 DUP1 DUP2 PUSH3 0xF6 SWAP2 SWAP1 PUSH3 0x69B JUMP JUMPDEST POP PUSH1 0x1 DUP1 DUP2 PUSH3 0x107 SWAP2 SWAP1 PUSH3 0x69B JUMP JUMPDEST POP PUSH1 0x2 PUSH1 0x0 SWAP1 SLOAD SWAP1 PUSH2 0x100 EXP SWAP1 DIV PUSH1 0xFF AND PUSH1 0x2 PUSH1 0x0 PUSH2 0x100 EXP DUP2 SLOAD DUP2 PUSH1 0xFF MUL NOT AND SWAP1 DUP4 PUSH1 0xFF AND MUL OR SWAP1 SSTORE POP PUSH1 0x2 PUSH1 0x0 SWAP1 SLOAD SWAP1 PUSH2 0x100 EXP SWAP1 DIV PUSH1 0xFF AND PUSH1 0xA PUSH3 0x150 SWAP2 SWAP1 PUSH3 0x92C JUMP JUMPDEST PUSH1 0x6 SLOAD PUSH3 0x15F SWAP2 SWAP1 PUSH3 0x97D JUMP JUMPDEST DUP2 PUSH3 0x16C SWAP2 SWAP1 PUSH3 0x9C8 JUMP JUMPDEST PUSH1 0x3 DUP2 SWAP1 SSTORE POP DUP1 PUSH1 0x4 PUSH1 0x0 CALLER PUSH20 0xFFFFFFFFFFFFFFFFFFFFFFFFFFFFFFFFFFFFFFFF AND PUSH20 0xFFFFFFFFFFFFFFFFFFFFFFFFFFFFFFFFFFFFFFFF AND DUP2 MSTORE PUSH1 0x20 ADD SWAP1 DUP2 MSTORE PUSH1 0x20 ADD PUSH1 0x0 KECCAK256 DUP2 SWAP1 SSTORE POP CALLER PUSH20 0xFFFFFFFFFFFFFFFFFFFFFFFFFFFFFFFFFFFFFFFF AND PUSH1 0x0 PUSH20 0xFFFFFFFFFFFFFFFFFFFFFFFFFFFFFFFFFFFFFFFF AND PUSH32 0xDDF252AD1BE2C89B69C2B068FC378DAA952BA7F163C4A11628F55A4DF523B3EF PUSH1 0x4 PUSH1 0x0 CALLER PUSH20 0xFFFFFFFFFFFFFFFFFFFFFFFFFFFFFFFFFFFFFFFF AND PUSH20 0xFFFFFFFFFFFFFFFFFFFFFFFFFFFFFFFFFFFFFFFF AND DUP2 MSTORE PUSH1 0x20 ADD SWAP1 DUP2 MSTORE PUSH1 0x20 ADD PUSH1 0x0 KECCAK256 SLOAD PUSH1 0x40 MLOAD PUSH3 0x255 SWAP2 SWAP1 PUSH3 0xA14 JUMP JUMPDEST PUSH1 0x40 MLOAD DUP1 SWAP2 SUB SWAP1 LOG3 CALLER PUSH1 0x5 PUSH1 0x0 PUSH2 0x100 EXP DUP2 SLOAD DUP2 PUSH20 0xFFFFFFFFFFFFFFFFFFFFFFFFFFFFFFFFFFFFFFFF MUL NOT AND SWAP1 DUP4 PUSH20 0xFFFFFFFFFFFFFFFFFFFFFFFFFFFFFFFFFFFFFFFF AND MUL OR SWAP1 SSTORE POP POP PUSH3 0xA31 JUMP JUMPDEST PUSH1 0x0 DUP2 MLOAD SWAP1 POP SWAP2 SWAP1 POP JUMP JUMPDEST PUSH32 0x4E487B7100000000000000000000000000000000000000000000000000000000 PUSH1 0x0 MSTORE PUSH1 0x41 PUSH1 0x4 MSTORE PUSH1 0x24 PUSH1 0x0 REVERT JUMPDEST PUSH32 0x4E487B7100000000000000000000000000000000000000000000000000000000 PUSH1 0x0 MSTORE PUSH1 0x22 PUSH1 0x4 MSTORE PUSH1 0x24 PUSH1 0x0 REVERT JUMPDEST PUSH1 0x0 PUSH1 0x2 DUP3 DIV SWAP1 POP PUSH1 0x1 DUP3 AND DUP1 PUSH3 0x327 JUMPI PUSH1 0x7F DUP3 AND SWAP2 POP JUMPDEST PUSH1 0x20 DUP3 LT DUP2 SUB PUSH3 0x33D JUMPI PUSH3 0x33C PUSH3 0x2DF JUMP JUMPDEST JUMPDEST POP SWAP2 SWAP1 POP JUMP JUMPDEST PUSH1 0x0 DUP2 SWAP1 POP DUP2 PUSH1 0x0 MSTORE PUSH1 0x20 PUSH1 0x0 KECCAK256 SWAP1 POP SWAP2 SWAP1 POP JUMP JUMPDEST PUSH1 0x0 PUSH1 0x20 PUSH1 0x1F DUP4 ADD DIV SWAP1 POP SWAP2 SWAP1 POP JUMP JUMPDEST PUSH1 0x0 DUP3 DUP3 SHL SWAP1 POP SWAP3 SWAP2 POP POP JUMP JUMPDEST PUSH1 0x0 PUSH1 0x8 DUP4 MUL PUSH3 0x3A7 PUSH32 0xFFFFFFFFFFFFFFFFFFFFFFFFFFFFFFFFFFFFFFFFFFFFFFFFFFFFFFFFFFFFFFFF DUP3 PUSH3 0x368 JUMP JUMPDEST PUSH3 0x3B3 DUP7 DUP4 PUSH3 0x368 JUMP JUMPDEST SWAP6 POP DUP1 NOT DUP5 AND SWAP4 POP DUP1 DUP7 AND DUP5 OR SWAP3 POP POP POP SWAP4 SWAP3 POP POP POP JUMP JUMPDEST PUSH1 0x0 DUP2 SWAP1 POP SWAP2 SWAP1 POP JUMP JUMPDEST PUSH1 0x0 DUP2 SWAP1 POP SWAP2 SWAP1 POP JUMP JUMPDEST PUSH1 0x0 PUSH3 0x400 PUSH3 0x3FA PUSH3 0x3F4 DUP5 PUSH3 0x3CB JUMP JUMPDEST PUSH3 0x3D5 JUMP JUMPDEST PUSH3 0x3CB JUMP JUMPDEST SWAP1 POP SWAP2 SWAP1 POP JUMP JUMPDEST PUSH1 0x0 DUP2 SWAP1 POP SWAP2 SWAP1 POP JUMP JUMPDEST PUSH3 0x41C DUP4 PUSH3 0x3DF JUMP JUMPDEST PUSH3 0x434 PUSH3 0x42B DUP3 PUSH3 0x407 JUMP JUMPDEST DUP5 DUP5 SLOAD PUSH3 0x375 JUMP JUMPDEST DUP3 SSTORE POP POP POP POP JUMP JUMPDEST PUSH1 0x0 SWAP1 JUMP JUMPDEST PUSH3 0x44B PUSH3 0x43C JUMP JUMPDEST PUSH3 0x458 DUP2 DUP5 DUP5 PUSH3 0x411 JUMP JUMPDEST POP POP POP JUMP JUMPDEST JUMPDEST DUP2 DUP2 LT ISZERO PUSH3 0x480 JUMPI PUSH3 0x474 PUSH1 0x0 DUP3 PUSH3 0x441 JUMP JUMPDEST PUSH1 0x1 DUP2 ADD SWAP1 POP PUSH3 0x45E JUMP JUMPDEST POP POP JUMP JUMPDEST PUSH1 0x1F DUP3 GT ISZERO PUSH3 0x4CF JUMPI PUSH3 0x499 DUP2 PUSH3 0x343 JUMP JUMPDEST PUSH3 0x4A4 DUP5 PUSH3 0x358 JUMP JUMPDEST DUP2 ADD PUSH1 0x20 DUP6 LT ISZERO PUSH3 0x4B4 JUMPI DUP2 SWAP1 POP JUMPDEST PUSH3 0x4CC PUSH3 0x4C3 DUP6 PUSH3 0x358 JUMP JUMPDEST DUP4 ADD DUP3 PUSH3 0x45D JUMP JUMPDEST POP POP JUMPDEST POP POP POP JUMP JUMPDEST PUSH1 0x0 DUP3 DUP3 SHR SWAP1 POP SWAP3 SWAP2 POP POP JUMP JUMPDEST PUSH1 0x0 PUSH3 0x4F4 PUSH1 0x0 NOT DUP5 PUSH1 0x8 MUL PUSH3 0x4D4 JUMP JUMPDEST NOT DUP1 DUP4 AND SWAP2 POP POP SWAP3 SWAP2 POP POP JUMP JUMPDEST PUSH1 0x0 PUSH3 0x50F DUP4 DUP4 PUSH3 0x4E1 JUMP JUMPDEST SWAP2 POP DUP3 PUSH1 0x2 MUL DUP3 OR SWAP1 POP SWAP3 SWAP2 POP POP JUMP JUMPDEST PUSH3 0x52A DUP3 PUSH3 0x2A5 JUMP JUMPDEST PUSH8 0xFFFFFFFFFFFFFFFF DUP2 GT ISZERO PUSH3 0x546 JUMPI PUSH3 0x545 PUSH3 0x2B0 JUMP JUMPDEST JUMPDEST PUSH3 0x552 DUP3 SLOAD PUSH3 0x30E JUMP JUMPDEST PUSH3 0x55F DUP3 DUP3 DUP6 PUSH3 0x484 JUMP JUMPDEST PUSH1 0x0 PUSH1 0x20 SWAP1 POP PUSH1 0x1F DUP4 GT PUSH1 0x1 DUP2 EQ PUSH3 0x597 JUMPI PUSH1 0x0 DUP5 ISZERO PUSH3 0x582 JUMPI DUP3 DUP8 ADD MLOAD SWAP1 POP JUMPDEST PUSH3 0x58E DUP6 DUP3 PUSH3 0x501 JUMP JUMPDEST DUP7 SSTORE POP PUSH3 0x5FE JUMP JUMPDEST PUSH1 0x1F NOT DUP5 AND PUSH3 0x5A7 DUP7 PUSH3 0x343 JUMP JUMPDEST PUSH1 0x0 JUMPDEST DUP3 DUP2 LT ISZERO PUSH3 0x5D1 JUMPI DUP5 DUP10 ADD MLOAD DUP3 SSTORE PUSH1 0x1 DUP3 ADD SWAP2 POP PUSH1 0x20 DUP6 ADD SWAP5 POP PUSH1 0x20 DUP2 ADD SWAP1 POP PUSH3 0x5AA JUMP JUMPDEST DUP7 DUP4 LT ISZERO PUSH3 0x5F1 JUMPI DUP5 DUP10 ADD MLOAD PUSH3 0x5ED PUSH1 0x1F DUP10 AND DUP3 PUSH3 0x4E1 JUMP JUMPDEST DUP4 SSTORE POP JUMPDEST PUSH1 0x1 PUSH1 0x2 DUP9 MUL ADD DUP9 SSTORE POP POP POP JUMPDEST POP POP POP POP POP POP JUMP JUMPDEST PUSH1 0x0 DUP1 REVERT JUMPDEST PUSH3 0x616 DUP2 PUSH3 0x3CB JUMP JUMPDEST DUP2 EQ PUSH3 0x622 JUMPI PUSH1 0x0 DUP1 REVERT JUMPDEST POP JUMP JUMPDEST PUSH1 0x0 DUP2 MLOAD SWAP1 POP PUSH3 0x636 DUP2 PUSH3 0x60B JUMP JUMPDEST SWAP3 SWAP2 POP POP JUMP JUMPDEST PUSH1 0x0 PUSH1 0x20 DUP3 DUP5 SUB SLT ISZERO PUSH3 0x655 JUMPI PUSH3 0x654 PUSH3 0x606 JUMP JUMPDEST JUMPDEST PUSH1 0x0 PUSH3 0x665 DUP5 DUP3 DUP6 ADD PUSH3 0x625 JUMP JUMPDEST SWAP2 POP POP SWAP3 SWAP2 POP POP JUMP JUMPDEST PUSH1 0x0 DUP2 SLOAD SWAP1 POP PUSH3 0x67F DUP2 PUSH3 0x30E JUMP JUMPDEST SWAP1 POP SWAP2 SWAP1 POP JUMP JUMPDEST PUSH1 0x0 DUP2 SWAP1 POP DUP2 PUSH1 0x0 MSTORE PUSH1 0x20 PUSH1 0x0 KECCAK256 SWAP1 POP SWAP2 SWAP1 POP JUMP JUMPDEST DUP2 DUP2 SUB PUSH3 0x6AB JUMPI POP POP PUSH3 0x79A JUMP JUMPDEST PUSH3 0x6B6 DUP3 PUSH3 0x66E JUMP JUMPDEST PUSH8 0xFFFFFFFFFFFFFFFF DUP2 GT ISZERO PUSH3 0x6D2 JUMPI PUSH3 0x6D1 PUSH3 0x2B0 JUMP JUMPDEST JUMPDEST PUSH3 0x6DE DUP3 SLOAD PUSH3 0x30E JUMP JUMPDEST PUSH3 0x6EB DUP3 DUP3 DUP6 PUSH3 0x484 JUMP JUMPDEST PUSH1 0x0 PUSH1 0x1F DUP4 GT PUSH1 0x1 DUP2 EQ PUSH3 0x71F JUMPI PUSH1 0x0 DUP5 ISZERO PUSH3 0x70A JUMPI DUP3 DUP8 ADD SLOAD SWAP1 POP JUMPDEST PUSH3 0x716 DUP6 DUP3 PUSH3 0x501 JUMP JUMPDEST DUP7 SSTORE POP PUSH3 0x793 JUMP JUMPDEST PUSH1 0x1F NOT DUP5 AND PUSH3 0x72F DUP8 PUSH3 0x686 JUMP JUMPDEST SWAP7 POP PUSH3 0x73C DUP7 PUSH3 0x343 JUMP JUMPDEST PUSH1 0x0 JUMPDEST DUP3 DUP2 LT ISZERO PUSH3 0x766 JUMPI DUP5 DUP10 ADD SLOAD DUP3 SSTORE PUSH1 0x1 DUP3 ADD SWAP2 POP PUSH1 0x1 DUP6 ADD SWAP5 POP PUSH1 0x20 DUP2 ADD SWAP1 POP PUSH3 0x73F JUMP JUMPDEST DUP7 DUP4 LT ISZERO PUSH3 0x786 JUMPI DUP5 DUP10 ADD SLOAD PUSH3 0x782 PUSH1 0x1F DUP10 AND DUP3 PUSH3 0x4E1 JUMP JUMPDEST DUP4 SSTORE POP JUMPDEST PUSH1 0x1 PUSH1 0x2 DUP9 MUL ADD DUP9 SSTORE POP POP POP JUMPDEST POP POP POP POP POP POP JUMPDEST JUMP JUMPDEST PUSH32 0x4E487B7100000000000000000000000000000000000000000000000000000000 PUSH1 0x0 MSTORE PUSH1 0x11 PUSH1 0x4 MSTORE PUSH1 0x24 PUSH1 0x0 REVERT JUMPDEST PUSH1 0x0 DUP2 PUSH1 0x1 SHR SWAP1 POP SWAP2 SWAP1 POP JUMP JUMPDEST PUSH1 0x0 DUP1 DUP3 SWAP2 POP DUP4 SWAP1 POP JUMPDEST PUSH1 0x1 DUP6 GT ISZERO PUSH3 0x82A JUMPI DUP1 DUP7 DIV DUP2 GT ISZERO PUSH3 0x802 JUMPI PUSH3 0x801 PUSH3 0x79C JUMP JUMPDEST JUMPDEST PUSH1 0x1 DUP6 AND ISZERO PUSH3 0x812 JUMPI DUP1 DUP3 MUL SWAP2 POP JUMPDEST DUP1 DUP2 MUL SWAP1 POP PUSH3 0x822 DUP6 PUSH3 0x7CB JUMP JUMPDEST SWAP5 POP PUSH3 0x7E2 JUMP JUMPDEST SWAP5 POP SWAP5 SWAP3 POP POP POP JUMP JUMPDEST PUSH1 0x0 DUP3 PUSH3 0x845 JUMPI PUSH1 0x1 SWAP1 POP PUSH3 0x918 JUMP JUMPDEST DUP2 PUSH3 0x855 JUMPI PUSH1 0x0 SWAP1 POP PUSH3 0x918 JUMP JUMPDEST DUP2 PUSH1 0x1 DUP2 EQ PUSH3 0x86E JUMPI PUSH1 0x2 DUP2 EQ PUSH3 0x879 JUMPI PUSH3 0x8AF JUMP JUMPDEST PUSH1 0x1 SWAP2 POP POP PUSH3 0x918 JUMP JUMPDEST PUSH1 0xFF DUP5 GT ISZERO PUSH3 0x88E JUMPI PUSH3 0x88D PUSH3 0x79C JUMP JUMPDEST JUMPDEST DUP4 PUSH1 0x2 EXP SWAP2 POP DUP5 DUP3 GT ISZERO PUSH3 0x8A8 JUMPI PUSH3 0x8A7 PUSH3 0x79C JUMP JUMPDEST JUMPDEST POP PUSH3 0x918 JUMP JUMPDEST POP PUSH1 0x20 DUP4 LT PUSH2 0x133 DUP4 LT AND PUSH1 0x4E DUP5 LT PUSH1 0xB DUP5 LT AND OR ISZERO PUSH3 0x8E9 JUMPI DUP3 DUP3 EXP SWAP1 POP DUP4 DUP2 GT ISZERO PUSH3 0x8E3 JUMPI PUSH3 0x8E2 PUSH3 0x79C JUMP JUMPDEST JUMPDEST PUSH3 0x918 JUMP JUMPDEST PUSH3 0x8F8 DUP5 DUP5 DUP5 PUSH1 0x1 PUSH3 0x7D8 JUMP JUMPDEST SWAP3 POP SWAP1 POP DUP2 DUP5 DIV DUP2 GT ISZERO PUSH3 0x912 JUMPI PUSH3 0x911 PUSH3 0x79C JUMP JUMPDEST JUMPDEST DUP2 DUP2 MUL SWAP1 POP JUMPDEST SWAP4 SWAP3 POP POP POP JUMP JUMPDEST PUSH1 0x0 PUSH1 0xFF DUP3 AND SWAP1 POP SWAP2 SWAP1 POP JUMP JUMPDEST PUSH1 0x0 PUSH3 0x939 DUP3 PUSH3 0x3CB JUMP JUMPDEST SWAP2 POP PUSH3 0x946 DUP4 PUSH3 0x91F JUMP JUMPDEST SWAP3 POP PUSH3 0x975 PUSH32 0xFFFFFFFFFFFFFFFFFFFFFFFFFFFFFFFFFFFFFFFFFFFFFFFFFFFFFFFFFFFFFFFF DUP5 DUP5 PUSH3 0x833 JUMP JUMPDEST SWAP1 POP SWAP3 SWAP2 POP POP JUMP JUMPDEST PUSH1 0x0 PUSH3 0x98A DUP3 PUSH3 0x3CB JUMP JUMPDEST SWAP2 POP PUSH3 0x997 DUP4 PUSH3 0x3CB JUMP JUMPDEST SWAP3 POP DUP3 DUP3 MUL PUSH3 0x9A7 DUP2 PUSH3 0x3CB JUMP JUMPDEST SWAP2 POP DUP3 DUP3 DIV DUP5 EQ DUP4 ISZERO OR PUSH3 0x9C1 JUMPI PUSH3 0x9C0 PUSH3 0x79C JUMP JUMPDEST JUMPDEST POP SWAP3 SWAP2 POP POP JUMP JUMPDEST PUSH1 0x0 PUSH3 0x9D5 DUP3 PUSH3 0x3CB JUMP JUMPDEST SWAP2 POP PUSH3 0x9E2 DUP4 PUSH3 0x3CB JUMP JUMPDEST SWAP3 POP DUP3 DUP3 ADD SWAP1 POP DUP1 DUP3 GT ISZERO PUSH3 0x9FD JUMPI PUSH3 0x9FC PUSH3 0x79C JUMP JUMPDEST JUMPDEST SWAP3 SWAP2 POP POP JUMP JUMPDEST PUSH3 0xA0E DUP2 PUSH3 0x3CB JUMP JUMPDEST DUP3 MSTORE POP POP JUMP JUMPDEST PUSH1 0x0 PUSH1 0x20 DUP3 ADD SWAP1 POP PUSH3 0xA2B PUSH1 0x0 DUP4 ADD DUP5 PUSH3 0xA03 JUMP JUMPDEST SWAP3 SWAP2 POP POP JUMP JUMPDEST PUSH2 0xA49 DUP1 PUSH3 0xA41 PUSH1 0x0 CODECOPY PUSH1 0x0 RETURN INVALID PUSH1 0x80 PUSH1 0x40 MSTORE CALLVALUE DUP1 ISZERO PUSH2 0x10 JUMPI PUSH1 0x0 DUP1 REVERT JUMPDEST POP PUSH1 0x4 CALLDATASIZE LT PUSH2 0x9E JUMPI PUSH1 0x0 CALLDATALOAD PUSH1 0xE0 SHR DUP1 PUSH4 0x8DA5CB5B GT PUSH2 0x66 JUMPI DUP1 PUSH4 0x8DA5CB5B EQ PUSH2 0x149 JUMPI DUP1 PUSH4 0x95D89B41 EQ PUSH2 0x167 JUMPI DUP1 PUSH4 0xA0712D68 EQ PUSH2 0x185 JUMPI DUP1 PUSH4 0xA9059CBB EQ PUSH2 0x1A1 JUMPI DUP1 PUSH4 0xECBDE5E6 EQ PUSH2 0x1D1 JUMPI PUSH2 0x9E JUMP JUMPDEST DUP1 PUSH4 0x6FDDE03 EQ PUSH2 0xA3 JUMPI DUP1 PUSH4 0x18160DDD EQ PUSH2 0xC1 JUMPI DUP1 PUSH4 0x313CE567 EQ PUSH2 0xDF JUMPI DUP1 PUSH4 0x42966C68 EQ PUSH2 0xFD JUMPI DUP1 PUSH4 0x70A08231 EQ PUSH2 0x119 JUMPI JUMPDEST PUSH1 0x0 DUP1 REVERT JUMPDEST PUSH2 0xAB PUSH2 0x1EF JUMP JUMPDEST PUSH1 0x40 MLOAD PUSH2 0xB8 SWAP2 SWAP1 PUSH2 0x706 JUMP JUMPDEST PUSH1 0x40 MLOAD DUP1 SWAP2 SUB SWAP1 RETURN JUMPDEST PUSH2 0xC9 PUSH2 0x27D JUMP JUMPDEST PUSH1 0x40 MLOAD PUSH2 0xD6 SWAP2 SWAP1 PUSH2 0x741 JUMP JUMPDEST PUSH1 0x40 MLOAD DUP1 SWAP2 SUB SWAP1 RETURN JUMPDEST PUSH2 0xE7 PUSH2 0x283 JUMP JUMPDEST PUSH1 0x40 MLOAD PUSH2 0xF4 SWAP2 SWAP1 PUSH2 0x778 JUMP JUMPDEST PUSH1 0x40 MLOAD DUP1 SWAP2 SUB SWAP1 RETURN JUMPDEST PUSH2 0x117 PUSH1 0x4 DUP1 CALLDATASIZE SUB DUP2 ADD SWAP1 PUSH2 0x112 SWAP2 SWAP1 PUSH2 0x7C4 JUMP JUMPDEST PUSH2 0x296 JUMP JUMPDEST STOP JUMPDEST PUSH2 0x133 PUSH1 0x4 DUP1 CALLDATASIZE SUB DUP2 ADD SWAP1 PUSH2 0x12E SWAP2 SWAP1 PUSH2 0x84F JUMP JUMPDEST PUSH2 0x36E JUMP JUMPDEST PUSH1 0x40 MLOAD PUSH2 0x140 SWAP2 SWAP1 PUSH2 0x741 JUMP JUMPDEST PUSH1 0x40 MLOAD DUP1 SWAP2 SUB SWAP1 RETURN JUMPDEST PUSH2 0x151 PUSH2 0x386 JUMP JUMPDEST PUSH1 0x40 MLOAD PUSH2 0x15E SWAP2 SWAP1 PUSH2 0x88B JUMP JUMPDEST PUSH1 0x40 MLOAD DUP1 SWAP2 SUB SWAP1 RETURN JUMPDEST PUSH2 0x16F PUSH2 0x3AC JUMP JUMPDEST PUSH1 0x40 MLOAD PUSH2 0x17C SWAP2 SWAP1 PUSH2 0x706 JUMP JUMPDEST PUSH1 0x40 MLOAD DUP1 SWAP2 SUB SWAP1 RETURN JUMPDEST PUSH2 0x19F PUSH1 0x4 DUP1 CALLDATASIZE SUB DUP2 ADD SWAP1 PUSH2 0x19A SWAP2 SWAP1 PUSH2 0x7C4 JUMP JUMPDEST PUSH2 0x43A JUMP JUMPDEST STOP JUMPDEST PUSH2 0x1BB PUSH1 0x4 DUP1 CALLDATASIZE SUB DUP2 ADD SWAP1 PUSH2 0x1B6 SWAP2 SWAP1 PUSH2 0x8A6 JUMP JUMPDEST PUSH2 0x512 JUMP JUMPDEST PUSH1 0x40 MLOAD PUSH2 0x1C8 SWAP2 SWAP1 PUSH2 0x901 JUMP JUMPDEST PUSH1 0x40 MLOAD DUP1 SWAP2 SUB SWAP1 RETURN JUMPDEST PUSH2 0x1D9 PUSH2 0x62F JUMP JUMPDEST PUSH1 0x40 MLOAD PUSH2 0x1E6 SWAP2 SWAP1 PUSH2 0x741 JUMP JUMPDEST PUSH1 0x40 MLOAD DUP1 SWAP2 SUB SWAP1 RETURN JUMPDEST PUSH1 0x0 DUP1 SLOAD PUSH2 0x1FC SWAP1 PUSH2 0x94B JUMP JUMPDEST DUP1 PUSH1 0x1F ADD PUSH1 0x20 DUP1 SWAP2 DIV MUL PUSH1 0x20 ADD PUSH1 0x40 MLOAD SWAP1 DUP2 ADD PUSH1 0x40 MSTORE DUP1 SWAP3 SWAP2 SWAP1 DUP2 DUP2 MSTORE PUSH1 0x20 ADD DUP3 DUP1 SLOAD PUSH2 0x228 SWAP1 PUSH2 0x94B JUMP JUMPDEST DUP1 ISZERO PUSH2 0x275 JUMPI DUP1 PUSH1 0x1F LT PUSH2 0x24A JUMPI PUSH2 0x100 DUP1 DUP4 SLOAD DIV MUL DUP4 MSTORE SWAP2 PUSH1 0x20 ADD SWAP2 PUSH2 0x275 JUMP JUMPDEST DUP3 ADD SWAP2 SWAP1 PUSH1 0x0 MSTORE PUSH1 0x20 PUSH1 0x0 KECCAK256 SWAP1 JUMPDEST DUP2 SLOAD DUP2 MSTORE SWAP1 PUSH1 0x1 ADD SWAP1 PUSH1 0x20 ADD DUP1 DUP4 GT PUSH2 0x258 JUMPI DUP3 SWAP1 SUB PUSH1 0x1F AND DUP3 ADD SWAP2 JUMPDEST POP POP POP POP POP DUP2 JUMP JUMPDEST PUSH1 0x3 SLOAD DUP2 JUMP JUMPDEST PUSH1 0x2 PUSH1 0x0 SWAP1 SLOAD SWAP1 PUSH2 0x100 EXP SWAP1 DIV PUSH1 0xFF AND DUP2 JUMP JUMPDEST DUP1 PUSH1 0x4 PUSH1 0x0 CALLER PUSH20 0xFFFFFFFFFFFFFFFFFFFFFFFFFFFFFFFFFFFFFFFF AND PUSH20 0xFFFFFFFFFFFFFFFFFFFFFFFFFFFFFFFFFFFFFFFF AND DUP2 MSTORE PUSH1 0x20 ADD SWAP1 DUP2 MSTORE PUSH1 0x20 ADD PUSH1 0x0 KECCAK256 PUSH1 0x0 DUP3 DUP3 SLOAD PUSH2 0x2E5 SWAP2 SWAP1 PUSH2 0x9AB JUMP JUMPDEST SWAP3 POP POP DUP2 SWAP1 SSTORE POP DUP1 PUSH1 0x3 PUSH1 0x0 DUP3 DUP3 SLOAD PUSH2 0x2FE SWAP2 SWAP1 PUSH2 0x9AB JUMP JUMPDEST SWAP3 POP POP DUP2 SWAP1 SSTORE POP PUSH1 0x0 PUSH20 0xFFFFFFFFFFFFFFFFFFFFFFFFFFFFFFFFFFFFFFFF AND CALLER PUSH20 0xFFFFFFFFFFFFFFFFFFFFFFFFFFFFFFFFFFFFFFFF AND PUSH32 0xDDF252AD1BE2C89B69C2B068FC378DAA952BA7F163C4A11628F55A4DF523B3EF DUP4 PUSH1 0x40 MLOAD PUSH2 0x363 SWAP2 SWAP1 PUSH2 0x741 JUMP JUMPDEST PUSH1 0x40 MLOAD DUP1 SWAP2 SUB SWAP1 LOG3 POP JUMP JUMPDEST PUSH1 0x4 PUSH1 0x20 MSTORE DUP1 PUSH1 0x0 MSTORE PUSH1 0x40 PUSH1 0x0 KECCAK256 PUSH1 0x0 SWAP2 POP SWAP1 POP SLOAD DUP2 JUMP JUMPDEST PUSH1 0x5 PUSH1 0x0 SWAP1 SLOAD SWAP1 PUSH2 0x100 EXP SWAP1 DIV PUSH20 0xFFFFFFFFFFFFFFFFFFFFFFFFFFFFFFFFFFFFFFFF AND DUP2 JUMP JUMPDEST PUSH1 0x1 DUP1 SLOAD PUSH2 0x3B9 SWAP1 PUSH2 0x94B JUMP JUMPDEST DUP1 PUSH1 0x1F ADD PUSH1 0x20 DUP1 SWAP2 DIV MUL PUSH1 0x20 ADD PUSH1 0x40 MLOAD SWAP1 DUP2 ADD PUSH1 0x40 MSTORE DUP1 SWAP3 SWAP2 SWAP1 DUP2 DUP2 MSTORE PUSH1 0x20 ADD DUP3 DUP1 SLOAD PUSH2 0x3E5 SWAP1 PUSH2 0x94B JUMP JUMPDEST DUP1 ISZERO PUSH2 0x432 JUMPI DUP1 PUSH1 0x1F LT PUSH2 0x407 JUMPI PUSH2 0x100 DUP1 DUP4 SLOAD DIV MUL DUP4 MSTORE SWAP2 PUSH1 0x20 ADD SWAP2 PUSH2 0x432 JUMP JUMPDEST DUP3 ADD SWAP2 SWAP1 PUSH1 0x0 MSTORE PUSH1 0x20 PUSH1 0x0 KECCAK256 SWAP1 JUMPDEST DUP2 SLOAD DUP2 MSTORE SWAP1 PUSH1 0x1 ADD SWAP1 PUSH1 0x20 ADD DUP1 DUP4 GT PUSH2 0x415 JUMPI DUP3 SWAP1 SUB PUSH1 0x1F AND DUP3 ADD SWAP2 JUMPDEST POP POP POP POP POP DUP2 JUMP JUMPDEST DUP1 PUSH1 0x4 PUSH1 0x0 CALLER PUSH20 0xFFFFFFFFFFFFFFFFFFFFFFFFFFFFFFFFFFFFFFFF AND PUSH20 0xFFFFFFFFFFFFFFFFFFFFFFFFFFFFFFFFFFFFFFFF AND DUP2 MSTORE PUSH1 0x20 ADD SWAP1 DUP2 MSTORE PUSH1 0x20 ADD PUSH1 0x0 KECCAK256 PUSH1 0x0 DUP3 DUP3 SLOAD PUSH2 0x489 SWAP2 SWAP1 PUSH2 0x9DF JUMP JUMPDEST SWAP3 POP POP DUP2 SWAP1 SSTORE POP DUP1 PUSH1 0x3 PUSH1 0x0 DUP3 DUP3 SLOAD PUSH2 0x4A2 SWAP2 SWAP1 PUSH2 0x9DF JUMP JUMPDEST SWAP3 POP POP DUP2 SWAP1 SSTORE POP CALLER PUSH20 0xFFFFFFFFFFFFFFFFFFFFFFFFFFFFFFFFFFFFFFFF AND PUSH1 0x0 PUSH20 0xFFFFFFFFFFFFFFFFFFFFFFFFFFFFFFFFFFFFFFFF AND PUSH32 0xDDF252AD1BE2C89B69C2B068FC378DAA952BA7F163C4A11628F55A4DF523B3EF DUP4 PUSH1 0x40 MLOAD PUSH2 0x507 SWAP2 SWAP1 PUSH2 0x741 JUMP JUMPDEST PUSH1 0x40 MLOAD DUP1 SWAP2 SUB SWAP1 LOG3 POP JUMP JUMPDEST PUSH1 0x0 DUP2 PUSH1 0x4 PUSH1 0x0 CALLER PUSH20 0xFFFFFFFFFFFFFFFFFFFFFFFFFFFFFFFFFFFFFFFF AND PUSH20 0xFFFFFFFFFFFFFFFFFFFFFFFFFFFFFFFFFFFFFFFF AND DUP2 MSTORE PUSH1 0x20 ADD SWAP1 DUP2 MSTORE PUSH1 0x20 ADD PUSH1 0x0 KECCAK256 PUSH1 0x0 DUP3 DUP3 SLOAD PUSH2 0x563 SWAP2 SWAP1 PUSH2 0x9AB JUMP JUMPDEST SWAP3 POP POP DUP2 SWAP1 SSTORE POP DUP2 PUSH1 0x4 PUSH1 0x0 DUP6 PUSH20 0xFFFFFFFFFFFFFFFFFFFFFFFFFFFFFFFFFFFFFFFF AND PUSH20 0xFFFFFFFFFFFFFFFFFFFFFFFFFFFFFFFFFFFFFFFF AND DUP2 MSTORE PUSH1 0x20 ADD SWAP1 DUP2 MSTORE PUSH1 0x20 ADD PUSH1 0x0 KECCAK256 PUSH1 0x0 DUP3 DUP3 SLOAD PUSH2 0x5B9 SWAP2 SWAP1 PUSH2 0x9DF JUMP JUMPDEST SWAP3 POP POP DUP2 SWAP1 SSTORE POP DUP3 PUSH20 0xFFFFFFFFFFFFFFFFFFFFFFFFFFFFFFFFFFFFFFFF AND CALLER PUSH20 0xFFFFFFFFFFFFFFFFFFFFFFFFFFFFFFFFFFFFFFFF AND PUSH32 0xDDF252AD1BE2C89B69C2B068FC378DAA952BA7F163C4A11628F55A4DF523B3EF DUP5 PUSH1 0x40 MLOAD PUSH2 0x61D SWAP2 SWAP1 PUSH2 0x741 JUMP JUMPDEST PUSH1 0x40 MLOAD DUP1 SWAP2 SUB SWAP1 LOG3 PUSH1 0x1 SWAP1 POP SWAP3 SWAP2 POP POP JUMP JUMPDEST PUSH1 0x0 PUSH1 0x4 PUSH1 0x0 CALLER PUSH20 0xFFFFFFFFFFFFFFFFFFFFFFFFFFFFFFFFFFFFFFFF AND PUSH20 0xFFFFFFFFFFFFFFFFFFFFFFFFFFFFFFFFFFFFFFFF AND DUP2 MSTORE PUSH1 0x20 ADD SWAP1 DUP2 MSTORE PUSH1 0x20 ADD PUSH1 0x0 KECCAK256 SLOAD SWAP1 POP SWAP1 JUMP JUMPDEST PUSH1 0x0 DUP2 MLOAD SWAP1 POP SWAP2 SWAP1 POP JUMP JUMPDEST PUSH1 0x0 DUP3 DUP3 MSTORE PUSH1 0x20 DUP3 ADD SWAP1 POP SWAP3 SWAP2 POP POP JUMP JUMPDEST PUSH1 0x0 JUMPDEST DUP4 DUP2 LT ISZERO PUSH2 0x6B0 JUMPI DUP1 DUP3 ADD MLOAD DUP2 DUP5 ADD MSTORE PUSH1 0x20 DUP2 ADD SWAP1 POP PUSH2 0x695 JUMP JUMPDEST PUSH1 0x0 DUP5 DUP5 ADD MSTORE POP POP POP POP JUMP JUMPDEST PUSH1 0x0 PUSH1 0x1F NOT PUSH1 0x1F DUP4 ADD AND SWAP1 POP SWAP2 SWAP1 POP JUMP JUMPDEST PUSH1 0x0 PUSH2 0x6D8 DUP3 PUSH2 0x676 JUMP JUMPDEST PUSH2 0x6E2 DUP2 DUP6 PUSH2 0x681 JUMP JUMPDEST SWAP4 POP PUSH2 0x6F2 DUP2 DUP6 PUSH1 0x20 DUP7 ADD PUSH2 0x692 JUMP JUMPDEST PUSH2 0x6FB DUP2 PUSH2 0x6BC JUMP JUMPDEST DUP5 ADD SWAP2 POP POP SWAP3 SWAP2 POP POP JUMP JUMPDEST PUSH1 0x0 PUSH1 0x20 DUP3 ADD SWAP1 POP DUP2 DUP2 SUB PUSH1 0x0 DUP4 ADD MSTORE PUSH2 0x720 DUP2 DUP5 PUSH2 0x6CD JUMP JUMPDEST SWAP1 POP SWAP3 SWAP2 POP POP JUMP JUMPDEST PUSH1 0x0 DUP2 SWAP1 POP SWAP2 SWAP1 POP JUMP JUMPDEST PUSH2 0x73B DUP2 PUSH2 0x728 JUMP JUMPDEST DUP3 MSTORE POP POP JUMP JUMPDEST PUSH1 0x0 PUSH1 0x20 DUP3 ADD SWAP1 POP PUSH2 0x756 PUSH1 0x0 DUP4 ADD DUP5 PUSH2 0x732 JUMP JUMPDEST SWAP3 SWAP2 POP POP JUMP JUMPDEST PUSH1 0x0 PUSH1 0xFF DUP3 AND SWAP1 POP SWAP2 SWAP1 POP JUMP JUMPDEST PUSH2 0x772 DUP2 PUSH2 0x75C JUMP JUMPDEST DUP3 MSTORE POP POP JUMP JUMPDEST PUSH1 0x0 PUSH1 0x20 DUP3 ADD SWAP1 POP PUSH2 0x78D PUSH1 0x0 DUP4 ADD DUP5 PUSH2 0x769 JUMP JUMPDEST SWAP3 SWAP2 POP POP JUMP JUMPDEST PUSH1 0x0 DUP1 REVERT JUMPDEST PUSH2 0x7A1 DUP2 PUSH2 0x728 JUMP JUMPDEST DUP2 EQ PUSH2 0x7AC JUMPI PUSH1 0x0 DUP1 REVERT JUMPDEST POP JUMP JUMPDEST PUSH1 0x0 DUP2 CALLDATALOAD SWAP1 POP PUSH2 0x7BE DUP2 PUSH2 0x798 JUMP JUMPDEST SWAP3 SWAP2 POP POP JUMP JUMPDEST PUSH1 0x0 PUSH1 0x20 DUP3 DUP5 SUB SLT ISZERO PUSH2 0x7DA JUMPI PUSH2 0x7D9 PUSH2 0x793 JUMP JUMPDEST JUMPDEST PUSH1 0x0 PUSH2 0x7E8 DUP5 DUP3 DUP6 ADD PUSH2 0x7AF JUMP JUMPDEST SWAP2 POP POP SWAP3 SWAP2 POP POP JUMP JUMPDEST PUSH1 0x0 PUSH20 0xFFFFFFFFFFFFFFFFFFFFFFFFFFFFFFFFFFFFFFFF DUP3 AND SWAP1 POP SWAP2 SWAP1 POP JUMP JUMPDEST PUSH1 0x0 PUSH2 0x81C DUP3 PUSH2 0x7F1 JUMP JUMPDEST SWAP1 POP SWAP2 SWAP1 POP JUMP JUMPDEST PUSH2 0x82C DUP2 PUSH2 0x811 JUMP JUMPDEST DUP2 EQ PUSH2 0x837 JUMPI PUSH1 0x0 DUP1 REVERT JUMPDEST POP JUMP JUMPDEST PUSH1 0x0 DUP2 CALLDATALOAD SWAP1 POP PUSH2 0x849 DUP2 PUSH2 0x823 JUMP JUMPDEST SWAP3 SWAP2 POP POP JUMP JUMPDEST PUSH1 0x0 PUSH1 0x20 DUP3 DUP5 SUB SLT ISZERO PUSH2 0x865 JUMPI PUSH2 0x864 PUSH2 0x793 JUMP JUMPDEST JUMPDEST PUSH1 0x0 PUSH2 0x873 DUP5 DUP3 DUP6 ADD PUSH2 0x83A JUMP JUMPDEST SWAP2 POP POP SWAP3 SWAP2 POP POP JUMP JUMPDEST PUSH2 0x885 DUP2 PUSH2 0x811 JUMP JUMPDEST DUP3 MSTORE POP POP JUMP JUMPDEST PUSH1 0x0 PUSH1 0x20 DUP3 ADD SWAP1 POP PUSH2 0x8A0 PUSH1 0x0 DUP4 ADD DUP5 PUSH2 0x87C JUMP JUMPDEST SWAP3 SWAP2 POP POP JUMP JUMPDEST PUSH1 0x0 DUP1 PUSH1 0x40 DUP4 DUP6 SUB SLT ISZERO PUSH2 0x8BD JUMPI PUSH2 0x8BC PUSH2 0x793 JUMP JUMPDEST JUMPDEST PUSH1 0x0 PUSH2 0x8CB DUP6 DUP3 DUP7 ADD PUSH2 0x83A JUMP JUMPDEST SWAP3 POP POP PUSH1 0x20 PUSH2 0x8DC DUP6 DUP3 DUP7 ADD PUSH2 0x7AF JUMP JUMPDEST SWAP2 POP POP SWAP3 POP SWAP3 SWAP1 POP JUMP JUMPDEST PUSH1 0x0 DUP2 ISZERO ISZERO SWAP1 POP SWAP2 SWAP1 POP JUMP JUMPDEST PUSH2 0x8FB DUP2 PUSH2 0x8E6 JUMP JUMPDEST DUP3 MSTORE POP POP JUMP JUMPDEST PUSH1 0x0 PUSH1 0x20 DUP3 ADD SWAP1 POP PUSH2 0x916 PUSH1 0x0 DUP4 ADD DUP5 PUSH2 0x8F2 JUMP JUMPDEST SWAP3 SWAP2 POP POP JUMP JUMPDEST PUSH32 0x4E487B7100000000000000000000000000000000000000000000000000000000 PUSH1 0x0 MSTORE PUSH1 0x22 PUSH1 0x4 MSTORE PUSH1 0x24 PUSH1 0x0 REVERT JUMPDEST PUSH1 0x0 PUSH1 0x2 DUP3 DIV SWAP1 POP PUSH1 0x1 DUP3 AND DUP1 PUSH2 0x963 JUMPI PUSH1 0x7F DUP3 AND SWAP2 POP JUMPDEST PUSH1 0x20 DUP3 LT DUP2 SUB PUSH2 0x976 JUMPI PUSH2 0x975 PUSH2 0x91C JUMP JUMPDEST JUMPDEST POP SWAP2 SWAP1 POP JUMP JUMPDEST PUSH32 0x4E487B7100000000000000000000000000000000000000000000000000000000 PUSH1 0x0 MSTORE PUSH1 0x11 PUSH1 0x4 MSTORE PUSH1 0x24 PUSH1 0x0 REVERT JUMPDEST PUSH1 0x0 PUSH2 0x9B6 DUP3 PUSH2 0x728 JUMP JUMPDEST SWAP2 POP PUSH2 0x9C1 DUP4 PUSH2 0x728 JUMP JUMPDEST SWAP3 POP DUP3 DUP3 SUB SWAP1 POP DUP2 DUP2 GT ISZERO PUSH2 0x9D9 JUMPI PUSH2 0x9D8 PUSH2 0x97C JUMP JUMPDEST JUMPDEST SWAP3 SWAP2 POP POP JUMP JUMPDEST PUSH1 0x0 PUSH2 0x9EA DUP3 PUSH2 0x728 JUMP JUMPDEST SWAP2 POP PUSH2 0x9F5 DUP4 PUSH2 0x728 JUMP JUMPDEST SWAP3 POP DUP3 DUP3 ADD SWAP1 POP DUP1 DUP3 GT ISZERO PUSH2 0xA0D JUMPI PUSH2 0xA0C PUSH2 0x97C JUMP JUMPDEST JUMPDEST SWAP3 SWAP2 POP POP JUMP INVALID LOG2 PUSH5 0x6970667358 0x22 SLT KECCAK256 0x49 0x4C 0xAF SWAP5 DUP10 0xD5 0x49 0x4A EXTCODECOPY SDIV 0xB1 CREATE2 0xBB DUP9 RETURNDATASIZE 0x1E SWAP10 XOR 0xC2 AND SWAP11 SWAP13 0x26 0xAD PUSH16 0x6AB80825C19FAB64736F6C6343000812 STOP CALLER "
				},
				"gasEstimates": {
					"creation": {
						"codeDepositCost": "526600",
						"executionCost": "infinite",
						"totalCost": "infinite"
					},
					"external": {
						"balanceOf(address)": "2903",
						"burn(uint256)": "infinite",
						"decimals()": "2516",
						"getBalanceOf()": "2614",
						"mint(uint256)": "infinite",
						"name()": "infinite",
						"owner()": "2514",
						"symbol()": "infinite",
						"totalSupply()": "2452",
						"transfer(address,uint256)": "infinite"
					}
				},
				"methodIdentifiers": {
					"balanceOf(address)": "70a08231",
					"burn(uint256)": "42966c68",
					"decimals()": "313ce567",
					"getBalanceOf()": "ecbde5e6",
					"mint(uint256)": "a0712d68",
					"name()": "06fdde03",
					"owner()": "8da5cb5b",
					"symbol()": "95d89b41",
					"totalSupply()": "18160ddd",
					"transfer(address,uint256)": "a9059cbb"
				}
			},
			"storageLayout": {
				"storage": [
					{
						"astId": 44,
						"contract": "contracts/ECR20_PToken-TestToken_simplified_update_2.0(trade).sol:ECR20_TestToken",
						"label": "name",
						"offset": 0,
						"slot": "0",
						"type": "t_string_storage"
					},
					{
						"astId": 47,
						"contract": "contracts/ECR20_PToken-TestToken_simplified_update_2.0(trade).sol:ECR20_TestToken",
						"label": "symbol",
						"offset": 0,
						"slot": "1",
						"type": "t_string_storage"
					},
					{
						"astId": 50,
						"contract": "contracts/ECR20_PToken-TestToken_simplified_update_2.0(trade).sol:ECR20_TestToken",
						"label": "decimals",
						"offset": 0,
						"slot": "2",
						"type": "t_uint8"
					},
					{
						"astId": 53,
						"contract": "contracts/ECR20_PToken-TestToken_simplified_update_2.0(trade).sol:ECR20_TestToken",
						"label": "totalSupply",
						"offset": 0,
						"slot": "3",
						"type": "t_uint256"
					},
					{
						"astId": 57,
						"contract": "contracts/ECR20_PToken-TestToken_simplified_update_2.0(trade).sol:ECR20_TestToken",
						"label": "balanceOf",
						"offset": 0,
						"slot": "4",
						"type": "t_mapping(t_address,t_uint256)"
					},
					{
						"astId": 59,
						"contract": "contracts/ECR20_PToken-TestToken_simplified_update_2.0(trade).sol:ECR20_TestToken",
						"label": "owner",
						"offset": 0,
						"slot": "5",
						"type": "t_address"
					},
					{
						"astId": 62,
						"contract": "contracts/ECR20_PToken-TestToken_simplified_update_2.0(trade).sol:ECR20_TestToken",
						"label": "current_totalsupply",
						"offset": 0,
						"slot": "6",
						"type": "t_uint256"
					}
				],
				"types": {
					"t_address": {
						"encoding": "inplace",
						"label": "address",
						"numberOfBytes": "20"
					},
					"t_mapping(t_address,t_uint256)": {
						"encoding": "mapping",
						"key": "t_address",
						"label": "mapping(address => uint256)",
						"numberOfBytes": "32",
						"value": "t_uint256"
					},
					"t_string_storage": {
						"encoding": "bytes",
						"label": "string",
						"numberOfBytes": "32"
					},
					"t_uint256": {
						"encoding": "inplace",
						"label": "uint256",
						"numberOfBytes": "32"
					},
					"t_uint8": {
						"encoding": "inplace",
						"label": "uint8",
						"numberOfBytes": "1"
					}
				}
			},
			"userdoc": {
				"kind": "user",
				"methods": {},
				"version": 1
			}
		}
	}
}